:100000000C9492000C94BA000C94BA000C94BA00B0
:100010000C94BA000C94BA000C94BA000C94BA0078
:100020000C94BA000C94BA000C940D070C947C0745
:100030000C94BA000C94BA000C94BA000C94BA0058
:100040000C94BA000C94BA000C94D50A0C94090ACA
:100050000C94BA000C94BA000C94BA000C94C30629
:100060000C94BA000C94BA000C94BA000C94BA0028
:100070000C94BA000C94AE090C94BA000C94BA001B
:100080000C94BA000C94BA000C94BA000C94BA0008
:100090000C94BA000C94BA000C943D0C0C94CD0B4B
:1000A0000C94A20B0C94BA000C94BA00080B00023A
:1000B0000202000009040000010202000005240001
:1000C0001001052401010104240206052406000193
:1000D0000705810310004009040100020A00000026
:1000E00007050202400000070583024000000403E8
:1000F000090412010002EF0201404F1B06920001A9
:1001000001020301537061726B46756E005370619A
:10011000726B46756E2050726F204D6963726F006E
:100120009D0C601611241FBECFEFDAE0DEBFCDBFFD
:1001300027E0A0E5B6E001C01D92A335B207E1F7C4
:1001400016E0A0E0B1E0ECE5F2E302C005900D920C
:10015000A035B107D9F710E0C1E9D0E004C021977C
:10016000FE010E940F17C039D107C9F70E94BE0CCB
:100170000C9421190C9400002FB7F89483E080931D
:10018000E9009091E800892F807295FF04C090915A
:10019000F20080E4891B2FBF0895FC018091F806CE
:1001A000882311F13FB7F89482E08093E900209111
:1001B000F200822F90E01816190614F481E090E006
:1001C000882339F0289844E64093F7064091F100DF
:1001D0004083222339F02091F200211103C02BE645
:1001E0002093E8003FBF08958FEF9FEF089580911F
:1001F000EF0681110DC082E08093EB0684E08093CE
:10020000EC061092EE061092ED0681E08093EF0668
:100210008BEE96E008953FB7F8948091E7069091B1
:10022000E806A091E906B091EA0626B5A89B05C0AC
:100230002F3F19F00196A11DB11D3FBFBA2FA92F65
:10024000982F8827BC01CD01620F711D811D911D62
:1002500042E0660F771F881F991F4A95D1F70895CE
:10026000CF92DF92EF92FF920E940B016B017C0113
:100270000E940B016C197D098E099F09683E73402D
:1002800081059105A8F3FF90EF90DF90CF9008953E
:100290000895409162065091630620916006309166
:1002A000610642175307B4F49091E8009570E1F3AA
:1002B0009091E80092FD19C08093F1008091620650
:1002C0009091630601968F739927892B19F48EEF0D
:1002D0008093E80080916206909163060196909366
:1002E00063068093620681E0089580E00895EF92AE
:1002F000FF920F931F93CF93DF93F82E192FE62EC3
:10030000042F81E0860F880F0E94490183E00E943C
:100310004901CF2DD12FEC0EFD2EF11CCE15DF059E
:10032000B9F007FF13C0FE0184910E944901182F04
:1003300080E00E944901812321968111EFCFDF9156
:10034000CF911F910F91FF90EF9008958881EDCF8D
:1003500081E0F5CFDF92EF92FF920F931F93CF933F
:10036000DF93D82E8A01EB017B01E40EF51ECE153A
:10037000DF0559F0D7FE12C0FE0184910E944901A9
:1003800021968111F4CF0FEF1FEFC801DF91CF91BC
:100390001F910F91FF90EF90DF9008958881EECF2D
:1003A0000F931F93CF93DF931F92CDB7DEB782E0F9
:1003B000898342E450E06CEA70E080E80E94AA0180
:1003C0000E94F700DC0112960D911C910115110598
:1003D00089F0D801ED91FC910280F381E02DBE01FE
:1003E0006F5F7F4FC801099597FD04C0F801008534
:1003F0001185ECCF89810F90DF91CF911F910F91E3
:100400000895615030F02091F100FC0120830196A5
:10041000F8CF289884E68093F70608958F929F92EC
:10042000AF92BF92CF92DF92EF92FF920F931F9302
:10043000CF93DF936C017B018A0180910B018823AC
:1004400009F458C08091F806882309F453C08091BC
:10045000660680FF05C08091E00082608093E00026
:10046000E801B12C8AEFA82E93E0892E2AE3922E80
:10047000209711F4BB20B9F10E94BC00811106C085
:10048000AA94AA20B9F10E943001F2CF8C171D0660
:1004900011F00CF08C2F9FB7F8948092E900209116
:1004A000E80025FD02C09FBFE3CF282F30E0C21B2C
:1004B000D30BF701815020F041914093F100FACF26
:1004C000E20EF31EBB2021F09092E800B12CEBCF9E
:1004D0008091E80085FDE7CF9092E800BB24B394BB
:1004E000209709F3F3CF5D9884E680936506101694
:1004F00011063CF081E090E0F6019383828310E0E6
:1005000000E0C801DF91CF911F910F91FF90EF9014
:10051000DF90CF90BF90AF909F908F900895CF9332
:10052000DF931F92CDB7DEB76983DC01ED91FC91BB
:100530000280F381E02D41E050E0BE016F5F7F4F0C
:1005400009950F90DF91CF91089583E08093E900A2
:100550008091F200882319F08AE38093E8000895DF
:100560000E94BC0090E00895CF93DF931F92CDB717
:10057000DEB7FC018485958597FD08C02FEF3FEF1E
:10058000358724870F90DF91CF910895CE01019692
:100590000E94CD00019719F4898190E0F3CF8FEF8D
:1005A0009FEFF0CF0F931F93CF93DF931F92CDB7A1
:1005B000DEB78C01FC018485958597FF0BC0CE01C9
:1005C00001960E94CD00019771F4898190E0F801B5
:1005D00095878487F801848595850F90DF91CF9169
:1005E0001F910F9108958FEF9FEFF1CFFC0184854C
:1005F000958597FD0BC09FB7F89482E08093E90042
:100600008091F2009FBF90E0019608959FB7F89403
:1006100082E08093E9008091F2009FBF90E008950E
:10062000CF93C0910E01F0910D018FEF90E0DC01AE
:10063000AF1BB10950910C01851B9109E091BB06DC
:1006400041E0EC1708F440E02091B70630E0A29FAB
:10065000B001A39F700DB29F700D1124FE9F600D1D
:10066000711D11247093B306829FB001839F700D9A
:10067000929F700D11245E9F600D711D1124709367
:10068000AF06E091BC06EC1708F440E02091B806F4
:1006900030E0A29FB001A39F700DB29F700D112496
:1006A000FE9F600D711D11247093B406289FB00148
:1006B000299F700D389F700D1124E59F600D711DED
:1006C00011247093B0064093A206CF9108959091A3
:1006D000DB0621E030E0981711F023E030E0E091F4
:1006E0001901F0E0EE0FFF1FEE5CFA4F40815181DF
:1006F00050935F0640935E06E0915E06F0915F06C0
:10070000E20FF31F9181E0915E06F0915F06408158
:10071000491710F09F3FD1F49091DB062AE030E0BA
:10072000981711F02BE030E0E0915E06F0915F0643
:10073000E20FF31F8181E0915E06F0915F069081E8
:10074000981708F4D6C08F3F09F4D3C0F8944091AD
:100750008400509185008091DA06813009F0CAC08A
:1007600010926B0610926A06660F771F70936906E7
:1007700060936806809181008860809381008091F9
:100780006806909169069093890080938800809113
:1007900068069091690660917806709179068617CF
:1007A000970720F4109279061092780660917406EB
:1007B000709175068617970720F4109275061092AF
:1007C00074068417950730F4109285001092840007
:1007D00050E040E078948091170190911801880FC3
:1007E000991F840F951F60915E0670915F0640917E
:1007F0005C0650915D0664177507A1F010927B06A8
:1008000010927A0640916F004B7F40936F00B29A2E
:10081000109277061092760640916F00477F4093C2
:100820006F00B39A40915E0650915F0650935D064B
:1008300040935C06E0915C06F0915D06E20FF31FC9
:1008400041814F3FC9F0E0915C06F0915D06508117
:10085000451790F4E0915C06F0915D0654E2459FE7
:10086000E00DF11D1124458556854130510521F4D7
:1008700047855089841B950B409168065091690605
:100880006091DA066130E1F1A901477F43305105FB
:1008900009F054C040917A0650917B06452BD1F562
:1008A000F89490938B0080938A00B29A40916F00E5
:1008B000446040936F0030937B0620937A06309318
:1008C0005B0620935A0690937906809378064091B0
:1008D000DA06413069F42B303105C9F021E030E00F
:1008E00030935906209358069093750680937406AA
:1008F0007894089580918100877F809381006ACFEA
:100900004817590708F0C0CF841B950BB9CF2AE0D0
:1009100030E0E6CF4091DA064111EBCF409172060C
:1009200050917306452B29F7F89430937306209362
:1009300072069093710680937006DACF21303105EC
:1009400019F02A303105A9F64091760650917706C4
:10095000452B69F5F89490938D0080938C00B39AA1
:1009600040916F00486040936F003093770620936A
:100970007606309359062093580690937506809317
:1009800074064091DA06413009F0B2CF2A303105C1
:1009900059F023E030E030935B0620935A069093A1
:1009A000790680937806A4CF2BE030E0F4CF409115
:1009B000DA0641119ECF40916E0650916F06452B8D
:1009C00009F097CFF89430936F0620936E069093BA
:1009D0006D0680936C068CCF20915C0630915D068D
:1009E00030935106209350062091500630915106C5
:1009F000820F931FFC0191819F3F09F45EC0E0913B
:100A00005006F09151068081981708F056C0209149
:100A1000500630915106F4E29F9FC0011124AC01B1
:100A20004D5E5F4F420F531F50935706409356063B
:100A300041E040935506820F931FFC01818980930A
:100A400052064093AC06F8941092BF001092BF007B
:100A50001092BE0083E08093BF008FEF8093D1009F
:100A6000E0915606F091570680819181909354064B
:100A700080935306009719F5809155069091520680
:100A8000891780F591E0980F9093550690E0880FB4
:100A9000991FE80FF91F90818181909353068093ED
:100AA00054068093BF00809153068093D0008091BC
:100AB00072008062809372000EC00C94880590933F
:100AC000BF00809153068093CF00809172008064B4
:100AD00080937200589A8FEF89BB85E08093C100A4
:100AE0007894089580911301909114019093540685
:100AF000809353069093BF00809153068093D20059
:100B0000809172008068809372001092AC06E3CFEF
:100B100090917E0680917D069817A1F0E0917E0667
:100B2000F0E0EE0FFF1FE158F94F80819181209195
:100B30007E0630E02F5F3F4F2370332720937E06E1
:100B40000C94EC0410927C06089520917C062223DC
:100B500001F1F89420917D0640917E0630E02F5FF0
:100B60003F4F237033274217130689F0E0917D062B
:100B7000F0E0EE0FFF1FE158F94F918380838091E1
:100B80007D0690E001968370992780937D06789486
:100B900008950E94EC0481E080937C060895FC0196
:100BA00001900020E9F73197AF01481B590BBC01B8
:100BB00089EF96E00C940E028BE595E00C94CF053E
:100BC0008F929F92AF92BF920F931F93CF93DF9319
:100BD000CDB7DEB7A1970FB6F894DEBF0FBECDBF7D
:100BE00019A2423008F44AE08E010F5D1F4F842E97
:100BF000912CB12CA12CA50194010E94ED16E62F99
:100C0000B901CA01EA30F4F4E05DD801EE938D0138
:100C1000232B242B252B79F790E080E0109719F0F7
:100C2000CD010E94CF05A1960FB6F894DEBF0FBE8E
:100C3000CDBFDF91CF911F910F91BF90AF909F904B
:100C40008F900895E95CE1CFCF93DF930E94CF05A9
:100C5000EC010E94DC058C0F9D1FDF91CF91089560
:100C60000C94CF05682F70E090E080E04AE00C948F
:100C7000E005BC0190E080E04AE00C94E005CF93F1
:100C8000DF93EC0188819981009711F00E94B117E0
:100C9000198218821D821C821B821A82DF91CF91D9
:100CA0000895FC0180819181009711F00C94B11797
:100CB00008951092CC061092CB061092C80610929E
:100CC000C7061092C4061092C3061092BC0610927A
:100CD000BB068FEF9FEF9093B8068093B7060895F9
:100CE0000F931F93CF93DF93EC0188819981009735
:100CF00059F02A813B812617370730F081E0DF91D8
:100D0000CF911F910F9108958B016F5F7F4F0E94CC
:100D10003A18009759F0998388831B830A832C81A2
:100D20003D81232B59F7FC011082E8CF80E0E7CF0B
:100D3000EF92FF920F931F93CF93DF938C017B0170
:100D4000EB0109900020E9F72197C61BD70BBE01E4
:100D50000E947006811109C0C801DF91CF911F91D7
:100D60000F91FF90EF900C943F06F801D583C48358
:100D7000B70180819181DF91CF911F910F91FF90F9
:100D8000EF900C9400191F920F920FB60F9211243E
:100D90002F933F938F939F93AF93BF938091E306DD
:100DA0009091E406A091E506B091E6063091E20646
:100DB00023E0230F2D3758F50196A11DB11D209377
:100DC000E2068093E3069093E406A093E506B093D1
:100DD000E6068091E7069091E806A091E906B091B9
:100DE000EA060196A11DB11D8093E7069093E806DF
:100DF000A093E906B093EA06BF91AF919F918F91BE
:100E00003F912F910F900FBE0F901F90189526E8DD
:100E1000230F0296A11DB11DD2CF1F920F920FB6C4
:100E20000F9211248F939F938091E1009091E100A4
:100E3000937F9093E10083FF0FC01092E90091E04F
:100E40009093EB001092EC0092E39093ED001092DF
:100E5000F80698E09093F00082FF22C093E0909310
:100E6000E9009091F200992319F09AE39093E80039
:100E700090916506992341F0909165069150909369
:100E80006506911101C05D9A9091F706992341F092
:100E90009091F70691509093F706911101C0289A0E
:100EA00084FF18C08091E2008E7E81608093E20012
:100EB0008091E1008F7E8093E100809166068E7EB6
:100EC0008061809366069F918F910F900FBE0F9067
:100ED0001F90189580FFF7CF8091E2008E7E806191
:100EE0008093E2008091E1008E7E8093E10080910A
:100EF00066068E7E8160E5CF1F920F920FB60F922D
:100F00001124CF92DF92EF92FF920F931F932F93B2
:100F10003F934F935F936F937F938F939F93AF9381
:100F2000BF93EF93FF93CF93DF93CDB7DEB76C976B
:100F3000DEBFCDBF1092E9008091E80083FF25C09D
:100F400068E0CE0145960E94010282EF8093E8009E
:100F50008D8987FF39C09091E80090FFFCCF982FD2
:100F6000907609F034C19E894F89588D2F89F88C6D
:100F7000911131C0803861F5809167068093F1004E
:100F80001092F1008EEF8093E8006C960FB6F89403
:100F9000DEBF0FBECDBFDF91CF91FF91EF91BF912B
:100FA000AF919F918F917F916F915F914F913F9101
:100FB0002F911F910F91FF90EF90DF90CF900F90A6
:100FC0000FBE0F901F9018959EEF9093E800C7CF2B
:100FD0001092F100D5CF913059F48111D3CF413027
:100FE000510581F6809167068D7F80936706CACF91
:100FF000933049F48111C6CF4130510519F68091E3
:1010000067068260F2CF953041F48091E80080FF5E
:10101000FCCF20682093E300B5CF963009F0A9C03B
:101020000B8D1C8D22E01092E90010926306109245
:101030006206F2122EC010926106109260060E94A3
:10104000D0011F8299E09983FA8291E09E8390EA11
:1010500098879AEF99872091620630916306275FFF
:101060003F4F3C832B838D831092E90010926306DF
:1010700010926206109361060093600649E050E00A
:10108000BE016F5F7F4F80E00E94AA010E94D001E5
:1010900079CF10936106009360060E94F700DC018F
:1010A00012960D911C910115110509F451C1D80139
:1010B000ED91FC910480F581E02DBE016B5E7F4FC8
:1010C000C8010995009709F03EC1F8010085118516
:1010D000EACFF3E0FF120EC08F89882309F440C0E5
:1010E000823061F440E862E18DE091E00E94770196
:1010F000811148CF81E28093EB0047CF813029F402
:1011000040E868E084E091E0F1CF833099F70E94F5
:10111000F700DC011296ED90FC908E010F5F1F4FDF
:101120006801E114F10479F0D701ED91FC9106809A
:10113000F781E02DB801C7010995080F111DF701CE
:10114000E084F184EECFD8011C92F60101900020DA
:10115000E9F73197BF016C197D0940E0C601C6CFA0
:101160006EEE70E0FB01449150E080E80E94AA011D
:1011700009CF973009F4BECF983021F481E08093F5
:10118000F10000CF993009F0FDCE837009F0B2CFA5
:10119000E1E4F5E081E031E096E32191222371F072
:1011A0008093E9003093EB00DF0111972C9120939D
:1011B000EC009093ED008F5F873079F78EE7809396
:1011C000EA001092EA008F898093F806DBCE8B8DBF
:1011D0009C8D1092E9001092630610926206909323
:1011E000610680936006898D811192C08E899D89E8
:1011F000913A49F4813209F07DCF47E050E064E054
:1012000071E080E0B3CF913209F074CF833269F49A
:101210008F89988DB0E0A0E0809300019093010148
:10122000A0930201B0930301ADCE803269F48091A6
:10123000E80082FFFCCF67E084E091E00E940102B9
:101240008BEF8093E8009ECE823209F09BCE8F898F
:1012500080930B01EEEFFFE7859194918B3F9C4DBE
:1012600051F1E0E0F8E08091040190910501A09136
:101270000601B0910701803B9440A105B105F1F44E
:1012800080910B0180FD1AC0EE3F8AE0F80789F5D6
:1012900087E797E79183808380916000809364065D
:1012A00088E19BE00FB6F894A895809360000FBE8C
:1012B0009093600067CEEEEFFAE0D5CF8081918108
:1012C0008737974709F05ECEA895809160008861C6
:1012D000809360008091640680936000EE3F2AE076
:1012E000F20789F08091FE0A9091FF0A9183808332
:1012F00049CE808191818737980751F29093FF0AF8
:101300008093FE0AC5CF1092FF0A1092FE0A3ACED1
:101310000E94F700DC0112960D911C910115110538
:1013200009F4E8CED801ED91FC910190F081E02D17
:10133000BE016B5E7F4FC8010995811123CEF80174
:1013400000851185EBCF181619060CF41BCED2CEF2
:10135000F1E0FF12BECE62EF70E004CF1F920F9259
:101360000FB60F9211242F938F939F93EF93FF93B8
:10137000909179008091DC06E0918906F0E081305F
:1013800009F044C0E957F94F8081E0918906F0E007
:10139000E154F94F2081891710F4281720F098178D
:1013A00040F4821730F4E0918906F0E0E154F94FFF
:1013B0008083E0918906F0E0E957F94F90838091AE
:1013C00089068F5F8093890680918906823010F0AC
:1013D0001092890690917C00E0918906F0E0E95B2B
:1013E000FA4F80818770987F892B80937C00809151
:1013F0007A00806480937A00FF91EF919F918F91A2
:101400002F910F900FBE0F901F901895E154F94F38
:10141000D5CF1F920F920FB60F9211242F933F93A7
:101420004F935F936F937F938F939F93AF93BF93EC
:10143000EF93FF9380917606909177068130910526
:1014400009F05CC0E0915C06F0915D0622812F3FBF
:1014500009F44BC0E0915C06F0915D0630812317E2
:1014600008F043C0E0915C06F0915D0634E2239FF2
:10147000E00DF11D11242585368521303105A9F5B2
:101480006785708922E030E03093770620937606F6
:1014900020918C0030918D004091150150911601E2
:1014A000461B570B440F551F240F351F40916806EC
:1014B000509169066091DA066130D1F030938D0069
:1014C00020938C000E94A505FF91EF91BF91AF91F1
:1014D0009F918F917F916F915F914F913F912F914C
:1014E0000F900FBE0F901F90189570E060E0CACF6C
:1014F0004217530718F7241B350BDCCF2091DA066F
:10150000213029F49C01277F2230310571F0209190
:10151000DA06222371F11092770610927606209156
:101520006F00277F20936F00CDCF20916A06309106
:101530006B06203A310578F72F5F3F4F30936B06EB
:1015400020936A0620915A0630915B0630937B0601
:1015500020937A06209178063091790630938B009B
:1015600020938A00B29A20916F00246020936F002C
:10157000D2CF20916E0630916F062115310559F2B8
:10158000309377062093760620916C0630916D0695
:1015900030938D0020938C0010926F0610926E068F
:1015A00010926D0610926C068DCF1F920F920FB69F
:1015B0000F9211242F933F934F935F936F937F93D9
:1015C0008F939F93AF93BF93EF93FF9380917A068E
:1015D00090917B068330910509F05CC0E0915C0638
:1015E000F0915D0624812F3F09F44BC0E0915C0629
:1015F000F0915D063081231708F043C0E0915C064E
:10160000F0915D0634E2239FE00DF11D1124258544
:10161000368521303105A9F56785708924E030E0F1
:1016200030937B0620937A0620918A0030918B00BC
:101630004091150150911601461B570B440F551F41
:10164000240F351F40916806509169066091DA06B3
:101650006130D1F030938B0020938A000E94A50561
:10166000FF91EF91BF91AF919F918F917F916F917A
:101670005F914F913F912F910F900FBE0F901F9050
:10168000189570E060E0CACF4217530718F7241B83
:10169000350BDCCF2091DA06213031F4843091050E
:1016A00089F08B30910571F02091DA06222371F1D7
:1016B00010927B0610927A0620916F002B7F209368
:1016C0006F00CCCF20916A0630916B06203A31052D
:1016D00078F72F5F3F4F30936B0620936A06209177
:1016E000580630915906309377062093760620915C
:1016F00074063091750630938D0020938C00B39A58
:1017000020916F00286020936F00D2CF2091720645
:10171000309173062115310559F230937B062093E1
:101720007A06209170063091710630938B002093D9
:101730008A0010927306109272061092710610922F
:1017400070068CCF1F920F920FB60F9211242F9319
:101750003F934F935F936F937F938F939F93AF9339
:10176000BF93EF93FF931092C1000E948805E2E7B8
:10177000F0E080818F778083FF91EF91BF91AF91EF
:101780009F918F917F916F915F914F913F912F9199
:101790000F900FBE0F901F9018951F920F920FB6CB
:1017A0000F9211242F933F934F935F938F939F93A7
:1017B000EF93FF93589A20915606309157068091E7
:1017C000550691E0980F9093550690E0880F991F69
:1017D000820F931FFC0180819181209153063091EB
:1017E0005406820F931F90935406809353064091A2
:1017F000BE005091BF009C0125503109421753078C
:10180000F0F49093BF00CE9A809153068093CF005E
:1018100080917200806480937200809172008F7D4D
:1018200080937200FF91EF919F918F915F914F9103
:101830003F912F910F900FBE0F901F9018955898C1
:101840008091130190911401209153063091540618
:10185000820F931F90935406809353069093BF007A
:10186000CF9A809153068093D20080917200806855
:10187000809372001092AC06D0CF1F920F920FB6D9
:101880000F9211242F933F938F939F93EF93FF9386
:1018900058988091550690915206209153063091A8
:1018A0005406891788F5E0915606F091570691E0A5
:1018B000980F9093550690E0880F991FE80FF91F35
:1018C00080819181820F931F9093540680935306D9
:1018D0009093BF00CD9A809153068093D000809161
:1018E0007200806280937200809172008F7B80937F
:1018F0007200FF91EF919F918F913F912F910F90E7
:101900000FBE0F901F9018958091130190911401B4
:10191000820F931F90935406809353069093BF00B9
:10192000CF9A809153068093D20080917200806894
:10193000809372001092AC06D7CFE9EFF6E01382E5
:10194000128288EE93E0A0E0B0E084839583A683C2
:10195000B7838DE495E0918380838FEF9FEF958728
:101960008487E9E4F7E011821082138212821582E3
:1019700014826DE575E0CF010C949806CF93DF9348
:10198000CDB7DEB7A1970FB6F894DEBF0FBECDBFBF
:10199000789484B5826084BD84B5816084BD85B54A
:1019A000826085BD85B5816085BD80916E00816056
:1019B00080936E00109281008091810082608093FC
:1019C00081008091810081608093810080918000FE
:1019D000816080938000809191008260809391006B
:1019E000809191008160809391008091900081604E
:1019F000809390008091C10084608093C1008091A9
:101A0000C10082608093C1008091C1008160809399
:101A1000C1008091C30081608093C3008091C000A9
:101A200082608093C0008091C20081608093C20078
:101A300080917A00846080937A0080917A0082603D
:101A400080937A0080917A00816080937A008091FF
:101A50007A00806880937A001092F80610926706E8
:101A6000109266068091D70081608093D70080EA4B
:101A70008093D80089B5806189BD89B5826089BDB0
:101A800009B400FEFDCF0E9430018091D8008F7C08
:101A900080618093D8008091E000807F8093E00097
:101AA0008091E1008E7E8093E1008DE08093E200E2
:101AB000559A209A0FEF1FEF109306070093050722
:101AC0008EE595E00E942406509A86E080931901E5
:101AD00088E59BE1909316018093150184EF91E0D6
:101AE00090931801809317018EE190E09093140178
:101AF000809313011092DB061092AC0610928006C0
:101B000010927F061092820610928106109284062F
:101B100010928306109286061092850610927E0619
:101B200010927D0610927C0610927B0610927A0627
:101B30001092790610927806109277061092760627
:101B40001092750610927406109273061092720627
:101B5000109271061092700610926F0610926E0627
:101B600010926D0610926C0610926B0610926A0627
:101B700010926906109268061092820010928100FD
:101B80001092800010926F008FEF86BBF894109235
:101B900085001092840092E09093810078941092D6
:101BA000C0001092C1001092C2001092C3001092A7
:101BB000720089BB1092AB061092CD061092CE0631
:101BC0001092CF061092D0061092D9061092E0061D
:101BD0001092DF0690E890930D0180E280930C0153
:101BE00044E659E160E070E040930F01509310012A
:101BF00060931101709312011092DE061092DD06BF
:101C00001092DC068AE080930E011092A3061092D7
:101C1000A4061092A5061092A60610929B0610929A
:101C20009A0610928C06109289061092A2061092C3
:101C30009F0610929E061092A1061092A006109286
:101C40009D0610929C06109299061092980610928A
:101C50009706109296061092CC061092CB06109220
:101C6000C8061092C7061092C4061092C3061092BE
:101C70008B0610928A0610928806109287061092A0
:101C8000C0061092BF061092BC061092BB061093BD
:101C9000B8060093B7061093B4060093B3061092EB
:101CA000B0061092AF061092920610929106109212
:101CB0008D0610928E0610928F061092900610924A
:101CC00094061092930610929506E0918906F0E032
:101CD000E95BFA4F80818770806680937C009093E7
:101CE0007B008CED80937A009E012F5F3F4F69014E
:101CF00010E000E0F22EED2CC8010E94A016D601E3
:101D00008D936D010F5F1F4F0E311105A9F789816A
:101D10009A81AB81BC818D339D43AD43BD4309F0B6
:101D200049C08D811E81AF81B885E985FA856B85B3
:101D30007C858D849E84AF84B88859894D89388D7F
:101D4000298D9A8D0CEF080F10931901B09318018B
:101D5000A0931701F0931601E093150170931401FD
:101D60006093130180920F0190921001A0921101D3
:101D7000B092120150930E0140930D010A3008F009
:101D8000C0C13093E1062093E0069093DF068A30CD
:101D900018F09C8D9093DE068C3040F09D8D9093D2
:101DA000DD068D3019F48E8D8093DC0687E695E094
:101DB0000E9424068CE795E00E94240641E1642EEF
:101DC00089EF96E00E94F602181619060CF004C37B
:101DD00089EF96E00E94B402D82E89831A8200917E
:101DE0004D0710914E070F5F1F4FB80189E497E030
:101DF0000E947006882391F02091490730914A078C
:101E000080914D0790914E076F2D7E2D820F931F6D
:101E10000E94001910934E0700934D07FAE0DF125D
:101E2000CFCF712C512C10E0C52CD12C1A821982E5
:101E30001C821B821E821D826AE875E08F2D9E2DFA
:101E40000E94980680914D0790914E07C816D906BA
:101E500008F075C1A0904907B0904A0769817A815E
:101E6000C5018C0D9D1D0E940719009709F467C1DB
:101E70008A199B09082F8F2D9E2D0E9451060F3F16
:101E800061F51A8219821C821B821E821D826CE5FA
:101E900075E08F2D9E2D0E94980680914D079091A0
:101EA0004E07C816D90608F04DC1A0904907B0905A
:101EB0004A0769817A81C5018C0D9D1D0E94071911
:101EC000009709F43FC18A199B09082F8F2D9E2D79
:101ED0000E9451060F3F09F473C0501608F070C0FD
:101EE000802E912C8C149D0420F0892D4601C02E4B
:101EF000D82E1A8219821C821B821E821D826DE5D9
:101F000075E08F2D9E2D0E949806A0904D07B090F1
:101F10004E078A149B0480F5CA14DB0408F45601AA
:101F2000E0914907F0914A07EA0DFB1D50801082AD
:101F3000C0904907D0904A07C80CD91CC114D104DD
:101F400079F0F60101900020E9F731974F018C18E4
:101F50009D08B4018F2D9E2D0E9470068111F5C041
:101F60008F2D9E2D0E943F068091490790914A0730
:101F7000A80EB91ED5015C9289819A81812C912C81
:101F80005401009721F00E9464164B015C018F2DD3
:101F90009E2D0E94510655245394500E111101C0DC
:101FA000782C711032C1B7FC0BC0113009F0D5C0CC
:101FB000B7E08B169104A104B10414F480921901C6
:101FC0001F5F143109F030CF711042C18FE895E0E6
:101FD0000E9430064AE061E170E080E090E00E94FB
:101FE000E0058AE895E00E943006809119010E9480
:101FF00032068AE895E00E943006809117019091A0
:1020000018010E9439068AE895E00E943006809106
:102010001501909116010E9439068AE895E00E9408
:10202000300680911301909114010E9439068AE8CC
:1020300095E00E94300660910F017091100180912F
:102040001101909112014AE00E94E0058AE895E0B2
:102050000E94300680910E010E9432068AE895E0C7
:102060000E94300680910D010E9432068AE895E0B8
:102070000E9430068091E1060E9432068AE895E0CF
:102080000E9430068091E0060E9432068AE895E0C0
:102090000E9430068091DF060E9432068AE895E0B1
:1020A0000E9430068091DE060E9432068AE895E0A2
:1020B0000E9430068091DD060E9432068AE895E093
:1020C0000E9430068091DC060E9432068AE895E084
:1020D0000E9430068091DB060E9432068AE895E075
:1020E0000E94300680910C010E9432068AE895E039
:1020F0000E9430068091DA060E9432060E94DC05BA
:10210000A3C04E894093E1064F894093E006309387
:10211000DF062093DE069093DD069B8D9093DC0610
:102120009C8D9093DB06803118F09D8D90930C016F
:10213000813108F43BCE8E8D8093DA0637CE8FEF57
:102140009FEF98CE8FEF9FEFC0CE9E828D82B6011B
:1021500089819A810E94001907CF123029F4909248
:102160001801809217012CCF133029F49092160198
:102170008092150125CF143029F490921401809299
:1021800013011ECF153049F480920F019092100177
:10219000A0921101B092120113CF163019F480925F
:1021A0000E010ECF173019F480920D0109CF1830AF
:1021B00019F48092E10604CF193019F48092E006F8
:1021C000FFCE1A3019F48092DF06FACE1B3019F4D4
:1021D0008092DE06F5CE1C3019F48092DD06F0CE3A
:1021E0001D3019F48092DC06EBCE1E3019F480927B
:1021F000DB06E6CE1F3019F480920C01E1CE1031DF
:1022000009F0DECE8092DA06DBCEE7E07E1252C025
:10221000113009F0D5CEF3E08F169104A104B1047A
:1022200008F0CECE87E090E081149104A104B104BF
:1022300049F088E090E08A9489288A288B2811F058
:1022400089E090E00E94A5058CE895E00E942406B4
:102250001A8219821C821B821E821D826DE575E026
:102260008F2D9E2D0E9498068091490790914A07D4
:10227000009709F49AC069817A816115710509F4A2
:1022800092C040914B0750914C072D813E814217DF
:10229000530708F488C00E9400198D819E81909395
:1022A0004E0780934D071E821D828F2D9E2D0E940A
:1022B000510686CD38E0731266C08DE39DE3DC01E4
:1022C00089839A83AB83BC836D82809119018E834D
:1022D000809117019091180198878F838091150143
:1022E000909116019A87898780911301909114012A
:1022F0009C878B8780910F0190911001A091110113
:10230000B09112018D879E87AF87B88B80910E01A7
:1023100090E0B0E0A0E0898B9A8BAB8BBC8B809176
:102320000D018D8B8091E1068E8B8091E0068F8B65
:102330008091DF06888F8091DE06898F8091DD068F
:102340008A8F8091DC068B8F8091DB068C8F809149
:102350000C018D8F8091DA068E8FCF2CDE2C10E051
:1023600000E0D601BD906D01C8010E94A016B8160C
:1023700021F06B2DC8010E94A8160F5F1F4F0E3170
:10238000110579F761CFBAE07B121ACE113009F04E
:1023900017CEE2E08E169104A104B10408F010CE2D
:1023A0008092D90651CF0E94B11789819A8190936A
:1023B0004A07809349078B819C8190934C078093B7
:1023C0004B078D819E8190934E0780934D071A8213
:1023D00019821C821B8267CF8091E106882341F01D
:1023E0008091AC0681113BC28091AB06811137C24E
:1023F0008091BF068F8F8091C00688A31092A70698
:102400001092A8061092A9061092AA068090A30620
:102410009090A406A090A506B090A6068114910401
:10242000A104B10409F0E4C28CE9C82E86E0D82EDC
:102430009EE9892E96E0992E20EA222E26E0322E61
:1024400038E9A32E36E0B32E10E000E04424439494
:10245000502E8091A206882331F1EFE1F0E0EC0FDD
:10246000FD1FE00FF11F9081F801ED54F94F8081BD
:10247000981708F447C0802F842590E0AFE1B0E0C2
:10248000AC0FBD1FA80FB91FFC01E155F94F3C91DE
:1024900020812317B8F1D1012C912F5F2C93805606
:1024A000994FFC011082F10181911F01D401833009
:1024B00008F48DC24C928091A7069091A806A09135
:1024C000A906B091AA06892B8A2B8B2B51F40E9466
:1024D0000B016093A7067093A8068093A9069093BA
:1024E000AA06F601108280919B06851104C0809196
:1024F0009A0681110AC0D5011C921092970610927B
:10250000960632C0D1011C92CECFF5014082809157
:10251000C7069091C80601969093C8068093C70697
:102520006090960670909706FFEF6F1A7F0A709280
:102530009706609296062091DD0629A38091E00619
:10254000882361F060FE0AC0222321F031E0631687
:10255000710441F48BE995E00E94240649A14423CB
:1025600009F420C2D6014C92D6018C91811130C25F
:102570008090A7069090A806A090A906B090AA0601
:1025800080910F0190911001A0911101B091120161
:10259000880D991DAA1DBB1D8093A3069093A406C8
:1025A000A093A506B093A60650929B0681E0809367
:1025B0009A068091DA06813009F001C28091950671
:1025C000882369F0F801E856F94F8081882339F0B3
:1025D0006091930670919406852D0E946703809107
:1025E0009106909192068038910529F580918D068B
:1025F00090918E06A0918F06B0919006A50194014E
:10260000281B390B4A0B5B0BCA01B90107E09695F1
:102610008795779567950A95D1F77093940660939F
:10262000930621E020939506852D0E946703109262
:1026300092061092910680919106909192060097D1
:1026400041F480928D0690928E06A0928F06B092F1
:1026500090060196909392068093910681E0809374
:102660008C068091D906882309F4D1C08FE0E0E27E
:10267000F1E0AF2DBE2D01900D928A95E1F780918A
:10268000A7069091A806A091A906B091AA06892B49
:102690008A2B8B2B51F40E940B016093A706709339
:1026A000A8068093A9069093AA068091990688238C
:1026B00009F4C1C180EA90919D0640E1911101C0E9
:1026C00040E090919F0638E0911101C030E0909178
:1026D000980624E0911101C020E090919C06992376
:1026E00009F4ABC192E050919E06852B842B832B7D
:1026F000822B892B8C838091A20638E8811101C03E
:1027000030E880919B0624E0813009F020E0809140
:102710008C0692E0811101C090E081E04091A30617
:102720005091A4066091A5067091A606452B462BF4
:10273000472B09F480E0832B822B892B8D8380919A
:10274000960680688E832F8D822F86958695806869
:102750008F8388A140E2249F900111242076982F36
:102760009695969596959068292B28874091A7066F
:102770005091A8066091A9067091AA068295807F63
:10278000282F2077DB01CA013CE1B695A7959795E4
:1027900087953A95D1F7822B80688987DB01CA013A
:1027A000E5E1B695A79597958795EA95D1F7806865
:1027B0008A87DB01CA01FEE0B695A79597958795B4
:1027C000FA95D1F780688B87DB01CA0117E0B695CF
:1027D000A795979587951A95D1F780688C8740685B
:1027E0004D874FE050E06F2D7E2D89EF96E00E94DF
:1027F0000E0210928C061092990610929D0610926D
:102800009F061092980610929C0610929E062091A8
:10281000CB063091CC068F8D80938A069091BB06B3
:10282000981710F48093BB069091B706891710F49F
:102830008093B70688A180938B069091BC06981769
:1028400010F48093BC069091B806891710F4809319
:10285000B8062E5F3F4F3093CC062093CB06809175
:10286000AC06882309F4EBC08AE08093AB060E9493
:102870000B014B015C018092D5069092D606A09286
:10288000D706B092D8068091D1069091D206A09139
:10289000D306B091D40688169906AA06BB0608F49A
:1028A000FEC0A5019401281B390B4A0B5B0BDA0112
:1028B000C90181159748A349B34008F0F0C0809141
:1028C000DF06882309F4F0C18091CD069091CE06F1
:1028D000A091CF06B091D006813E9105A105B1052A
:1028E00009F494C108F0F5C08B349105A105B10538
:1028F00009F465C108F0ACC089319105A105B105A5
:1029000009F449C182339105A105B10509F44EC10D
:10291000892B8A2B8B2B09F0A8C08091CB06909134
:10292000CC069093CA068093C9068091C706909101
:10293000C8069093C6068093C5068091C306909101
:10294000C4069093C2068093C1068091BF0680930F
:10295000BD068091BB068093B9068091B70680932F
:10296000B5068091B3068093B1068091AF0680933F
:10297000AD068091C0068093BE068091BC06809310
:10298000BA068091B8068093B6068091B40680930B
:10299000B2068091B0068093AE060E9410030E949A
:1029A000590663C08091DE06882309F4DDCD8615C3
:1029B000170409F008F4A1CDF6014082D5CD60914D
:1029C000930670919406852D0E94670347CE1C9252
:1029D000BFEFCB1ADB0AEFEF8E1A9E0AFFEFAF1A9A
:1029E000BF0A0130110509F43CCE01E010E030CD02
:1029F0000E940B016093A7067093A8068093A90616
:102A00009093AA06681579058A059B0508F429CED6
:102A1000681979098A099B096115774883499340A8
:102A200008F01FCE1092A3061092A4061092A506DD
:102A30001092A60616CE80E83ECE90E054CE80914D
:102A4000AB06882309F413CF8091AB0681500DCFDC
:102A500086399105A105B10509F465C040F58D37AA
:102A60009105A105B10509F4C3C08091CD069091EF
:102A7000CE06A091CF06B091D0060196A11DB11D42
:102A8000853FE1E09E07A105B10508F0F5C0809300
:102A9000CD069093CE06A093CF06B093D00680E0EB
:102AA00090E0892B09F48AC90E94000087C98F3AF7
:102AB0009105A105B10509F4A0C0883C9105A105C7
:102AC000B10599F687E196E00E9430068091B9063B
:102AD0009AC0873741E09407A105B10509F4B7C052
:102AE00048F58331E1E09E07A105B10509F495C0E1
:102AF00068F48A3F9105A105B10509F0B6CF84E2DB
:102B000096E00E9430068091B1067DC0853421E0B8
:102B10009207A105B10509F497C08E359140A10532
:102B2000B10509F0A2CF80E096E00E94300690E067
:102B300080E039C0893A41E09407A105B10509F464
:102B40008DC068F480399140A105B10509F08DCFA1
:102B500087E196E00E9430068091BA0654C0823C1C
:102B6000F1E09F07A105B10509F47FC08B3D9140BD
:102B7000A105B10509F079CF8CE296E00E943006FC
:102B80008091AE060E9432060E94DC0584EF91E03F
:102B9000A0E0B0E024C08EE995E00E94300680916C
:102BA000C9069091CA060E9439065FCF8EEB95E068
:102BB0000E9430068091C5069091C606F4CF81ED43
:102BC00095E00E9430068091C1069091C2060E9455
:102BD00039060E94DC0584E690E0A0E0B0E0809336
:102BE000CD069093CE06A093CF06B093D0063DCFEE
:102BF00084EE95E00E94300638CF8DE096E00E948A
:102C000030068091BD060E9432062FCF8EE196E0FD
:102C10000E9430068091B506F6CF8CE296E00E94C5
:102C200030068091AD060E9432060E94DC052CE23F
:102C300031E040E050E02093CD063093CE06409343
:102C4000CF065093D00611CF84E396E0D3CF8DE02A
:102C500096E00E9430068091BE06D5CF8EE196E0C8
:102C60000E9430068091B606CECF84E296E00E94A4
:102C700030068091B206C7CF1092CD061092CE06D4
:102C80001092CF061092D006F0E48F0EFBE49F1E48
:102C9000FCE4AF1EB11C8092D1069092D206A092A5
:102CA000D306B092D406FBCE0E9410030E945906B0
:102CB00020E4820E2BE4921E2CE4A21EB11CEBCF6A
:102CC00089E497E00C9451061F93FC01992788270B
:102CD000BC01E89411911032E9F3193010F01E3064
:102CE000C8F31B3251F01D3249F4689406C00E94AB
:102CF0008B16610F711D811D911D119110531A309A
:102D0000B0F33EF490958095709561957F4F8F4F0D
:102D10009F4F1F910895592F482F372F262F660F49
:102D2000771F881F991F660F771F881F991F620FD3
:102D3000731F841F951F660F771F881F991F0895A3
:102D4000F999FECF92BD81BDF89A992780B5089573
:102D5000262FF999FECF1FBA92BD81BD20BD0FB6B7
:102D6000F894FA9AF99A0FBE019608952F923F921D
:102D70004F925F926F927F928F929F92AF92BF928B
:102D8000CF92DF92EF92FF920F931F93CF93DF9337
:102D9000CDB7DEB7CA1BDB0B0FB6F894DEBF0FBE94
:102DA000CDBF09942A88398848885F846E847D84E1
:102DB0008C849B84AA84B984C884DF80EE80FD80E3
:102DC0000C811B81AA81B981CE0FD11D0FB6F89459
:102DD000DEBF0FBECDBFED010895A1E21A2EAA1BE2
:102DE000BB1BFD010DC0AA1FBB1FEE1FFF1FA217BB
:102DF000B307E407F50720F0A21BB30BE40BF50BB8
:102E0000661F771F881F991F1A9469F76095709540
:102E1000809590959B01AC01BD01CF010895EE0F07
:102E2000FF1F0590F491E02D09940F931F93CF930A
:102E3000DF938230910510F482E090E0E091510739
:102E4000F091520730E020E0B0E0A0E0309799F434
:102E50002115310509F44AC0281B390B24303105EE
:102E6000D8F58A819B816115710589F1FB019383F6
:102E70008283FE0111C04081518102811381481774
:102E80005907E0F04817590799F4109761F0129626
:102E90000C93129713961C933296CF01DF91CF912A
:102EA0001F910F9108950093510710935207F4CF8B
:102EB0002115310551F04217530738F0A901DB0104
:102EC0009A01BD01DF01F801C1CFEF01F9CF909365
:102ED000520780935107CDCFFE01E20FF31F81937C
:102EE00091932250310939832883D7CF20914F07FE
:102EF00030915007232B41F420911C0130911D018A
:102F00003093500720934F0720911A0130911B01F5
:102F10002115310541F42DB73EB740911E01509166
:102F20001F01241B350BE0914F07F0915007E2176A
:102F3000F307A0F42E1B3F0B2817390778F0AC01DC
:102F40004E5F5F4F2417350748F04E0F5F1F5093B9
:102F5000500740934F07819391939FCFF0E0E0E0BB
:102F60009CCFCF93DF930097E9F0FC013297138257
:102F70001282A0915107B0915207ED0130E020E09C
:102F80001097A1F420813181820F931F20914F0768
:102F9000309150072817390709F061C0F0935007A6
:102FA000E0934F07DF91CF910895EA01CE17DF0735
:102FB000E8F54A815B819E0141155105B1F7E901B0
:102FC000FB83EA8349915991C40FD51FEC17FD0784
:102FD00061F4808191810296840F951FE9019983A4
:102FE0008883828193819B838A83F0E0E0E012965C
:102FF0008D919C9113970097B9F52D913C91119764
:10300000CD010296820F931F20914F0730915007F8
:103010002817390739F6309751F510925207109258
:103020005107B0935007A0934F07BCCFD383C283FF
:1030300040815181840F951FC817D90761F44E5FF5
:103040005F4F88819981480F591F518340838A813E
:103050009B81938382832115310509F0B0CFF093D2
:103060005207E09351079ECFFD01DC01C0CF1382D0
:103070001282D7CFB0E0A0E0E0E4F8E10C94B816FB
:103080008C01009751F4CB010E9415178C01C801E7
:10309000CDB7DEB7E0E10C94D416FC01E60FF71FC4
:1030A0009C0122503109E217F30708F49DC0D901B1
:1030B000CD91DC911197C617D70798F0C530D1058F
:1030C00030F3CE0104978617970708F3C61BD70B7A
:1030D0002297C193D1936D937C93CF010E94B11736
:1030E000D6CF5B01AC1ABD0A4C018C0E9D1EA0917F
:1030F0005107B0915207512C412CF12CE12C109723
:1031000031F580914F07909150078815990509F086
:103110005CC04616570608F058C080911A0190917D
:103120001B01009741F48DB79EB740911E0150914D
:103130001F01841B950BE817F90708F055C0F093A1
:103140005007E0934F07F90171836083A0CF8D9101
:103150009C91119712966C90129713967C901397EE
:10316000A815B90559F56C0142E0C40ED11CCA146A
:10317000DB0420F1AC014A195B09DA0112961597BC
:1031800080F06282738251834083D9016D937C9376
:10319000E114F10471F0D7011396FC93EE931297AA
:1031A00076CF22968C0F9D1FF90191838083F301C6
:1031B000EFCFF0935207E093510769CF48165906B5
:1031C00008F42C017D01D3019ACFCB010E94151781
:1031D0007C01009749F0AE01B8010E94F718C801C0
:1031E0000E94B117870153CF10E000E050CFFB01E0
:1031F000DC0102C001900D9241505040D8F7089573
:10320000FB01DC0101900D920020E1F70895FB0124
:1032100051915523A9F0BF01DC014D914517411192
:10322000E1F759F4CD010190002049F04D9140158E
:103230004111C9F3FB014111EFCF81E090E001970B
:10324000089510E0C1E9D0E004C0FE010E940F170C
:0C3250002196C239D107C9F7F894FFCFCE
:10325C00FFFFFFFF00E100000000000020800A6477
:10326C001900001E00581BF40106000053078000D3
:10327C002B6F20000000000000000000000D0A0968
:10328C00FF000102030405060708FFFF0000DC0035
:10329C0007001400140014003C0014003C0014003F
:1032AC000000000000000000000000000000000012
:1032BC000000DC00070014003C0014003C0014006B
:1032CC0014001400000000000000000000000000CA
:1032DC00000000000000DC00070014003C0014009B
:1032EC00140014003C00140000000000000000005A
:1032FC0000000000000000000000DC0007001400CB
:10330C0014001400640014001400140000000000E9
:10331C000000000000000000000000000000DC00C5
:10332C0007001400640014001400140014001400AE
:10333C000000000000000000000000000000000081
:10334C000000040107001400640014003C00140089
:10335C001400140000000000000000000000000039
:10336C00000000000000900107001400C8001400C9
:10337C0064001400C80014000000000000000000ED
:10338C0000000000000000000000680107001400AD
:10339C00C80014003C001400C80014000000000019
:1033AC0000000000000000000000000000004001D0
:1033BC0007001400C800140014001400C800140006
:1033CC0000000000000000000000000000000000F1
:1033DC0009FF00010203FFFFFFFFFFFFFF0000DCFE
:1033EC000007001400140014003C0014003C0014EE
:1033FC0000000000000000000000000000000000C1
:10340C00000000DC00070014003C0014003C001419
:10341C000014001400000000000000000000000078
:10342C0000000000000000DC00070014003C001449
:10343C0000140014003C0014000000000000000008
:10344C000000000000000000000000DC0007001479
:10345C000014001400640014001400140000000098
:10346C000000000000000000000000000004FF004D
:10347C00010203FFFFFFFFFFFFFF00001C0209001A
:10348C00140014001400140014007C011400140027
:10349C00140000000000000000000000000000000C
:1034AC00CC010900140014001400140014002C01A9
:1034BC0014001400140000000000000000000000C4
:1034CC00000000007C01090014001400140014001A
:1034DC001400DC00140014001400000000000000B4
:1034EC0000000000000000002C0109001400140072
:1034FC001400140014008C001400140014000000BC
:10350C000000000000000000000002FFFFFFFFFFB2
:10351C00FFFFFFFFFF000100001C020F001400144E
:10352C0000140014001400500014008C001400143B
:10353C0000140050001400140014000000B8010F17
:10354C0000140014001400140014003C0014003C7F
:10355C000014001400140050001400140014000493
:10356C00FF00010203FFFFFFFFFFFFFF01006400EC
:10357C00030017002E001F000000000000000000D8
:10358C00000000000000000000000000000000002F
:10359C0001008D00030017004E0028000000000001
:1035AC00000000000000000000000000000000000F
:1035BC000000000001002B0001002B0000000000A7
:1035CC0000000000000000000000000000000000EF
:1035DC000000000000000000010044000300170080
:1035EC0015001800000000000000000000000000A2
:1035FC0000000000000000000000000002FFFFFFC0
:10360C00FFFFFFFFFFFFFF000100005E000500123F
:10361C000014001200140012000000000000000052
:10362C00000000000000000000000000000000602E
:10363C0000030012003C001200000000000000001B
:10364C00000000000000000000000000000000006E
:10365C000001FFFFFFFFFFFFFFFFFFFF00FF000068
:10366C00420005000E000C000E000C000E000000C5
:10367C00000000000000000000000000000000003E
:10368C0000000105AC040F04BA031D0380022F01D6
:10369C0000C180810000000706000000008F020EB0
:1036AC0002B002A502F602B402D2020D0A002B737C
:1036BC0074617274757000656570726F6D207265DF
:1036CC0061645F73657474696E677300696E6974A5
:1036DC0020636F6D706C657465002C004F4B00702F
:1036EC006172616D657465727320002B64002B73BD
:1036FC00746174732067656E6572616C20726561AC
:10370C0064696E675F636F756E7465723A002064EE
:10371C0075706C69636174655F6672616D65733A2F
:10372C0000207072656D61747572655F6672616D93
:10373C0065733A002B73746174732073656E736FC9
:10374C0072206368616E6E656C3A726967687400AA
:10375C0020646574656374696F6E733A00207265DA
:10376C006164696E673A0020686967683A00206C8A
:10377C006F773A00207468725F683A002074687240
:10378C005F6C3A002B73746174732073656E736F86
:10379C0072206368616E6E656C3A6C6566740000CD
:00000001FF
