:100000000C9492000C94BA000C94BA000C94BA00B0
:100010000C94BA000C94BA000C94BA000C94BA0078
:100020000C94BA000C94BA000C94D8050C944706B2
:100030000C94BA000C94BA000C94BA000C94BA0058
:100040000C94BA000C9488090C9406090C94D408FA
:100050000C94BA000C94BA000C94BA000C948E055F
:100060000C94BA000C94BA000C94BA000C94BA0028
:100070000C94BA000C9479080C94BA000C94BA0051
:100080000C94BA000C94BA000C94BA000C94BA0008
:100090000C94BA000C94BA000C94A30A0C94350A80
:1000A0000C940A0A0C94BA000C94BA00080B0002D3
:1000B0000202000009040000010202000005240001
:1000C0001001052401010104240206052406000193
:1000D0000705810310004009040100020A00000026
:1000E00007050202400000070583024000000403E8
:1000F000090412010002EF0201404F1B06920001A9
:1001000001020301537061726B46756E005370619A
:10011000726B46756E2050726F204D6963726F006E
:10012000010BB11411241FBECFEFDAE0DEBFCDBF4B
:1001300027E0A6E3B6E001C01D92A832B207E1F7BE
:1001400016E0A0E0B1E0EEEFFEE202C005900D92F5
:10015000A633B107D9F710E0C1E9D0E004C0219778
:10016000FE010E946015C039D107C9F70E94220B19
:100170000C9472170C940000F894409184005091F4
:10018000850078942091170130911801220F331FB8
:10019000240F351F9091CD0698133CC081E090E06C
:1001A000E091CB06F091CC06DF01A80FB91F1196A4
:1001B0004C914F3F89F05081451770F454E2459FB0
:1001C000E00DF11D1124438554854130510521F482
:1001D00045855685241B350BAC01435051094230EF
:1001E000510570F58091C9069091CA06892BA9F432
:1001F000F89483E090E09093CA068093C906309308
:10020000890020938800B19A80916F00826080936A
:100210006F0014C083E090E0C3CF8091C706909137
:10022000C806892B61F4F89483E090E09093C806A7
:100230008093C7063093C6062093C5067894089528
:100240004091C3065091C406452B71F4F8949093E5
:10025000C4068093C30630938B0020938A00B29A21
:1002600080916F008460D3CF4091C1065091C20647
:10027000452B29F7F8949093C2068093C1063093DA
:10028000C0062093BF06DACF2FB7F89483E080939F
:10029000E9009091E800892F807295FF04C0909149
:1002A000F20080E4891B2FBF0895FC018091BC06F9
:1002B000882311F13FB7F89482E08093E900209100
:1002C000F200822F90E01816190614F481E090E0F5
:1002D000882339F0289844E64093BB064091F1000A
:1002E0004083222339F02091F200211103C02BE634
:1002F0002093E8003FBF08958FEF9FEF089580910E
:10030000B30681110DC082E08093AF0684E0809334
:10031000B0061092B2061092B10681E08093B30647
:100320008FEA96E008953FB7F8948091AB069091DC
:10033000AC06A091AD06B091AE0626B5A89B05C04F
:100340002F3F19F00196A11DB11D3FBFBA2FA92F54
:10035000982F8827BC01CD01620F711D811D911D51
:1003600042E0660F771F881F991F4A95D1F70895BD
:10037000CF92DF92EF92FF920E9493016B017C017A
:100380000E9493016C197D098E099F09683E734094
:1003900081059105A8F3FF90EF90DF90CF9008952D
:1003A000089540913E0650913F0620913C063091C1
:1003B0003D0642175307B4F49091E8009570E1F3BD
:1003C0009091E80092FD19C08093F10080913E0663
:1003D00090913F0601968F739927892B19F48EEF20
:1003E0008093E80080913E0690913F06019690939D
:1003F0003F0680933E0681E0089580E00895EF92E5
:10040000FF920F931F93CF93DF93F82E192FE62EB1
:10041000042F81E0860F880F0E94D10183E00E94A3
:10042000D101CF2DD12FEC0EFD2EF11CCE15DF0505
:10043000B9F007FF13C0FE0184910E94D101182F6B
:1004400080E00E94D101812321968111EFCFDF91BD
:10045000CF911F910F91FF90EF9008958881EDCF7C
:1004600081E0F5CFDF92EF92FF920F931F93CF932E
:10047000DF93D82E8A01EB017B01E40EF51ECE1529
:10048000DF0559F0D7FE12C0FE0184910E94D10110
:1004900021968111F4CF0FEF1FEFC801DF91CF91AB
:1004A0001F910F91FF90EF90DF9008958881EECF1C
:1004B0000F931F93CF93DF931F92CDB7DEB782E0E8
:1004C000898342E450E06CEA70E080E80E943202E6
:1004D0000E947F01DC0112960D911C9101151105FE
:1004E00089F0D801ED91FC910280F381E02DBE01ED
:1004F0006F5F7F4FC801099597FD04C0F801008523
:100500001185ECCF89810F90DF91CF911F910F91D1
:100510000895615030F02091F100FC012083019694
:10052000F8CF289884E68093BB0608958F929F9217
:10053000AF92BF92CF92DF92EF92FF920F931F93F1
:10054000CF93DF936C017B018A0180910B0188239B
:1005500009F458C08091BC06882309F453C08091E7
:10056000420680FF05C08091E00082608093E00039
:10057000E801B12C8AEFA82E93E0892E2AE3922E6F
:10058000209711F4BB20B9F10E944401811106C0EB
:10059000AA94AA20B9F10E94B801F2CF8C171D06C7
:1005A00011F00CF08C2F9FB7F8948092E900209105
:1005B000E80025FD02C09FBFE3CF282F30E0C21B1B
:1005C000D30BF701815020F041914093F100FACF15
:1005D000E20EF31EBB2021F09092E800B12CEBCF8D
:1005E0008091E80085FDE7CF9092E800BB24B394AA
:1005F000209709F3F3CF5D9884E6809341061016A7
:1006000011063CF081E090E0F6019383828310E0D4
:1006100000E0C801DF91CF911F910F91FF90EF9003
:10062000DF90CF90BF90AF909F908F900895CF9321
:10063000DF931F92CDB7DEB76983DC01ED91FC91AA
:100640000280F381E02D41E050E0BE016F5F7F4FFB
:1006500009950F90DF91CF91089583E08093E90091
:100660008091F200882319F08AE38093E8000895CE
:100670000E94440190E00895CF93DF931F92CDB77D
:10068000DEB7FC018485958597FD08C02FEF3FEF0D
:10069000358724870F90DF91CF910895CE01019681
:1006A0000E945501019719F4898190E0F3CF8FEFF3
:1006B0009FEFF0CF0F931F93CF93DF931F92CDB790
:1006C000DEB78C01FC018485958597FF0BC0CE01B8
:1006D00001960E945501019771F4898190E0F8011B
:1006E00095878487F801848595850F90DF91CF9158
:1006F0001F910F9108958FEF9FEFF1CFFC0184853B
:10070000958597FD0BC09FB7F89482E08093E90030
:100710008091F2009FBF90E0019608959FB7F894F2
:1007200082E08093E9008091F2009FBF90E00895FD
:1007300060910D0130910C018FEF90E0831B9109C6
:1007400021E040917006461708F420E0709174068D
:10075000789FA001799F500D112470917806379FE2
:10076000400D511D1124509370064091710646179B
:1007700008F420E06091790670917506789FA001D9
:10078000799F500D1124369F400D511D1124509317
:10079000710620935F060895E0911601F0E0EE0FD8
:1007A000FF1FED5DFA4F0190F081E02DF093CC0634
:1007B000E093CB06DF01A80FB91F11962C912F3FB4
:1007C00009F468C03081231708F064C083309105B4
:1007D00021F08630910509F04AC0769A0597029774
:1007E00008F4299A61E060936D064091CB06509120
:1007F000CC0634E2239FC00111249C012F5E3F4FA1
:10080000240F351F30933B0620933A066093390638
:10081000840F951FFC01878580933606F89410920B
:10082000BF001092BF001092BE0083E08093BF0013
:100830009FEF9093D100E0913A06F0913B06208122
:10084000818120933706809338068093BF00809182
:1008500037068093CF00809172008064809372008D
:1008600099BB85E08093C1007894589A08958430AC
:10087000910519F476982998B1CFAC014B7F41309E
:10088000510511F42C9AAACF8230910509F0A6CF18
:100890002C98F1CF0C944C0490914606809145061B
:1008A0009817A1F0E0914606F0E0EE0FFF1FE95B1C
:1008B000F94F808191812091460630E02F5F3F4FB4
:1008C00023703327209346060C94CC0310924406E1
:1008D000089520914406222301F1F89420914506C1
:1008E0004091460630E02F5F3F4F23703327421779
:1008F000130689F0E0914506F0E0EE0FFF1FE95B7B
:10090000F94F918380838091450690E00196837032
:10091000992780934506789408950E94CC0381E03E
:10092000809344060895FC0101900020E9F7319777
:10093000AF01481B590BBC018EEC96E00C9496025B
:100940008CE495E00C9493048F929F92AF92BF92A7
:100950000F931F93CF93DF93CDB7DEB7A1970FB659
:10096000F894DEBF0FBECDBF19A2423008F44AE0B2
:100970008E010F5D1F4F842E912CB12CA12CA5014F
:1009800094010E943E15E62FB901CA01EA30F4F441
:10099000E05DD801EE938D01232B242B252B79F7D5
:1009A00090E080E0109719F0CD010E949304A19689
:1009B0000FB6F894DEBF0FBECDBFDF91CF911F9170
:1009C0000F91BF90AF909F908F900895E95CE1CF19
:1009D000CF93DF930E949304EC010E94A0048C0F3C
:1009E0009D1FDF91CF9108950C949304682F70E0C0
:1009F00090E080E04AE00C94A404BC0190E080E028
:100A00004AE00C94A404CF93DF93EC018881998190
:100A1000009711F00E940216198218821D821C8212
:100A20001B821A82DF91CF910895FC018081918110
:100A3000009711F00C9402160895109291061092EE
:100A4000900610928D0610928C06109289061092D4
:100A50008806E2E8F6E084E0DF011D928A95E9F776
:100A600010927906109278068FEF9FEF909375069B
:100A70008093740608950F931F93CF93DF93EC0137
:100A800088819981009759F02A813B812617370781
:100A900030F081E0DF91CF911F910F9108958B018C
:100AA0006F5F7F4F0E948B16009759F09983888360
:100AB0001B830A832C813D81232B59F7FC01108273
:100AC000E8CF80E0E7CFEF92FF920F931F93CF9391
:100AD000DF938C017B01EB0109900020E9F721975E
:100AE000C61BD70BBE010E943B05811109C0C8017E
:100AF000DF91CF911F910F91FF90EF900C94030520
:100B0000F801D583C483B70180819181DF91CF91B2
:100B10001F910F91FF90EF900C9451171F920F921D
:100B20000FB60F9211242F933F938F939F93AF9300
:100B3000BF938091A7069091A806A091A906B091B5
:100B4000AA063091A60623E0230F2D3758F501960B
:100B5000A11DB11D2093A6068093A7069093A80619
:100B6000A093A906B093AA068091AB069091AC061B
:100B7000A091AD06B091AE060196A11DB11D809366
:100B8000AB069093AC06A093AD06B093AE06BF91B2
:100B9000AF919F918F913F912F910F900FBE0F902A
:100BA0001F90189526E8230F0296A11DB11DD2CFE4
:100BB0001F920F920FB60F9211248F939F938091E3
:100BC000E1009091E100937F9093E10083FF0FC0DB
:100BD0001092E90091E09093EB001092EC0092E308
:100BE0009093ED001092BC0698E09093F00082FF85
:100BF00022C093E09093E9009091F200992319F0BC
:100C00009AE39093E80090914106992341F09091E6
:100C10004106915090934106911101C05D9A9091C7
:100C2000BB06992341F09091BB0691509093BB066F
:100C3000911101C0289A84FF18C08091E2008E7E35
:100C400081608093E2008091E1008F7E8093E100DB
:100C5000809142068E7E8061809342069F918F91A3
:100C60000F900FBE0F901F90189580FFF7CF8091C7
:100C7000E2008E7E80618093E2008091E1008E7EB2
:100C80008093E100809142068E7E8160E5CF1F92C5
:100C90000F920FB60F921124CF92DF92EF92FF9234
:100CA0000F931F932F933F934F935F936F937F9374
:100CB0008F939F93AF93BF93EF93FF93CF93DF9364
:100CC000CDB7DEB76C97DEBFCDBF1092E900809143
:100CD000E80083FF25C068E0CE0145960E948902A6
:100CE00082EF8093E8008D8987FF39C09091E800FA
:100CF00090FFFCCF982F907609F034C19E894F89E0
:100D0000588D2F89F88C911131C0803861F5809110
:100D100043068093F1001092F1008EEF8093E8007B
:100D20006C960FB6F894DEBF0FBECDBFDF91CF91AA
:100D3000FF91EF91BF91AF919F918F917F916F91B3
:100D40005F914F913F912F911F910F91FF90EF90E5
:100D5000DF90CF900F900FBE0F901F9018959EEFD1
:100D60009093E800C7CF1092F100D5CF913059F49D
:100D70008111D3CF4130510581F6809143068D7F9B
:100D800080934306CACF933049F48111C6CF4130D6
:100D9000510519F6809143068260F2CF953041F4F7
:100DA0008091E80080FFFCCF20682093E300B5CF5E
:100DB000963009F0A9C00B8D1C8D22E01092E9003D
:100DC00010923F0610923E06F2122EC010923D067F
:100DD00010923C060E9458021F8299E09983FA8281
:100DE00091E09E8390EA98879AEF998720913E063A
:100DF00030913F06275F3F4F3C832B838D831092BA
:100E0000E90010923F0610923E0610933D060093B3
:100E10003C0649E050E0BE016F5F7F4F80E00E94DA
:100E200032020E94580279CF10933D0600933C068F
:100E30000E947F01DC0112960D911C910115110594
:100E400009F451C1D801ED91FC910480F581E02DA8
:100E5000BE016B5E7F4FC8010995009709F03EC146
:100E6000F80100851185EACFF3E0FF120EC08F89EB
:100E7000882309F440C0823061F440E862E18DE0EB
:100E800091E00E94FF01811148CF81E28093EB0045
:100E900047CF813029F440E868E084E091E0F1CF69
:100EA000833099F70E947F01DC011296ED90FC904F
:100EB0008E010F5F1F4F6801E114F10479F0D70133
:100EC000ED91FC910680F781E02DB801C7010995ED
:100ED000080F111DF701E084F184EECFD8011C92B8
:100EE000F60101900020E9F73197BF016C197D09E7
:100EF00040E0C601C6CF6EEE70E0FB01449150E0C9
:100F000080E80E94320209CF973009F4BECF9830B2
:100F100021F481E08093F10000CF993009F0FDCEFB
:100F2000837009F0B2CFE2E3F5E081E031E096E3CF
:100F30002191222371F08093E9003093EB00DF01CF
:100F400011972C912093EC009093ED008F5F8730E8
:100F500079F78EE78093EA001092EA008F898093F8
:100F6000BC06DBCE8B8D9C8D1092E90010923F0663
:100F700010923E0690933D0680933C06898D811128
:100F800092C08E899D89913A49F4813209F07DCFD2
:100F900047E050E064E071E080E0B3CF913209F0C7
:100FA00074CF833269F48F89988DB0E0A0E080938C
:100FB000000190930101A0930201B0930301ADCE13
:100FC000803269F48091E80082FFFCCF67E084E022
:100FD00091E00E9489028BEF8093E8009ECE8232DE
:100FE00009F09BCE8F8980930B01EEEFFFE785918F
:100FF00094918B3F9C4D51F1E0E0F8E08091040129
:1010000090910501A0910601B0910701803B9440A9
:10101000A105B105F1F480910B0180FD1AC0EE3FEE
:101020008AE0F80789F587E797E7918380838091C5
:1010300060008093400688E19BE00FB6F894A89585
:10104000809360000FBE9093600067CEEEEFFAE0F1
:10105000D5CF808191818737974709F05ECEA895DB
:101060008091600088618093600080914006809349
:101070006000EE3F2AE0F20789F08091FE0A90912D
:10108000FF0A9183808349CE8081918187379807B9
:1010900051F29093FF0A8093FE0AC5CF1092FF0A87
:1010A0001092FE0A3ACE0E947F01DC0112960D9149
:1010B0001C910115110509F4E8CED801ED91FC91C0
:1010C0000190F081E02DBE016B5E7F4FC801099554
:1010D000811123CEF80100851185EBCF1816190672
:1010E0000CF41BCED2CEF1E0FF12BECE62EF70E068
:1010F00004CF1F920F920FB60F9211242F938F934C
:101100009F93EF93FF939091790080919F06E091D8
:101110005106F0E0813009F044C0E15BF94F808175
:10112000E0915106F0E0E458F94F2081891710F45E
:10113000281720F0981740F4821730F4E0915106F8
:10114000F0E0E458F94F8083E0915106F0E0E15B74
:10115000F94F9083809151068F5F80935106809163
:101160005106823010F01092510690917C00E0916F
:101170005106F0E0E85CFA4F80818770987F892BF8
:1011800080937C0080917A00806480937A00FF9144
:10119000EF919F918F912F910F900FBE0F901F9005
:1011A0001895E458F94FD5CF1F920F920FB60F92B2
:1011B00011242F933F934F935F936F937F938F935C
:1011C0009F93AF93BF93EF93FF932091BD06309110
:1011D000BE061092BE061092BD06EFE6F0E09081CA
:1011E000977F9083C9010E946904FF91EF91BF919D
:1011F000AF919F918F917F916F915F914F913F91AF
:101200002F910F900FBE0F901F9018951F920F9265
:101210000FB60F9211242F933F934F935F936F93C9
:101220007F938F939F93AF93BF93EF93FF936091BF
:10123000C3067091C4066130710509F044C0E091A5
:10124000CB06F091CC0692819F3FD1F18081981717
:10125000B8F584E2989FE00DF11D112483859485F3
:10126000019771F54585568582E090E09093C4061C
:101270008093C306209114013091150180918A005A
:1012800090918B00241B350B220F331F280F391F21
:1012900030938B0020938A00CB010E946904FF9158
:1012A000EF91BF91AF919F918F917F916F915F91DE
:1012B0004F913F912F910F900FBE0F901F90189557
:1012C00050E040E0D1CF8091C1069091C2060097D6
:1012D000A9F09093C4068093C3068091BF069091B5
:1012E000C00690938B0080938A001092C2061092E1
:1012F000C1061092C0061092BF06CECF1092C4064F
:101300001092C30690916F009B7F90936F00C4CFA3
:101310001F920F920FB60F9211242F933F934F936A
:101320005F936F937F938F939F93AF93BF93EF934D
:10133000FF936091C9067091CA066330710509F088
:1013400044C0E091CB06F091CC0694819F3FD1F14F
:1013500080819817B8F584E2989FE00DF11D112463
:1013600083859485019771F54585568584E090E0E5
:101370009093CA068093C9062091140130911501FB
:101380008091880090918900241B350B220F331F18
:10139000280F391F3093890020938800CB010E94C9
:1013A0006904FF91EF91BF91AF919F918F917F91D0
:1013B0006F915F914F913F912F910F900FBE0F90C2
:1013C0001F90189550E040E0D1CF8091C7069091D2
:1013D000C8060097A9F09093CA068093C906809129
:1013E000C5069091C606909389008093880010925C
:1013F000C8061092C7061092C6061092C506CECF38
:101400001092CA061092C90690916F009D7F90932A
:101410006F00C4CF1F920F920FB60F9211242F931B
:101420003F934F935F936F937F938F939F93AF936C
:10143000BF93EF93FF931092C1000E944C04E2E728
:10144000F0E080818F778083FF91EF91BF91AF9122
:101450009F918F917F916F915F914F913F912F91CC
:101460000F900FBE0F901F9018951F920F920FB6FE
:101470000F9211242F933F934F935F938F939F93DA
:10148000EF93FF93589A20913A0630913B06809152
:10149000390691E0980F9093390690E0880F991FD4
:1014A000820F931FFC01808191812091370630913A
:1014B0003806820F931F9093380680933706409129
:1014C000BE005091BF009C012550310942175307BF
:1014D000E8F49093BF00809137068093CF0080910D
:1014E0007200806480937200809172008F7D80937F
:1014F0007200FF91EF919F918F915F914F913F917A
:101500002F910F900FBE0F901F90189558988091B3
:101510001201909113012091370630913806820F05
:10152000931F90933806809337069093BF00809165
:1015300037068093D2008091720080688093720099
:1015400010926D06D1CF1F920F920FB60F921124F9
:101550002F933F938F939F93EF93FF93589880918E
:101560003906909136062091370630913806891752
:1015700080F5E0913A06F0913B0691E0980F909348
:10158000390690E0880F991FE80FF91F808191813B
:10159000820F931F90933806809337069093BF0075
:1015A000809137068093D000809172008062809392
:1015B0007200809172008F7B80937200FF91EF9197
:1015C0009F918F913F912F910F900FBE0F901F9081
:1015D00018958091120190911301820F931F90939F
:1015E0003806809337069093BF008091370680932A
:1015F000D2008091720080688093720010926D0614
:10160000D8CFEEECF6E01382128288EE93E0A0E0F1
:10161000B0E084839583A683B7838EE395E09183BE
:1016200080838FEF9FEF95878487EEE1F7E011824B
:10163000108213821282158214826EE475E0CF014B
:101640000C946305CF93DF93CDB7DEB7A2970FB6A7
:10165000F894DEBF0FBECDBF789484B5826084BDA0
:1016600084B5816084BD85B5826085BD85B58160A6
:1016700085BD80916E00816080936E001092810024
:1016800080918100826080938100809181008160DF
:1016900080938100809180008160809380008091A0
:1016A000910082608093910080919100816080938D
:1016B0009100809190008160809390008091C100A2
:1016C00084608093C1008091C10082608093C100DA
:1016D0008091C10081608093C1008091C3008160CE
:1016E0008093C3008091C00082608093C00080918D
:1016F000C20081608093C20080917A0084608093F0
:101700007A0080917A00826080937A0080917A00DA
:10171000816080937A0080917A00806880937A005B
:101720001092BC0610924306109242068091D70098
:1017300081608093D70080EA8093D80089B580616A
:1017400089BD89B5826089BD09B400FEFDCF0E94C4
:10175000B8018091D8008F7C80618093D8008091FF
:10176000E000807F8093E0008091E1008E7E809396
:10177000E1008DE08093E200559A209A0FEF1FEF71
:101780001093DB060093DA068FE495E00E94E804EC
:10179000509A519A259A219A579A269A549A3E9A83
:1017A0006E9A249A229A239A86E08093160188E5FD
:1017B0009BE1909315018093140184EF91E0909345
:1017C0001801809317018EE190E0909313018093AC
:1017D00012011092CD0610926D06109248061092DA
:1017E000470610924A061092490610924C06109233
:1017F0004B0610924E0610924D061092460610921D
:101800004506109244061092CA061092C90610921C
:10181000C4061092C3061092BE061092BD06109226
:10182000C8061092C7061092C6061092C5061092FE
:10183000C2061092C1061092C0061092BF06109206
:101840008200109281001092800010926F008FEF42
:1018500086BBF894109285001092840092E09093D9
:10186000810078941092C0001092C1001092C200C2
:101870001092C3001092720089BB10926C061092F5
:10188000920610929306109294061092950610926A
:101890009E061092A3061092A20690E890930C0167
:1018A00044E659E160E070E040930E0150930F016F
:1018B00060931001709311011092A1061092A0067E
:1018C00010929F068AE080930D0110926406109298
:1018D00065061092660610926706109253061092E3
:1018E0005406109255061092560610925E061092FB
:1018F0005D06109252061092510610925F061092E9
:1019000061061092600610925C0610925B061092BF
:101910005A061092590610925806109257061092C5
:1019200091061092900610928D0610928C061092DD
:10193000890610928806E2E8F6E084E0DF011D9255
:101940008A95E9F71092630610926206109250068B
:1019500010924F0610927D0610927C061092790626
:101960001092780610937506009374062CE33CE3FE
:101970003093710620937006E0915106F0E0E85C28
:10198000FA4F80818770806680937C0090937B0003
:101990008CED80937A00FE0131966F0110E000E03B
:1019A000FE2EED2CC8010E94F114D6018D936D011D
:1019B0000F5F1F4F0E311105A9F789819A81AB8105
:1019C000BC818D339D43AD43BD4309F049C08D813A
:1019D0001E81AF81B885E985FA856B857C858D840C
:1019E0009E84AF84B88859894D89388D298D9A8D08
:1019F0000CEF080F10931601B0931801A093170174
:101A0000F0931501E0931401709313016093120198
:101A100080920E0190920F01A0921001B0921101DC
:101A200050930D0140930C010A3008F0BAC1309375
:101A3000A4062093A3069093A2068A3018F09C8DEA
:101A40009093A1068C3040F09D8D9093A0068D3030
:101A500019F48E8D80939F0688E595E00E94E80436
:101A60008DE695E00E94E8048091A50691E0892723
:101A70008093A506882309F4A7C12D9AAEE06A2EAB
:101A80008EEC96E00E947E03181619060CF0DDC25B
:101A90008EEC96E00E943C03D82E89831A82009136
:101AA0002207109123070F5F1F4FB8018EE197E0C7
:101AB0000E943B05882391F020911E0730911F075B
:101AC00080912207909123076F2D7E2D820F931F07
:101AD0000E9451171093230700932207FAE0DF12A8
:101AE000CFCF712C512C10E0C52CD12C1A82198229
:101AF0001C821B821E821D826BE775E08F2D9E2D3E
:101B00000E9463058091220790912307C816D90689
:101B100008F05CC1A0901E07B0901F0769817A8110
:101B2000C5018C0D9D1D0E945817009709F44EC1E8
:101B30008A199B09082F8F2D9E2D0E9415050F3F96
:101B400061F51A8219821C821B821E821D826DE43D
:101B500075E08F2D9E2D0E94630580912207909144
:101B60002307C816D90608F034C1A0901E07B0900C
:101B70001F0769817A81C5018C0D9D1D0E94581730
:101B8000009709F426C18A199B09082F8F2D9E2DD5
:101B90000E9415050F3F09F473C0501608F070C07D
:101BA000802E912C8C149D0420F0892D4601C02E8E
:101BB000D82E1A8219821C821B821E821D826EE41C
:101BC00075E08F2D9E2D0E946305A0902207B09096
:101BD00023078A149B0480F5CA14DB0408F4560119
:101BE000E0911E07F0911F07EA0DFB1D5080108247
:101BF000C0901E07D0901F07C80CD91CC114D10477
:101C000079F0F60101900020E9F731974F018C1827
:101C10009D08B4018F2D9E2D0E943B058111DCC0D3
:101C20008F2D9E2D0E94030580911E0790911F0706
:101C3000A80EB91ED5015C9289819A81812C912CC4
:101C40005401009721F00E94B5144B015C018F2DC7
:101C50009E2D0E94150555245394500E111101C05C
:101C6000782C71100FC1B7FC0BC0113009F0BCC04B
:101C7000B7E08B169104A104B10414F4809216010C
:101C80001F5F123109F030CF71101FC180E895E05D
:101C90000E94F4044AE06EE070E080E090E00E9470
:101CA000A4048BE795E00E94F404809116010E9441
:101CB000F6048BE795E00E94F4048091170190915F
:101CC00018010E94FD048BE795E00E94F4048091C6
:101CD0001401909115010E94FD048BE795E00E948C
:101CE000F40480911201909113010E94FD048BE78E
:101CF00095E00E94F40460910E0170910F018091B3
:101D00001001909111014AE00E94A4048BE795E034
:101D10000E94F40480910D010E94F6048BE795E087
:101D20000E94F40480910C010E94F6048BE795E078
:101D30000E94F4048091A4060E94F6048BE795E0CB
:101D40000E94F4048091A3060E94F6048BE795E0BC
:101D50000E94F4048091A2060E94F6048BE795E0AD
:101D60000E94F4048091A1060E94F6048BE795E09E
:101D70000E94F4048091A0060E94F6048BE795E08F
:101D80000E94F40480919F060E94F6048BE795E080
:101D90000E94F4048091CD060E94F6040E94A004E3
:101DA00090C08E898093A4068F898093A306309378
:101DB000A2062093A1069093A0068B8D80939F0688
:101DC0008C8D8093CD0648CE2D9858CE8FEF9FEF07
:101DD000B1CE8FEF9FEFD9CE9E828D82B6018981E1
:101DE0009A810E94511720CF123029F49092180145
:101DF0008092170145CF133029F4909215018092FB
:101E000014013ECF143029F49092130180921201F4
:101E100037CF153049F480920E0190920F01A092B5
:101E20001001B09211012CCF163019F480920D01DF
:101E300027CF173019F480920C0122CF183019F4F3
:101E40008092A4061DCF193019F48092A30618CFF2
:101E50001A3019F48092A20613CF1B3019F4809225
:101E6000A1060ECF1C3019F48092A00609CF1D30B8
:101E700019F480929F0604CF1E3009F001CF8092A2
:101E8000CD06FECEE7E07E1252C0113009F0F8CE4A
:101E9000F3E08F169104A104B10408F0F1CE87E0BD
:101EA00090E081149104A104B10449F088E090E02D
:101EB0008A9489288A288B2811F089E090E00E9472
:101EC00069048DE795E00E94E8041A8219821C8259
:101ED0001B821E821D826EE475E08F2D9E2D0E9456
:101EE000630580911E0790911F07009709F496C023
:101EF00069817A816115710509F48EC040912007CE
:101F0000509121072D813E814217530708F484C068
:101F10000E9451178D819E81909323078093220701
:101F20001E821D828F2D9E2D0E941505A9CD38E0A1
:101F3000731262C01E8E1D8E8DE39DE3DC018983CA
:101F40009A83AB83BC836D82809116018E838091CE
:101F500017019091180198878F83809114019091B7
:101F600015019A87898780911201909113019C87AE
:101F70008B8780910E0190910F01A0911001B0917B
:101F800011018D879E87AF87B88B80910D0190E0FE
:101F9000B0E0A0E0898B9A8BAB8BBC8B80910C015D
:101FA0008D8B8091A4068E8B8091A3068F8B809160
:101FB000A206888F8091A106898F8091A0068A8FC2
:101FC00080919F068B8F8091CD068C8FCF2CDE2C3D
:101FD00010E000E0D601BD906D01C8010E94F1142F
:101FE000B81621F06B2DC8010E94F9140F5F1F4F26
:101FF0000E31110579F765CFBAE07B1241CE113071
:1020000009F03ECEE2E08E169104A104B10408F07E
:1020100037CE80929E0655CF0E94021689819A8102
:1020200090931F0780931E078B819C8190932107BB
:10203000809320078D819E819093230780932207B0
:102040001A8219821C821B826BCF8091A40688237E
:1020500041F080916D0681112EC280916C06811134
:102060002AC280917C068F8F80917D0688A3109272
:1020700068061092690610926A0610926B068090AC
:10208000640690906506A0906606B090670681147D
:102090009104A104B10409F01BC322E636E03AA37F
:1020A00029A32E013FE1430E511C7BE5C72E76E0AC
:1020B000D72EE9E58E2EE6E09E2EF0E6AF2EF6E076
:1020C000BF2E10E000E0120166246394702EA9A1D7
:1020D000BAA13D91BAA3A9A3F801E458F94F8081B0
:1020E000F20181932F01D5011C9290915F069923F3
:1020F000B9F13817A8F5F801E059F94F908189171F
:1021000078F16C9280915E0680133AC080915D06F2
:102110008823B1F181E090E02A2DE0E6F6E02E1B65
:10212000213011F490E080E0F101E80FF91F2081E7
:10213000231730F18059994FDC018C9190E0AC016C
:1021400034E0559547953A95E1F79595879595959E
:102150008795840F951F2817190694F0F5011082B2
:10216000FFEFAF1ABF0A2FEFC21AD20A3FEF831A4E
:10217000930A0130110509F4A0C001E010E0A6CFD8
:102180008091680690916906A0916A06B0916B06ED
:10219000892B8A2B8B2B51F40E9493016093680644
:1021A0007093690680936A0690936B06D6011C9221
:1021B00080915E06871104C080915D06811107C081
:1021C000F4011082109258061092570628C0D401CC
:1021D0006C9280918C0690918D06019690938D065D
:1021E00080938C06809157069091580601969093A3
:1021F0005806809357062A9A8091A306882341F0B7
:102200008091570680FF04C08CE895E00E94E804A6
:102210008091A006882309F448C2F6016082F60185
:10222000808181119DCF409168065091690660912F
:102230006A0670916B0680910E0190910F01A0913A
:102240001001B09111014A015B01880E991EAA1E6E
:10225000BB1E8092640690926506A0926606B092BC
:10226000670622E0B695A795979587952A95D1F7A9
:10227000840F951FA61FB71F809353069093540693
:10228000A0935506B0935606772009F41FC25C9AB6
:1022900070925E0681E080935D06872D0E94BC00EF
:1022A000000F111FF801EE57F94F808191810196BF
:1022B0009183808381E08093520680919E068823DB
:1022C00009F4D1C08FE0EFE1F1E0AF2DBE2D019018
:1022D0000D928A95E1F78091680690916906A09128
:1022E0006A06B0916B06892B8A2B8B2B51F40E94C6
:1022F0009301609368067093690680936A069093D1
:102300006B0680915A06882309F405C280EA9091F1
:102310005C0640E1911101C040E09091610638E017
:10232000911101C030E09091590624E0911101C053
:1023300020E090915B06992309F4EFC192E050915F
:102340006006852B842B832B822B892B8C83809199
:102350005F0638E8811101C030E880915E0624E014
:10236000813009F020E08091520692E0811101C095
:1023700090E081E0409164065091650660916606A8
:1023800070916706452B462B472B09F480E0832B81
:10239000822B892B8D838091570680688E832F8DA9
:1023A000822F8695869580688F8388A150E2259F2D
:1023B000900111242076982F969596959695906881
:1023C000292B2887409168065091690660916A061A
:1023D00070916B068295807F282F2077DB01CA01E0
:1023E0003CE1B695A795979587953A95D1F7822BBD
:1023F00080688987DB01CA01E5E1B695A7959795C5
:102400008795EA95D1F780688A87DB01CA01FEE0EB
:10241000B695A79597958795FA95D1F780688B879C
:10242000DB01CA0117E0B695A795979587951A9590
:10243000D1F780688C8740684D874FE050E06F2D62
:102440007E2D8EEC96E00E9496021092520610921B
:102450005A0610925C06109261061092590610926C
:102460005B061092600620919006309191068F8D48
:102470008093620690917806981710F480937806FE
:1024800090917406891710F48093740688A1809344
:10249000630690917906981710F4809379069091CD
:1024A0007506891710F4809375062E5F3F4F3093A1
:1024B0009106209390068090530690905406A09029
:1024C0005506B090560681149104A104B104C1F1DF
:1024D0008091680690916906A0916A06B0916B069A
:1024E000892B8A2B8B2B51F40E94930160936806F1
:1024F0007093690680936A0690936B0680916806D4
:1025000090916906A0916A06B0916B0688159905AD
:10251000AA05BB05A8F088199909AA09BB09811564
:102520009748A349B34060F41092530610925406A2
:10253000109255061092560646985C982B982A9849
:1025400080916D06882309F4EAC08AE080936C06C6
:102550000E9493014B015C0180929A0690929B0627
:10256000A0929C06B0929D06809196069091970647
:10257000A0919806B091990688169906AA06BB06FE
:1025800008F435C1A5019401281B390B4A0B5B0BDC
:10259000DA01C90181159748A349B34008F027C162
:1025A0008091A206882309F4D0C18091920690916F
:1025B0009306A0919406B0919506883C9105A105DB
:1025C000B10509F46BC108F0C9C08B349105A105B0
:1025D000B10509F438C108F0ABC089319105A105F6
:1025E000B10509F457C082339105A105B10509F47D
:1025F00021C1892B8A2B8B2B09F0DFC0809190069B
:102600009091910690938F0680938E0680918C0610
:1026100090918D0690938B0680938A068091880610
:102620009091890690938706809386068091820612
:102630009091830690937F0680937E0680917C061E
:1026400080937A068091780680937606809174064E
:10265000809372068091700680936E068091840646
:1026600090918506909381068093800680917D06E7
:1026700080937B068091790680937706809175061A
:10268000809373068091710680936F060E94980371
:102690000E941D058FE895E00E94F40480918E064B
:1026A00090918F060E94FD0488C08091A106882326
:1026B00009F4B5CD209157063091580682171306BC
:1026C00009F008F47FCDD6016C92A9CD469AE0CDF1
:1026D0000E949301609368067093690680936A066E
:1026E00090936B06681579058A059B0508F4E5CD7E
:1026F000681979098A099B096115774883499340CC
:1027000008F0DBCD10926406109265061092660602
:1027100010926706D2CD80E8FACD90E010CE80917D
:102720006C06882309F414CF80916C0681500ECF7B
:1027300086399105A105B10509F49EC08F3A91052E
:10274000A105B10509F4A1C08D379105A105B10519
:10275000A1F585ED95E00E94F4042FC08E3541E08F
:102760009407A105B10509F4BAC0C8F48A3F9105E0
:10277000A105B10509F499C08534E1E09E07A105E2
:10278000B10509F4A9C0813E9105A105B105A9F4DF
:102790008FE096E00E94F404809172067CC080393C
:1027A000F1E09F07A105B10509F4A9C040F58737FD
:1027B0009140A105B10509F49BC0809192069091CA
:1027C0009306A0919406B09195060196A11DB11DA6
:1027D000853FE1E09E07A105B10508F09EC080930A
:1027E000920690939306A0939406B093950680E08A
:1027F00090E0892B09F438C90E94000035C9893A54
:1028000041E09407A105B10509F480C0823C9140E4
:10281000A105B10591F685E196E00E94F40480914E
:102820006F060E94F6040E94A00484EF91E0A0E0ED
:10283000B0E019C08FEA95E00E94F40480918A0606
:1028400090918B062FCF82EC95E00E94F40480914A
:102850008606909187060E94FD040E94A00484E6EB
:1028600090E0A0E0B0E08093920690939306A0934E
:102870009406B0939506A1CF81EF95E00E94F404F1
:1028800080917E0690917F060DCF8EEF95E00E949D
:10289000F40480917A060E94F6048FCF88E096E0D7
:1028A0000E94F40480917606F6CF85E196E00E94BE
:1028B000F40480916E060E94F6040E94A0042CE2AB
:1028C00031E040E050E0209392063093930640932D
:1028D00094065093950671CF8BE196E03CCF81EF43
:1028E00095E00E94F4048091800690918106DACEF2
:1028F0008EEF95E00E94F40480917B06CCCF88E0B7
:1029000096E00E94F40480917706C5CF8FE096E0B0
:102910000E94F40480917306BECF1092920610922A
:1029200093061092940610929506F0E48F0EFBE445
:102930009F1EFCE4AF1EB11C8092960690929706F3
:10294000A0929806B092990652CF0E9498030E94D6
:102950001D0520E4820E2BE4921E2CE4A21EB11C65
:10296000EBCF8EE197E00C9415051F93FC0199279E
:102970008827BC01E89411911032E9F3193010F066
:102980001E30C8F31B3251F01D3249F4689406C062
:102990000E94DC14610F711D811D911D1191105356
:1029A0001A30B0F33EF490958095709561957F4F05
:1029B0008F4F9F4F1F910895592F482F372F262F44
:1029C000660F771F881F991F660F771F881F991F33
:1029D000620F731F841F951F660F771F881F991F33
:1029E0000895F999FECF92BD81BDF89A992780B5D7
:1029F0000895262FF999FECF1FBA92BD81BD20BD43
:102A00000FB6F894FA9AF99A0FBE019608952F928C
:102A10003F924F925F926F927F928F929F92AF926E
:102A2000BF92CF92DF92EF92FF920F931F93CF93BB
:102A3000DF93CDB7DEB7CA1BDB0B0FB6F894DEBF52
:102A40000FBECDBF09942A88398848885F846E8478
:102A50007D848C849B84AA84B984C884DF80EE80C2
:102A6000FD800C811B81AA81B981CE0FD11D0FB6CB
:102A7000F894DEBF0FBECDBFED010895A1E21A2E7E
:102A8000AA1BBB1BFD010DC0AA1FBB1FEE1FFF1F12
:102A9000A217B307E407F50720F0A21BB30BE40B62
:102AA000F50B661F771F881F991F1A9469F76095A9
:102AB0007095809590959B01AC01BD01CF01089563
:102AC000EE0FFF1F0590F491E02D09940F931F93D3
:102AD000CF93DF938230910510F482E090E0E09193
:102AE0002607F091270730E020E0B0E0A0E0309723
:102AF00099F42115310509F44AC0281B390B2430FB
:102B00003105D8F58A819B816115710589F1FB0139
:102B100093838283FE0111C0408151810281138120
:102B200048175907E0F04817590799F4109761F0D2
:102B300012960C93129713961C933296CF01DF9145
:102B4000CF911F910F9108950093260710932707A7
:102B5000F4CF2115310551F04217530738F0A90180
:102B6000DB019A01BD01DF01F801C1CFEF01F9CF0F
:102B70009093270780932607CDCFFE01E20FF31F26
:102B8000819391932250310939832883D7CF2091A3
:102B9000240730912507232B41F420911B0130910C
:102BA0001C013093250720932407209119013091AF
:102BB0001A012115310541F42DB73EB740911D0191
:102BC00050911E01241B350BE0912407F09125073D
:102BD000E217F307A0F42E1B3F0B2817390778F0F4
:102BE000AC014E5F5F4F2417350748F04E0F5F1F53
:102BF0005093250740932407819391939FCFF0E052
:102C0000E0E09CCFCF93DF930097E9F0FC0132978F
:102C100013821282A0912607B0912707ED0130E0C0
:102C200020E01097A1F420813181820F931F209121
:102C30002407309125072817390709F061C0F09360
:102C40002507E0932407DF91CF910895EA01CE177D
:102C5000DF07E8F54A815B819E0141155105B1F717
:102C6000E901FB83EA8349915991C40FD51FEC1701
:102C7000FD0761F4808191810296840F951FE9011F
:102C800099838883828193819B838A83F0E0E0E04B
:102C900012968D919C9113970097B9F52D913C91C7
:102CA0001197CD010296820F931F20912407309136
:102CB00025072817390739F6309751F5109227075D
:102CC00010922607B0932507A0932407BCCFD38387
:102CD000C28340815181840F951FC817D90761F4C1
:102CE0004E5F5F4F88819981480F591F5183408300
:102CF0008A819B81938382832115310509F0B0CFAE
:102D0000F0932707E09326079ECFFD01DC01C0CF9B
:102D100013821282D7CFB0E0A0E0E1E9F6E10C9493
:102D200009158C01009751F4CB010E9466158C01A6
:102D3000C801CDB7DEB7E0E10C942515FC01E60F24
:102D4000F71F9C0122503109E217F30708F49DC0D8
:102D5000D901CD91DC911197C617D70798F0C530EE
:102D6000D10530F3CE0104978617970708F3C61BE9
:102D7000D70B2297C193D1936D937C93CF010E947F
:102D80000216D6CF5B01AC1ABD0A4C018C0E9D1EFB
:102D9000A0912607B0912707512C412CF12CE12C52
:102DA000109731F580912407909125078815990592
:102DB00009F05CC04616570608F058C0809119010A
:102DC00090911A01009741F48DB79EB740911D0173
:102DD00050911E01841B950BE817F90708F055C0A8
:102DE000F0932507E0932407F90171836083A0CF56
:102DF0008D919C91119712966C90129713967C90DE
:102E00001397A815B90559F56C0142E0C40ED11C01
:102E1000CA14DB0420F1AC014A195B09DA011296ED
:102E2000159780F06282738251834083D9016D933C
:102E30007C93E114F10471F0D7011396FC93EE93A7
:102E4000129776CF22968C0F9D1FF9019183808374
:102E5000F301EFCFF0932707E093260769CF4816D9
:102E6000590608F42C017D01D3019ACFCB010E94B1
:102E700066157C01009749F0AE01B8010E94481721
:102E8000C8010E940216870153CF10E000E050CF26
:102E9000FB01DC0102C001900D9241505040D8F777
:102EA0000895FB01DC0101900D920020E1F70895E7
:102EB000FB0151915523A9F0BF01DC014D9145174C
:102EC0004111E1F759F4CD010190002049F04D91F5
:102ED00040154111C9F3FB014111EFCF81E090E0B2
:102EE0000197089510E0C1E9D0E004C0FE010E94FE
:0E2EF00060152196C239D107C9F7F894FFCFBB
:102EFE00FFFFFFFF00E1000000000000800A6419E0
:102F0E0000001E00581B06F4010000280780002B4D
:102F1E006F20000000000000000000000D0A09FFF5
:102F2E000001020304050607080000DC0007001478
:102F3E0000140014003C0014003C001400000000BB
:102F4E00000000000000000000000000000000DC97
:102F5E0000070014003C0014003C00140014001480
:102F6E000000000000000000000000000000000053
:102F7E00000000DC00070014003C001400140014D4
:102F8E00003C0014000000000000000000000000E3
:102F9E0000000000000000DC000700140014001404
:102FAE000064001400140014000000000000000073
:102FBE000000000000000000000000DC000700140C
:102FCE00006400140014001400140014000000002B
:102FDE0000000000000000000000000000000004DF
:102FEE000107001400640014003C001400140014C7
:102FFE0000000000000000000000000000000000C3
:10300E00000000900107001400C8001400640014B2
:10301E0000C80014000000000000000000000000C6
:10302E0000000000000000680107001400C8001432
:10303E00003C001400C80014000000000000000056
:10304E000000000000000000000000400107001416
:10305E0000C800140014001400C800140000000082
:10306E000000000000000000000000000009FF004A
:10307E0001020300000000000000DC000700140045
:10308E00140014003C0014003C001400000000006A
:10309E000000000000000000000000000000DC0046
:1030AE00070014003C0014003C001400140014002F
:1030BE000000000000000000000000000000000002
:1030CE000000DC00070014003C0014001400140083
:1030DE003C00140000000000000000000000000092
:1030EE00000000000000DC000700140014001400B3
:1030FE006400140014001400000000000000000022
:10310E00000000000000000004FF00010203FFFFAA
:10311E00FFFFFF00001C020900140014001400142D
:10312E000014007C011400140014000000000000C4
:10313E00000000000000000000CC01090014001483
:10314E00001400140014002C0114001400140000CC
:10315E00000000000000000000000000007C0109DB
:10316E000014001400140014001400DC00140014E9
:10317E00001400000000000000000000000000002D
:10318E00002C010900140014001400140014008C0B
:10319E0000140014001400000000000000000000E5
:1031AE0000000002FF00FF01FFFFFFFFFFFF000016
:1031BE001C020F0014001400140014001400500020
:1031CE0014008C001400140014005000140014009D
:1031DE0014000000B8010F001400140014001400B5
:1031EE0014003C0014003C001400140014005000A5
:1031FE0014001400140004FF00010203FFFFFFFF80
:10320E00FF01006400030017002E001F00000000E5
:10321E0000000000000000000000000000000000A0
:10322E00000000000001008D00030017004E002872
:10323E000000000000000000000000000000000080
:10324E0000000000000000000001002B0001002B18
:10325E000000000000000000000000000000000060
:10326E00000000000000000000000000000100440B
:10327E0000030017001500180000000000000000F9
:10328E000000000000000000000000000000000030
:10329E000002FF00FF01FFFFFFFFFFFF00005E00C7
:1032AE0005001200140012001400120000000000AD
:1032BE000000000000000000000000000000000000
:1032CE0000006000030012003C001200000000002D
:1032DE0000000000000000000000000000000000E0
:1032EE000000000001FF00FFFFFFFFFFFFFFFF00D8
:1032FE0000420005000E000C000E000C000E000037
:10330E0000000000000000000000000000000000AF
:10331E00000000F404A1040604B30318037D022E7A
:10332E000100C180810000000706000000001703A5
:10333E00960238032D037E033C035A030D0A002B1D
:10334E007374617274757000656570726F6D207242
:10335E006561645F73657474696E677300696E6925
:10336E007420636F6D706C657465002C004F4B009C
:10337E00706172616D657465727320002B64002B31
:10338E0073746174732067656E6572616C2072650B
:10339E006164696E675F636F756E7465723A002063
:1033AE006475706C69636174655F6672616D657377
:1033BE003A00207072656D61747572655F66726138
:1033CE006D65733A002B73746174732073656E733D
:1033DE006F72206368616E6E656C3A7269676874AD
:1033EE000020646574656374696F6E733A002072B1
:1033FE00656164696E673A0020686967683A002003
:10340E006C6F773A00207468723A002B7374617493
:10341E00732073656E736F72206368616E6E656C78
:06342E003A6C65667400B3
:00000001FF
