:100000000C9492000C94BA000C94BA000C94BA00B0
:100010000C94BA000C94BA000C94BA000C94BA0078
:100020000C94BA000C94BA000C940D070C947C0745
:100030000C94BA000C94BA000C94BA000C94BA0058
:100040000C94BA000C94BA000C94D50A0C94090ACA
:100050000C94BA000C94BA000C94BA000C94C30629
:100060000C94BA000C94BA000C94BA000C94BA0028
:100070000C94BA000C94AE090C94BA000C94BA001B
:100080000C94BA000C94BA000C94BA000C94BA0008
:100090000C94BA000C94BA000C943D0C0C94CD0B4B
:1000A0000C94A20B0C94BA000C94BA00080B00023A
:1000B0000202000009040000010202000005240001
:1000C0001001052401010104240206052406000193
:1000D0000705810310004009040100020A00000026
:1000E00007050202400000070583024000000403E8
:1000F000090412010002EF0201404F1B06920001A9
:1001000001020301537061726B46756E005370619A
:10011000726B46756E2050726F204D6963726F006E
:100120009D0CB61611241FBECFEFDAE0DEBFCDBFA7
:1001300027E0A6EAB6E001C01D92A93AB207E1F7AE
:1001400016E0A0E0B1E0E8E0F3E302C005900D9214
:10015000A63AB107D9F710E0C1E9D0E004C0219771
:10016000FE010E946517C039D107C9F70E94BE0C75
:100170000C9477190C9400002FB7F89483E08093C7
:10018000E9009091E800892F807295FF04C090915A
:10019000F20080E4891B2FBF0895FC0180914E0777
:1001A000882311F13FB7F89482E08093E900209111
:1001B000F200822F90E01816190614F481E090E006
:1001C000882339F0289844E640934D074091F10088
:1001D0004083222339F02091F200211103C02BE645
:1001E0002093E8003FBF08958FEF9FEF089580911F
:1001F000450781110DC082E08093410784E0809320
:100200004207109244071092430781E0809345070C
:1002100081E497E008953FB7F89480913D0790916D
:100220003E07A0913F07B091400726B5A89B05C0A7
:100230002F3F19F00196A11DB11D3FBFBA2FA92F65
:10024000982F8827BC01CD01620F711D811D911D62
:1002500042E0660F771F881F991F4A95D1F70895CE
:10026000CF92DF92EF92FF920E940B016B017C0113
:100270000E940B016C197D098E099F09683E73402D
:1002800081059105A8F3FF90EF90DF90CF9008953E
:1002900008954091B8065091B9062091B606309164
:1002A000B70642175307B4F49091E8009570E1F354
:1002B0009091E80092FD19C08093F1008091B806FA
:1002C0009091B90601968F739927892B19F48EEFB7
:1002D0008093E8008091B8069091B90601969093BA
:1002E000B9068093B80681E0089580E00895EF9202
:1002F000FF920F931F93CF93DF93F82E192FE62EC3
:10030000042F81E0860F880F0E94490183E00E943C
:100310004901CF2DD12FEC0EFD2EF11CCE15DF059E
:10032000B9F007FF13C0FE0184910E944901182F04
:1003300080E00E944901812321968111EFCFDF9156
:10034000CF911F910F91FF90EF9008958881EDCF8D
:1003500081E0F5CFDF92EF92FF920F931F93CF933F
:10036000DF93D82E8A01EB017B01E40EF51ECE153A
:10037000DF0559F0D7FE12C0FE0184910E944901A9
:1003800021968111F4CF0FEF1FEFC801DF91CF91BC
:100390001F910F91FF90EF90DF9008958881EECF2D
:1003A0000F931F93CF93DF931F92CDB7DEB782E0F9
:1003B000898342E450E06CEA70E080E80E94AA0180
:1003C0000E94F700DC0112960D911C910115110598
:1003D00089F0D801ED91FC910280F381E02DBE01FE
:1003E0006F5F7F4FC801099597FD04C0F801008534
:1003F0001185ECCF89810F90DF91CF911F910F91E3
:100400000895615030F02091F100FC0120830196A5
:10041000F8CF289884E680934D0708958F929F9295
:10042000AF92BF92CF92DF92EF92FF920F931F9302
:10043000CF93DF936C017B018A0180910B018823AC
:1004400009F458C080914E07882309F453C0809165
:10045000BC0680FF05C08091E00082608093E000D0
:10046000E801B12C8AEFA82E93E0892E2AE3922E80
:10047000209711F4BB20B9F10E94BC00811106C085
:10048000AA94AA20B9F10E943001F2CF8C171D0660
:1004900011F00CF08C2F9FB7F8948092E900209116
:1004A000E80025FD02C09FBFE3CF282F30E0C21B2C
:1004B000D30BF701815020F041914093F100FACF26
:1004C000E20EF31EBB2021F09092E800B12CEBCF9E
:1004D0008091E80085FDE7CF9092E800BB24B394BB
:1004E000209709F3F3CF5D9884E68093BB0610163E
:1004F00011063CF081E090E0F6019383828310E0E6
:1005000000E0C801DF91CF911F910F91FF90EF9014
:10051000DF90CF90BF90AF909F908F900895CF9332
:10052000DF931F92CDB7DEB76983DC01ED91FC91BB
:100530000280F381E02D41E050E0BE016F5F7F4F0C
:1005400009950F90DF91CF91089583E08093E900A2
:100550008091F200882319F08AE38093E8000895DF
:100560000E94BC0090E00895CF93DF931F92CDB717
:10057000DEB7FC018485958597FD08C02FEF3FEF1E
:10058000358724870F90DF91CF910895CE01019692
:100590000E94CD00019719F4898190E0F3CF8FEF8D
:1005A0009FEFF0CF0F931F93CF93DF931F92CDB7A1
:1005B000DEB78C01FC018485958597FF0BC0CE01C9
:1005C00001960E94CD00019771F4898190E0F801B5
:1005D00095878487F801848595850F90DF91CF9169
:1005E0001F910F9108958FEF9FEFF1CFFC0184854C
:1005F000958597FD0BC09FB7F89482E08093E90042
:100600008091F2009FBF90E0019608959FB7F89403
:1006100082E08093E9008091F2009FBF90E008950E
:10062000CF93C0910E01F0910D018FEF90E0DC01AE
:10063000AF1BB10950910C01851B9109E091110785
:1006400041E0EC1708F440E020910D0730E0A29F54
:10065000B001A39F700DB29F700D1124FE9F600D1D
:10066000711D112470930907829FB001839F700D43
:10067000929F700D11245E9F600D711D1124709367
:100680000507E0911207EC1708F440E020910E07EF
:1006900030E0A29FB001A39F700DB29F700D112496
:1006A000FE9F600D711D112470930A07289FB001F1
:1006B000299F700D389F700D1124E59F600D711DED
:1006C0001124709306074093F806CF9108959091F6
:1006D000310721E030E0981711F023E030E0E0919D
:1006E0001901F0E0EE0FFF1FE957FA4F40815181E9
:1006F0005093B5064093B406E091B406F091B50668
:10070000E20FF31F9181E091B406F091B5064081AC
:10071000491710F09F3FD1F4909131072AE030E063
:10072000981711F02BE030E0E091B406F091B50697
:10073000E20FF31F8181E091B406F091B50690813C
:10074000981708F4D6C08F3F09F4D3C0F8944091AD
:1007500084005091850080913007813009F0CAC033
:100760001092C1061092C006660F771F7093BF06E5
:100770006093BE06809181008860809381008091A3
:10078000BE069091BF069093890080938800809167
:10079000BE069091BF066091CE067091CF06861777
:1007A000970720F41092CF061092CE066091CA06E9
:1007B0007091CB068617970720F41092CB06109203
:1007C000CA068417950730F41092850010928400B1
:1007D00050E040E078948091170190911801880FC3
:1007E000991F840F951F6091B4067091B5064091D2
:1007F000B2065091B30664177507A1F01092D106A6
:100800001092D00640916F004B7F40936F00B29AD8
:100810001092CD061092CC0640916F00477F409316
:100820006F00B39A4091B4065091B5065093B30649
:100830004093B206E091B206F091B306E20FF31FC7
:1008400041814F3FC9F0E091B206F091B30650816B
:10085000451790F4E091B206F091B30654E2459F3B
:10086000E00DF11D1124458556854130510521F4D7
:1008700047855089841B950B4091BE065091BF0659
:10088000609130076130E1F1A901477F43305105A4
:1008900009F054C04091D0065091D106452BD1F5B6
:1008A000F89490938B0080938A00B29A40916F00E5
:1008B000446040936F003093D1062093D00630936C
:1008C000B1062093B0069093CF068093CE06409158
:1008D0003007413069F42B303105C9F021E030E0B8
:1008E0003093AF062093AE069093CB068093CA0652
:1008F0007894089580918100877F809381006ACFEA
:100900004817590708F0C0CF841B950BB9CF2AE0D0
:1009100030E0E6CF409130074111EBCF4091C8065F
:100920005091C906452B29F7F8943093C9062093B6
:10093000C8069093C7068093C606DACF21303105EA
:1009400019F02A303105A9F64091CC065091CD0618
:10095000452B69F5F89490938D0080938C00B39AA1
:1009600040916F00486040936F003093CD06209314
:10097000CC063093AF062093AE069093CB068093BF
:10098000CA0640913007413009F0B2CF2A30310514
:1009900059F023E030E03093B1062093B0069093F5
:1009A000CF068093CE06A4CF2BE030E0F4CF409169
:1009B000300741119ECF4091C4065091C506452B8A
:1009C00009F097CFF8943093C5062093C40690930E
:1009D000C3068093C2068CCF2091B2063091B30635
:1009E0003093A7062093A6062091A6063091A7066D
:1009F000820F931FFC0191819F3F09F45EC0E0913B
:100A0000A606F091A7068081981708F056C020919D
:100A1000A6063091A706F4E29F9FC0011124AC0105
:100A20004D5E5F4F420F531F5093AD064093AC068F
:100A300041E04093AB06820F931FFC0181898093B4
:100A4000A80640930207F8941092BF001092BF00CE
:100A50001092BE0083E08093BF008FEF8093D1009F
:100A6000E091AC06F091AD06808191819093AA0649
:100A70008093A906009719F58091AB069091A8067E
:100A8000891780F591E0980F9093AB0690E0880F5E
:100A9000991FE80FF91F908181819093A906809397
:100AA000AA068093BF008091A9068093D000809110
:100AB00072008062809372000EC00C94880590933F
:100AC000BF008091A9068093CF008091720080645E
:100AD00080937200589A8FEF89BB85E08093C100A4
:100AE0007894089580911301909114019093AA062F
:100AF0008093A9069093BF008091A9068093D200AD
:100B00008091720080688093720010920207E3CF98
:100B10009091D4068091D3069817A1F0E091D40665
:100B2000F0E0EE0FFF1FEB52F94F80819181209191
:100B3000D40630E02F5F3F4F237033272093D40635
:100B40000C94EC041092D20608952091D206222330
:100B500001F1F8942091D3064091D40630E02F5F44
:100B60003F4F237033274217130689F0E091D306D5
:100B7000F0E0EE0FFF1FEB52F94F918380838091DD
:100B8000D30690E00196837099278093D3067894DA
:100B900008950E94EC0481E08093D2060895FC0140
:100BA00001900020E9F73197AF01481B590BBC01B8
:100BB0008FE497E00C940E0282EB95E00C94CF0545
:100BC0008F929F92AF92BF920F931F93CF93DF9319
:100BD000CDB7DEB7A1970FB6F894DEBF0FBECDBF7D
:100BE00019A2423008F44AE08E010F5D1F4F842E97
:100BF000912CB12CA12CA50194010E944317E62F42
:100C0000B901CA01EA30F4F4E05DD801EE938D0138
:100C1000232B242B252B79F790E080E0109719F0F7
:100C2000CD010E94CF05A1960FB6F894DEBF0FBE8E
:100C3000CDBFDF91CF911F910F91BF90AF909F904B
:100C40008F900895E95CE1CFCF93DF930E94CF05A9
:100C5000EC010E94DC058C0F9D1FDF91CF91089560
:100C60000C94CF05682F70E090E080E04AE00C948F
:100C7000E005BC0190E080E04AE00C94E005CF93F1
:100C8000DF93EC0188819981009711F00E94071889
:100C9000198218821D821C821B821A82DF91CF91D9
:100CA0000895FC0180819181009711F00C94071840
:100CB0000895109222071092210710921E07109299
:100CC0001D0710921A07109219071092120710921E
:100CD00011078FEF9FEF90930E0780930D070895F4
:100CE0000F931F93CF93DF93EC0188819981009735
:100CF00059F02A813B812617370730F081E0DF91D8
:100D0000CF911F910F9108958B016F5F7F4F0E94CC
:100D10009018009759F0998388831B830A832C814C
:100D20003D81232B59F7FC011082E8CF80E0E7CF0B
:100D3000EF92FF920F931F93CF93DF938C017B0170
:100D4000EB0109900020E9F72197C61BD70BBE01E4
:100D50000E947006811109C0C801DF91CF911F91D7
:100D60000F91FF90EF900C943F06F801D583C48358
:100D7000B70180819181DF91CF911F910F91FF90F9
:100D8000EF900C9456191F920F920FB60F921124E8
:100D90002F933F938F939F93AF93BF938091390786
:100DA00090913A07A0913B07B0913C0730913807EA
:100DB00023E0230F2D3758F50196A11DB11D209377
:100DC00038078093390790933A07A0933B07B09375
:100DD0003C0780913D0790913E07A0913F07B0915D
:100DE00040070196A11DB11D80933D0790933E07DA
:100DF000A0933F07B0934007BF91AF919F918F9110
:100E00003F912F910F900FBE0F901F90189526E8DD
:100E1000230F0296A11DB11DD2CF1F920F920FB6C4
:100E20000F9211248F939F938091E1009091E100A4
:100E3000937F9093E10083FF0FC01092E90091E04F
:100E40009093EB001092EC0092E39093ED001092DF
:100E50004E0798E09093F00082FF22C093E09093B9
:100E6000E9009091F200992319F09AE39093E80039
:100E70009091BB06992341F09091BB0691509093BD
:100E8000BB06911101C05D9A90914D07992341F0E5
:100E900090914D07915090934D07911101C0289A60
:100EA00084FF18C08091E2008E7E81608093E20012
:100EB0008091E1008F7E8093E1008091BC068E7E60
:100EC00080618093BC069F918F910F900FBE0F9011
:100ED0001F90189580FFF7CF8091E2008E7E806191
:100EE0008093E2008091E1008E7E8093E10080910A
:100EF000BC068E7E8160E5CF1F920F920FB60F92D7
:100F00001124CF92DF92EF92FF920F931F932F93B2
:100F10003F934F935F936F937F938F939F93AF9381
:100F2000BF93EF93FF93CF93DF93CDB7DEB76C976B
:100F3000DEBFCDBF1092E9008091E80083FF25C09D
:100F400068E0CE0145960E94010282EF8093E8009E
:100F50008D8987FF39C09091E80090FFFCCF982FD2
:100F6000907609F034C19E894F89588D2F89F88C6D
:100F7000911131C0803861F58091BD068093F100F8
:100F80001092F1008EEF8093E8006C960FB6F89403
:100F9000DEBF0FBECDBFDF91CF91FF91EF91BF912B
:100FA000AF919F918F917F916F915F914F913F9101
:100FB0002F911F910F91FF90EF90DF90CF900F90A6
:100FC0000FBE0F901F9018959EEF9093E800C7CF2B
:100FD0001092F100D5CF913059F48111D3CF413027
:100FE000510581F68091BD068D7F8093BD06CACFE5
:100FF000933049F48111C6CF4130510519F68091E3
:10100000BD068260F2CF953041F48091E80080FF08
:10101000FCCF20682093E300B5CF963009F0A9C03B
:101020000B8D1C8D22E01092E9001092B9061092EF
:10103000B806F2122EC01092B7061092B6060E94A1
:10104000D0011F8299E09983FA8291E09E8390EA11
:1010500098879AEF99872091B8063091B906275F53
:101060003F4F3C832B838D831092E9001092B90689
:101070001092B8061093B7060093B60649E050E008
:10108000BE016F5F7F4F80E00E94AA010E94D001E5
:1010900079CF1093B7060093B6060E94F700DC01E3
:1010A00012960D911C910115110509F451C1D80139
:1010B000ED91FC910480F581E02DBE016B5E7F4FC8
:1010C000C8010995009709F03EC1F8010085118516
:1010D000EACFF3E0FF120EC08F89882309F440C0E5
:1010E000823061F440E862E18DE091E00E94770196
:1010F000811148CF81E28093EB0047CF813029F402
:1011000040E868E084E091E0F1CF833099F70E94F5
:10111000F700DC011296ED90FC908E010F5F1F4FDF
:101120006801E114F10479F0D701ED91FC9106809A
:10113000F781E02DB801C7010995080F111DF701CE
:10114000E084F184EECFD8011C92F60101900020DA
:10115000E9F73197BF016C197D0940E0C601C6CFA0
:101160006EEE70E0FB01449150E080E80E94AA011D
:1011700009CF973009F4BECF983021F481E08093F5
:10118000F10000CF993009F0FDCE837009F0B2CFA5
:10119000E8E9F5E081E031E096E32191222371F066
:1011A0008093E9003093EB00DF0111972C9120939D
:1011B000EC009093ED008F5F873079F78EE7809396
:1011C000EA001092EA008F8980934E07DBCE8B8D68
:1011D0009C8D1092E9001092B9061092B806909377
:1011E000B7068093B606898D811192C08E899D893C
:1011F000913A49F4813209F07DCF47E050E064E054
:1012000071E080E0B3CF913209F074CF833269F49A
:101210008F89988DB0E0A0E0809300019093010148
:10122000A0930201B0930301ADCE803269F48091A6
:10123000E80082FFFCCF67E084E091E00E940102B9
:101240008BEF8093E8009ECE823209F09BCE8F898F
:1012500080930B01EEEFFFE7859194918B3F9C4DBE
:1012600051F1E0E0F8E08091040190910501A09136
:101270000601B0910701803B9440A105B105F1F44E
:1012800080910B0180FD1AC0EE3F8AE0F80789F5D6
:1012900087E797E791838083809160008093BA0607
:1012A00088E19BE00FB6F894A895809360000FBE8C
:1012B0009093600067CEEEEFFAE0D5CF8081918108
:1012C0008737974709F05ECEA895809160008861C6
:1012D000809360008091BA0680936000EE3F2AE020
:1012E000F20789F08091FE0A9091FF0A9183808332
:1012F00049CE808191818737980751F29093FF0AF8
:101300008093FE0AC5CF1092FF0A1092FE0A3ACED1
:101310000E94F700DC0112960D911C910115110538
:1013200009F4E8CED801ED91FC910190F081E02D17
:10133000BE016B5E7F4FC8010995811123CEF80174
:1013400000851185EBCF181619060CF41BCED2CEF2
:10135000F1E0FF12BECE62EF70E004CF1F920F9259
:101360000FB60F9211242F938F939F93EF93FF93B8
:101370009091790080913207E091DF06F0E08130B2
:1013800009F044C0E352F94F8081E091DF06F0E0BC
:10139000EB5EF84F2081891710F4281720F098177A
:1013A00040F4821730F4E091DF06F0E0EB5EF84F96
:1013B0008083E091DF06F0E0E352F94F9083809163
:1013C000DF068F5F8093DF068091DF06823010F0AA
:1013D0001092DF0690917C00E091DF06F0E0E2568B
:1013E000FA4F80818770987F892B80937C00809151
:1013F0007A00806480937A00FF91EF919F918F91A2
:101400002F910F900FBE0F901F901895EB5EF84F25
:10141000D5CF1F920F920FB60F9211242F933F93A7
:101420004F935F936F937F938F939F93AF93BF93EC
:10143000EF93FF938091CC069091CD06813091057A
:1014400009F05CC0E091B206F091B30622812F3F13
:1014500009F44BC0E091B206F091B3063081231736
:1014600008F043C0E091B206F091B30634E2239F46
:10147000E00DF11D11242585368521303105A9F5B2
:101480006785708922E030E03093CD062093CC064A
:1014900020918C0030918D004091150150911601E2
:1014A000461B570B440F551F240F351F4091BE0696
:1014B0005091BF06609130076130D1F030938D00BC
:1014C00020938C000E94A505FF91EF91BF91AF91F1
:1014D0009F918F917F916F915F914F913F912F914C
:1014E0000F900FBE0F901F90189570E060E0CACF6C
:1014F0004217530718F7241B350BDCCF2091300718
:10150000213029F49C01277F2230310571F0209190
:101510003007222371F11092CD061092CC06209153
:101520006F00277F20936F00CDCF2091C0063091B0
:10153000C106203A310578F72F5F3F4F3093C1063F
:101540002093C0062091B0063091B1063093D106A9
:101550002093D0062091CE063091CF0630938B0099
:1015600020938A00B29A20916F00246020936F002C
:10157000D2CF2091C4063091C5062115310559F20C
:101580003093CD062093CC062091C2063091C3063D
:1015900030938D0020938C001092C5061092C406E3
:1015A0001092C3061092C2068DCF1F920F920FB6F3
:1015B0000F9211242F933F934F935F936F937F93D9
:1015C0008F939F93AF93BF93EF93FF938091D00638
:1015D0009091D1068330910509F05CC0E091B2068C
:1015E000F091B30624812F3F09F44BC0E091B2067D
:1015F000F091B3063081231708F043C0E091B206A2
:10160000F091B30634E2239FE00DF11D11242585EE
:10161000368521303105A9F56785708924E030E0F1
:101620003093D1062093D00620918A0030918B0010
:101630004091150150911601461B570B440F551F41
:10164000240F351F4091BE065091BF0660913007B0
:101650006130D1F030938B0020938A000E94A50561
:10166000FF91EF91BF91AF919F918F917F916F917A
:101670005F914F913F912F910F900FBE0F901F9050
:10168000189570E060E0CACF4217530718F7241B83
:10169000350BDCCF20913007213031F484309105B7
:1016A00089F08B30910571F020913007222371F180
:1016B0001092D1061092D00620916F002B7F2093BC
:1016C0006F00CCCF2091C0063091C106203A310581
:1016D00078F72F5F3F4F3093C1062093C0062091CB
:1016E000AE063091AF063093CD062093CC06209104
:1016F000CA063091CB0630938D0020938C00B39AAC
:1017000020916F00286020936F00D2CF2091C806EF
:101710003091C9062115310559F23093D106209335
:10172000D0062091C6063091C70630938B002093D7
:101730008A001092C9061092C8061092C70610922D
:10174000C6068CCF1F920F920FB60F9211242F93C3
:101750003F934F935F936F937F938F939F93AF9339
:10176000BF93EF93FF931092C1000E948805E2E7B8
:10177000F0E080818F778083FF91EF91BF91AF91EF
:101780009F918F917F916F915F914F913F912F9199
:101790000F900FBE0F901F9018951F920F920FB6CB
:1017A0000F9211242F933F934F935F938F939F93A7
:1017B000EF93FF93589A2091AC063091AD0680913B
:1017C000AB0691E0980F9093AB0690E0880F991FBD
:1017D000820F931FFC01808191812091A906309195
:1017E000AA06820F931F9093AA068093A9064091A0
:1017F000BE005091BF009C0125503109421753078C
:10180000F0F49093BF00CE9A8091A9068093CF0008
:1018100080917200806480937200809172008F7D4D
:1018200080937200FF91EF919F918F915F914F9103
:101830003F912F910F900FBE0F901F9018955898C1
:1018400080911301909114012091A9063091AA066C
:10185000820F931F9093AA068093A9069093BF00CE
:10186000CF9A8091A9068093D200809172008068FF
:101870008093720010920207D0CF1F920F920FB682
:101880000F9211242F933F938F939F93EF93FF9386
:1018900058988091AB069091A8062091A9063091A6
:1018A000AA06891788F5E091AC06F091AD0691E0A3
:1018B000980F9093AB0690E0880F991FE80FF91FDF
:1018C00080819181820F931F9093AA068093A9062D
:1018D0009093BF00CD9A8091A9068093D00080910B
:1018E0007200806280937200809172008F7B80937F
:1018F0007200FF91EF919F918F913F912F910F90E7
:101900000FBE0F901F9018958091130190911401B4
:10191000820F931F9093AA068093A9069093BF000D
:10192000CF9A8091A9068093D2008091720080683E
:101930008093720010920207D7CFEFE4F7E0138292
:10194000128288EE93E0A0E0B0E084839583A683C2
:10195000B78384EA95E0918380838FEF9FEF95872B
:101960008487EFE9F7E011821082138212821582D8
:10197000148264EB75E0CF010C949806CF93DF934B
:10198000CDB7DEB7A5970FB6F894DEBF0FBECDBFBB
:10199000789484B5826084BD84B5816084BD85B54A
:1019A000826085BD85B5816085BD80916E00816056
:1019B00080936E00109281008091810082608093FC
:1019C00081008091810081608093810080918000FE
:1019D000816080938000809191008260809391006B
:1019E000809191008160809391008091900081604E
:1019F000809390008091C10084608093C1008091A9
:101A0000C10082608093C1008091C1008160809399
:101A1000C1008091C30081608093C3008091C000A9
:101A200082608093C0008091C20081608093C20078
:101A300080917A00846080937A0080917A0082603D
:101A400080937A0080917A00816080937A008091FF
:101A50007A00806880937A0010924E071092BD063B
:101A60001092BC068091D70081608093D70080EAF5
:101A70008093D80089B5806189BD89B5826089BDB0
:101A800009B400FEFDCF0E9430018091D8008F7C08
:101A900080618093D8008091E000807F8093E00097
:101AA0008091E1008E7E8093E1008DE08093E200E2
:101AB000559A209A0FEF1FEF10935C0700935B0776
:101AC00085EB95E00E942406509A86E080931901E8
:101AD00088E59BE1909316018093150184EF91E0D6
:101AE00090931801809317018EE190E09093140178
:101AF0008093130110923107109202071092D606BC
:101B00001092D5061092D8061092D7061092DA06D7
:101B10001092D9061092DC061092DB061092D406C1
:101B20001092D3061092D2061092D1061092D006CF
:101B30001092CF061092CE061092CD061092CC06CF
:101B40001092CB061092CA061092C9061092C806CF
:101B50001092C7061092C6061092C5061092C406CF
:101B60001092C3061092C2061092C1061092C006CF
:101B70001092BF061092BE06109282001092810051
:101B80001092800010926F008FEF86BBF894109235
:101B900085001092840092E09093810078941092D6
:101BA000C0001092C1001092C2001092C3001092A7
:101BB000720089BB1092010710922307109224072C
:101BC000109225071092260710922F0710923607C1
:101BD0001092350790E890930D0180E280930C01FC
:101BE00044E659E160E070E040930F01509310012A
:101BF0006093110170931201109234071092330711
:101C0000109232078AE080930E011092F90610922A
:101C1000FA061092FB061092FC061092F106109242
:101C2000F0061092E2061092DF061092F80610926B
:101C3000F5061092F4061092F7061092F60610922E
:101C4000F3061092F2061092EF061092EE06109232
:101C5000ED061092EC0610922207109221071092C6
:101C60001E0710921D0710921A0710921907109262
:101C7000E1061092E0061092DE061092DD06109248
:101C80001607109215071092120710921107109361
:101C90000E0700930D0710930A070093090710928F
:101CA0000607109205071092EB061092EA061092B2
:101CB000E3061092E4061092E5061092E6061092F2
:101CC000E8061092E7061092E906E091DF06F0E0E0
:101CD000E256FA4F80818770806680937C009093F3
:101CE0007B008CED80937A009E012F5F3F4F69014E
:101CF000F12CE12C29A30D2DC7010E94F616D60167
:101D00008D936D01BFEFEB1AFB0AEEE1EE16F104C5
:101D100099F789819A81AB81BC818D339D43AD4315
:101D2000BD4309F049C08D81BE80AF81B885E9858A
:101D3000FA856B857C85CD84DE84EF84F8885989AB
:101D40004D89388D298D9A8D1CEF180FB09219018D
:101D5000B0931801A0931701F0931601E0931501B9
:101D60007093140160931301C0920F01D09210017F
:101D7000E0921101F092120150930E0140930D0177
:101D80001A3008F0C2C1309337072093360790937A
:101D900035078A3018F09C8D909334078C3040F0D2
:101DA0009D8D909333078D3019F48E8D809332077B
:101DB0008EEB95E00E94240683ED95E00E942406B8
:101DC00061E1662E8FE497E00E94F602181619066C
:101DD0000CF008C38FE497E00E94B402182F8983A7
:101DE0001A82E090A307F090A4072FEFE21AF20AFC
:101DF000B7018FE997E00E947006882391F0209147
:101E00009F073091A0078091A3079091A40769A133
:101E1000702F820F931F0E945619F092A407E09230
:101E2000A3071A3079F6712CF12C10E0CF2CD12CAD
:101E30001A8219821C821B821E821D8261EE75E04D
:101E400089A1902F0E9498068091A3079091A407E2
:101E5000C816D90608F077C1A0909F07B090A007D8
:101E600069817A81C5018C0D9D1D0E945D190097C5
:101E700009F469C18A199B09E82E89A1902F0E9453
:101E800051063FEFE3122DC01A8219821C821B8279
:101E90001E821D8263EB75E089A1902F0E94980637
:101EA0008091A3079091A407C816D90608F04EC1E7
:101EB000A0909F07B090A00769817A81C5018C0D21
:101EC0009D1D0E945D19009709F440C18A199B0964
:101ED000E82E89A1902F0E9451064FEFE41609F4D5
:101EE00073C0FE1408F070C08E2C912C8C149D04CD
:101EF00020F0892D4601CE2CD82E1A8219821C8200
:101F00001B821E821D8264EB75E089A1902F0E94C6
:101F10009806A090A307B090A4078A149B0480F5AC
:101F2000CA14DB0408F45601E0919F07F091A00762
:101F3000EA0DFB1D50801082C0909F07D090A00733
:101F4000C80CD91CC114D10479F0F601019000200D
:101F5000E9F731974F018C189D08B40189A1902FA2
:101F60000E9470068111F5C089A1902F0E943F0642
:101F700080919F079091A007A80EB91ED5015C9291
:101F800089819A81812C912C5401009721F00E9423
:101F9000BA164B015C0189A1902F0E945106FF24C3
:101FA000F394FE0C111101C0782C711032C1B7FCF2
:101FB0000BC0113009F0D5C0B8E08B169104A10414
:101FC000B10414F4809219011F5F143109F02ECF6F
:101FD000711042C186EE95E00E9430064AE061E150
:101FE00070E080E090E00E94E00581EE95E00E94C4
:101FF0003006809119010E94320681EE95E00E9420
:10200000300680911701909118010E94390681EEE7
:1020100095E00E94300680911501909116010E9472
:10202000390681EE95E00E9430068091130190916F
:1020300014010E94390681EE95E00E9430066091FD
:102040000F017091100180911101909112014AE0ED
:102050000E94E00581EE95E00E94300680910E011D
:102060000E94320681EE95E00E94300680910D01BB
:102070000E94320681EE95E00E943006809137077B
:102080000E94320681EE95E00E943006809136076C
:102090000E94320681EE95E00E943006809135075D
:1020A0000E94320681EE95E00E943006809134074E
:1020B0000E94320681EE95E00E943006809133073F
:1020C0000E94320681EE95E00E9430068091320730
:1020D0000E94320681EE95E00E9430068091310721
:1020E0000E94320681EE95E00E94300680910C013C
:1020F0000E94320681EE95E00E9430068091300702
:102100000E9432060E94DC05A3C04E894093370727
:102110004F894093360730933507209334079093C7
:1021200033079B8D909332079C8D909331078031BC
:1021300018F09D8D90930C01813108F439CE8E8D6D
:102140008093300735CE8FEF9FEF96CE8FEF9FEFC6
:10215000BFCE9E828D82B60189819A810E945619D6
:1021600007CF123029F490921801809217012CCFDA
:10217000133029F4909216018092150125CF143066
:1021800029F490921401809213011ECF153049F466
:1021900080920F0190921001A0921101B092120151
:1021A00013CF163019F480920E010ECF173019F4A8
:1021B00080920D0109CF183019F48092370704CFAF
:1021C000193019F480923607FFCE1A3019F4809234
:1021D0003507FACE1B3019F480923407F5CE1C3047
:1021E00019F480923307F0CE1D3019F48092320733
:1021F000EBCE1E3019F480923107E6CE1F3019F471
:1022000080920C01E1CE103109F0DECE80923007D1
:10221000DBCEE7E07E1252C0113009F0D5CEF3E0FC
:102220008F169104A104B10408F0CECE87E090E0AF
:1022300081149104A104B10449F088E090E08A94EB
:1022400089288A288B2811F089E090E00E94A50552
:1022500083EE95E00E9424061A8219821C821B825A
:102260001E821D8264EB75E089A1902F0E94980662
:1022700080919F079091A007009709F49CC0698105
:102280007A816115710509F494C04091A1075091BC
:10229000A2072D813E814217530708F48AC00E948D
:1022A00056198D819E819093A4078093A3071E8267
:1022B0001D8289A1902F0E94510684CD38E07312AF
:1022C00068C08DE39DE3DC0189839A83AB83BC8383
:1022D0006D82809119018E83809117019091180170
:1022E00098878F8380911501909116019A8789872D
:1022F00080911301909114019C878B8780910F012D
:1023000090911001A0911101B09112018D879E87CB
:10231000AF87B88B80910E0190E0B0E0A0E0898B90
:102320009A8BAB8BBC8B80910D018D8B8091370785
:102330008E8B809136078F8B80913507888F8091A7
:102340003407898F809133078A8F809132078B8F72
:10235000809131078C8F80910C018D8F8091300797
:102360008E8FC9A0D02EF12CE12CD601BD906D012D
:10237000C7010E94F616B81621F06B2DC7010E9406
:10238000FE16BFEFEB1AFB0AEEE1EE16F10469F759
:102390005FCFFAE07F1218CE113009F015CE22E09F
:1023A00082169104A104B10408F00ECE80922F078A
:1023B0004FCF0E94071889819A819093A00780933C
:1023C0009F078B819C819093A2078093A1078D81A9
:1023D0009E819093A4078093A3071A8219821C827E
:1023E0001B8265CF80913707882341F080910207D7
:1023F000811184C280910107811180C280911507EB
:102400008F8F8091160788A31092FD061092FE060A
:102410001092FF0610920007C090F906D090FA06BD
:10242000E090FB06F090FC06C114D104E104F10435
:1024300009F01FC344EF56E05BA34AA346EFE42E26
:1024400046E0F42E52EFC52E56E0D52EB12CA12C2D
:10245000662463947A2C8091F806882339F1EFE1A1
:10246000F0E0EC0FFD1FEA0DFB1D9081F501E75F29
:10247000F84F8081981708F48DC08A2D862590E04A
:10248000AFE1B0E0AC0FBD1FA80FB91FFC01EB5FBF
:10249000F84F3C912081231708F47CC0D7012C9180
:1024A0002F5F2C938A50994FFC011082EAA1FBA167
:1024B00080818111DAC2D7018C91833040F49091F0
:1024C0002F07992309F4D1C2823009F0CEC2EAA1C4
:1024D000FBA160828091FD069091FE06A091FF060F
:1024E000B0910007892B8A2B8B2B51F40E940B0192
:1024F0006093FD067093FE068093FF06909300079D
:10250000D6011C928091F106F501E251F94FFDA32D
:10251000ECA3871104C08091F00681113EC0ACA1EC
:10252000BDA11C921092ED061092EC062090FD06C3
:102530003090FE064090FF065090000780910F01FA
:1025400090911001A0911101B0911201820D931D83
:10255000A41DB51DF6012081222309F46CC08093CF
:10256000F9069093FA06A093FB06B093FC06EAA145
:10257000FBA13196FBA3EAA3FFEFEF1AFF0A2FEFAF
:10258000C21AD20AAA94AB2809F4BAC0AA24A39406
:10259000B12C60CFD7011C9289CFECA1FDA1608244
:1025A00080911D0790911E07019690931E078093BE
:1025B0001D078090EC069090ED06FFEF8F1A9F0AA2
:1025C0009092ED068092EC0650903307809136078A
:1025D000882361F080FE0AC0552021F021E0821698
:1025E000910421F482EF95E00E9424068091340743
:1025F000552099F0D6016C928111A3C380913007C8
:10260000813009F093CF8091EA069091EB06019614
:102610009093EB068093EA0689CF882379F3881597
:10262000190421F018F0F601608280CF1092ED06B7
:102630001092EC06E3CF8093F9069093FA06A093EC
:10264000FB06B093FC067092F10681E08093F006E1
:1026500080913007813009F000C2F090E906FF2038
:1026600061F0ACA1BDA18C91882339F06091E7069F
:102670007091E806872D0E9467038091EA06909189
:10268000EB068038910509F0DCC18091E30690915A
:10269000E406A091E506B091E606A2019101281B8F
:1026A000390B4A0B5B0BCA01B90127E09695879558
:1026B000779567952A95D1F77093E8066093E706BA
:1026C00021E02093E906872D0E9467031092EB0614
:1026D0001092EA068091EA069091EB06009741F489
:1026E0002092E3063092E4064092E5065092E60618
:1026F00001969093EB068093EA0681E08093E206D0
:1027000080912F07882309F4D1C08FE0E0E2F1E047
:10271000A9A1B02F01900D928A95E1F78091FD0655
:102720009091FE06A091FF06B0910007892B8A2B9D
:102730008B2B51F40E940B016093FD067093FE06F3
:102740008093FF06909300078091EF06882309F499
:10275000B3C180EA9091F30640E1911101C040E0DD
:102760009091F50638E0911101C030E09091EE06AD
:1027700024E0911101C020E09091F206992309F420
:102780009DC192E05091F406852B842B832B822BE4
:10279000892B8C838091F80638E8811101C030E8DC
:1027A0008091F10624E0813009F020E08091E2067A
:1027B00092E0811101C090E081E04091F9065091D2
:1027C000FA066091FB067091FC06452B462B472BC1
:1027D00009F480E0832B822B892B8D838091EC067A
:1027E00080688E832F8D822F8695869580688F8353
:1027F00088A150E2259F900111242076982F96956C
:10280000969596959068292B28874091FD065091C2
:10281000FE066091FF06709100078295807F282F49
:102820002077DB01CA013CE1B695A795979587957E
:102830003A95D1F7822B80688987DB01CA01E5E1EF
:10284000B695A79597958795EA95D1F780688A8779
:10285000DB01CA01FEE0B695A79597958795FA9595
:10286000D1F780688B87DB01CA0117E0B695A79581
:10287000979587951A95D1F780688C8740684D8722
:102880004FE050E069A1702F8FE497E00E940E02A4
:102890001092E2061092EF061092F3061092F506DF
:1028A0001092EE061092F2061092F4062091210783
:1028B000309122078F8D8093E00690911107981731
:1028C00010F48093110790910D07891710F48093ED
:1028D0000D0788A18093E10690911207981710F4D4
:1028E0008093120790910E07891710F480930E07BA
:1028F0002E5F3F4F309322072093210780910207DC
:10290000882309F4DDC08AE0809301070E940B014F
:102910006B017C01C0922B07D0922C07E0922D070F
:10292000F0922E078091270790912807A091290700
:10293000B0912A07C816D906EA06FB0608F4F0C0CB
:10294000A7019601281B390B4A0B5B0BDA01C90161
:1029500081159748A349B34008F0E2C0809135073C
:10296000882309F4E2C18091230790912407A09164
:102970002507B0912607813E9105A105B10509F40F
:1029800086C108F0E7C08B349105A105B10509F4B3
:1029900057C108F09EC089319105A105B10509F420
:1029A0003BC182339105A105B10509F440C1892BD2
:1029B0008A2B8B2B09F09AC08091210790912207D6
:1029C0009093200780931F0780911D0790911E0709
:1029D00090931C0780931B078091190790911A0709
:1029E000909318078093170780911507809313071A
:1029F0008091110780930F0780910D0780930B073B
:102A0000809109078093070780910507809303074A
:102A10008091160780931407809112078093100706
:102A200080910E0780930C0780910A078093080716
:102A300080910607809304070E9410030E945906A4
:102A400055C08138910508F445CEFF2009F43ECEEB
:102A50006091E7067091E80636CE6091E7067091C6
:102A6000E806872D0E94670348CEAAA1BBA11C924D
:102A70007ECD0E940B016093FD067093FE0680934D
:102A8000FF06909300076C157D058E059F0508F4E1
:102A900037CE6C197D098E099F09611577488349E6
:102AA000934008F02DCE1092F9061092FA0610927B
:102AB000FB061092FC0624CE80E84CCE90E062CE5D
:102AC00080910107882309F421CF8091010781506B
:102AD0001BCF86399105A105B10509F465C040F504
:102AE0008D379105A105B10509F4C3C08091230775
:102AF00090912407A0912507B09126070196A11D6A
:102B0000B11D853FE1E09E07A105B10508F0F5C0C4
:102B10008093230790932407A0932507B09326075B
:102B200080E090E0892B09F44BC90E94000048C95D
:102B30008F3A9105A105B10509F4A0C0883C910523
:102B4000A105B10599F68EE696E00E9430068091C7
:102B50000F079AC0873741E09407A105B10509F432
:102B6000B7C048F58331E1E09E07A105B10509F43E
:102B700095C068F48A3F9105A105B10509F0B6CF6B
:102B80008BE796E00E943006809107077DC0853470
:102B900021E09207A105B10509F497C08E35914057
:102BA000A105B10509F0A2CF87E596E00E943006A5
:102BB00090E080E039C0893A41E09407A105B10571
:102BC00009F48DC068F480399140A105B10509F080
:102BD0008DCF8EE696E00E9430068091100754C09B
:102BE000823CF1E09F07A105B10509F47FC08B3D50
:102BF0009140A105B10509F079CF83E896E00E94E4
:102C00003006809104070E9432060E94DC0584EFA2
:102C100091E0A0E0B0E024C085EF95E00E9430068E
:102C200080911F07909120070E9439065FCF85E1B0
:102C300096E00E94300680911B0790911C07F4CF0C
:102C400088E296E00E94300680911707909118075D
:102C50000E9439060E94DC0584E690E0A0E0B0E026
:102C60008093230790932407A0932507B09326070A
:102C70003DCF8BE396E00E94300638CF84E696E0A5
:102C80000E943006809113070E9432062FCF85E7FD
:102C900096E00E94300680910B07F6CF83E896E01D
:102CA0000E943006809103070E9432060E94DC05D4
:102CB0002CE231E040E050E02093230730932407DA
:102CC000409325075093260711CF8BE896E0D3CF8A
:102CD00084E696E00E94300680911407D5CF85E700
:102CE00096E00E94300680910C07CECF8BE796E0ED
:102CF0000E94300680910807C7CF109223071092D8
:102D000024071092250710922607F0E4CF0EFBE46B
:102D1000DF1EFCE4EF1EF11CC0922707D0922807AB
:102D2000E0922907F0922A07FBCE0E9410030E942E
:102D3000590620E4C20E2BE4D21E2CE4E21EF11C44
:102D4000EBCF8091FD069091FE06A091FF06B09119
:102D5000000740910F015091100160911101709195
:102D60001201840F951FA61FB71FF9CB8FE997E0BB
:102D70000C9451061F93FC0199278827BC01E89405
:102D800011911032E9F3193010F01E30C8F31B32E4
:102D900051F01D3249F4689406C00E94E116610F9B
:102DA000711D811D911D119110531A30B0F33EF425
:102DB00090958095709561957F4F8F4F9F4F1F9194
:102DC0000895592F482F372F262F660F771F881FFA
:102DD000991F660F771F881F991F620F731F841F2B
:102DE000951F660F771F881F991F0895F999FECFC9
:102DF00092BD81BDF89A992780B50895262FF9993B
:102E0000FECF1FBA92BD81BD20BD0FB6F894FA9ACD
:102E1000F99A0FBE019608952F923F924F925F92BA
:102E20006F927F928F929F92AF92BF92CF92DF92DA
:102E3000EF92FF920F931F93CF93DF93CDB7DEB73F
:102E4000CA1BDB0B0FB6F894DEBF0FBECDBF0994D3
:102E50002A88398848885F846E847D848C849B842A
:102E6000AA84B984C884DF80EE80FD800C811B8138
:102E7000AA81B981CE0FD11D0FB6F894DEBF0FBE67
:102E8000CDBFED010895A1E21A2EAA1BBB1BFD01C7
:102E90000DC0AA1FBB1FEE1FFF1FA217B307E40739
:102EA000F50720F0A21BB30BE40BF50B661F771F91
:102EB000881F991F1A9469F7609570958095909571
:102EC0009B01AC01BD01CF010895EE0FFF1F0590DE
:102ED000F491E02D09940F931F93CF93DF938230E9
:102EE000910510F482E090E0E091A707F091A80727
:102EF00030E020E0B0E0A0E0309799F421153105F2
:102F000009F44AC0281B390B24303105D8F58A81D1
:102F10009B816115710589F1FB0193838283FE0119
:102F200011C0408151810281138148175907E0F097
:102F30004817590799F4109761F012960C9312975D
:102F400013961C933296CF01DF91CF911F910F9171
:102F500008950093A7071093A807F4CF2115310512
:102F600051F04217530738F0A901DB019A01BD0166
:102F7000DF01F801C1CFEF01F9CF9093A80780934B
:102F8000A707CDCFFE01E20FF31F8193919322504B
:102F9000310939832883D7CF2091A5073091A6071F
:102FA000232B41F420911C0130911D013093A60781
:102FB0002093A50720911A0130911B01211531059D
:102FC00041F42DB73EB740911E0150911F01241BC3
:102FD000350BE091A507F091A607E217F307A0F4DF
:102FE0002E1B3F0B2817390778F0AC014E5F5F4F5F
:102FF0002417350748F04E0F5F1F5093A6074093E4
:10300000A507819391939FCFF0E0E0E09CCFCF9311
:10301000DF930097E9F0FC01329713821282A091AE
:10302000A707B091A807ED0130E020E01097A1F4C8
:1030300020813181820F931F2091A5073091A6072F
:103040002817390709F061C0F093A607E093A50798
:10305000DF91CF910895EA01CE17DF07E8F54A81A5
:103060005B819E0141155105B1F7E901FB83EA83BC
:1030700049915991C40FD51FEC17FD0761F4808168
:1030800091810296840F951FE9019983888382813B
:1030900093819B838A83F0E0E0E012968D919C916E
:1030A00013970097B9F52D913C911197CD01029698
:1030B000820F931F2091A5073091A6072817390783
:1030C00039F6309751F51092A8071092A707B093E0
:1030D000A607A093A507BCCFD383C28340815181AB
:1030E000840F951FC817D90761F44E5F5F4F888121
:1030F0009981480F591F518340838A819B81938313
:1031000082832115310509F0B0CFF093A807E09331
:10311000A7079ECFFD01DC01C0CF13821282D7CF5B
:10312000B0E0A0E0E6E9F8E10C940E178C010097FE
:1031300051F4CB010E946B178C01C801CDB7DEB7EB
:10314000E0E10C942A17FC01E60FF71F9C012250C6
:103150003109E217F30708F49DC0D901CD91DC9144
:103160001197C617D70798F0C530D10530F3CE01B7
:1031700004978617970708F3C61BD70B2297C193AE
:10318000D1936D937C93CF010E940718D6CF5B013A
:10319000AC1ABD0A4C018C0E9D1EA091A707B091E0
:1031A000A807512C412CF12CE12C109731F580917E
:1031B000A5079091A6078815990509F05CC04616E9
:1031C000570608F058C080911A0190911B01009792
:1031D00041F48DB79EB740911E0150911F01841B91
:1031E000950BE817F90708F055C0F093A607E09390
:1031F000A507F90171836083A0CF8D919C911197F0
:1032000012966C90129713967C901397A815B90597
:1032100059F56C0142E0C40ED11CCA14DB0420F144
:10322000AC014A195B09DA011296159780F06282A7
:10323000738251834083D9016D937C93E114F1042F
:1032400071F0D7011396FC93EE93129776CF2296E6
:103250008C0F9D1FF90191838083F301EFCFF093D1
:10326000A807E093A70769CF4816590608F42C0170
:103270007D01D3019ACFCB010E946B177C0100978F
:1032800049F0AE01B8010E944D19C8010E9407180B
:10329000870153CF10E000E050CFFB01DC0102C0FA
:1032A00001900D9241505040D8F70895FB01DC0188
:1032B00001900D920020E1F70895FB0151915523F3
:1032C000A9F0BF01DC014D9145174111E1F759F417
:1032D000CD010190002049F04D9140154111C9F3F5
:1032E000FB014111EFCF81E090E00197089510E0DC
:1032F000C1E9D0E004C0FE010E9465172196C239E1
:08330000D107C9F7F894FFCFD3
:10330800FFFFFFFF00E100000000000020800A64CA
:103318001900001E00581BF401060000A9078000D0
:103328002B6F20000000000000000000000D0A02C2
:10333800FFFFFFFFFFFFFFFFFFFF0001000014007A
:103348000100140000000000000000000000000060
:103358000000000000000000000000000000000065
:103368000000CD00030000007D00140000000000F4
:103378000000000000000000000000000000000045
:103388000000000009FF000102030405060708FF0A
:10339800FF0000DC0007001400140014003C0014B7
:1033A800003C0014000000000000000000000000C5
:1033B80000000000000000DC00070014003C0014BE
:1033C800003C00140014001400000000000000007D
:1033D8000000000000000000000000DC00070014EE
:1033E800003C001400140014003C0014000000000D
:1033F800000000000000000000000000000000DCE9
:1034080000070014001400140064001400140014D1
:1034180000000000000000000000000000000000A4
:10342800000000DC000700140064001400140014FD
:10343800001400140000000000000000000000005C
:1034480000000000000000040107001400640014DC
:10345800003C0014001400140000000000000000EC
:1034680000000000000000000000009001070014A8
:1034780000C800140064001400C800140000000014
:1034880000000000000000000000000000000068CC
:103498000107001400C80014003C001400C8001400
:1034A8000000000000000000000000000000000014
:1034B800000000400107001400C8001400140014A4
:1034C80000C8001400000000000000000000000018
:1034D800000000000009FF00010203FFFFFFFFFFDB
:1034E800FFFF0000DC0007001400140014003C007B
:1034F80014003C0014000000000000000000000060
:103508000000000000000000DC00070014003C0080
:1035180014003C0014001400140000000000000017
:10352800000000000000000000000000DC000700B0
:1035380014003C001400140014003C0014000000A7
:103548000000000000000000000000000000000073
:10355800DC000700140014001400640014001400B8
:10356800140000000000000000000000000000003F
:10357800000004FF00010203FFFFFFFFFFFFFF0041
:10358800001C020900140014001400140014007C2C
:1035980001140014001400000000000000000000E6
:1035A8000000000000CC01090014001400140014ED
:1035B8000014002C01140014001400000000000086
:1035C8000000000000000000007C01090014001445
:1035D80000140014001400DC00140014001400008F
:1035E800000000000000000000000000002C01099D
:1035F80000140014001400140014008C00140014AB
:10360800001400000000000000000000000000029C
:10361800FFFFFFFFFFFFFFFFFFFF000100001C028D
:103628000F001400140014001400140050001400BB
:103638008C0014001400140050001400140014002E
:103648000000B8010F001400140014001400140046
:103658003C0014003C001400140014005000140036
:103668001400140004FF00010203FFFFFFFFFFFF27
:10367800FF01006400030017002E001F0000000077
:103688000000000000000000000000000000000032
:10369800000000000001008D00030017004E002804
:1036A8000000000000000000000000000000000012
:1036B80000000000000000000001002B0001002BAA
:1036C80000000000000000000000000000000000F2
:1036D800000000000000000000000000000100449D
:1036E800000300170015001800000000000000008B
:1036F80000000000000000000000000000000000C2
:103708000002FFFFFFFFFFFFFFFFFFFF00010000B8
:103718005E000500120014001200140012000000E0
:103728000000000000000000000000000000000091
:10373800000000006000030012003C0012000000BE
:103748000000000000000000000000000000000071
:1037580000000000000001FFFFFFFFFFFFFFFFFF69
:10376800FF00FF0000420005000E000C000E000CD8
:10377800000E000000000000000000000000000033
:10378800000000000000005605010564040F0472E3
:1037980003D50284012F0100C180810000000706C3
:1037A800000000008F020E02B002A502F602B40269
:1037B800D2020D0A002B737461727475700065650E
:1037C80070726F6D20726561645F73657474696E81
:1037D800677300696E697420636F6D706C657465DA
:1037E800002C004F4B00706172616D6574657273D7
:1037F80020002B64002B73746174732067656E65F9
:1038080072616C2072656164696E675F636F756E63
:103818007465723A00206475706C69636174655FE1
:103828006672616D65733A00207072656D617475BA
:1038380072655F6672616D65733A002B73746174AB
:10384800732073656E736F72206368616E6E656C4A
:103858003A72696768740020646574656374696F97
:103868006E733A002072656164696E673A00206879
:103878006967683A00206C6F773A00207468725F55
:10388800683A00207468725F6C3A002B7374617434
:10389800732073656E736F72206368616E6E656CFA
:0638A8003A6C6566740035
:00000001FF
