:100000000C9492000C94BA000C94BA000C94BA00B0
:100010000C94BA000C94BA000C94BA000C94BA0078
:100020000C94BA000C94BA000C945F070C94CE07A1
:100030000C94BA000C94BA000C94BA000C94BA0058
:100040000C94BA000C94BA000C94270B0C945B0A25
:100050000C94BA000C94BA000C94BA000C941507D6
:100060000C94BA000C94BA000C94BA000C94BA0028
:100070000C94BA000C94000A0C94BA000C94BA00C8
:100080000C94BA000C94BA000C94BA000C94BA0008
:100090000C94BA000C94BA000C948F0C0C941F0CA6
:1000A0000C94F40B0C94BA000C94BA00080B0002E8
:1000B0000202000009040000010202000005240001
:1000C0001001052401010104240206052406000193
:1000D0000705810310004009040100020A00000026
:1000E00007050202400000070583024000000403E8
:1000F000090412010002EF0201404F1B06920001A9
:1001000001020301537061726B46756E005370619A
:10011000726B46756E2050726F204D6963726F006E
:10012000EF0C3D1711241FBECFEFDAE0DEBFCDBFCD
:1001300027E0A0E5B6E001C01D92A935B207E1F7BE
:1001400016E0A0E0B1E0E6E1F4E302C005900D9214
:10015000A035B107D9F710E0C1E9D0E004C021977C
:10016000FE010E94EC17C039D107C9F70E94100D9B
:100170000C94FE190C9400002FB7F89483E0809340
:10018000E9009091E800892F807295FF04C090915A
:10019000F20080E4891B2FBF0895FC018091FE06C8
:1001A000882311F13FB7F89482E08093E900209111
:1001B000F200822F90E01816190614F481E090E006
:1001C000882339F0289844E64093FD064091F100D9
:1001D0004083222339F02091F200211103C02BE645
:1001E0002093E8003FBF08958FEF9FEF089580911F
:1001F000F50681110DC082E08093F10684E08093C2
:10020000F2061092F4061092F30681E08093F50650
:1002100081EF96E008953FB7F8948091ED069091B4
:10022000EE06A091EF06B091F00626B5A89B05C09A
:100230002F3F19F00196A11DB11D3FBFBA2FA92F65
:10024000982F8827BC01CD01620F711D811D911D62
:1002500042E0660F771F881F991F4A95D1F70895CE
:10026000CF92DF92EF92FF920E940B016B017C0113
:100270000E940B016C197D098E099F09683E73402D
:1002800081059105A8F3FF90EF90DF90CF9008953E
:100290000895409162065091630620916006309166
:1002A000610642175307B4F49091E8009570E1F3AA
:1002B0009091E80092FD19C08093F1008091620650
:1002C0009091630601968F739927892B19F48EEF0D
:1002D0008093E80080916206909163060196909366
:1002E00063068093620681E0089580E00895EF92AE
:1002F000FF920F931F93CF93DF93F82E192FE62EC3
:10030000042F81E0860F880F0E94490183E00E943C
:100310004901CF2DD12FEC0EFD2EF11CCE15DF059E
:10032000B9F007FF13C0FE0184910E944901182F04
:1003300080E00E944901812321968111EFCFDF9156
:10034000CF911F910F91FF90EF9008958881EDCF8D
:1003500081E0F5CFDF92EF92FF920F931F93CF933F
:10036000DF93D82E8A01EB017B01E40EF51ECE153A
:10037000DF0559F0D7FE12C0FE0184910E944901A9
:1003800021968111F4CF0FEF1FEFC801DF91CF91BC
:100390001F910F91FF90EF90DF9008958881EECF2D
:1003A0000F931F93CF93DF931F92CDB7DEB782E0F9
:1003B000898342E450E06CEA70E080E80E94AA0180
:1003C0000E94F700DC0112960D911C910115110598
:1003D00089F0D801ED91FC910280F381E02DBE01FE
:1003E0006F5F7F4FC801099597FD04C0F801008534
:1003F0001185ECCF89810F90DF91CF911F910F91E3
:100400000895615030F02091F100FC0120830196A5
:10041000F8CF289884E68093FD0608958F929F92E6
:10042000AF92BF92CF92DF92EF92FF920F931F9302
:10043000CF93DF936C017B018A0180910B018823AC
:1004400009F458C08091FE06882309F453C08091B6
:10045000660680FF05C08091E00082608093E00026
:10046000E801B12C8AEFA82E93E0892E2AE3922E80
:10047000209711F4BB20B9F10E94BC00811106C085
:10048000AA94AA20B9F10E943001F2CF8C171D0660
:1004900011F00CF08C2F9FB7F8948092E900209116
:1004A000E80025FD02C09FBFE3CF282F30E0C21B2C
:1004B000D30BF701815020F041914093F100FACF26
:1004C000E20EF31EBB2021F09092E800B12CEBCF9E
:1004D0008091E80085FDE7CF9092E800BB24B394BB
:1004E000209709F3F3CF5D9884E680936506101694
:1004F00011063CF081E090E0F6019383828310E0E6
:1005000000E0C801DF91CF911F910F91FF90EF9014
:10051000DF90CF90BF90AF909F908F900895CF9332
:10052000DF931F92CDB7DEB76983DC01ED91FC91BB
:100530000280F381E02D41E050E0BE016F5F7F4F0C
:1005400009950F90DF91CF91089583E08093E900A2
:100550008091F200882319F08AE38093E8000895DF
:100560000E94BC0090E00895CF93DF931F92CDB717
:10057000DEB7FC018485958597FD08C02FEF3FEF1E
:10058000358724870F90DF91CF910895CE01019692
:100590000E94CD00019719F4898190E0F3CF8FEF8D
:1005A0009FEFF0CF0F931F93CF93DF931F92CDB7A1
:1005B000DEB78C01FC018485958597FF0BC0CE01C9
:1005C00001960E94CD00019771F4898190E0F801B5
:1005D00095878487F801848595850F90DF91CF9169
:1005E0001F910F9108958FEF9FEFF1CFFC0184854C
:1005F000958597FD0BC09FB7F89482E08093E90042
:100600008091F2009FBF90E0019608959FB7F89403
:1006100082E08093E9008091F2009FBF90E008950E
:10062000CF93C0910F01F0910E018FEF90E0DC01AC
:10063000AF1BB10950910D01851B9109E091BE06D8
:1006400041E0EC1708F440E02091BA0630E0A29FA8
:10065000B001A39F700DB29F700D1124FE9F600D1D
:10066000711D11247093B606829FB001839F700D97
:10067000929F700D11245E9F600D711D1124709367
:10068000B206E091BF06EC1708F440E02091BB06EB
:1006900030E0A29FB001A39F700DB29F700D112496
:1006A000FE9F600D711D11247093B706289FB00145
:1006B000299F700D389F700D1124E59F600D711DED
:1006C00011247093B3064093A506CF910895CF925D
:1006D000DF92EF92FF922091DD063091DE06211528
:1006E000310501F1C090E306D090E406C114D104B5
:1006F000C9F0F12CE12C50E040E02A5B3F4F4F4F16
:100700005F4F60E472E48FE090E00E94CA17C70177
:10071000B6010E94CA1720939806FF90EF90DF90D1
:10072000CF90089510929806F8CF9091E00621E0BE
:1007300030E0981711F023E030E0E0911A01F0E08A
:10074000EE0FFF1FED5CFA4F4081518150935F0621
:1007500040935E06E0915E06F0915F06E20FF31FA4
:100760009181E0915E06F0915F064081491710F09B
:100770009F3FD1F49091E0062AE030E0981711F005
:100780002BE030E0E0915E06F0915F06E20FF31F90
:100790008181E0915E06F0915F069081981708F4E0
:1007A0006CC18F3F09F469C1F89440918400509165
:1007B00085008091DF06813009F0DDC010926B0664
:1007C00010926A06660F771F709369066093680639
:1007D000809181008860809381008091680690916B
:1007E00069069093890080938800809168069091B3
:1007F000690660917806709179068617970720F44C
:1008000010927906109278066091740670917506C0
:100810008617970720F410927506109274068417B5
:10082000950730F4109285001092840050E040E06B
:1008300078948091180190911901880F991F840F65
:10084000951F60915E0670915F0640915C06509125
:100850005D0664177507A1F010927B0610927A0668
:1008600040916F004B7F40936F00B29A10927706D1
:100870001092760640916F00477F40936F00B39AC5
:1008800040915E0650915F0650935D0640935C0672
:10089000E0915C06F0915D06E20FF31F41814F3F4E
:1008A000C9F0E0915C06F0915D065081451790F427
:1008B000E0915C06F0915D0654E2459FE00DF11D6C
:1008C0001124458556854130510521F447855089CD
:1008D000841B950B40916806509169066091DF0674
:1008E000613021F44817590708F44BC04091DF06E6
:1008F000413009F049C040916F004B7F40936F0039
:1009000040916F00477F40936F0010927B061092DA
:100910007A0610927706109276062330310509F098
:1009200071C0F89490938B0080938A00B29A4091A2
:100930006F00446040936F0030937B0620937A06EB
:1009400030935B0620935A0690937906809378063D
:100950004091DF06413069F42B303105C1F121E0CF
:1009600030E0309359062093580690937506809393
:1009700074067894089580918100877F8093810028
:1009800057CF841B950BAACF2330310521F02B3094
:10099000310509F03BC040917A0650917B06452B0A
:1009A00009F4BFCF4091DF06411167C04091720644
:1009B00050917306452B09F060C0F894309373068C
:1009C000209372069093710680937006D2CF2AE02E
:1009D00030E0C7CF2BE030E047C04091DF06411147
:1009E0004CC040916E0650916F06452B09F045C0F2
:1009F000F89430936F0620936E0690936D06809363
:100A00006C06B7CF2B30310509F48BCF213031057F
:100A100019F02A30310589F5409176065091770614
:100A2000452BD9F6F89490938D0080938C00B39A5F
:100A300040916F00486040936F0030937706209399
:100A40007606309359062093580690937506809346
:100A500074064091DF06413009F08BCF2A30310512
:100A600009F4B8CF23E030E030935B0620935A06B8
:100A700090937906809378067CCF089520915C0648
:100A800030915D0630935106209350062091500618
:100A900030915106820F931FFC0191819F3F09F411
:100AA0005EC0E0915006F09151068081981708F0E1
:100AB00056C02091500630915106F4E29F9FC0012C
:100AC0001124AC014D5E5F4F420F531F50935706E8
:100AD0004093560641E040935506820F931FFC0158
:100AE0008189809352064093AF06F8941092BF001C
:100AF0001092BF001092BE0083E08093BF008FEF82
:100B00008093D100E0915606F09157068081918143
:100B10009093540680935306009719F580915506DB
:100B200090915206891780F591E0980F90935506A1
:100B300090E0880F991FE80FF91F908181819093B1
:100B40005306809354068093BF0080915306809390
:100B5000D000809172008062809372000EC00C946D
:100B6000DA059093BF00809153068093CF00809167
:100B70007200806480937200589A8FEF89BB85E081
:100B80008093C1007894089580911401909115018B
:100B900090935406809353069093BF008091530620
:100BA0008093D200809172008068809372001092CE
:100BB000AF06E3CF90917E0680917D069817A1F055
:100BC000E0917E06F0E0EE0FFF1FE158F94F8081C3
:100BD000918120917E0630E02F5F3F4F23703327B5
:100BE00020937E060C943E0510927C060895209179
:100BF0007C06222301F1F89420917D0640917E0627
:100C000030E02F5F3F4F237033274217130689F0E0
:100C1000E0917D06F0E0EE0FFF1FE158F94F918360
:100C2000808380917D0690E0019683709927809360
:100C30007D06789408950E943E0581E080937C06AD
:100C40000895FC0101900020E9F73197AF01481B9E
:100C5000590BBC018FEF96E00C940E028CE595E0E9
:100C60000C9421068F929F92AF92BF920F931F9385
:100C7000CF93DF93CDB7DEB7A1970FB6F894DEBF61
:100C80000FBECDBF19A2423008F44AE08E010F5DBD
:100C90001F4F842E912CB12CA12CA50194010E94F0
:100CA000CA17E62FB901CA01EA30F4F4E05DD801B1
:100CB000EE938D01232B242B252B79F790E080E0F8
:100CC000109719F0CD010E942106A1960FB6F89455
:100CD000DEBF0FBECDBFDF91CF911F910F91BF90AF
:100CE000AF909F908F900895E95CE1CFCF93DF9311
:100CF0000E942106EC010E942E068C0F9D1FDF91A1
:100D0000CF9108950C942106682F70E090E080E068
:100D10004AE00C943206BC0190E080E04AE00C947A
:100D20003206CF93DF93EC0188819981009711F00F
:100D30000E948E18198218821D821C821B821A82C0
:100D4000DF91CF910895FC0180819181009711F08E
:100D50000C948E1808951092CF061092CE06109221
:100D6000CB061092CA061092C7061092C6061092C1
:100D7000BF061092BE068FEF9FEF9093BB06809345
:100D8000BA0608950F931F93CF93DF93EC018881E8
:100D90009981009759F02A813B812617370730F057
:100DA00081E0DF91CF911F910F9108958B016F5FCB
:100DB0007F4F0E941719009759F0998388831B83EE
:100DC0000A832C813D81232B59F7FC011082E8CF47
:100DD00080E0E7CFEF92FF920F931F93CF93DF93C3
:100DE0008C017B01EB0109900020E9F72197C61BDC
:100DF000D70BBE010E94C206811109C0C801DF9154
:100E0000CF911F910F91FF90EF900C949106F801F4
:100E1000D583C483B70180819181DF91CF911F91E8
:100E20000F91FF90EF900C94DD191F920F920FB667
:100E30000F9211242F933F938F939F93AF93BF9360
:100E40008091E9069091EA06A091EB06B091EC063C
:100E50003091E80623E0230F2D3758F50196A11DA8
:100E6000B11D2093E8068093E9069093EA06A093CB
:100E7000EB06B093EC068091ED069091EE06A09102
:100E8000EF06B091F0060196A11DB11D8093ED060D
:100E90009093EE06A093EF06B093F006BF91AF914A
:100EA0009F918F913F912F910F900FBE0F901F90A8
:100EB000189526E8230F0296A11DB11DD2CF1F92CF
:100EC0000F920FB60F9211248F939F938091E100A0
:100ED0009091E100937F9093E10083FF0FC0109207
:100EE000E90091E09093EB001092EC0092E3909374
:100EF000ED001092FE0698E09093F00082FF22C071
:100F000093E09093E9009091F200992319F09AE30D
:100F10009093E80090916506992341F090916506C1
:100F2000915090936506911101C05D9A9091FD06D4
:100F3000992341F09091FD0691509093FD069111F7
:100F400001C0289A84FF18C08091E2008E7E8160E3
:100F50008093E2008091E1008F7E8093E100809198
:100F600066068E7E8061809366069F918F910F90BA
:100F70000FBE0F901F90189580FFF7CF8091E20071
:100F80008E7E80618093E2008091E1008E7E80936E
:100F9000E100809166068E7E8160E5CF1F920F9200
:100FA0000FB60F921124CF92DF92EF92FF920F9320
:100FB0001F932F933F934F935F936F937F938F93E1
:100FC0009F93AF93BF93EF93FF93CF93DF93CDB7EF
:100FD000DEB76C97DEBFCDBF1092E9008091E800CC
:100FE00083FF25C068E0CE0145960E94010282EF92
:100FF0008093E8008D8987FF39C09091E80090FFC9
:10100000FCCF982F907609F034C19E894F89588D76
:101010002F89F88C911131C0803861F58091670675
:101020008093F1001092F1008EEF8093E8006C96AF
:101030000FB6F894DEBF0FBECDBFDF91CF91FF9109
:10104000EF91BF91AF919F918F917F916F915F9140
:101050004F913F912F911F910F91FF90EF90DF9053
:10106000CF900F900FBE0F901F9018959EEF90930A
:10107000E800C7CF1092F100D5CF913059F481111B
:10108000D3CF4130510581F6809167068D7F8093E3
:101090006706CACF933049F48111C6CF413051055C
:1010A00019F6809167068260F2CF953041F4809105
:1010B000E80080FFFCCF20682093E300B5CF963096
:1010C00009F0A9C00B8D1C8D22E01092E90010924E
:1010D000630610926206F2122EC010926106109200
:1010E00060060E94D0011F8299E09983FA8291E004
:1010F0009E8390EA98879AEF9987209162063091B3
:101100006306275F3F4F3C832B838D831092E9005A
:1011100010926306109262061093610600936006B7
:1011200049E050E0BE016F5F7F4F80E00E94AA015E
:101130000E94D00179CF10936106009360060E944F
:10114000F700DC0112960D911C910115110509F4AF
:1011500051C1D801ED91FC910480F581E02DBE01D3
:101160006B5E7F4FC8010995009709F03EC1F801F9
:1011700000851185EACFF3E0FF120EC08F89882326
:1011800009F440C0823061F440E862E18DE091E012
:101190000E947701811148CF81E28093EB0047CF15
:1011A000813029F440E868E084E091E0F1CF8330B9
:1011B00099F70E94F700DC011296ED90FC908E01E9
:1011C0000F5F1F4F6801E114F10479F0D701ED9131
:1011D000FC910680F781E02DB801C7010995080F41
:1011E000111DF701E084F184EECFD8011C92F601C5
:1011F00001900020E9F73197BF016C197D0940E0AB
:10120000C601C6CF6EEE70E0FB01449150E080E86D
:101210000E94AA0109CF973009F4BECF983021F47B
:1012200081E08093F10000CF993009F0FDCE83700A
:1012300009F0B2CFE2E4F5E081E031E096E32191FC
:10124000222371F08093E9003093EB00DF011197C6
:101250002C912093EC009093ED008F5F873079F70D
:101260008EE78093EA001092EA008F898093FE0651
:10127000DBCE8B8D9C8D1092E9001092630610924C
:1012800062069093610680936006898D811192C0F9
:101290008E899D89913A49F4813209F07DCF47E0EA
:1012A00050E064E071E080E0B3CF913209F074CF98
:1012B000833269F48F89988DB0E0A0E080930001BB
:1012C00090930101A0930201B0930301ADCE80324F
:1012D00069F48091E80082FFFCCF67E084E091E050
:1012E0000E9401028BEF8093E8009ECE823209F0CB
:1012F0009BCE8F8980930B01EEEFFFE78591949150
:101300008B3F9C4D51F1E0E0F8E080910401909119
:101310000501A0910601B0910701803B9440A10511
:10132000B105F1F480910B0180FD1AC0EE3F8AE017
:10133000F80789F587E797E79183808380916000BC
:101340008093640688E19BE00FB6F894A89580939B
:1013500060000FBE9093600067CEEEEFFAE0D5CF4D
:10136000808191818737974709F05ECEA89580915B
:1013700060008861809360008091640680936000C3
:10138000EE3F2AE0F20789F08091FE0A9091FF0A71
:101390009183808349CE808191818737980751F26C
:1013A0009093FF0A8093FE0AC5CF1092FF0A109215
:1013B000FE0A3ACE0E94F700DC0112960D911C91B4
:1013C0000115110509F4E8CED801ED91FC910190C9
:1013D000F081E02DBE016B5E7F4FC8010995811140
:1013E00023CEF80100851185EBCF181619060CF4F1
:1013F0001BCED2CEF1E0FF12BECE62EF70E004CF82
:101400001F920F920FB60F9211242F938F939F93D9
:10141000EF93FF93909179008091E106E091890626
:10142000F0E0813009F044C0E957F94F8081E09144
:101430008906F0E0EE53F94F2081891710F4281740
:1014400020F0981740F4821730F4E0918906F0E01C
:10145000EE53F94F8083E0918906F0E0E957F94FA8
:101460009083809189068F5F809389068091890699
:10147000823010F01092890690917C00E0918906EC
:10148000F0E0E85BFA4F80818770987F892B80932A
:101490007C0080917A00806480937A00FF91EF91C4
:1014A0009F918F912F910F900FBE0F901F901895C5
:1014B000EE53F94FD5CF1F920F920FB60F92112412
:1014C0002F933F934F935F936F937F938F939F934C
:1014D000AF93BF93EF93FF93809176069091770639
:1014E0008130910509F05CC0E0915C06F0915D06E9
:1014F00022812F3F09F44BC0E0915C06F0915D061C
:101500003081231708F043C0E0915C06F0915D063E
:1015100034E2239FE00DF11D11242585368521300D
:101520003105A9F56785708922E030E030937706B0
:101530002093760620918C0030918D004091160109
:1015400050911701461B570B440F551F240F351F91
:1015500040916806509169066091DF066130D1F0D4
:1015600030938D0020938C000E94F705FF91EF913E
:10157000BF91AF919F918F917F916F915F914F91AB
:101580003F912F910F900FBE0F901F90189570E014
:1015900060E0CACF4217530718F7241B350BDCCF86
:1015A0002091DF06213029F49C01277F223031056C
:1015B00071F02091DF06222371F1109277061092CC
:1015C000760620916F00277F20936F00CDCF20916A
:1015D0006A0630916B06203A310578F72F5F3F4F4E
:1015E00030936B0620936A0620915A0630915B0671
:1015F00030937B0620937A06209178063091790605
:1016000030938B0020938A00B29A20916F0024605F
:1016100020936F00D2CF20916E0630916F06211576
:10162000310559F2309377062093760620916C06A7
:1016300030916D0630938D0020938C0010926F06D0
:1016400010926E0610926D0610926C068DCF1F924E
:101650000F920FB60F9211242F933F934F935F93E6
:101660006F937F938F939F93AF93BF93EF93FF936A
:1016700080917A0690917B068330910509F05CC0D9
:10168000E0915C06F0915D0624812F3F09F44BC088
:10169000E0915C06F0915D063081231708F043C0AD
:1016A000E0915C06F0915D0634E2239FE00DF11DB0
:1016B00011242585368521303105A9F56785708986
:1016C00024E030E030937B0620937A0620918A0054
:1016D00030918B004091160150911701461B570B1A
:1016E000440F551F240F351F40916806509169061D
:1016F0006091DF066130D1F030938B0020938A0037
:101700000E94F705FF91EF91BF91AF919F918F914B
:101710007F916F915F914F913F912F910F900FBEED
:101720000F901F90189570E060E0CACF42175307E2
:1017300018F7241B350BDCCF2091DF06213031F464
:101740008430910589F08B30910571F02091DF068E
:10175000222371F110927B0610927A0620916F007D
:101760002B7F20936F00CCCF20916A0630916B06BF
:10177000203A310578F72F5F3F4F30936B06209367
:101780006A062091580630915906309377062093C7
:101790007606209174063091750630938D00209363
:1017A0008C00B39A20916F00286020936F00D2CFF5
:1017B00020917206309173062115310559F230934C
:1017C0007B0620937A062091700630917106309343
:1017D0008B0020938A00109273061092720610926A
:1017E0007106109270068CCF1F920F920FB60F9257
:1017F00011242F933F934F935F936F937F938F9316
:101800009F93AF93BF93EF93FF931092C1000E94F9
:10181000DA05E2E7F0E080818F778083FF91EF9136
:10182000BF91AF919F918F917F916F915F914F91F8
:101830003F912F910F900FBE0F901F9018951F9200
:101840000F920FB60F9211242F933F934F935F93F4
:101850008F939F93EF93FF93589A20915606309160
:1018600057068091550691E0980F9093550690E0A9
:10187000880F991F820F931FFC0180819181209115
:10188000530630915406820F931F90935406809311
:1018900053064091BE005091BF009C012550310974
:1018A00042175307F0F49093BF00CE9A80915306ED
:1018B0008093CF0080917200806480937200809149
:1018C00072008F7D80937200FF91EF919F918F91B5
:1018D0005F914F913F912F910F900FBE0F901F90EE
:1018E00018955898809114019091150120915306F4
:1018F00030915406820F931F9093540680935306A1
:101900009093BF00CF9A809153068093D20080912C
:1019100072008068809372001092AF06D0CF1F9241
:101920000F920FB60F9211242F933F938F939F9393
:10193000EF93FF935898809155069091520620910D
:10194000530630915406891788F5E0915606F091B8
:10195000570691E0980F9093550690E0880F991FD5
:10196000E80FF91F80819181820F931F9093540695
:10197000809353069093BF00CD9A80915306809335
:10198000D00080917200806280937200809172001A
:101990008F7B80937200FF91EF919F918F913F9188
:1019A0002F910F900FBE0F901F90189580911401EA
:1019B00090911501820F931F9093540680935306C4
:1019C0009093BF00CF9A809153068093D20080916C
:1019D00072008068809372001092AF06D7CFEFEF4D
:1019E000F6E01382128288EE93E0A0E0B0E08483F8
:1019F0009583A683B7838EE495E0918380838FEFF0
:101A00009FEF95878487EFE4F7E0118210821382BD
:101A10001282158214826EE575E0CF010C94EA06FD
:101A2000CF93DF93CDB7DEB7A9970FB6F894DEBF9B
:101A30000FBECDBF789484B5826084BD84B58160CB
:101A400084BD85B5826085BD85B5816085BD809189
:101A50006E00816080936E00109281008091810001
:101A600082608093810080918100816080938100F9
:101A700080918000816080938000809191008260DD
:101A8000809391008091910081608093910080917A
:101A900090008160809390008091C1008460809369
:101AA000C1008091C10082608093C1008091C1001B
:101AB00081608093C1008091C30081608093C300E6
:101AC0008091C00082608093C0008091C2008160DC
:101AD0008093C20080917A00846080937A00809124
:101AE0007A00826080937A0080917A00816080938E
:101AF0007A0080917A00806880937A001092FE06C6
:101B000010926706109266068091D70081608093DC
:101B1000D70080EA8093D80089B5806189BD89B5F6
:101B2000826089BD09B400FEFDCF0E943001809122
:101B3000D8008F7C80618093D8008091E000807F06
:101B40008093E0008091E1008E7E8093E1008DE043
:101B50008093E200559A209A0FEF1FEF10930C0725
:101B600000930B078FE595E00E947606509A86E079
:101B700080931A0188E59BE19093170180931601E9
:101B800084EF91E090931901809318018EE190E029
:101B900090931501809314011092E0061092AF0605
:101BA0001092800610927F06109282061092810693
:101BB0001092840610928306109286061092850673
:101BC00010927E0610927D0610927C0610927B0683
:101BD00010927A0610927906109278061092770683
:101BE0001092760610927506109274061092730683
:101BF00010927206109271061092700610926F0683
:101C000010926E0610926D0610926C0610926B0682
:101C100010926A061092690610926806109282006D
:101C2000109281001092800010926F008FEF86BB9F
:101C3000F894109285001092840092E090938100B5
:101C400078941092C0001092C1001092C2001092BD
:101C5000C3001092720089BB1092AE061092D0069B
:101C60001092D1061092D2061092D3061092DC0682
:101C70001092E6061092E50690E890930E0180E23D
:101C800080930D0144E659E160E070E0409310015B
:101C90005093110160931201709313011092DE06AC
:101CA0001092DD061092E4061092E3061092980658
:101CB0001092E2061092E1068AE080930F011092E2
:101CC000A6061092A7061092A8061092A9061092D6
:101CD0009E0610929D0610928C0610928906109214
:101CE000A5061092A2061092A1061092A4061092C8
:101CF000A3061092A00610929F0610929C061092C6
:101D00009B0610929A06109299061092CF06109296
:101D1000CE061092CB061092CA061092C7061092F9
:101D2000C60610928B0610928A06109288061092B0
:101D300087061092C3061092C2061092BF06109238
:101D4000BE061093BB060093BA061093B706009325
:101D5000B6061092B3061092B20610929306109235
:101D6000920610928E0610928F0610929006109294
:101D70009106109296061092950610929706109270
:101D80000C011092940610928D06E0918906F0E005
:101D9000E85BFA4F80818770806680937C00909327
:101DA0007B008CED80937A009E012F5F3F4F69018D
:101DB000F12CE12C2DA30D2DC7010E947D17D6011A
:101DC0008D936D01BFEFEB1AFB0AE2E2EE16F10410
:101DD00099F789819A81AB81BC818D339D43AD4355
:101DE000BD4309F044C08D815E81AF81B885E9852E
:101DF000FA856B857C85CD84DE84EF84F8884989FB
:101E00003D89288D9A8D1CEF180F50931A01B093BD
:101E10001901A0931801F0931701E0931601709334
:101E2000150160931401C0921001D0921101E0924B
:101E30001201F092130140930F0130930E011A30FA
:101E400008F0CAC12093E7062F8D2093E6069093F1
:101E5000E5068C3018F09D8D9093E2068D3019F4D4
:101E60008E8D8093E10688E695E00E9476068DE7E8
:101E700095E00E94760642E1642E8FEF96E00E9484
:101E8000F602181619060CF039C38FEF96E00E947F
:101E9000B402182F89831A82E0905307F0905407F8
:101EA0002FEFE21AF20AB7018FE497E00E94C20610
:101EB000882391F020914F0730915007809153076C
:101EC000909154076DA1702F820F931F0E94DD190E
:101ED000F0925407E09253071A3079F6712CF12CE6
:101EE00010E0CF2CD12C1A8219821C821B821E82F8
:101EF0001D826BE875E08DA1902F0E94EA0680910B
:101F0000530790915407C816D90608F092C1A090C3
:101F10004F07B090500769817A81C5018C0D9D1DD6
:101F20000E94E419009709F484C18A199B09E82EDC
:101F30008DA1902F0E94A3063FEFE3122DC01A82BD
:101F400019821C821B821E821D826DE575E08DA1A7
:101F5000902F0E94EA068091530790915407C8166B
:101F6000D90608F069C1A0904F07B0905007698169
:101F70007A81C5018C0D9D1D0E94E419009709F41A
:101F80005BC18A199B09E82E8DA1902F0E94A306A0
:101F90004FEFE41609F473C0FE1408F070C08E2CE5
:101FA000912C8C149D0420F0892D4601CE2CD82E26
:101FB0001A8219821C821B821E821D826EE575E0C8
:101FC0008DA1902F0E94EA06A0905307B09054076D
:101FD0008A149B0480F5CA14DB0408F45601E091CE
:101FE0004F07F0915007EA0DFB1D50801082C09002
:101FF0004F07D0905007C80CD91CC114D10479F0F8
:10200000F60101900020E9F731974F018C189D08E7
:10201000B4018DA1902F0E94C206811110C18DA123
:10202000902F0E94910680914F0790915007A80E23
:10203000B91ED5015C9289819A81812C912C540121
:10204000009721F00E9441174B015C018DA1902F58
:102050000E94A306FF24F394FE0C111101C0782CFA
:10206000711058C1B7FC0BC0113009F0F0C0B7E0D7
:102070008B169104A104B10414F480921A011F5F1D
:10208000143109F02ECF711068C180E995E00E94EB
:1020900082064AE062E170E080E090E00E94320651
:1020A0008BE895E00E94820680911A010E948406C6
:1020B0008BE895E00E9482068091180190911901A9
:1020C0000E948B068BE895E00E94820680911601A3
:1020D000909117010E948B068BE895E00E94820682
:1020E00080911401909115010E948B068BE895E078
:1020F0000E9482066091100170911101809112017D
:10210000909113014AE00E9432068BE895E00E940C
:10211000820680910F010E9484068BE895E00E9460
:10212000820680910E010E9484068BE895E00E9451
:1021300082068091E7060E9484068BE895E00E9463
:1021400082068091E6060E9484068BE895E00E9454
:1021500082068091E5060E9484068BE895E00E9445
:1021600082068091E3069091E4060E948B068BE83C
:1021700095E00E9482068091E2060E9484068BE828
:1021800095E00E9482068091E1060E9484068BE819
:1021900095E00E9482068091E0060E9484068BE80A
:1021A00095E00E94820680910D010E9484068BE8D2
:1021B00095E00E9482068091DF060E9484068BE8EB
:1021C00095E00E9482068091DD069091DE060E94D5
:1021D0008B060E942E06BDC03E893093E7063F89DC
:1021E0003093E6062093E5069093E2069B8D90934C
:1021F000E1069C8D9093E006803118F09D8D9093C0
:102200000D01813108F42FCE9E8D9093DF06813130
:1022100009F429CE8F8D98A19093DE068093DD0678
:1022200089A19AA19093E4068093E3060E94670334
:102230001ACE8FEF9FEF7BCE8FEF9FEFA4CE9E82C3
:102240008D82B60189819A810E94DD19ECCE12300F
:1022500029F4909219018092180111CF133029F4BA
:1022600090921701809216010ACF143029F49092AF
:1022700015018092140103CF153049F480921001AA
:1022800090921101A0921201B0921301F8CE163073
:1022900019F480920F01F3CE173019F480920E01D9
:1022A000EECE183019F48092E706E9CE193019F411
:1022B0008092E606E4CE1A3019F48092E506DFCE6D
:1022C0001B3039F49092E4068092E3060E94670383
:1022D000D6CE1C3019F48092E206D1CE1D3019F40E
:1022E0008092E106CCCE1E3019F48092E006C7CE73
:1022F0001F3019F480920D01C2CE103119F4809272
:10230000DF06BDCE113109F0BACE9092DE06809282
:10231000DD06DCCFE7E07E1252C0113009F0AFCE0F
:10232000F3E08F169104A104B10408F0A8CE87E071
:1023300090E081149104A104B10449F088E090E098
:102340008A9489288A288B2811F089E090E00E94DD
:10235000F7058DE895E00E9476061A8219821C82A4
:102360001B821E821D826EE575E08DA1902F0E945A
:10237000EA0680914F0790915007009709F4A7C093
:1023800069817A816115710509F49FC040915107F7
:10239000509152072D813E814217530708F495C092
:1023A0000E94DD198D819E8190935407809353077D
:1023B0001E821D828DA1902F0E94A3065ECD38E063
:1023C000731273C01A8E198E8DE39DE3DC0189832D
:1023D0009A83AB83BC836D8280911A018E83809136
:1023E00018019091190198878F838091160190911F
:1023F00017019A87898780911401909115019C8714
:102400008B878091100190911101A0911201B091E0
:1024100013018D879E87AF87B88B80910F0190E065
:10242000B0E0A0E0898B9A8BAB8BBC8B80910E01C6
:102430008D8B8091E7068E8B8091E6068F8B809145
:10244000E506888F8091E2068A8F8091E1068B8F66
:102450008091E0068C8F80910D018D8F8091DF0639
:102460008E8F8091DD069091DE0698A38F8F8091EC
:10247000E3069091E4069AA389A3CDA0D02EF12C77
:10248000E12CD601BD906D01C7010E947D17B816E1
:1024900021F06B2DC7010E948517BFEFEB1AFB0AD5
:1024A000E2E2EE16F10469F754CFFAE07F12E7CDCD
:1024B000113009F0E4CD22E082169104A104B104A8
:1024C00008F0DDCD8092DC0644CF0E948E18898111
:1024D0009A819093500780934F078B819C819093B2
:1024E0005207809351078D819E819093540780936A
:1024F00053071A8219821C821B825ACF8091E706E9
:10250000882341F08091AF068111A1C28091AE066F
:1025100081119DC28091C2068BA38091C3068CA3BA
:102520001092AA061092AB061092AC061092AD065D
:10253000C090A606D090A706E090A806F090A90645
:10254000C114D104E104F10409F02FC321EA822E61
:1025500026E0922E43EA56E05FA34EA33FE9A32E66
:1025600036E0B32EF12CE12C662463947E2C80910E
:10257000A506882341F1E3E2F0E0EC0FFD1FEE0D2C
:10258000FF1D9081F701EA54F94F8081981708F4F4
:1025900089C08E2D862590E0A3E2B0E0AC0FBD1F70
:1025A000A80FB91FFC01EE54F94F3C91208123176D
:1025B00008F478C0AEA1BFA12C912F5F2C938D554C
:1025C000994FFC011082EEA1FFA18191FFA3EEA320
:1025D000833040F49091DC06992309F4E3C2823001
:1025E00009F0E0C2D4018C9181114EC06C928091AF
:1025F000AA069091AB06A091AC06B091AD06892BCE
:102600008A2B8B2B51F40E940B016093AA067093C6
:10261000AB068093AC069093AD06F50110828091D5
:102620009E0697012556394F39A728A7871104C060
:1026300080919D0681113AC0A8A5B9A51C9210925F
:102640009A06109299062090AA063090AB06409008
:10265000AC065090AD068091100190911101A091AF
:102660001201B0911301820D931DA41DB51DF5013A
:1026700020818093A6069093A706A093A806B09306
:10268000A906222309F450C0FFEF8F1A9F0A2FEFEB
:10269000A21AB20AEA94EF2809F4C9C0EE24E3941E
:1026A000F12C64CFAEA1BFA11C928DCFE8A5F9A5F6
:1026B00060828091CA069091CB0601969093CB06DA
:1026C0008093CA06C0909906D0909A06FFEFCF1A61
:1026D000DF0AD0929A06C09299065090E206809145
:1026E000E606882361F0C0FE0AC0552021F021E0F3
:1026F000C216D10431F48CE995E00E94760655208B
:1027000011F0D5016C928091DF06813009F09BCFEA
:1027100090919806992309F496CF9C151D0408F012
:1027200092CF80930C018FCF70929E0681E08093B0
:102730009D068091DF06813009F02CC280919706BA
:102740008823A9F080910C01811105C0A8A5B9A525
:102750008C91882361F06091950670919606872D83
:102760000E94950310920C0181E080939406809161
:102770009206909193068038910509F042C08091AD
:102780008E0690918F06A0919006B09191067201ED
:102790006101C81AD90AEA0AFB0A87E0F694E794AD
:1027A000D794C7948A95D1F78091DD069091DE0683
:1027B000009751F0AC014E5151094C155D0568F47C
:1027C0004E96C816D90648F4D0929606C092950641
:1027D00081E08093970680938D06809197068823E9
:1027E00061F06091950670919606872D0E94950381
:1027F00010920C0181E0809394061092930610923F
:1028000092068091920690919306009741F420924F
:102810008E0630928F064092900650929106019655
:10282000909393068093920681E080938C0680912A
:10283000DC06882309F4E3C08FE0E1E2F1E0ADA11A
:10284000B02F01900D928A95E1F78091AA069091A0
:10285000AB06A091AC06B091AD06892B8A2B8B2BD1
:1028600051F40E940B016093AA067093AB0680930B
:10287000AC069093AD0680919C06882309F4B8C1FC
:1028800080EA9091A00640E1911101C040E0909152
:10289000A20638E0911101C030E090919B0624E03F
:1028A000911101C020E090919F06992309F4A2C1E3
:1028B00092E05091A106852B842B832B822B892BB0
:1028C0008C838091940650EA811101C050E8809178
:1028D0008D0640E1811101C040E08091A50638E0FD
:1028E000811101C030E080919E0624E0813009F022
:1028F00020E080918C0692E0811101C090E081E09F
:10290000C090A606D090A706E090A806F090A90671
:10291000CD28CE28CF2809F480E0852B842B832B6B
:10292000822B892B8D838091990680688E832BA1C1
:10293000822F8695869580688F838CA150E2259F93
:10294000900111242076982F9695969596959068EB
:10295000292B28874091AA065091AB066091AC06BE
:102960007091AD068295807F282F2077DB01CA0108
:102970003CE1B695A795979587953A95D1F7822B27
:1029800080688987DB01CA01E5E1B695A79597952F
:102990008795EA95D1F780688A87DB01CA01FEE056
:1029A000B695A79597958795FA95D1F780688B8707
:1029B000DB01CA0117E0B695A795979587951A95FB
:1029C000D1F780688C8740684D874FE050E06DA15B
:1029D000702F8FEF96E00E940E0210928C061092DC
:1029E000940610928D0610929C061092A0061092EA
:1029F000A20610929B0610929F061092A1062091AB
:102A0000CE063091CF068BA180938A069091BE06A8
:102A1000981710F48093BE069091BA06891710F4A7
:102A20008093BA068CA180938B069091BF0698176D
:102A300010F48093BF069091BB06891710F4809321
:102A4000BB062E5F3F4F3093CF062093CE0680917A
:102A5000AF06882309F4D0C08AE08093AE060E94B6
:102A60000B016B017C01C092D806D092D906E0928E
:102A7000DA06F092DB068091D4069091D506A091FB
:102A8000D606B091D706C816D906EA06FB0608F4A2
:102A9000E3C0A7019601281B390B4A0B5B0BDA0137
:102AA000C90181159748A349B34008F0D5C080916A
:102AB000E506882309F4D5C18091D0069091D1060E
:102AC000A091D206B091D306813E9105A105B10532
:102AD00009F479C108F0DAC08B349105A105B1057C
:102AE00009F44AC108F091C089319105A105B105E9
:102AF00009F42EC182339105A105B10509F433C152
:102B0000892B8A2B8B2B09F08DC08091CE0690915A
:102B1000CF069093CD068093CC068091CA06909103
:102B2000CB069093C9068093C8068091C606909103
:102B3000C7069093C5068093C4068091C206809311
:102B4000C0068091BE068093BC068091BA06809331
:102B5000B8068091B6068093B4068091B206809341
:102B6000B0068091C3068093C1068091BF06809312
:102B7000BD068091BB068093B9068091B70680930D
:102B8000B5068091B3068093B1060E9410030E949F
:102B9000AB0648C06091950670919606872D0E94FD
:102BA000950342CEF40110826FCD0E940B01609319
:102BB000AA067093AB068093AC069093AD066C1595
:102BC0007D058E059F0508F432CE6C197D098E09AE
:102BD0009F09611577488349934008F028CE1092E9
:102BE000A6061092A7061092A8061092A9061FCE5C
:102BF00080E847CE90E05DCE8091AE06882309F450
:102C00002ECF8091AE06815028CF86399105A1053F
:102C1000B10509F465C040F58D379105A105B105F1
:102C200009F4C3C08091D0069091D106A091D2063C
:102C3000B091D3060196A11DB11D853FE1E09E072D
:102C4000A105B10508F0F5C08093D0069093D10698
:102C5000A093D206B093D30680E090E0892B09F4CC
:102C60000AC90E94000007C98F3A9105A105B10564
:102C700009F4A0C0883C9105A105B10599F688E149
:102C800096E00E9482068091BC069AC0873741E098
:102C90009407A105B10509F4B7C048F58331E1E017
:102CA0009E07A105B10509F495C068F48A3F910516
:102CB000A105B10509F0B6CF85E296E00E94820633
:102CC0008091B4067DC0853421E09207A105B1054D
:102CD00009F497C08E359140A105B10509F0A2CF46
:102CE00081E096E00E94820690E080E039C0893A57
:102CF00041E09407A105B10509F48DC068F480395D
:102D00009140A105B10509F08DCF88E196E00E94C0
:102D100082068091BD0654C0823CF1E09F07A10568
:102D2000B10509F47FC08B3D9140A105B10509F0C3
:102D300079CF8DE296E00E9482068091B1060E94D2
:102D400084060E942E0684EF91E0A0E0B0E024C04B
:102D50008FE995E00E9482068091CC069091CD0685
:102D60000E948B065FCF8FEB95E00E9482068091D8
:102D7000C8069091C906F4CF82ED95E00E948206C4
:102D80008091C4069091C5060E948B060E942E0673
:102D900084E690E0A0E0B0E08093D0069093D10666
:102DA000A093D206B093D3063DCF85EE95E00E9466
:102DB000820638CF8EE096E00E9482068091C0069F
:102DC0000E9484062FCF8FE196E00E9482068091B8
:102DD000B806F6CF8DE296E00E9482068091B0069A
:102DE0000E9484060E942E062CE231E040E050E072
:102DF0002093D0063093D1064093D2065093D30649
:102E000011CF85E396E0D3CF8EE096E00E94820654
:102E10008091C106D5CF8FE196E00E948206809115
:102E2000B906CECF85E296E00E9482068091B50673
:102E3000C7CF1092D0061092D1061092D2061092EF
:102E4000D306F0E4CF0EFBE4DF1EFCE4EF1EF11C22
:102E5000C092D406D092D506E092D606F092D7065C
:102E6000FBCE0E9410030E94AB0620E4C20E2BE4AE
:102E7000D21E2CE4E21EF11CEBCF8FE497E00C9401
:102E8000A3061F93FC0199278827BC01E8941191A0
:102E90001032E9F3193010F01E30C8F31B3251F034
:102EA0001D3249F4689406C00E946817610F711DB5
:102EB000811D911D119110531A30B0F33EF490957D
:102EC0008095709561957F4F8F4F9F4F1F9108950B
:102ED000592F482F372F262F660F771F881F991FCE
:102EE000660F771F881F991F620F731F841F951F1E
:102EF000660F771F881F991F0895F999FECF92BD1D
:102F000081BDF89A992780B50895262FF999FECFAB
:102F10001FBA92BD81BD20BD0FB6F894FA9AF99AF6
:102F20000FBE019608952F923F924F925F926F923B
:102F30007F928F929F92AF92BF92CF92DF92EF9249
:102F4000FF920F931F93CF93DF93CDB7DEB7CA1BCA
:102F5000DB0B0FB6F894DEBF0FBECDBF09942A88F5
:102F6000398848885F846E847D848C849B84AA849D
:102F7000B984C884DF80EE80FD800C811B81AA812A
:102F8000B981CE0FD11D0FB6F894DEBF0FBECDBFF5
:102F9000ED010895A1E21A2EAA1BBB1BFD010DC075
:102FA000AA1FBB1FEE1FFF1FA217B307E407F507F9
:102FB00020F0A21BB30BE40BF50B661F771F881FD5
:102FC000991F1A9469F760957095809590959B016B
:102FD000AC01BD01CF010895EE0FFF1F0590F491E4
:102FE000E02D09940F931F93CF93DF9382309105C7
:102FF00010F482E090E0E0915707F091580730E03C
:1030000020E0B0E0A0E0309799F42115310509F4F3
:103010004AC0281B390B24303105D8F58A819B81A1
:103020006115710589F1FB0193838283FE0111C053
:10303000408151810281138148175907E0F04817F8
:10304000590799F4109761F012960C931297139602
:103050001C933296CF01DF91CF911F910F9108956C
:103060000093570710935807F4CF2115310551F0FD
:103070004217530738F0A901DB019A01BD01DF01B6
:10308000F801C1CFEF01F9CF90935807809357070C
:10309000CDCFFE01E20FF31F8193919322503109AE
:1030A00039832883D7CF2091550730915607232B9A
:1030B00041F420911D0130911E0130935607209359
:1030C000550720911B0130911C012115310541F458
:1030D0002DB73EB740911F0150912001241B350BA5
:1030E000E0915507F0915607E217F307A0F42E1B65
:1030F0003F0B2817390778F0AC014E5F5F4F24175C
:10310000350748F04E0F5F1F509356074093550701
:10311000819391939FCFF0E0E0E09CCFCF93DF933A
:103120000097E9F0FC01329713821282A0915707B1
:10313000B0915807ED0130E020E01097A1F4208114
:103140003181820F931F2091550730915607281720
:10315000390709F061C0F0935607E0935507DF91F6
:10316000CF910895EA01CE17DF07E8F54A815B8128
:103170009E0141155105B1F7E901FB83EA834991AD
:103180005991C40FD51FEC17FD0761F4808191811F
:103190000296840F951FE901998388838281938128
:1031A0009B838A83F0E0E0E012968D919C911397C7
:1031B0000097B9F52D913C911197CD010296820FA0
:1031C000931F20915507309156072817390739F674
:1031D000309751F51092580710925707B093560741
:1031E000A0935507BCCFD383C28340815181840F04
:1031F000951FC817D90761F44E5F5F4F8881998189
:10320000480F591F518340838A819B819383828316
:103210002115310509F0B0CFF0935807E093570717
:103220009ECFFD01DC01C0CF13821282D7CFB0E068
:10323000A0E0EDE1F9E10C9495178C01009751F4B1
:10324000CB010E94F2178C01C801CDB7DEB7E0E1D7
:103250000C94B117FC01E60FF71F9C0122503109B5
:10326000E217F30708F49DC0D901CD91DC911197C5
:10327000C617D70798F0C530D10530F3CE010497B3
:103280008617970708F3C61BD70B2297C193D193D4
:103290006D937C93CF010E948E18D6CF5B01AC1A40
:1032A000BD0A4C018C0E9D1EA0915707B091580786
:1032B000512C412CF12CE12C109731F580915507C0
:1032C000909156078815990509F05CC04616570677
:1032D00008F058C080911B0190911C01009741F4A7
:1032E0008DB79EB740911F0150912001841B950B13
:1032F000E817F90708F055C0F0935607E093550713
:10330000F90171836083A0CF8D919C9111971296E2
:103310006C90129713967C901397A815B90559F5E0
:103320006C0142E0C40ED11CCA14DB0420F1AC01D4
:103330004A195B09DA011296159780F0628273824E
:1033400051834083D9016D937C93E114F10471F0B2
:10335000D7011396FC93EE93129776CF22968C0F9B
:103360009D1FF90191838083F301EFCFF0935807FC
:10337000E093570769CF4816590608F42C017D01E0
:10338000D3019ACFCB010E94F2177C01009749F03C
:10339000AE01B8010E94D419C8010E948E1887019D
:1033A00053CF10E000E050CFFB01DC0102C00190E0
:1033B0000D9241505040D8F70895FB01DC01019077
:1033C0000D920020E1F70895FB0151915523A9F0DA
:1033D000BF01DC014D9145174111E1F759F4CD01D1
:1033E0000190002049F04D9140154111C9F3FB01B6
:1033F0004111EFCF81E090E00197089510E0C1E91D
:10340000D0E004C0FE010E94EC172196C239D1071A
:06341000C9F7F894FFCF9C
:10341600FFFFFFFF00E10000000000000120800A1E
:10342600641900001E00581BF401060000590780AD
:10343600002B6F20000000000000000000000D0AB5
:1034460009FF000102030405060708FFFF0000DC70
:103456000007001400140014003C0014003C001483
:103466000000000000000000000000000000000056
:10347600000000DC00070014003C0014003C0014AF
:10348600001400140000000000000000000000000E
:1034960000000000000000DC00070014003C0014DF
:1034A60000140014003C001400000000000000009E
:1034B6000000000000000000000000DC000700140F
:1034C600001400140064001400140014000000002E
:1034D600000000000000000000000000000000DC0A
:1034E60000070014006400140014001400140014F3
:1034F60000000000000000000000000000000000C6
:10350600000000040107001400640014003C0014CD
:10351600001400140000000000000000000000007D
:1035260000000000000000900107001400C800140D
:103536000064001400C80014000000000000000031
:1035460000000000000000000000006801070014F1
:1035560000C80014003C001400C80014000000005D
:103566000000000000000000000000000000004015
:103576000107001400C800140014001400C8001449
:103586000000000000000000000000000000000035
:103596000009FF00010203FFFFFFFFFFFFFF00001E
:1035A600DC0007001400140014003C0014003C006A
:1035B60014000000000000000000000000000000F1
:1035C60000000000DC00070014003C0014003C0072
:1035D60014001400140000000000000000000000A9
:1035E6000000000000000000DC00070014003C00A2
:1035F6001400140014003C00140000000000000039
:10360600000000000000000000000000DC000700D1
:1036160014001400140064001400140014000000C8
:10362600000000000000000000000000000004FF91
:1036360000010203FFFFFFFFFFFFFF00001C02095E
:1036460000140014001400140014007C011400146B
:103656000014000000000000000000000000000050
:1036660000CC010900140014001400140014002CEE
:103676000114001400140000000000000000000007
:1036860000000000007C010900140014001400145E
:10369600001400DC001400140014000000000000F8
:1036A6000000000000000000002C010900140014B6
:1036B600001400140014008C001400140014000000
:1036C600000000000000000000000002FFFFFFFFF6
:1036D600FFFFFFFFFFFF000100001C020F001400A8
:1036E6001400140014001400500014008C00140080
:1036F6001400140050001400140014000000B80157
:103706000F00140014001400140014003C001400F0
:103716003C0014001400140050001400140014009F
:1037260004FF00010203FFFFFFFFFFFFFF0100642C
:1037360000030017002E001F00000000000000001C
:103746000000000000000000000000000000000073
:103756000001008D00030017004E00280000000045
:103766000000000000000000000000000000000053
:10377600000000000001002B0001002B00000000EB
:103786000000000000000000000000000000000033
:1037960000000000000000000001004400030017C4
:1037A60000150018000000000000000000000000E6
:1037B6000000000000000000000000000002FFFF03
:1037C600FFFFFFFFFFFFFFFF000100005E00050097
:1037D6001200140012001400120000000000000085
:1037E60000000000000000000000000000000000D3
:1037F6006000030012003C00120000000000000000
:1038060000000000000000000000000000000000B2
:10381600000001FFFFFFFFFFFFFFFFFFFF00FF00AC
:1038260000420005000E000C000E000C000E000009
:103836000000000000000000000000000000000082
:103846000000000205AD041004BB031E0381023014
:103856000100C180810000000706000000008F0201
:103866000E02B002A502F602B402D2020D0A002B25
:103876007374617274757000656570726F6D207215
:103886006561645F73657474696E677300696E69F8
:103896007420636F6D706C657465002C004F4B006F
:1038A600706172616D657465727320002B64002B04
:1038B60073746174732067656E6572616C207265DE
:1038C6006164696E675F636F756E7465723A002036
:1038D6006475706C69636174655F6672616D65734A
:1038E6003A00207072656D61747572655F6672610B
:1038F6006D65733A002B73746174732073656E7310
:103906006F72206368616E6E656C3A72696768747F
:103916000020646574656374696F6E733A00207283
:10392600656164696E673A0020686967683A0020D5
:103936006C6F773A00207468725F683A002074688A
:10394600725F6C3A002B73746174732073656E73C7
:103956006F72206368616E6E656C3A6C65667400A2
:00000001FF
