:100000000C9492000C94BA000C94BA000C94BA00B0
:100010000C94BA000C94BA000C94BA000C94BA0078
:100020000C94BA000C94BA000C946B060C94DA068B
:100030000C94BA000C94BA000C94BA000C94BA0058
:100040000C94BA000C941B0A0C9499090C9467093F
:100050000C94BA000C94BA000C94BA000C942106CB
:100060000C94BA000C94BA000C94BA000C94BA0028
:100070000C94BA000C940C090C94BA000C94BA00BD
:100080000C94BA000C94BA000C94BA000C94BA0008
:100090000C94BA000C94BA000C94360B0C94C80A59
:1000A0000C949D0A0C94BA000C94BA00080B000240
:1000B0000202000009040000010202000005240001
:1000C0001001052401010104240206052406000193
:1000D0000705810310004009040100020A00000026
:1000E00007050202400000070583024000000403E8
:1000F000090412010002EF0201404F1B06920001A9
:1001000001020301537061726B46756E005370619A
:10011000726B46756E2050726F204D6963726F006E
:10012000940BA21511241FBECFEFDAE0DEBFCDBFC6
:1001300027E0A8E3B6E001C01D92AE32B207E1F7B6
:1001400016E0A0E0B1E0E0EEF0E302C005900D9211
:10015000A833B107D9F710E0C1E9D0E004C0219776
:10016000FE010E945116C039D107C9F70E94B50B94
:100170000C9463180C9400002FB7F89483E08093DC
:10018000E9009091E800892F807295FF04C090915A
:10019000F20080E4891B2FBF0895FC018091D306F3
:1001A000882311F13FB7F89482E08093E900209111
:1001B000F200822F90E01816190614F481E090E006
:1001C000882339F0289844E64093D2064091F10004
:1001D0004083222339F02091F200211103C02BE645
:1001E0002093E8003FBF08958FEF9FEF089580911F
:1001F000CA0681110DC082E08093C60684E0809318
:10020000C7061092C9061092C80681E08093CA06FC
:1002100086EC96E008953FB7F8948091C2069091DD
:10022000C306A091C406B091C50626B5A89B05C01B
:100230002F3F19F00196A11DB11D3FBFBA2FA92F65
:10024000982F8827BC01CD01620F711D811D911D62
:1002500042E0660F771F881F991F4A95D1F70895CE
:10026000CF92DF92EF92FF920E940B016B017C0113
:100270000E940B016C197D098E099F09683E73402D
:1002800081059105A8F3FF90EF90DF90CF9008953E
:1002900008954091460650914706209144063091BA
:1002A000450642175307B4F49091E8009570E1F3C6
:1002B0009091E80092FD19C08093F100809146066C
:1002C0009091470601968F739927892B19F48EEF29
:1002D0008093E8008091460690914706019690939E
:1002E00047068093460681E0089580E00895EF92E6
:1002F000FF920F931F93CF93DF93F82E192FE62EC3
:10030000042F81E0860F880F0E94490183E00E943C
:100310004901CF2DD12FEC0EFD2EF11CCE15DF059E
:10032000B9F007FF13C0FE0184910E944901182F04
:1003300080E00E944901812321968111EFCFDF9156
:10034000CF911F910F91FF90EF9008958881EDCF8D
:1003500081E0F5CFDF92EF92FF920F931F93CF933F
:10036000DF93D82E8A01EB017B01E40EF51ECE153A
:10037000DF0559F0D7FE12C0FE0184910E944901A9
:1003800021968111F4CF0FEF1FEFC801DF91CF91BC
:100390001F910F91FF90EF90DF9008958881EECF2D
:1003A0000F931F93CF93DF931F92CDB7DEB782E0F9
:1003B000898342E450E06CEA70E080E80E94AA0180
:1003C0000E94F700DC0112960D911C910115110598
:1003D00089F0D801ED91FC910280F381E02DBE01FE
:1003E0006F5F7F4FC801099597FD04C0F801008534
:1003F0001185ECCF89810F90DF91CF911F910F91E3
:100400000895615030F02091F100FC0120830196A5
:10041000F8CF289884E68093D20608958F929F9211
:10042000AF92BF92CF92DF92EF92FF920F931F9302
:10043000CF93DF936C017B018A0180910B018823AC
:1004400009F458C08091D306882309F453C08091E1
:100450004A0680FF05C08091E00082608093E00042
:10046000E801B12C8AEFA82E93E0892E2AE3922E80
:10047000209711F4BB20B9F10E94BC00811106C085
:10048000AA94AA20B9F10E943001F2CF8C171D0660
:1004900011F00CF08C2F9FB7F8948092E900209116
:1004A000E80025FD02C09FBFE3CF282F30E0C21B2C
:1004B000D30BF701815020F041914093F100FACF26
:1004C000E20EF31EBB2021F09092E800B12CEBCF9E
:1004D0008091E80085FDE7CF9092E800BB24B394BB
:1004E000209709F3F3CF5D9884E6809349061016B0
:1004F00011063CF081E090E0F6019383828310E0E6
:1005000000E0C801DF91CF911F910F91FF90EF9014
:10051000DF90CF90BF90AF909F908F900895CF9332
:10052000DF931F92CDB7DEB76983DC01ED91FC91BB
:100530000280F381E02D41E050E0BE016F5F7F4F0C
:1005400009950F90DF91CF91089583E08093E900A2
:100550008091F200882319F08AE38093E8000895DF
:100560000E94BC0090E00895CF93DF931F92CDB717
:10057000DEB7FC018485958597FD08C02FEF3FEF1E
:10058000358724870F90DF91CF910895CE01019692
:100590000E94CD00019719F4898190E0F3CF8FEF8D
:1005A0009FEFF0CF0F931F93CF93DF931F92CDB7A1
:1005B000DEB78C01FC018485958597FF0BC0CE01C9
:1005C00001960E94CD00019771F4898190E0F801B5
:1005D00095878487F801848595850F90DF91CF9169
:1005E0001F910F9108958FEF9FEFF1CFFC0184854C
:1005F000958597FD0BC09FB7F89482E08093E90042
:100600008091F2009FBF90E0019608959FB7F89403
:1006100082E08093E9008091F2009FBF90E008950E
:1006200060910F0130910E018FEF90E0831B9109D3
:1006300021E040918606461708F420E070918A0672
:10064000789FA001799F500D112470918E06379FDD
:10065000400D511D11245093860640918706461780
:1006600008F420E060918F0670918B06789FA001BE
:10067000799F500D1124369F400D511D1124509328
:100680008706209375060895E0913E06F0913F0697
:10069000DF01A80FB91F11962C912F3F89F03081EF
:1006A000231770F434E2239FE00DF11D11242385FC
:1006B00034852130310521F425853685621B730B85
:1006C0009C01235031092230310538F5209158061C
:1006D00030915906232B81F4F89490935906809316
:1006E00058067093890060938800B19A80916F00DA
:1006F000826080936F000FC02091520630915306A4
:10070000232B51F4F89490935306809352067093E0
:1007100051066093500678940895209156063091C2
:100720005706232B71F4F89490935706809356063E
:1007300070938B0060938A00B29A80916F008460FE
:10074000D8CF20914E0630914F06232B29F7F894ED
:1007500090934F0680934E0670934D0660934C061F
:10076000DACFE0911A01F0E0EE0FFF1FEB5DFA4FD8
:100770000190F081E02DF0933F06E0933E06DF010B
:10078000A80FB91F11962C912F3F09F468C0308132
:10079000231708F064C08330910521F0863091055D
:1007A00009F04AC0769A0597029708F4299A61E001
:1007B0006093830640913E0650913F0634E2239FAA
:1007C000C00111249C012F5E3F4F240F351F309331
:1007D0003D0620933C0660933B06840F951FFC0169
:1007E000878580933806F8941092BF001092BF005E
:1007F0001092BE0083E08093BF009FEF9093D100E2
:10080000E0913C06F0913D062081818120933906DC
:1008100080933A068093BF00809139068093CF0081
:100820008091720080648093720099BB85E0809310
:10083000C1007894589A08958430910519F47698F7
:100840002998B1CFAC014B7F4130510511F42C9A5E
:10085000AACF8230910509F0A6CF2C98F1CF0C9445
:10086000310490915C0680915B069817A1F0E091AD
:100870005C06F0E0EE0FFF1FE35AF94F8081918193
:1008800020915C0630E02F5F3F4F23703327209389
:100890005C060C94B10310925A06089520915A06F2
:1008A000222301F1F89420915B0640915C0630E030
:1008B0002F5F3F4F237033274217130689F0E091D3
:1008C0005B06F0E0EE0FFF1FE35AF94F9183808340
:1008D00080915B0690E001968370992780935B0678
:1008E000789408950E94B10381E080935A06089598
:1008F000EF92FF920F931F93CF93F894E0908400B0
:10090000F090850078942091160130911701409164
:100910001801509119013695279542175307B0F4E5
:100920006091180170911901660F771F6E0D7F1D80
:10093000811109C081E090E0CF911F910F91FF904C
:10094000EF900C94440383E090E0F6CFC82F662329
:1009500009F452C0E0911A01F0E0EE0FFF1FEB5DC9
:10096000FA4F0190F081E02D85E090E0CC2311F06A
:1009700086E090E0DF01A80FB91F11962C912F3F60
:1009800009F453C03081231708F04FC00E944E0471
:1009900084E090E0CC2311F082E090E00E944E04CD
:1009A0001092590610925806109257061092560649
:1009B00080916F008D7F80936F0080916F008B7F9F
:1009C00080936F008091420690914306C11104C04C
:1009D0008091400690914106609116017091170137
:1009E000660F771F680F791F82E090E0CC2311F02B
:1009F00084E090E00E9444030091180110911901D5
:100A0000000F111F0E0D1F1DB801CC23B1F081E0A6
:100A100090E00E9444031093430600934206CF9156
:100A20001F910F91FF90EF90089581E090E0CC230B
:100A300009F4ACCF83E090E0A9CF83E090E00E947E
:100A400044031093410600934006E9CFFC01019056
:100A50000020E9F73197AF01481B590BBC0184ED29
:100A600096E00C940E028EE495E00C9426058F928D
:100A70009F92AF92BF920F931F93CF93DF93CDB707
:100A8000DEB7A1970FB6F894DEBF0FBECDBF19A297
:100A9000423008F44AE08E010F5D1F4F842E912CE6
:100AA000B12CA12CA50194010E942F16E62FB901AB
:100AB000CA01EA30F4F4E05DD801EE938D01232BF6
:100AC000242B252B79F790E080E0109719F0CD01C9
:100AD0000E942605A1960FB6F894DEBF0FBECDBFCB
:100AE000DF91CF911F910F91BF90AF909F908F900A
:100AF0000895E95CE1CFCF93DF930E942605EC01D6
:100B00000E9433058C0F9D1FDF91CF9108950C94A7
:100B10002605682F70E090E080E04AE00C943705ED
:100B2000BC0190E080E04AE00C943705CF93DF935E
:100B3000EC0188819981009711F00E94F3161982C7
:100B400018821D821C821B821A82DF91CF91089528
:100B5000FC0180819181009711F00C94F3160895A7
:100B60001092A7061092A6061092A3061092A20653
:100B700010929F0610929E06E8E9F6E084E0DF01FD
:100B80001D928A95E9F710928F0610928E068FEFCC
:100B90009FEF90938B0680938A0608950F931F937F
:100BA000CF93DF93EC0188819981009759F02A81D6
:100BB0003B812617370730F081E0DF91CF911F91FD
:100BC0000F9108958B016F5F7F4F0E947C170097F4
:100BD00059F0998388831B830A832C813D81232BC1
:100BE00059F7FC011082E8CF80E0E7CFEF92FF9247
:100BF0000F931F93CF93DF938C017B01EB0109903F
:100C00000020E9F72197C61BD70BBE010E94CE0535
:100C1000811109C0C801DF91CF911F910F91FF9001
:100C2000EF900C949605F801D583C483B7018081B9
:100C30009181DF91CF911F910F91FF90EF900C94D4
:100C400042181F920F920FB60F9211242F933F93C9
:100C50008F939F93AF93BF938091BE069091BF06F1
:100C6000A091C006B091C1063091BD0623E0230FCC
:100C70002D3758F50196A11DB11D2093BD06809317
:100C8000BE069093BF06A093C006B093C1068091A4
:100C9000C2069091C306A091C406B091C506019604
:100CA000A11DB11D8093C2069093C306A093C406F4
:100CB000B093C506BF91AF919F918F913F912F91B6
:100CC0000F900FBE0F901F90189526E8230F0296E5
:100CD000A11DB11DD2CF1F920F920FB60F921124FA
:100CE0008F939F938091E1009091E100937F909387
:100CF000E10083FF0FC01092E90091E09093EB00B8
:100D00001092EC0092E39093ED001092D30698E0DD
:100D10009093F00082FF22C093E09093E9009091BD
:100D2000F200992319F09AE39093E8009091490614
:100D3000992341F090914906915090934906911161
:100D400001C05D9A9091D206992341F09091D2060C
:100D500091509093D206911101C0289A84FF18C037
:100D60008091E2008E7E81608093E2008091E100BC
:100D70008F7E8093E10080914A068E7E8061809311
:100D80004A069F918F910F900FBE0F901F9018955C
:100D900080FFF7CF8091E2008E7E80618093E20039
:100DA0008091E1008E7E8093E10080914A068E7EE4
:100DB0008160E5CF1F920F920FB60F921124CF9250
:100DC000DF92EF92FF920F931F932F933F934F93D6
:100DD0005F936F937F938F939F93AF93BF93EF93A3
:100DE000FF93CF93DF93CDB7DEB76C97DEBFCDBF58
:100DF0001092E9008091E80083FF25C068E0CE01F1
:100E000045960E94010282EF8093E8008D8987FF5A
:100E100039C09091E80090FFFCCF982F907609F0B0
:100E200034C19E894F89588D2F89F88C911131C01A
:100E3000803861F580914B068093F1001092F100AB
:100E40008EEF8093E8006C960FB6F894DEBF0FBE6D
:100E5000CDBFDF91CF91FF91EF91BF91AF919F9166
:100E60008F917F916F915F914F913F912F911F9142
:100E70000F91FF90EF90DF90CF900F900FBE0F90EB
:100E80001F9018959EEF9093E800C7CF1092F10045
:100E9000D5CF913059F48111D3CF4130510581F62E
:100EA00080914B068D7F80934B06CACF933049F4D7
:100EB0008111C6CF4130510519F680914B068260F1
:100EC000F2CF953041F48091E80080FFFCCF20689C
:100ED0002093E300B5CF963009F0A9C00B8D1C8D8F
:100EE00022E01092E9001092470610924606F21294
:100EF0002EC010924506109244060E94D0011F8217
:100F000099E09983FA8291E09E8390EA98879AEF1C
:100F100099872091460630914706275F3F4F3C83D3
:100F20002B838D831092E90010924706109246069B
:100F3000109345060093440649E050E0BE016F5F00
:100F40007F4F80E00E94AA010E94D00179CF1093C8
:100F50004506009344060E94F700DC0112960D91AD
:100F60001C910115110509F451C1D801ED91FC91B5
:100F70000480F581E02DBE016B5E7F4FC8010995AD
:100F8000009709F03EC1F80100851185EACFF3E032
:100F9000FF120EC08F89882309F440C0823061F4AB
:100FA00040E862E18DE091E00E947701811148CF35
:100FB00081E28093EB0047CF813029F440E868E07C
:100FC00084E091E0F1CF833099F70E94F700DC01D3
:100FD0001296ED90FC908E010F5F1F4F6801E11497
:100FE000F10479F0D701ED91FC910680F781E02DB5
:100FF000B801C7010995080F111DF701E084F184BC
:10100000EECFD8011C92F60101900020E9F731974C
:10101000BF016C197D0940E0C601C6CF6EEE70E0DD
:10102000FB01449150E080E80E94AA0109CF97306B
:1010300009F4BECF983021F481E08093F10000CF15
:10104000993009F0FDCE837009F0B2CFE4E3F5E00A
:1010500081E031E096E32191222371F08093E90051
:101060003093EB00DF0111972C912093EC009093CB
:10107000ED008F5F873079F78EE78093EA0010925A
:10108000EA008F898093D306DBCE8B8D9C8D1092E6
:10109000E900109247061092460690934506809309
:1010A0004406898D811192C08E899D89913A49F4B7
:1010B000813209F07DCF47E050E064E071E080E0EC
:1010C000B3CF913209F074CF833269F48F89988D50
:1010D000B0E0A0E08093000190930101A093020191
:1010E000B0930301ADCE803269F48091E80082FFB5
:1010F000FCCF67E084E091E00E9401028BEF8093D7
:10110000E8009ECE823209F09BCE8F8980930B013E
:10111000EEEFFFE7859194918B3F9C4D51F1E0E01C
:10112000F8E08091040190910501A0910601B09131
:101130000701803B9440A105B105F1F480910B01BA
:1011400080FD1AC0EE3F8AE0F80789F587E797E748
:1011500091838083809160008093480688E19BE0C2
:101160000FB6F894A895809360000FBE909360002E
:1011700067CEEEEFFAE0D5CF808191818737974730
:1011800009F05ECEA8958091600088618093600030
:101190008091480680936000EE3F2AE0F20789F0D4
:1011A0008091FE0A9091FF0A9183808349CE8081CD
:1011B00091818737980751F29093FF0A8093FE0A36
:1011C000C5CF1092FF0A1092FE0A3ACE0E94F70095
:1011D000DC0112960D911C910115110509F4E8CE60
:1011E000D801ED91FC910190F081E02DBE016B5E84
:1011F0007F4FC8010995811123CEF8010085118523
:10120000EBCF181619060CF41BCED2CEF1E0FF126C
:10121000BECE62EF70E004CF1F920F920FB60F9216
:1012200011242F938F939F93EF93FF9390917900C5
:101230008091B506E0916706F0E0813009F044C086
:10124000EB59F94F8081E0916706F0E0EE56F94FD7
:101250002081891710F4281720F0981740F482177E
:1012600030F4E0916706F0E0EE56F94F8083E091AC
:101270006706F0E0EB59F94F9083809167068F5F26
:101280008093670680916706823010F0109267069F
:1012900090917C00E0916706F0E0E65CFA4F808177
:1012A0008770987F892B80937C0080917A0080647E
:1012B00080937A00FF91EF919F918F912F910F90E2
:1012C0000FBE0F901F901895EE56F94FD5CF1F9275
:1012D0000F920FB60F9211242F933F934F935F936A
:1012E0006F937F938F939F93AF93BF93EF93FF93EE
:1012F00020915406309155061092550610925406CE
:10130000EFE6F0E09081977F9083C9010E944E0440
:10131000FF91EF91BF91AF919F918F917F916F91CD
:101320005F914F913F912F910F900FBE0F901F90A3
:1013300018951F920F920FB60F9211242F933F937F
:101340004F935F936F937F938F939F93AF93BF93CD
:10135000EF93FF93609156067091570661307105C7
:1013600009F044C0E0913E06F0913F0692819F3F14
:10137000D1F180819817B8F584E2989FE00DF11DB6
:10138000112483859485019771F54585568582E002
:1013900090E0909357068093560620911601309165
:1013A000170180918A0090918B00241B350B220F2E
:1013B000331F280F391F30938B0020938A00CB01F5
:1013C0000E944E04FF91EF91BF91AF919F918F9139
:1013D0007F916F915F914F913F912F910F900FBE31
:1013E0000F901F90189550E040E0D1CF80914E06AD
:1013F00090914F060097A9F0909357068093560658
:1014000080914C0690914D0690938B0080938A00BA
:1014100010924F0610924E0610924D0610924C06F6
:10142000CECF109257061092560690916F009B7F78
:1014300090936F00C4CF1F920F920FB60F9211249A
:101440002F933F934F935F936F937F938F939F93CC
:10145000AF93BF93EF93FF93609158067091590635
:101460006330710509F044C0E0913E06F0913F06FB
:1014700094819F3FD1F180819817B8F584E2989FBD
:10148000E00DF11D112483859485019771F5458543
:10149000568584E090E090935906809358062091F9
:1014A0001601309117018091880090918900241BCA
:1014B000350B220F331F280F391F309389002093DB
:1014C0008800CB010E944E04FF91EF91BF91AF9134
:1014D0009F918F917F916F915F914F913F912F914C
:1014E0000F900FBE0F901F90189550E040E0D1CFA5
:1014F00080915206909153060097A9F09093590657
:1015000080935806809150069091510690938900DF
:101510008093880010925306109252061092510642
:1015200010925006CECF1092590610925806909104
:101530006F009D7F90936F00C4CF1F920F920FB6E4
:101540000F9211242F933F934F935F936F937F9349
:101550008F939F93AF93BF93EF93FF931092C1002C
:101560000E943104E2E7F0E080818F778083FF9171
:10157000EF91BF91AF919F918F917F916F915F910B
:101580004F913F912F910F900FBE0F901F90189584
:101590001F920F920FB60F9211242F933F934F93E8
:1015A0005F938F939F93EF93FF93589A20913C06FC
:1015B00030913D0680913B0691E0980F90933B0659
:1015C00090E0880F991F820F931FFC018081918109
:1015D0002091390630913A06820F931F90933A0674
:1015E000809339064091BE005091BF009C01255068
:1015F000310942175307E8F49093BF0080913906F0
:101600008093CF00809172008064809372008091FB
:1016100072008F7D80937200FF91EF919F918F9167
:101620005F914F913F912F910F900FBE0F901F90A0
:1016300018955898809114019091150120913906C0
:1016400030913A06820F931F90933A0680933906A1
:101650009093BF00809139068093D20080917200F0
:1016600080688093720010928306D1CF1F920F92F0
:101670000FB60F9211242F933F938F939F93EF9365
:10168000FF93589880913B06909138062091390637
:1016900030913A06891780F5E0913C06F0913D06BD
:1016A00091E0980F90933B0690E0880F991FE80F08
:1016B000F91F80819181820F931F90933A06809346
:1016C00039069093BF00809139068093D0008091B5
:1016D0007200806280937200809172008F7B809391
:1016E0007200FF91EF919F918F913F912F910F90F9
:1016F0000FBE0F901F9018958091140190911501C5
:10170000820F931F90933A06809339069093BF00FF
:10171000809139068093D200809172008068809316
:10172000720010928306D8CFE4EDF6E013821282A5
:1017300088EE93E0A0E0B0E084839583A683B7832E
:1017400080E495E0918380838FEF9FEF9587848776
:10175000E4E2F7E011821082138212821582148271
:1017600060E575E0CF010C94F605CF93DF93CDB71C
:10177000DEB7A2970FB6F894DEBF0FBECDBF789448
:1017800084B5826084BD84B5816084BD85B5826086
:1017900085BD85B5816085BD80916E008160809337
:1017A0006E001092810080918100826080938100A0
:1017B00080918100816080938100809180008160B0
:1017C000809380008091910082608093910080914D
:1017D000910081608093910080919000816080935E
:1017E00090008091C10084608093C1008091C1000D
:1017F00082608093C1008091C10081608093C100AC
:101800008091C30081608093C3008091C00082609A
:101810008093C0008091C20081608093C20080915B
:101820007A00846080937A0080917A00826080934D
:101830007A0080917A00816080937A0080917A00AA
:10184000806880937A001092D30610924B06109213
:101850004A068091D70081608093D70080EA809308
:10186000D80089B5806189BD89B5826089BD09B418
:1018700000FEFDCF0E9430018091D8008F7C8061F6
:101880008093D8008091E000807F8093E000809179
:10189000E1008E7E8093E1008DE08093E200559A16
:1018A000209A0FEF1FEF1093E1060093E00681E509
:1018B00095E00E947B05509A519A259A219A579A51
:1018C000269A549A3E9A6E9A249A229A239A86E0ED
:1018D00080931A0188E59BE190931701809316018C
:1018E00084EF91E090931901809318018EE190E0CC
:1018F00090931501809314011092830610925E0656
:1019000010925D061092600610925F0610926206B9
:1019100010926106109264061092630610925C06A3
:1019200010925B0610925A061092590610925806B1
:1019300010925706109256061092550610925406B1
:1019400010925306109252061092510610925006B1
:1019500010924F0610924E0610924D0610924C06B1
:1019600010928200109281001092800010926F00FD
:101970008FEF86BBF894109285001092840092E05D
:101980009093810078941092C0001092C100109240
:10199000C2001092C3001092720089BB109282069E
:1019A0001092A8061092A9061092AA061092AB06F1
:1019B0001092B4061092B8061092BA061092B906A8
:1019C00090E890930E0180EE80930D0180E2809369
:1019D0000C0144E659E160E070E04093100150933F
:1019E000110160931201709313011092B7061092C7
:1019F000B6061092B5068AE080930F0110927A061F
:101A000010927B0610927C0610927D061092690659
:101A100010926A0610926B0610926C061092740671
:101A2000109273061092680610926706109275065F
:101A30001092770610927606109272061092710636
:101A40001092700610926F0610926E0610926D063C
:101A50001092A7061092A6061092A3061092A20654
:101A600010929F0610929E06E8E9F6E084E0DF01FE
:101A70001D928A95E9F710927906109278061092D5
:101A800066061092650610929306109292061092C6
:101A90008F0610928E0610938B0600938A062CE315
:101AA0003CE33093870620938606E0916706F0E0DA
:101AB000E65CFA4F80818770806680937C0090930B
:101AC0007B008CED80937A00FE0131966F0110E06F
:101AD00000E0FE2EED2CC8010E94E215D6018D9388
:101AE0006D010F5F1F4F0E311105A9F789819A8192
:101AF000AB81BC818D339D43AD43BD4309F040C0F4
:101B00008D81823009F0EDC18E8180931A018F8121
:101B10009885909319018093180189859A859093EF
:101B20001701809316018B859C85909315018093F6
:101B300014018D859E85AF85B8898093100190939F
:101B40001101A0931201B0931301898980930F01B1
:101B50008D8980930E018E8980930D018F898093EA
:101B60000C011092BB06888D8093BA06898D8093F4
:101B7000B9068A8D8093B8068AE595E00E947B05B8
:101B80008FE695E00E947B058091BC0691E0892755
:101B90008093BC06882309F4F2C12D9AADE06A2E29
:101BA00084ED96E00E94F602181619060CF036C372
:101BB00084ED96E00E94B402D82E89831A820091A7
:101BC0002807109129070F5F1F4FB80184E297E0A3
:101BD0000E94CE05882391F020912407309125079B
:101BE00080912807909129076F2D7E2D820F931FDA
:101BF0000E9442181093290700932807FAE0DF1289
:101C0000CFCF712C512C10E0C52CD12C1A82198207
:101C10001C821B821E821D826DE775E08F2D9E2D1A
:101C20000E94F6058091280790912907C816D906C9
:101C300008F0A7C1A0902407B090250769817A8198
:101C4000C5018C0D9D1D0E944918009709F499C18A
:101C50008A199B09082F8F2D9E2D0E94A8050F3FE2
:101C600061F51A8219821C821B821E821D826FE41A
:101C700075E08F2D9E2D0E94F6058091280790918A
:101C80002907C816D90608F07FC1A0902407B09094
:101C9000250769817A81C5018C0D9D1D0E94491817
:101CA000009709F471C18A199B09082F8F2D9E2D69
:101CB0000E94A8050F3F09F473C0501608F070C0C9
:101CC000802E912C8C149D0420F0892D4601C02E6D
:101CD000D82E1A8219821C821B821E821D8260E508
:101CE00075E08F2D9E2D0E94F605A0902807B090DC
:101CF00029078A149B0480F5CA14DB0408F45601F2
:101D0000E0912407F0912507EA0DFB1D5080108219
:101D1000C0902407D0902507C80CD91CC114D10449
:101D200079F0F60101900020E9F731974F018C1806
:101D30009D08B4018F2D9E2D0E94CE05811127C1D3
:101D40008F2D9E2D0E949605809124079091250746
:101D5000A80EB91ED5015C9289819A81812C912CA3
:101D60005401009721F00E94A6154B015C018F2DB4
:101D70009E2D0E94A80555245394500E111101C0A8
:101D8000782C711064C1B7FC0BC0113009F007C189
:101D9000B7E08B169104A104B10414F480921A01E7
:101DA0001F5F123109F030CF711074C182E895E0E5
:101DB0000E9487054AE06DE070E080E090E00E94BC
:101DC00037058DE795E00E94870580911A010E94F2
:101DD00089058DE795E00E94870580911801909113
:101DE00019010E9490058DE795E00E94870580917A
:101DF0001601909117010E9490058DE795E00E94D1
:101E0000870580911401909115010E9490058DE73E
:101E100095E00E94870560911001709111018091F9
:101E20001201909113014AE00E9437058DE795E079
:101E30000E94870580910F010E9489058DE795E03A
:101E40000E94870580910E010E9489058DE795E02B
:101E50000E94870580910D010E9489058DE795E01C
:101E60000E94870580910C010E9489058DE795E00D
:101E70000E9487058091BB060E9489058DE795E049
:101E80000E9487058091BA060E9489058DE795E03A
:101E90000E9487058091B9060E9489058DE795E02B
:101EA0000E9487058091B8060E9489058DE795E01C
:101EB0000E9487058091B7060E9489058DE795E00D
:101EC0000E9487058091B6060E9489058DE795E0FE
:101ED0000E9487058091B5060E9489050E943305FE
:101EE000D5C0843008F448CE9E8190931A012F818A
:101EF0003885309319012093180129853A8530934C
:101F00001701209316012B853C85309315012093F2
:101F100014014D855E856F8578894093100150933B
:101F200011016093120170931301998990930F012D
:101F30009D8990930E019E8990930D019F899093A6
:101F40000C01988D9093BB06998D9093BA069A8D4B
:101F50009093B9069B8D9093B8068A3018F09C8DAB
:101F60009093B7068C3008F407CE9D8D9093B606FB
:101F70008C3009F401CE8E8D8093B506FDCD2D9861
:101F80000DCE8FEF9FEF66CE8FEF9FEF8ECE9E82AE
:101F90008D82B60189819A810E944218D5CE123075
:101FA00029F49092190180921801FACE133029F485
:101FB0009092170180921601F3CE143029F490927A
:101FC000150180921401ECCE153049F48092100175
:101FD00090921101A0921201B0921301E1CE16303D
:101FE00019F480920F01DCCE173019F480920E01A3
:101FF000D7CE183019F480920D01D2CE193019F4D1
:1020000080920C01CDCE1A3019F48092BB06C8CE56
:102010001B3019F48092BA06C3CE1C3019F480929A
:10202000B906BECE1D3019F48092B806B9CE1E3066
:1020300019F48092B706B4CE1F3019F48092B60618
:10204000AFCE103109F0ACCE8092B506A9CEE7E054
:102050007E1252C0113009F0A3CEF3E08F16910426
:10206000A104B10408F09CCE87E090E081149104B3
:10207000A104B10449F088E090E08A9489288A2874
:102080008B2811F089E090E00E944E048FE795E0E4
:102090000E947B051A8219821C821B821E821D826D
:1020A00060E575E08F2D9E2D0E94F6058091240736
:1020B00090912507009709F49AC069817A8161158A
:1020C000710509F492C040912607509127072D8190
:1020D0003E814217530708F488C00E9442188D8140
:1020E0009E8190932907809328071E821D828F2D41
:1020F0009E2D0E94A80554CD38E0731266C08DE372
:102100009DE3DC0189839A83AB83BC836D828091DC
:102110001A018E83809118019091190198878F83FD
:1021200080911601909117019A87898780911401F7
:10213000909115019C878B878091100190911101DE
:10214000A0911201B09113018D879E87AF87B88B44
:1021500080910F0190E0B0E0A0E0898B9A8BAB8B6F
:10216000BC8B80910E018D8B80910D018E8B8091A7
:102170000C018F8B8091BB06888F8091BA06898F66
:102180008091B9068A8F8091B8068B8F8091B706AF
:102190008C8F8091B6068D8F8091B5068E8FCF2C57
:1021A000DE2C10E000E0D601BD906D01C8010E9458
:1021B000E215B81621F06B2DC8010E94EA150F5FD9
:1021C0001F4F0E31110579F761CFBAE07B12E8CDD0
:1021D000113009F0E5CDE2E08E169104A104B104BE
:1021E00008F0DECD8092B40651CF0E94F3168981AB
:1021F0009A8190932507809324078B819C819093EB
:102200002707809326078D819E81909329078093CD
:1022100028071A8219821C821B8267CF8091BB0615
:10222000882341F080918306811136C28091820615
:10223000811132C2809192068F8F8091930688A37C
:1022400010927E0610927F061092800610928106F0
:1022500080907A0690907B06A0907C06B0907D06D8
:1022600081149104A104B10409F023C328E736E0E6
:102270003AA329A32E013FE1430E511C71E7C72E5B
:1022800076E0D72EEFE68E2EE6E09E2EF6E7AF2E16
:10229000F6E0BF2E10E000E0120166246394702E79
:1022A000A9A1BAA13D91BAA3A9A3F801EE56F94F8D
:1022B0008081F20181932F01D5011C9290917506C6
:1022C0009923B9F13817A8F5F801EA57F94F908129
:1022D000891778F16C928091740680133AC08091CE
:1022E00073068823B1F181E090E02A2DE6E7F6E05D
:1022F0002E1B213011F490E080E0F101E80FF91F6E
:102300002081231730F18A57994FDC018C9190E09E
:10231000AC0134E0559547953A95E1F79595879549
:1023200095958795840F951F2817190694F0F50148
:102330001082FFEFAF1ABF0A2FEFC21AD20A3FEF87
:10234000831A930A0130110509F4A8C001E010E0D6
:10235000A6CF80917E0690917F06A0918006B091D5
:102360008106892B8A2B8B2B51F40E940B016093E1
:102370007E0670937F068093800690938106D60137
:102380001C9280917406871104C08091730681119C
:1023900007C0F401108210926E0610926D0628C0DC
:1023A000D4016C928091A2069091A306019690931D
:1023B000A3068093A20680916D0690916E06019609
:1023C00090936E0680936D062A9A8091BA068823B0
:1023D00041F080916D0680FF04C08EE895E00E9478
:1023E0007B058091B606882309F450C2F60160820D
:1023F000F601808181119DCF40917E0650917F062C
:102400006091800670918106809110019091110178
:10241000A0911201B09113014A015B01880E991E2F
:10242000AA1EBB1E80927A0690927B06A0927C0622
:10243000B0927D0622E0B695A795979587952A9547
:10244000D1F7840F951FA61FB71F8093690690933D
:102450006A06A0936B06B0936C06772009F427C236
:102460005C9A7092740681E080937306F801E159DA
:10247000F94F808161E0811101C060E0872D0E94E9
:102480007804000F111FF801E856F94F80819181FF
:1024900001969183808381E0809368068091B406E1
:1024A000882309F4D1C08FE0E1E2F1E0AF2DBE2D29
:1024B00001900D928A95E1F780917E0690917F06BA
:1024C000A0918006B0918106892B8A2B8B2B51F429
:1024D0000E940B0160937E0670937F0680938006B6
:1024E0009093810680917006882309F405C280EAE2
:1024F0009091720640E1911101C040E09091770601
:1025000038E0911101C030E090916F0624E0911104
:1025100001C020E090917106992309F4EFC192E087
:1025200050917606852B842B832B822B892B8C83D1
:102530008091750638E8811101C030E880917406F9
:1025400024E0813009F020E08091680692E081115A
:1025500001C090E081E040917A0650917B06609145
:102560007C0670917D06452B462B472B09F480E0B5
:10257000832B822B892B8D8380916D0680688E83BF
:102580002F8D822F8695869580688F8388A150E253
:10259000259F900111242076982F969596959695D3
:1025A0009068292B288740917E0650917F06609184
:1025B0008006709181068295807F282F2077DB012D
:1025C000CA013CE1B695A795979587953A95D1F7BD
:1025D000822B80688987DB01CA01E5E1B695A79562
:1025E00097958795EA95D1F780688A87DB01CA01BC
:1025F000FEE0B695A79597958795FA95D1F78068EF
:102600008B87DB01CA0117E0B695A795979587954B
:102610001A95D1F780688C8740684D874FE050E06D
:102620006F2D7E2D84ED96E00E940E0210926806BA
:1026300010927006109272061092770610926F0632
:1026400010927106109276062091A6063091A70688
:102650008F8D8093780690918E06981710F4809352
:102660008E0690918A06891710F480938A0688A1B5
:102670008093790690918F06981710F480938F06B7
:1026800090918B06891710F480938B062E5F3F4F35
:102690003093A7062093A6068090690690906A065C
:1026A000A0906B06B0906C0681149104A104B10453
:1026B000C1F180917E0690917F06A0918006B09135
:1026C0008106892B8A2B8B2B51F40E940B0160937E
:1026D0007E0670937F06809380069093810680919A
:1026E0007E0690917F06A0918006B09181068815A4
:1026F0009905AA05BB05A8F088199909AA09BB097B
:1027000081159748A349B34060F41092690610926E
:102710006A0610926B0610926C0646985C982B988D
:102720002A9880918306882309F4EAC08AE080937E
:1027300082060E940B014B015C018092B0069092D0
:10274000B106A092B206B092B3068091AC06909109
:10275000AD06A091AE06B091AF0688169906AA06FE
:10276000BB0608F435C1A5019401281B390B4A0B9F
:102770005B0BDA01C90181159748A349B34008F002
:1027800027C18091B906882309F4D0C18091A80699
:102790009091A906A091AA06B091AB06883C91053C
:1027A000A105B10509F46BC108F0C9C08B349105CE
:1027B000A105B10509F438C108F0ABC08931910514
:1027C000A105B10509F457C082339105A105B105F2
:1027D00009F421C1892B8A2B8B2B09F0DFC0809152
:1027E000A6069091A7069093A5068093A4068091D3
:1027F000A2069091A3069093A1068093A0068091D3
:102800009E0690919F0690939D0680939C068091D2
:1028100098069091990690939506809394068091DE
:1028200092068093900680918E0680938C0680910C
:102830008A0680938806809186068093840680911C
:102840009A0690919B0690939706809396068091A6
:1028500093068093910680918F0680938D068091D8
:102860008B068093890680918706809385060E9457
:1028700010030E94B00581E995E00E9487058091D0
:10288000A4069091A5060E94900588C08091B70685
:10289000882309F4ADCD20916D0630916E06821724
:1028A000130609F008F477CDD6016C92A1CD469AB3
:1028B000D8CD0E940B0160937E0670937F068093B3
:1028C000800690938106681579058A059B0508F4B2
:1028D000E5CD681979098A099B096115774883490B
:1028E000934008F0DBCD10927A0610927B0610928E
:1028F0007C0610927D06D2CD80E8FACD90E010CE15
:1029000080918206882309F414CF80918206815039
:102910000ECF86399105A105B10509F49EC08F3A05
:102920009105A105B10509F4A1C08D379105A10557
:10293000B105A1F587ED95E00E9487052FC08E3582
:1029400041E09407A105B10509F4BAC0C8F48A3F73
:102950009105A105B10509F499C08534E1E09E0710
:10296000A105B10509F4A9C0813E9105A105B105F4
:10297000A9F481E196E00E948705809188067CC0D9
:102980008039F1E09F07A105B10509F4A9C040F520
:1029900087379140A105B10509F49BC08091A80635
:1029A0009091A906A091AA06B091AB060196A11D2F
:1029B000B11D853FE1E09E07A105B10508F09EC06D
:1029C0008093A8069093A906A093AA06B093AB069D
:1029D00080E090E0892B09F4D7C80E940000D4C899
:1029E000893A41E09407A105B10509F480C0823C11
:1029F0009140A105B10591F687E196E00E94870517
:102A0000809185060E9489050E94330584EF91E03C
:102A1000A0E0B0E019C081EB95E00E9487058091AD
:102A2000A0069091A1062FCF84EC95E00E94870527
:102A300080919C0690919D060E9490050E9433050E
:102A400084E690E0A0E0B0E08093A8069093A90609
:102A5000A093AA06B093AB06A1CF83EF95E00E94A6
:102A6000870580919406909195060DCF80E096E0C1
:102A70000E948705809190060E9489058FCF8AE089
:102A800096E00E94870580918C06F6CF87E196E05C
:102A90000E948705809184060E9489050E94330563
:102AA0002CE231E040E050E02093A8063093A906E4
:102AB0004093AA065093AB0671CF8DE196E03CCFD0
:102AC00083EF95E00E948705809196069091970686
:102AD000DACE80E096E00E94870580919106CCCF07
:102AE0008AE096E00E94870580918D06C5CF81E13E
:102AF00096E00E94870580918906BECF1092A806B5
:102B00001092A9061092AA061092AB06F0E48F0E5E
:102B1000FBE49F1EFCE4AF1EB11C8092AC069092B9
:102B2000AD06A092AE06B092AF0652CF0E9410033F
:102B30000E94B00520E4820E2BE4921E2CE4A21E1B
:102B4000B11CEBCF84E297E00C94A8051F93FC0125
:102B500099278827BC01E89411911032E9F31930C4
:102B600010F01E30C8F31B3251F01D3249F4689446
:102B700006C00E94CD15610F711D811D911D11911F
:102B800010531A30B0F33EF490958095709561958E
:102B90007F4F8F4F9F4F1F910895592F482F372FE9
:102BA000262F660F771F881F991F660F771F881FB4
:102BB000991F620F731F841F951F660F771F881F51
:102BC000991F0895F999FECF92BD81BDF89A992772
:102BD00080B50895262FF999FECF1FBA92BD81BD09
:102BE00020BD0FB6F894FA9AF99A0FBE019608958F
:102BF0002F923F924F925F926F927F928F929F920D
:102C0000AF92BF92CF92DF92EF92FF920F931F93FA
:102C1000CF93DF93CDB7DEB7CA1BDB0B0FB6F894AB
:102C2000DEBF0FBECDBF09942A88398848885F84EB
:102C30006E847D848C849B84AA84B984C884DF805C
:102C4000EE80FD800C811B81AA81B981CE0FD11D40
:102C50000FB6F894DEBF0FBECDBFED010895A1E21F
:102C60001A2EAA1BBB1BFD010DC0AA1FBB1FEE1F06
:102C7000FF1FA217B307E407F50720F0A21BB30B51
:102C8000E40BF50B661F771F881F991F1A9469F7CD
:102C900060957095809590959B01AC01BD01CF0129
:102CA0000895EE0FFF1F0590F491E02D09940F9306
:102CB0001F93CF93DF938230910510F482E090E070
:102CC000E0912C07F0912D0730E020E0B0E0A0E08B
:102CD000309799F42115310509F44AC0281B390BA6
:102CE00024303105D8F58A819B816115710589F100
:102CF000FB0193838283FE0111C0408151810281D7
:102D0000138148175907E0F04817590799F41097AD
:102D100061F012960C93129713961C933296CF0182
:102D2000DF91CF911F910F91089500932C0710937D
:102D30002D07F4CF2115310551F04217530738F014
:102D4000A901DB019A01BD01DF01F801C1CFEF014B
:102D5000F9CF90932D0780932C07CDCFFE01E20F82
:102D6000F31F819391932250310939832883D7CF60
:102D700020912A0730912B07232B41F420911D012C
:102D800030911E0130932B0720932A0720911B01BD
:102D900030911C012115310541F42DB73EB740910A
:102DA0001F0150912001241B350BE0912A07F0915F
:102DB0002B07E217F307A0F42E1B3F0B2817390748
:102DC00078F0AC014E5F5F4F2417350748F04E0F87
:102DD0005F1F50932B0740932A07819391939FCFB6
:102DE000F0E0E0E09CCFCF93DF930097E9F0FC01A7
:102DF000329713821282A0912C07B0912D07ED011A
:102E000030E020E01097A1F420813181820F931FE0
:102E100020912A0730912B072817390709F061C044
:102E2000F0932B07E0932A07DF91CF910895EA01F1
:102E3000CE17DF07E8F54A815B819E0141155105F8
:102E4000B1F7E901FB83EA8349915991C40FD51F7A
:102E5000EC17FD0761F4808191810296840F951F24
:102E6000E90199838883828193819B838A83F0E03F
:102E7000E0E012968D919C9113970097B9F52D91F2
:102E80003C911197CD010296820F931F20912A0742
:102E900030912B072817390739F6309751F51092E2
:102EA0002D0710922C07B0932B07A0932A07BCCFB5
:102EB000D383C28340815181840F951FC817D907DE
:102EC00061F44E5F5F4F88819981480F591F51838C
:102ED00040838A819B81938382832115310509F088
:102EE000B0CFF0932D07E0932C079ECFFD01DC01BE
:102EF000C0CF13821282D7CFB0E0A0E0E2E8F7E1C2
:102F00000C94FA158C01009751F4CB010E945716CE
:102F10008C01C801CDB7DEB7E0E10C941616FC01B8
:102F2000E60FF71F9C0122503109E217F30708F45E
:102F30009DC0D901CD91DC911197C617D70798F0A4
:102F4000C530D10530F3CE0104978617970708F3F3
:102F5000C61BD70B2297C193D1936D937C93CF015E
:102F60000E94F316D6CF5B01AC1ABD0A4C018C0E41
:102F70009D1EA0912C07B0912D07512C412CF12CB6
:102F8000E12C109731F580912A0790912B07881535
:102F9000990509F05CC04616570608F058C08091A4
:102FA0001B0190911C01009741F48DB79EB7409191
:102FB0001F0150912001841B950BE817F90708F0B9
:102FC00055C0F0932B07E0932A07F90171836083C2
:102FD000A0CF8D919C91119712966C901297139699
:102FE0007C901397A815B90559F56C0142E0C40E01
:102FF000D11CCA14DB0420F1AC014A195B09DA01C7
:103000001296159780F06282738251834083D901B2
:103010006D937C93E114F10471F0D7011396FC9346
:10302000EE93129776CF22968C0F9D1FF901918314
:103030008083F301EFCFF0932D07E0932C0769CF46
:103040004816590608F42C017D01D3019ACFCB0113
:103050000E9457167C01009749F0AE01B8010E940A
:103060003918C8010E94F316870153CF10E000E021
:1030700050CFFB01DC0102C001900D924150504045
:10308000D8F70895FB01DC0101900D920020E1F7D3
:103090000895FB0151915523A9F0BF01DC014D9129
:1030A00045174111E1F759F4CD010190002049F095
:1030B0004D9140154111C9F3FB014111EFCF81E062
:1030C00090E00197089510E0C1E9D0E004C0FE014E
:1030D0000E9451162196C239D107C9F7F894FFCF43
:1030E000FFFFFFFF00E100000000000020E0800A79
:1030F000641900001E00581BF4010600002E078012
:10310000002B6F20000000000000000000000D0AEE
:1031100009FF0001020304050607080000DC0007A0
:10312000001400140014003C0014003C00140000C3
:10313000000000000000000000000000000000008F
:1031400000DC00070014003C0014003C00140014D4
:10315000001400000000000000000000000000005B
:103160000000000000DC00070014003C0014001404
:103170000014003C001400000000000000000000EB
:10318000000000000000000000DC00070014001434
:10319000001400640014001400140000000000007B
:1031A00000000000000000000000000000DC00073C
:1031B0000014006400140014001400140014000033
:1031C00000000000000000000000000000000000FF
:1031D00000040107001400640014003C00140014F3
:1031E00000140000000000000000000000000000CB
:1031F0000000000000900107001400C800140064E3
:10320000001400C8001400000000000000000000CE
:10321000000000000000000000680107001400C862
:103220000014003C001400C800140000000000005E
:103230000000000000000000000000000040010746
:10324000001400C800140014001400C8001400008A
:103250000000000000000000000000000000000965
:10326000FF0001020300000000000000DC00070076
:103270001400140014003C0014003C001400000072
:10328000000000000000000000000000000000003E
:10329000DC00070014003C0014003C001400140083
:1032A000140000000000000000000000000000000A
:1032B00000000000DC00070014003C0014001400B3
:1032C00014003C001400000000000000000000009A
:1032D0000000000000000000DC00070014001400E3
:1032E000140064001400140014000000000000002A
:1032F0000000000000000000000004FF00010203C5
:10330000FFFFFFFFFF00001C02090014001400145F
:1033100000140014007C01140014001400000000CC
:103320000000000000000000000000CC01090014B3
:103330000014001400140014002C011400140014D4
:103340000000000000000000000000000000007C01
:1033500001090014001400140014001400DC00140F
:103360000014001400000000000000000000000035
:103370000000002C010900140014001400140014B3
:10338000008C001400140014000000000000000075
:10339000000000000002FF00FF01FFFFFFFFFFFF32
:1033A00000001C020F00140014001400140014008C
:1033B000500014008C00140014001400500014007D
:1033C000140014000000B8010F00140014001400D1
:1033D000140014003C0014003C00140014001400FD
:1033E000500014001400140004FF00010203FFFF4A
:1033F000FFFFFF01006400030017002E001F000004
:1034000000000000000000000000000000000000BC
:103410000000000000000001008D00030017004EB6
:103420000028000000000000000000000000000074
:10343000000000000000000000000001002B00015F
:10344000002B000000000000000000000000000051
:10345000000000000000000000000000000000016B
:1034600000440003001700150018000000000000D1
:10347000000000000000000000000000000000004C
:1034800000000002FF00FF01FFFFFFFFFFFF000041
:103490005E0005001200140012001400120000006B
:1034A000000000000000000000000000000000001C
:1034B000000000006000030012003C001200000049
:1034C00000000000000000000000000000000000FC
:1034D00000000000000001FF00FFFFFFFFFFFFFFF3
:1034E000FF0000420005000E000C000E000C000E54
:1034F00000000000000000000000000000000000CC
:103500000000000000F604A3040804B5031A037FBA
:1035100002300100C18081000000070600000000A9
:103520008F020E02B002A502F602B402D2020D0A08
:10353000002B7374617274757000656570726F6DC5
:1035400020726561645F73657474696E6773006986
:103550006E697420636F6D706C657465002C004F2C
:103560004B00706172616D657465727320002B642D
:10357000002B73746174732067656E6572616C20D3
:1035800072656164696E675F636F756E7465723AC8
:1035900000206475706C69636174655F6672616D4B
:1035A00065733A00207072656D61747572655F664F
:1035B00072616D65733A002B737461747320736567
:1035C0006E736F72206368616E6E656C3A726967C4
:1035D00068740020646574656374696F6E733A0083
:1035E0002072656164696E673A0020686967683AAD
:1035F00000206C6F773A00207468723A002B737465
:103600006174732073656E736F72206368616E6E90
:08361000656C3A6C65667400FC
:00000001FF
