:100000000C9492000C94BA000C94BA000C94BA00B0
:100010000C94BA000C94BA000C94BA000C94BA0078
:100020000C94BA000C94BA000C946B060C94DA068B
:100030000C94BA000C94BA000C94BA000C94BA0058
:100040000C94BA000C94F7090C9475090C944309AC
:100050000C94BA000C94BA000C94BA000C942106CB
:100060000C94BA000C94BA000C94BA000C94BA0028
:100070000C94BA000C940C090C94BA000C94BA00BD
:100080000C94BA000C94BA000C94BA000C94BA0008
:100090000C94BA000C94BA000C94E50A0C94A40ACF
:1000A0000C94790A0C94BA000C94BA00080B000264
:1000B0000202000009040000010202000005240001
:1000C0001001052401010104240206052406000193
:1000D0000705810310004009040100020A00000026
:1000E00007050202400000070583024000000403E8
:1000F000090412010002EF0201404F1B06920001A9
:1001000001020301537061726B46756E005370619A
:10011000726B46756E2050726F204D6963726F006E
:10012000430BD31311241FBECFEFDAE0DEBFCDBFE8
:1001300027E0AAE2B6E001C01D92A531B207E1F7BF
:1001400016E0A0E0B1E0E2E4FDE202C005900D920D
:10015000AA32B107D9F710E0C1E9D0E004C0219775
:10016000FE010E948214C039D107C9F70E94640BB6
:100170000C9494160C940000FC018091BA0688231C
:1001800011F13FB7F89482E08093E9002091F200EA
:10019000822F90E01816190614F481E090E088236D
:1001A00039F0289844E64093B9064091F100408325
:1001B000222339F02091F200211103C02BE6209375
:1001C000E8003FBF08958FEF9FEF08952FB7F89491
:1001D00083E08093E9009091E800892F807295FF79
:1001E00004C09091F20080E4891B2FBF0895809194
:1001F000B10681110DC082E08093AD0684E080934A
:10020000AE061092B0061092AF0681E08093B10660
:100210008DEA96E008953FB7F8948091A9069091F1
:10022000AA06A091AB06B091AC0626B5A89B05C066
:100230002F3F19F00196A11DB11D3FBFBA2FA92F65
:10024000982F8827BC01CD01620F711D811D911D62
:1002500042E0660F771F881F991F4A95D1F70895CE
:10026000CF92DF92EF92FF920E940B016B017C0113
:100270000E940B016C197D098E099F09683E73402D
:1002800081059105A8F3FF90EF90DF90CF9008953E
:1002900008954091380650913906209136063091E4
:1002A000370642175307B4F49091E8009570E1F3D4
:1002B0009091E80092FD19C08093F100809138067A
:1002C0009091390601968F739927892B19F48EEF37
:1002D0008093E800809138069091390601969093BA
:1002E00039068093380681E0089580E00895EF9202
:1002F000FF920F931F93CF93DF93F82E192FE62EC3
:10030000042F81E0860F880F0E94490183E00E943C
:100310004901CF2DD12FEC0EFD2EF11CCE15DF059E
:10032000B9F007FF13C0FE0184910E944901182F04
:1003300080E00E944901812321968111EFCFDF9156
:10034000CF911F910F91FF90EF9008958881EDCF8D
:1003500081E0F5CFDF92EF92FF920F931F93CF933F
:10036000DF93D82E8A01EB017B01E40EF51ECE153A
:10037000DF0559F0D7FE12C0FE0184910E944901A9
:1003800021968111F4CF0FEF1FEFC801DF91CF91BC
:100390001F910F91FF90EF90DF9008958881EECF2D
:1003A0000F931F93CF93DF931F92CDB7DEB782E0F9
:1003B000898342E450E06CEA70E080E80E94AA0180
:1003C0000E94F700DC0112960D911C910115110598
:1003D00089F0D801ED91FC910280F381E02DBE01FE
:1003E0006F5F7F4FC801099597FD04C0F801008534
:1003F0001185ECCF89810F90DF91CF911F910F91E3
:100400000895615030F02091F100FC0120830196A5
:10041000F8CF289884E68093B90608958F929F922A
:10042000AF92BF92CF92DF92EF92FF920F931F9302
:10043000CF93DF936C017B018A0180910B018823AC
:1004400009F458C08091BA06882309F453C08091FA
:100450003C0680FF05C08091E00082608093E00050
:10046000E801B12C8AEFA82E93E0892E2AE3922E80
:10047000209711F4BB20B9F10E94E600811106C05B
:10048000AA94AA20B9F10E943001F2CF8C171D0660
:1004900011F00CF08C2F9FB7F8948092E900209116
:1004A000E80025FD02C09FBFE3CF282F30E0C21B2C
:1004B000D30BF701815020F041914093F100FACF26
:1004C000E20EF31EBB2021F09092E800B12CEBCF9E
:1004D0008091E80085FDE7CF9092E800BB24B394BB
:1004E000209709F3F3CF5D9884E680933B061016BE
:1004F00011063CF081E090E0F6019383828310E0E6
:1005000000E0C801DF91CF911F910F91FF90EF9014
:10051000DF90CF90BF90AF909F908F900895CF9332
:10052000DF931F92CDB7DEB76983DC01ED91FC91BB
:100530000280F381E02D41E050E0BE016F5F7F4F0C
:1005400009950F90DF91CF91089583E08093E900A2
:100550008091F200882319F08AE38093E8000895DF
:100560000E94E60090E00895CF93DF931F92CDB7ED
:10057000DEB7FC018485958597FD08C02FEF3FEF1E
:10058000358724870F90DF91CF910895CE01019692
:100590000E94BC00019719F4898190E0F3CF8FEF9E
:1005A0009FEFF0CF0F931F93CF93DF931F92CDB7A1
:1005B000DEB78C01FC018485958597FF0BC0CE01C9
:1005C00001960E94BC00019771F4898190E0F801C6
:1005D00095878487F801848595850F90DF91CF9169
:1005E0001F910F9108958FEF9FEFF1CFFC0184854C
:1005F000958597FD0BC09FB7F89482E08093E90042
:100600008091F2009FBF90E0019608959FB7F89403
:1006100082E08093E9008091F2009FBF90E008950E
:1006200060910F0130910E018FEF90E0831B9109D3
:1006300021E040917006461708F420E0709174069E
:10064000789FA001799F500D112470917806379FF3
:10065000400D511D112450937006409171064617AC
:1006600008F420E06091790670917506789FA001EA
:10067000799F500D1124369F400D511D1124509328
:100680007106209360060895E0913006F0913106DE
:10069000DF01A80FB91F11962C912F3F89F03081EF
:1006A000231770F434E2239FE00DF11D11242385FC
:1006B00034852130310521F425853685621B730B85
:1006C0009C01235031092230310538F520914A062A
:1006D00030914B06232B81F4F89490934B06809332
:1006E0004A067093890060938800B19A80916F00E8
:1006F000826080936F000FC02091440630914506C0
:10070000232B51F4F89490934506809344067093FC
:1007100043066093420678940895209148063091EC
:100720004906232B71F4F894909349068093480668
:1007300070938B0060938A00B29A80916F008460FE
:10074000D8CF2091400630914106232B29F7F89409
:10075000909341068093400670933F0660933E0657
:10076000DACFE0911A01F0E0EE0FFF1FEA5EFA4FD8
:100770000190F081E02DF0933106E0933006DF0127
:10078000A80FB91F11962C912F3F09F468C0308132
:10079000231708F064C08330910521F0863091055D
:1007A00009F04AC0769A0597029708F4299A61E001
:1007B00060936D06409130065091310634E2239FDC
:1007C000C00111249C012F5E3F4F240F351F309331
:1007D0002F0620932E0660932D06840F951FFC0193
:1007E000878580932A06F8941092BF001092BF006C
:1007F0001092BE0083E08093BF009FEF9093D100E2
:10080000E0912E06F0912F062081818120932B0606
:1008100080932C068093BF0080912B068093CF009D
:100820008091720080648093720099BB85E0809310
:10083000C1007894589A08958430910519F47698F7
:100840002998B1CFAC014B7F4130510511F42C9A5E
:10085000AACF8230910509F0A6CF2C98F1CF0C9445
:10086000310490914E0680914D069817A1F0E091C9
:100870004E06F0E0EE0FFF1FE15BF94F80819181A2
:1008800020914E0630E02F5F3F4F23703327209397
:100890004E060C94B10310924C06089520914C061C
:1008A000222301F1F89420914D0640914E0630E04C
:1008B0002F5F3F4F237033274217130689F0E091D3
:1008C0004D06F0E0EE0FFF1FE15BF94F918380834F
:1008D00080914D0690E001968370992780934D0694
:1008E000789408950E94B10381E080934C060895A6
:1008F000EF92FF920F931F93CF93F894E0908400B0
:10090000F090850078942091160130911701409164
:100910001801509119013695279542175307B0F4E5
:100920006091180170911901660F771F6E0D7F1D80
:10093000811109C081E090E0CF911F910F91FF904C
:10094000EF900C94440383E090E0F6CFC82F662329
:1009500009F452C0E0911A01F0E0EE0FFF1FEA5EC9
:10096000FA4F0190F081E02D85E090E0CC2311F06A
:1009700086E090E0DF01A80FB91F11962C912F3F60
:1009800009F453C03081231708F04FC00E944E0471
:1009900084E090E0CC2311F082E090E00E944E04CD
:1009A00010924B0610924A06109249061092480681
:1009B00080916F008D7F80936F0080916F008B7F9F
:1009C00080936F008091340690913506C11104C068
:1009D0008091320690913306609116017091170153
:1009E000660F771F680F791F82E090E0CC2311F02B
:1009F00084E090E00E9444030091180110911901D5
:100A0000000F111F0E0D1F1DB801CC23B1F081E0A6
:100A100090E00E9444031093350600933406CF9172
:100A20001F910F91FF90EF90089581E090E0CC230B
:100A300009F4ACCF83E090E0A9CF83E090E00E947E
:100A400044031093330600933206E9CFFC01019072
:100A50000020E9F73197AF01481B590BBC018BEB24
:100A600096E00C940E028FE395E00C9426058F928D
:100A70009F92AF92BF920F931F93CF93DF93CDB707
:100A8000DEB7A1970FB6F894DEBF0FBECDBF19A297
:100A9000423008F44AE08E010F5D1F4F842E912CE6
:100AA000B12CA12CA50194010E946014E62FB9017C
:100AB000CA01EA30F4F4E05DD801EE938D01232BF6
:100AC000242B252B79F790E080E0109719F0CD01C9
:100AD0000E942605A1960FB6F894DEBF0FBECDBFCB
:100AE000DF91CF911F910F91BF90AF909F908F900A
:100AF0000895E95CE1CFCF93DF930E942605EC01D6
:100B00000E9433058C0F9D1FDF91CF9108950C94A7
:100B10002605682F70E090E080E04AE00C943705ED
:100B2000BC0190E080E04AE00C943705CF93DF935E
:100B3000EC0188819981009711F00E942415198297
:100B400018821D821C821B821A82DF91CF91089528
:100B5000FC0180819181009711F00C942415089577
:100B6000109291061092900610928D0610928C06AB
:100B70001092890610928806E2E8F6E084E0DF0130
:100B80001D928A95E9F710927906109278068FEFF8
:100B90009FEF909375068093740608950F931F93AB
:100BA000CF93DF93EC0188819981009759F02A81D6
:100BB0003B812617370730F081E0DF91CF911F91FD
:100BC0000F9108958B016F5F7F4F0E94AD150097C5
:100BD00059F0998388831B830A832C813D81232BC1
:100BE00059F7FC011082E8CF80E0E7CFEF92FF9247
:100BF0000F931F93CF93DF938C017B01EB0109903F
:100C00000020E9F72197C61BD70BBE010E94CE0535
:100C1000811109C0C801DF91CF911F910F91FF9001
:100C2000EF900C949605F801D583C483B7018081B9
:100C30009181DF91CF911F910F91FF90EF900C94D4
:100C400073161F920F920FB60F9211242F933F939A
:100C50008F939F93AF93BF938091A5069091A60623
:100C6000A091A706B091A8063091A40623E0230F17
:100C70002D3758F50196A11DB11D2093A406809330
:100C8000A5069093A606A093A706B093A806809108
:100C9000A9069091AA06A091AB06B091AC06019668
:100CA000A11DB11D8093A9069093AA06A093AB063F
:100CB000B093AC06BF91AF919F918F913F912F91CF
:100CC0000F900FBE0F901F90189526E8230F0296E5
:100CD000A11DB11DD2CF1F920F920FB60F921124FA
:100CE0008F939F938091E1009091E100937F909387
:100CF000E10083FF0FC01092E90091E09093EB00B8
:100D00001092EC0092E39093ED001092BA0698E0F6
:100D10009093F00082FF22C093E09093E9009091BD
:100D2000F200992319F09AE39093E80090913B0622
:100D3000992341F090913B06915090933B0691117D
:100D400001C05D9A9091B906992341F09091B9063E
:100D500091509093B906911101C0289A84FF18C050
:100D60008091E2008E7E81608093E2008091E100BC
:100D70008F7E8093E10080913C068E7E806180931F
:100D80003C069F918F910F900FBE0F901F9018956A
:100D900080FFF7CF8091E2008E7E80618093E20039
:100DA0008091E1008E7E8093E10080913C068E7EF2
:100DB0008160E5CF1F920F920FB60F921124CF9250
:100DC000DF92EF92FF920F931F932F933F934F93D6
:100DD0005F936F937F938F939F93AF93BF93EF93A3
:100DE000FF93CF93DF93CDB7DEB76C97DEBFCDBF58
:100DF0001092E9008091E80083FF25C068E0CE01F1
:100E000045960E94010282EF8093E8008D8987FF5A
:100E100039C09091E80090FFFCCF982F907609F0B0
:100E200034C19E894F89588D2F89F88C911131C01A
:100E3000803861F580913D068093F1001092F100B9
:100E40008EEF8093E8006C960FB6F894DEBF0FBE6D
:100E5000CDBFDF91CF91FF91EF91BF91AF919F9166
:100E60008F917F916F915F914F913F912F911F9142
:100E70000F91FF90EF90DF90CF900F900FBE0F90EB
:100E80001F9018959EEF9093E800C7CF1092F10045
:100E9000D5CF913059F48111D3CF4130510581F62E
:100EA00080913D068D7F80933D06CACF933049F4F3
:100EB0008111C6CF4130510519F680913D068260FF
:100EC000F2CF953041F48091E80080FFFCCF20689C
:100ED0002093E300B5CF963009F0A9C00B8D1C8D8F
:100EE00022E01092E9001092390610923806F212B0
:100EF0002EC010923706109236060E94D0011F8233
:100F000099E09983FA8291E09E8390EA98879AEF1C
:100F100099872091380630913906275F3F4F3C83EF
:100F20002B838D831092E9001092390610923806B7
:100F3000109337060093360649E050E0BE016F5F1C
:100F40007F4F80E00E94AA010E94D00179CF1093C8
:100F50003706009336060E94F700DC0112960D91C9
:100F60001C910115110509F451C1D801ED91FC91B5
:100F70000480F581E02DBE016B5E7F4FC8010995AD
:100F8000009709F03EC1F80100851185EACFF3E032
:100F9000FF120EC08F89882309F440C0823061F4AB
:100FA00040E862E18DE091E00E947701811148CF35
:100FB00081E28093EB0047CF813029F440E868E07C
:100FC00084E091E0F1CF833099F70E94F700DC01D3
:100FD0001296ED90FC908E010F5F1F4F6801E11497
:100FE000F10479F0D701ED91FC910680F781E02DB5
:100FF000B801C7010995080F111DF701E084F184BC
:10100000EECFD8011C92F60101900020E9F731974C
:10101000BF016C197D0940E0C601C6CF6EEE70E0DD
:10102000FB01449150E080E80E94AA0109CF97306B
:1010300009F4BECF983021F481E08093F10000CF15
:10104000993009F0FDCE837009F0B2CFE5E2F5E00A
:1010500081E031E096E32191222371F08093E90051
:101060003093EB00DF0111972C912093EC009093CB
:10107000ED008F5F873079F78EE78093EA0010925A
:10108000EA008F898093BA06DBCE8B8D9C8D1092FF
:10109000E900109239061092380690933706809333
:1010A0003606898D811192C08E899D89913A49F4C5
:1010B000813209F07DCF47E050E064E071E080E0EC
:1010C000B3CF913209F074CF833269F48F89988D50
:1010D000B0E0A0E08093000190930101A093020191
:1010E000B0930301ADCE803269F48091E80082FFB5
:1010F000FCCF67E084E091E00E9401028BEF8093D7
:10110000E8009ECE823209F09BCE8F8980930B013E
:10111000EEEFFFE7859194918B3F9C4D51F1E0E01C
:10112000F8E08091040190910501A0910601B09131
:101130000701803B9440A105B105F1F480910B01BA
:1011400080FD1AC0EE3F8AE0F80789F587E797E748
:10115000918380838091600080933A0688E19BE0D0
:101160000FB6F894A895809360000FBE909360002E
:1011700067CEEEEFFAE0D5CF808191818737974730
:1011800009F05ECEA8958091600088618093600030
:1011900080913A0680936000EE3F2AE0F20789F0E2
:1011A0008091FE0A9091FF0A9183808349CE8081CD
:1011B00091818737980751F29093FF0A8093FE0A36
:1011C000C5CF1092FF0A1092FE0A3ACE0E94F70095
:1011D000DC0112960D911C910115110509F4E8CE60
:1011E000D801ED91FC910190F081E02DBE016B5E84
:1011F0007F4FC8010995811123CEF8010085118523
:10120000EBCF181619060CF41BCED2CEF1E0FF126C
:10121000BECE62EF70E004CF1F920F920FB60F9216
:1012200011248F939F93EF93FF9380917900E09126
:101230005706F0E0E458F94F8083809157068F5F9E
:101240008093570680915706823010F0109257060F
:1012500090917C00E0915706F0E0E55DFA4F8081C7
:101260008770987F892B80937C0080917A008064BE
:1012700080937A00FF91EF919F918F910F900FBE15
:101280000F901F9018951F920F920FB60F92112476
:101290002F933F934F935F936F937F938F939F937E
:1012A000AF93BF93EF93FF9320914606309147068B
:1012B0001092470610924606EFE6F0E09081977F85
:1012C0009083C9010E944E04FF91EF91BF91AF91AD
:1012D0009F918F917F916F915F914F913F912F914E
:1012E0000F900FBE0F901F9018951F920F920FB680
:1012F0000F9211242F933F934F935F936F937F939C
:101300008F939F93AF93BF93EF93FF9360914806A2
:10131000709149066130710509F044C0E0913006D2
:10132000F091310692819F3FD1F180819817B8F5F5
:1013300084E2989FE00DF11D112483859485019727
:1013400071F54585568582E090E09093490680933B
:101350004806209116013091170180918A009091E2
:101360008B00241B350B220F331F280F391F30939E
:101370008B0020938A00CB010E944E04FF91EF91D5
:10138000BF91AF919F918F917F916F915F914F919D
:101390003F912F910F900FBE0F901F90189550E026
:1013A00040E0D1CF80914006909141060097A9F08E
:1013B000909349068093480680913E0690913F069F
:1013C00090938B0080938A00109241061092400601
:1013D00010923F0610923E06CECF10924906109210
:1013E000480690916F009B7F90936F00C4CF1F922F
:1013F0000F920FB60F9211242F933F934F935F9349
:101400006F937F938F939F93AF93BF93EF93FF93CC
:1014100060914A0670914B066330710509F044C033
:10142000E0913006F091310694819F3FD1F18081A7
:101430009817B8F584E2989FE00DF11D112483857B
:101440009485019771F54585568584E090E09093E9
:101450004B0680934A062091160130911701809126
:10146000880090918900241B350B220F331F280F11
:10147000391F3093890020938800CB010E944E04CD
:10148000FF91EF91BF91AF919F918F917F916F915C
:101490005F914F913F912F910F900FBE0F901F9032
:1014A000189550E040E0D1CF8091440690914506D8
:1014B0000097A9F090934B0680934A0680914206CC
:1014C000909143069093890080938800109245067E
:1014D000109244061092430610924206CECF10920C
:1014E0004B0610924A0690916F009D7F90936F007B
:1014F000C4CF1F920F920FB60F9211242F933F93D8
:101500004F935F936F937F938F939F93AF93BF930B
:10151000EF93FF931092C1000E943104E2E7F0E0E4
:1015200080818F778083FF91EF91BF91AF919F91E1
:101530008F917F916F915F914F913F912F910F907C
:101540000FBE0F901F9018951F920F920FB60F921B
:1015500011242F933F938F939F93EF93FF93589A68
:1015600020912E0630912F0680912D0691E0980F44
:1015700090932D0690E0880F991F820F931FFC0116
:101580008081918120912B0630912C06820F931F30
:1015900090932C0680932B069093BF0080912B068E
:1015A0008093CF00E2E7F0E08081806480838081D7
:1015B0008F7D8083FF91EF919F918F913F912F912C
:1015C0000F900FBE0F901F9018951F920F920FB69D
:1015D0000F9211242F933F938F939F93EF93FF9339
:1015E000589880912D0690912A0620912B063091D3
:1015F0002C06891780F5E0912E06F0912F0691E0D8
:10160000980F90932D0690E0880F991FE80FF91F0F
:1016100080819181820F931F90932C0680932B06DB
:101620009093BF0080912B068093D0008091720030
:10163000806280937200809172008F7B8093720031
:10164000FF91EF919F918F913F912F910F900FBE3E
:101650000F901F9018958091140190911501820FA1
:10166000931F90932C0680932B069093BF0080913C
:101670002B068093D2008091720080688093720064
:1016800010926D06D8CFEBEBF6E01382128288EE53
:1016900093E0A0E0B0E084839583A683B78381E3E1
:1016A00095E0918380838FEF9FEF95878487EBE0B0
:1016B000F7E011821082138212821582148261E493
:1016C00075E0CF010C94F605CF93DF93CDB7DEB76D
:1016D000A0970FB6F894DEBF0FBECDBF789484B547
:1016E000826084BD84B5816084BD85B5826085BD1E
:1016F00085B5816085BD80916E00816080936E00AC
:10170000109281008091810082608093810080919D
:10171000810081608093810080918000816080934E
:10172000800080919100826080939100809191006F
:1017300081608093910080919000816080939000FF
:101740008091C10084608093C1008091C10082605B
:101750008093C1008091C10081608093C10080911D
:10176000C30081608093C3008091C0008260809339
:10177000C0008091C20081608093C20080917A0095
:10178000846080937A0080917A00826080937A00EE
:1017900080917A00816080937A0080917A008068DD
:1017A00080937A001092BA0610923D0610923C0681
:1017B0008091D70081608093D70080EA8093D80021
:1017C00089B5806189BD89B5826089BD09B400FE93
:1017D000FDCF0E9430018091D8008F7C8061809382
:1017E000D8008091E000807F8093E0008091E1004C
:1017F0008E7E8093E1008DE08093E200559A209ADE
:101800000FEF1FEF1093C8060093C70682E495E020
:101810000E947B05509A519A259A219A579A269AA6
:10182000549A3E9A6E9A249A229A239A86E080933A
:101830001A0188E59BE1909317018093160184EFCC
:1018400091E090931901809318018EE190E09093BC
:1018500015018093140110926D061092500610929B
:101860004F06109252061092510610925406109292
:101870005306109256061092550610924E0610927C
:101880004D0610924C0610924B0610924A0610928A
:10189000490610924806109247061092460610928A
:1018A000450610924406109243061092420610928A
:1018B00041061092400610923F0610923E0610928A
:1018C0008200109281001092800010926F008FEFC2
:1018D00086BBF894109285001092840092E0909359
:1018E000810078941092C0001092C1001092C20042
:1018F0001092C3001092720089BB10926C06109275
:1019000092061092930610929406109295061092E9
:101910009F061092A1061092A00690E890930E01E7
:1019200080EE80930D0180E280930C0144E659E142
:1019300060E070E040931001509311016093120138
:101940007093130110929E068AE080930F0110920B
:101950006406109265061092660610926706109251
:101960005C0610925D0610925E0610925F06109261
:101970005B0610925A06109257061092600610925B
:1019800059061092580610929106109290061092E5
:101990008D0610928C061092890610928806E2E855
:1019A000F6E084E0DF011D928A95E9F710927D064A
:1019B00010927C06109279061092780610937506A4
:1019C000009374062CE33CE3309371062093700679
:1019D000E0915706F0E0E55DFA4F80818770806600
:1019E00080937C0090937B008CED80937A00FE01C5
:1019F00031966F0110E000E0FE2EED2CC8010E9430
:101A00001314D6018D936D010F5F1F4F0C3111051B
:101A1000A9F789819A81AB81BC818D339D43AD4308
:101A2000BD4309F040C08D81823009F0DBC18E8159
:101A300080931A018F8198859093190180931801E2
:101A400089859A8590931701809316018B859C85D3
:101A500090931501809314018D859E85AF85B8897B
:101A60008093100190931101A0931201B093130180
:101A7000898980930F018D8980930E018E898093CF
:101A80000D018F8980930C011092A206888D80939E
:101A9000A106898D8093A0068A8D80939F068BE492
:101AA00095E00E947B0580E695E00E947B05809191
:101AB000A30691E089278093A306882309F4D5C162
:101AC0002D9A8BEB96E00E94F602181619060CF080
:101AD000FCC28BEB96E00E94B402D82E89831A8256
:101AE00000910F07109110070F5F1F4FB8018BE097
:101AF00097E00E94CE05882391F020910B0730914A
:101B00000C0780910F07909110076F2D7E2D820F8B
:101B1000931F0E9473161093100700930F07FAE0AB
:101B2000DF12CFCF712C612C00E0C62CD12C1A8291
:101B300019821C821B821E821D826EE675E08F2D2B
:101B40009E2D0E94F60580910F0790911007C816F0
:101B5000D90608F08CC1A0900B07B0900C076981E2
:101B60007A81C5018C0D9D1D0E947A16009709F49B
:101B70007EC18A199B09182F8F2D9E2D0E94A805C2
:101B80001F3F61F51A8219821C821B821E821D82F0
:101B900060E475E08F2D9E2D0E94F60580910F0761
:101BA00090911007C816D90608F064C1A0900B07E1
:101BB000B0900C0769817A81C5018C0D9D1D0E9432
:101BC0007A16009709F456C18A199B09182F8F2D90
:101BD0009E2D0E94A8051F3F09F473C0611608F0EE
:101BE00070C0812E912C8C149D0420F0892D46010B
:101BF000C12ED82E1A8219821C821B821E821D823F
:101C000061E475E08F2D9E2D0E94F605A0900F07D0
:101C1000B09010078A149B0480F5CA14DB0408F402
:101C20005601E0910B07F0910C07EA0DFB1D608057
:101C30001082C0900B07D0900C07C80CD91CC1149F
:101C4000D10479F0F60101900020E9F731974F01B6
:101C50008C189D08B4018F2D9E2D0E94CE058111F8
:101C60000CC18F2D9E2D0E94960580910B0790919F
:101C70000C07A80EB91ED5016C9289819A81812C1E
:101C8000912C5401009721F00E94D7134B015C0165
:101C90008F2D9E2D0E94A80566246394610E01116C
:101CA00001C0782C71103FC1B7FC0BC0013009F0A6
:101CB000ECC0B7E08B169104A104B10414F4809237
:101CC0001A010F5F003109F030CF71104FC183E767
:101CD00095E00E9487054AE06AE070E080E090E0CD
:101CE0000E9437058EE695E00E94870580911A01D3
:101CF0000E9489058EE695E00E9487058091180173
:101D0000909119010E9490058EE695E00E9487054A
:101D100080911601909117010E9490058EE695E042
:101D20000E94870580911401909115010E949005F1
:101D30008EE695E00E948705609110017091110177
:101D400080911201909113014AE00E9437058EE6BE
:101D500095E00E94870580910F010E9489058EE61B
:101D600095E00E94870580910E010E9489058EE60C
:101D700095E00E94870580910D010E9489058EE6FD
:101D800095E00E94870580910C010E9489058EE6EE
:101D900095E00E9487058091A2060E9489058EE643
:101DA00095E00E9487058091A1060E9489058EE634
:101DB00095E00E9487058091A0060E9489058EE625
:101DC00095E00E94870580919F060E9489058EE616
:101DD00095E00E94870580919E060E9489050E94D9
:101DE0003305C0C0843008F45ACE9E8190931A0106
:101DF0002F813885309319012093180129853A8560
:101E000030931701209316012B853C8530931501E3
:101E1000209314014D855E856F857889409310016C
:101E2000509311016093120170931301998990935B
:101E30000F019D8990930E019E8990930D019F89BA
:101E400090930C01988D9093A206998D9093A10682
:101E50009A8D9093A0069B8D90939F068A3008F4EC
:101E60001ECE8C8D80939E061ACE2D982ACE8FEF93
:101E70009FEF81CE8FEF9FEFA9CE9E828D82B6011C
:101E800089819A810E947316F0CE023029F49092D3
:101E900019018092180115CF033029F4909217018F
:101EA000809216010ECF043029F490921501809291
:101EB000140107CF053049F480921001909211016E
:101EC000A0921201B0921301FCCE063019F4809258
:101ED0000F01F7CE073019F480920E01F2CE0830D0
:101EE00019F480920D01EDCE093019F480920C01A5
:101EF000E8CE0A3019F48092A206E3CE0B3019F432
:101F00008092A106DECE0C3019F48092A006D9CEC4
:101F10000D3019F480929F06D4CE0E3009F0D1CE48
:101F200080929E06CECEE7E07E1252C0013009F0CC
:101F3000C8CEF3E08F169104A104B10408F0C1CE1D
:101F400087E090E081149104A104B10449F088E095
:101F500090E08A9489288A288B2811F089E090E003
:101F60000E944E0480E795E00E947B051A82198248
:101F70001C821B821E821D8261E475E08F2D9E2DC6
:101F80000E94F60580910B0790910C07009709F4C9
:101F900085C069817A816115710509F47DC0409120
:101FA0000D0750910E072D813E814217530708F40B
:101FB00073C00E9473168D819E8190931007809349
:101FC0000F071E821D828F2D9E2D0E94A80579CDA0
:101FD00038E0731276CE8DE39DE3DC0189839A832A
:101FE000AB83BC838AE08D8380911A018E838091BC
:101FF00018019091190198878F8380911601909113
:1020000017019A87898780911401909115019C8707
:102010008B878091100190911101A0911201B091D4
:1020200013018D879E87AF87B88B80910F0190E059
:10203000B0E0A0E0898B9A8BAB8BBC8B80910E01BA
:102040008D8B80910D018E8B80910C018F8B8091F7
:10205000A206888F8091A106898F8091A0068A8F21
:1020600080919F068B8F80919E068C8FCF2CDE2CCB
:1020700010E000E0D601BD906D01C8010E9413146C
:10208000B81621F06B2DC8010E941B140F5F1F4F63
:102090000C31110579F766CF0E94241589819A8148
:1020A00090930C0780930B078B819C8190930E0774
:1020B00080930D078D819E819093100780930F0769
:1020C0001A8219821C821B827CCF8091A2068823EF
:1020D00041F080916D0681114AC180916C06811199
:1020E00046C180917C06898380917D068A83109207
:1020F00068061092690610926A0610926B0680902C
:10210000640690906506A0906606B09067068114FC
:102110009104A104B10409F0E2C0E2E6F6E0F8A3FC
:10212000EF8FFD8EEE8E32E8A32E36E0B32E10E058
:1021300000E088248394902EAF8DB8A12D91B8A390
:10214000AF8FF801E458F94F9081ED8DFE8D91939A
:10215000FE8FED8F1092610680916006882351F00A
:10216000F801E059F94F8081281720F4981710F0F2
:102170008092610680916106882309F46CC0809189
:10218000680690916906A0916A06B0916B06892B4A
:102190008A2B8B2B51F40E940B016093680670937D
:1021A000690680936A0690936B0640916806509189
:1021B000690660916A0670916B068091100190919A
:1021C0001101A0911201B09113012A013B01480EA7
:1021D000591E6A1E7B1E40926406509265066092EC
:1021E00066067092670622E0B695A7959795879543
:1021F0002A95D1F7840F951FA61FB71F80935C0601
:1022000090935D06A0935E06B0935F06992089F1D6
:102210005C9A80915B06891104C070905A06711017
:102220002AC01092590610925806712C80E09092A4
:102230005B0680925A06811107C061E0711001C0EF
:1022400060E0892D0E947804D5018D919C911197B1
:1022500001968D939C9380916106811160C0B2E0DC
:10226000AB0EB11C0130110509F459C001E010E0BA
:1022700062CF469ACECF2A9A80918C0690918D0695
:10228000019690938D0680938C06C0905806D0904E
:102290005906FFEFCF1ADF0AD0925906C0925806AE
:1022A0008091A1068823C9F0C0FE17C08FE795E092
:1022B0000E948705892D0E9489050E943305872D7C
:1022C00090919E069C151D0409F008F4B0CF109261
:1022D000590610925806872DAACF80E0F1CF0E94B0
:1022E0000B01609368067093690680936A06909369
:1022F0006B06681579058A059B0588F068197909C8
:102300008A099B09611577488349934040F41092EC
:102310006406109265061092660610926706209178
:10232000900630919106898180936206909178069B
:10233000981710F48093780690917406891710F41A
:10234000809374068A81809363069091790698172A
:1023500010F48093790690917506891710F4809394
:1023600075062E5F3F4F3093910620939006809024
:102370005C0690905D06A0905E06B0905F068114AA
:102380009104A104B104C1F180916806909169069D
:10239000A0916A06B0916B06892B8A2B8B2B51F486
:1023A0000E940B01609368067093690680936A0629
:1023B00090936B068091680690916906A0916A06D9
:1023C000B0916B0688159905AA05BB05A8F0881978
:1023D0009909AA09BB0981159748A349B34060F43C
:1023E00010925C0610925D0610925E0610925F06D7
:1023F00046985C982B982A9880916D06882309F45A
:10240000B0C08AE080936C060E940B014B015C0116
:1024100080929A0690929B06A0929C06B0929D068E
:102420008091960690919706A0919806B091990692
:1024300088169906AA06BB0608F4FBC0A5019401FC
:10244000281B390B4A0B5B0BDA01C9018115974830
:10245000A349B34008F0EDC08091A006882309F499
:1024600096C18091920690919306A0919406B091A6
:102470009506883C9105A105B10509F431C108F024
:102480008FC08B349105A105B10509F4FEC008F099
:1024900071C089319105A105B10509F457C0823396
:1024A0009105A105B10509F4E7C0892B8A2B8B2B77
:1024B00009F0A5C0809190069091910690938F06A7
:1024C00080938E0680918C0690918D0690938B065A
:1024D00080938A068091880690918906909387065A
:1024E00080938606809182069091830690937F0662
:1024F00080937E0680917C0680937A068091780690
:10250000809376068091740680937206809170069F
:1025100080936E0680918406909185069093810643
:102520008093800680917D0680937B06809179065A
:10253000809377068091750680937306809171066B
:1025400080936F060E9410030E94B00583E895E017
:102550000E94870580918E0690918F060E949005BB
:102560004EC080916C06882309F44ECF80916C0692
:10257000815048CF86399105A105B10509F49EC067
:102580008F3A9105A105B10509F4A1C08D379105D8
:10259000A105B105A1F589EC95E00E9487052FC042
:1025A0008E3541E09407A105B10509F4BAC0C8F41D
:1025B0008A3F9105A105B10509F499C08534E1E090
:1025C0009E07A105B10509F4A9C0813E9105A105A9
:1025D000B105A9F483E096E00E9487058091720618
:1025E0007CC08039F1E09F07A105B10509F4A9C0BD
:1025F00040F587379140A105B10509F49BC0809152
:10260000920690919306A0919406B091950601963A
:10261000A11DB11D853FE1E09E07A105B10508F0B0
:102620009EC08093920690939306A0939406B093D5
:10263000950640E050E0452B09F439CA0E9400009D
:1026400036CA893A41E09407A105B10509F480C072
:10265000823C9140A105B10591F689E096E00E9487
:10266000870580916F060E9489050E94330584EFDB
:1026700091E0A0E0B0E019C083EA95E00E948705F0
:1026800080918A0690918B0669CF86EB95E00E9437
:10269000870580918606909187060E9490050E948A
:1026A000330584E690E0A0E0B0E08093920690933A
:1026B0009306A0939406B0939506A1CF85EE95E07E
:1026C0000E94870580917E0690917F0647CF82EF1A
:1026D00095E00E94870580917A060E9489058FCF38
:1026E0008CEF95E00E94870580917606F6CF89E011
:1026F00096E00E94870580916E060E9489050E94DF
:1027000033052CE231E040E050E020939206309314
:102710009306409394065093950671CF8FE096E010
:102720003CCF85EE95E00E948705809180069091D0
:10273000810614CF82EF95E00E94870580917B0689
:10274000CCCF8CEF95E00E94870580917706C5CFAE
:1027500083E096E00E94870580917306BECF1092B9
:102760009206109293061092940610929506F0E449
:102770008F0EFBE49F1EFCE4AF1EB11C80929606F8
:1027800090929706A0929806B092990652CF0E9416
:1027900010030E94B00520E4820E2BE4921E2CE46C
:1027A000A21EB11CEBCF8BE097E00C94A8051F9301
:1027B000FC0199278827BC01E89411911032E9F3B4
:1027C000193010F01E30C8F31B3251F01D3249F49D
:1027D000689406C00E94FE13610F711D811D911D3A
:1027E000119110531A30B0F33EF490958095709586
:1027F00061957F4F8F4F9F4F1F910895592F482FFD
:10280000372F262F660F771F881F991F660F771F98
:10281000881F991F620F731F841F951F660F771FF4
:10282000881F991F0895F999FECF92BD81BDF89A2E
:10283000992780B50895262FF999FECF1FBA92BD2A
:1028400081BD20BD0FB6F894FA9AF99A0FBE019691
:1028500008952F923F924F925F926F927F928F9244
:102860009F92AF92BF92CF92DF92EF92FF920F931F
:102870001F93CF93DF93CDB7DEB7CA1BDB0B0FB629
:10288000F894DEBF0FBECDBF09942A8839884888E6
:102890005F846E847D848C849B84AA84B984C8847C
:1028A000DF80EE80FD800C811B81AA81B981CE0F73
:1028B000D11D0FB6F894DEBF0FBECDBFED01089558
:1028C000A1E21A2EAA1BBB1BFD010DC0AA1FBB1F34
:1028D000EE1FFF1FA217B307E407F50720F0A21BA6
:1028E000B30BE40BF50B661F771F881F991F1A9413
:1028F00069F760957095809590959B01AC01BD013D
:10290000CF010895EE0FFF1F0590F491E02D09947B
:102910000F931F93CF93DF938230910510F482E0E1
:1029200090E0E0911307F091140730E020E0B0E070
:10293000A0E0309799F42115310509F44AC0281B0D
:10294000390B24303105D8F58A819B8161157105D9
:1029500089F1FB0193838283FE0111C04081518183
:102960000281138148175907E0F04817590799F475
:10297000109761F012960C93129713961C9332964F
:10298000CF01DF91CF911F910F910895009313070D
:1029900010931407F4CF2115310551F04217530756
:1029A00038F0A901DB019A01BD01DF01F801C1CFB7
:1029B000EF01F9CF9093140780931307CDCFFE0159
:1029C000E20FF31F819391932250310939832883B9
:1029D000D7CF2091110730911207232B41F420917A
:1029E0001D0130911E013093120720931107209191
:1029F0001B0130911C012115310541F42DB73EB763
:102A000040911F0150912001241B350BE0911107CB
:102A1000F0911207E217F307A0F42E1B3F0B2817C3
:102A2000390778F0AC014E5F5F4F2417350748F047
:102A30004E0F5F1F5093120740931107819391939C
:102A40009FCFF0E0E0E09CCFCF93DF930097E9F0D9
:102A5000FC01329713821282A0911307B0911407E0
:102A6000ED0130E020E01097A1F420813181820F48
:102A7000931F20911107309112072817390709F089
:102A800061C0F0931207E0931107DF91CF91089591
:102A9000EA01CE17DF07E8F54A815B819E01411507
:102AA0005105B1F7E901FB83EA8349915991C40FBC
:102AB000D51FEC17FD0761F4808191810296840F88
:102AC000951FE90199838883828193819B838A83FF
:102AD000F0E0E0E012968D919C9113970097B9F584
:102AE0002D913C911197CD010296820F931F209159
:102AF0001107309112072817390739F6309751F529
:102B00001092140710921307B0931207A0931107A5
:102B1000BCCFD383C28340815181840F951FC817D6
:102B2000D90761F44E5F5F4F88819981480F591F23
:102B3000518340838A819B81938382832115310550
:102B400009F0B0CFF0931407E09313079ECFFD0177
:102B5000DC01C0CF13821282D7CFB0E0A0E0E3EB5C
:102B6000F5E10C942B148C01009751F4CB010E94D9
:102B700088148C01C801CDB7DEB7E0E10C9447148E
:102B8000FC01E60FF71F9C0122503109E217F30701
:102B900008F49DC0D901CD91DC911197C617D707D4
:102BA00098F0C530D10530F3CE010497861797070A
:102BB00008F3C61BD70B2297C193D1936D937C93D7
:102BC000CF010E942415D6CF5B01AC1ABD0A4C017F
:102BD0008C0E9D1EA0911307B0911407512C412C0F
:102BE000F12CE12C109731F580911107909112078B
:102BF0008815990509F05CC04616570608F058C0BC
:102C000080911B0190911C01009741F48DB79EB7F4
:102C100040911F0150912001841B950BE817F90783
:102C200008F055C0F0931207E0931107F901718382
:102C30006083A0CF8D919C91119712966C90129702
:102C400013967C901397A815B90559F56C0142E0CD
:102C5000C40ED11CCA14DB0420F1AC014A195B0973
:102C6000DA011296159780F0628273825183408355
:102C7000D9016D937C93E114F10471F0D70113969F
:102C8000FC93EE93129776CF22968C0F9D1FF9013D
:102C900091838083F301EFCFF0931407E093130740
:102CA00069CF4816590608F42C017D01D3019ACF4B
:102CB000CB010E9488147C01009749F0AE01B80155
:102CC0000E946A16C8010E942415870153CF10E0A4
:102CD00000E050CFFB01DC0102C001900D92415099
:102CE0005040D8F70895FB01DC0101900D920020BF
:102CF000E1F70895FB0151915523A9F0BF01DC01D3
:102D00004D9145174111E1F759F4CD010190002093
:102D100049F04D9140154111C9F3FB014111EFCF2D
:102D200081E090E00197089510E0C1E9D0E004C08F
:102D3000FE010E9482142196C239D107C9F7F89486
:022D4000FFCFC3
:102D4200FFFFFFFF00E100000000000020E0800A1A
:102D5200641900001E00581BF401060000150780CC
:102D62000009FF0001020304050607080000DC0059
:102D720007001400140014003C0014003C0014006E
:102D82000000000000000000000000000000000041
:102D92000000DC00070014003C0014003C0014009A
:102DA20014001400000000000000000000000000F9
:102DB200000000000000DC00070014003C001400CA
:102DC200140014003C001400000000000000000089
:102DD20000000000000000000000DC0007001400FA
:102DE2001400140064001400140014000000000019
:102DF2000000000000000000000000000000DC00F5
:102E020007001400640014001400140014001400DD
:102E120000000000000000000000000000000000B0
:102E22000000040107001400640014003C001400B8
:102E32001400140000000000000000000000000068
:102E4200000000000000900107001400C8001400F8
:102E520064001400C800140000000000000000001C
:102E620000000000000000000000680107001400DC
:102E7200C80014003C001400C80014000000000048
:102E820000000000000000000000000000004001FF
:102E920007001400C800140014001400C800140035
:102EA2000000000000000000000000000000000020
:102EB20009FF0001020300000000000000DC00071F
:102EC200001400140014003C0014003C0014000024
:102ED20000000000000000000000000000000000F0
:102EE20000DC00070014003C0014003C0014001435
:102EF20000140000000000000000000000000000BC
:102F02000000000000DC00070014003C0014001464
:102F12000014003C0014000000000000000000004B
:102F2200000000000000000000DC00070014001494
:102F320000140064001400140014000000000000DB
:102F4200000000000000000000000004FF00010279
:102F520003FFFFFFFFFF00001C0209001400140022
:102F62001400140014007C0114001400140000006A
:102F7200000000000000000000000000CC01090079
:102F8200140014001400140014002C011400140086
:102F9200140000000000000000000000000000001B
:102FA2007C01090014001400140014001400DC0059
:102FB20014001400140000000000000000000000D3
:102FC200000000002C010900140014001400140079
:102FD20014008C0014001400140000000000000013
:102FE20000000000000002FF00FF01FFFFFFFFFFE3
:102FF200FF00001C020F001400140014001400143F
:1030020000500014008C001400140014005000142E
:1030120000140014000000B8010F00140014001482
:1030220000140014003C0014003C001400140014AE
:1030320000500014001400140004FF00010203FFFA
:10304200FFFFFFFF01006400030017002E001F00B6
:10305200000000000000000000000000000000006E
:10306200000000000000000001008D0003001700B6
:103072004E002800000000000000000000000000D8
:1030820000000000000000000000000001002B0012
:1030920001002B0000000000000000000000000002
:1030A200000000000000000000000000000000001E
:1030B2000100440003001700150018000000000082
:1030C20000000000000000000000000000000000FE
:1030D2000000000002FF00FF01FFFFFFFFFFFF00F3
:1030E200005E00050012001400120014001200001D
:1030F20000000000000000000000000000000000CE
:1031020000000000006000030012003C00120000FA
:1031120000000000000000000000000000000000AD
:103122000000000000000001FF00FFFFFFFFFFFFA3
:10313200FFFF0000420005000E000C000E000C0014
:103142000E0000000000000000000000000000006F
:10315200000000000000E7049404F903A6030B0337
:103162007002210100C180810000000706000000FA
:10317200008F020E02B002A502F602B402D2020DC4
:103182000A002B7374617274757000656570726FDA
:103192006D20726561645F73657474696E67730034
:1031A200696E697420636F6D706C657465002C00C4
:1031B2004F4B00706172616D657465727320002BF4
:1031C2006420002B73746174732067656E6572618D
:1031D2006C2072656164696E675F636F756E74659A
:1031E200723A00206475706C69636174655F66721F
:1031F200616D65733A00207072656D6174757265F8
:103202005F6672616D65733A002B7374617473202B
:1032120073656E736F72206368616E6E656C3A726D
:10322200696768740020646574656374696F6E739E
:103232003A002072656164696E673A0020686967C6
:10324200683A00206C6F773A00207468723A002B5B
:1032520073746174732073656E736F722063686137
:0A3262006E6E656C3A6C65667400D0
:00000001FF
