:100000000C9492000C94BA000C94BA000C94BA00B0
:100010000C94BA000C94BA000C94BA000C94BA0078
:100020000C94BA000C941D0C0C9421090C949009AA
:100030000C94BA000C94BA000C94BA000C94BA0058
:100040000C94BA000C94BA000C94490D0C94460C14
:100050000C94BA000C94BA000C94BA000C94D70813
:100060000C94BA000C94BA000C94BA000C94BA0028
:100070000C94BA000C94C20B0C94BA000C94BA0005
:100080000C94BA000C94BA000C94BA000C94BA0008
:100090000C94BA000C94BA000C94E70E0C94770EF2
:1000A0000C944C0E0C94BA000C94BA00080B00028D
:1000B0000202000009040000010202000005240001
:1000C0001001052401010104240206052406000193
:1000D0000705810310004009040100020A00000026
:1000E00007050202400000070583024000000403E8
:1000F000090412010002EF0201404F1B06920001A9
:1001000001020301537061726B46756E005370619A
:10011000726B46756E2050726F204D6963726F006E
:10012000470F191911241FBECFEFDAE0DEBFCDBF94
:1001300027E0A6EAB6E001C01D92AA3BB207E1F7AC
:1001400016E0A0E0B1E0EEECF7E302C005900D92FE
:10015000A63AB107D9F710E0C1E9D0E004C0219771
:10016000FE010E94C819C039D107C9F70E94680F63
:100170000C94DA1B0C9400002FB7F89483E0809362
:10018000E9009091E800892F807295FF04C090915A
:10019000F20080E4891B2FBF0895FC0180915F0766
:1001A000882311F13FB7F89482E08093E900209111
:1001B000F200822F90E01816190614F481E090E006
:1001C000882339F0289844E640935E074091F10077
:1001D0004083222339F02091F200211103C02BE645
:1001E0002093E8003FBF08958FEF9FEF089580911F
:1001F000560781110DC082E08093520784E08093FE
:100200005307109255071092540781E080935607C8
:1002100082E597E008953FB7F89480914E0790915A
:100220004F07A0915007B091510726B5A89B05C074
:100230002F3F19F00196A11DB11D3FBFBA2FA92F65
:10024000982F8827BC01CD01620F711D811D911D62
:1002500042E0660F771F881F991F4A95D1F70895CE
:10026000CF92DF92EF92FF920E940B016B017C0113
:100270000E940B016C197D098E099F09683E73402D
:1002800081059105A8F3FF90EF90DF90CF9008953E
:1002900008954091B7065091B8062091B506309167
:1002A000B60642175307B4F49091E8009570E1F355
:1002B0009091E80092FD19C08093F1008091B706FB
:1002C0009091B80601968F739927892B19F48EEFB8
:1002D0008093E8008091B7069091B80601969093BC
:1002E000B8068093B70681E0089580E00895EF9204
:1002F000FF920F931F93CF93DF93F82E192FE62EC3
:10030000042F81E0860F880F0E94490183E00E943C
:100310004901CF2DD12FEC0EFD2EF11CCE15DF059E
:10032000B9F007FF13C0FE0184910E944901182F04
:1003300080E00E944901812321968111EFCFDF9156
:10034000CF911F910F91FF90EF9008958881EDCF8D
:1003500081E0F5CFDF92EF92FF920F931F93CF933F
:10036000DF93D82E8A01EB017B01E40EF51ECE153A
:10037000DF0559F0D7FE12C0FE0184910E944901A9
:1003800021968111F4CF0FEF1FEFC801DF91CF91BC
:100390001F910F91FF90EF90DF9008958881EECF2D
:1003A0000F931F93CF93DF931F92CDB7DEB782E0F9
:1003B000898342E450E06CEA70E080E80E94AA0180
:1003C0000E94F700DC0112960D911C910115110598
:1003D00089F0D801ED91FC910280F381E02DBE01FE
:1003E0006F5F7F4FC801099597FD04C0F801008534
:1003F0001185ECCF89810F90DF91CF911F910F91E3
:100400000895615030F02091F100FC0120830196A5
:10041000F8CF289884E680935E0708958F929F9284
:10042000AF92BF92CF92DF92EF92FF920F931F9302
:10043000CF93DF936C017B018A0180910B018823AC
:1004400009F458C080915F07882309F453C0809154
:10045000BB0680FF05C08091E00082608093E000D1
:10046000E801B12C8AEFA82E93E0892E2AE3922E80
:10047000209711F4BB20B9F10E94BC00811106C085
:10048000AA94AA20B9F10E943001F2CF8C171D0660
:1004900011F00CF08C2F9FB7F8948092E900209116
:1004A000E80025FD02C09FBFE3CF282F30E0C21B2C
:1004B000D30BF701815020F041914093F100FACF26
:1004C000E20EF31EBB2021F09092E800B12CEBCF9E
:1004D0008091E80085FDE7CF9092E800BB24B394BB
:1004E000209709F3F3CF5D9884E68093BA0610163F
:1004F00011063CF081E090E0F6019383828310E0E6
:1005000000E0C801DF91CF911F910F91FF90EF9014
:10051000DF90CF90BF90AF909F908F900895CF9332
:10052000DF931F92CDB7DEB76983DC01ED91FC91BB
:100530000280F381E02D41E050E0BE016F5F7F4F0C
:1005400009950F90DF91CF91089583E08093E900A2
:100550008091F200882319F08AE38093E8000895DF
:100560000E94BC0090E00895CF93DF931F92CDB717
:10057000DEB7FC018485958597FD08C02FEF3FEF1E
:10058000358724870F90DF91CF910895CE01019692
:100590000E94CD00019719F4898190E0F3CF8FEF8D
:1005A0009FEFF0CF0F931F93CF93DF931F92CDB7A1
:1005B000DEB78C01FC018485958597FF0BC0CE01C9
:1005C00001960E94CD00019771F4898190E0F801B5
:1005D00095878487F801848595850F90DF91CF9169
:1005E0001F910F9108958FEF9FEFF1CFFC0184854C
:1005F000958597FD0BC09FB7F89482E08093E90042
:100600008091F2009FBF90E0019608959FB7F89403
:1006100082E08093E9008091F2009FBF90E008950E
:10062000CF93C0910E01F0910D018FEF90E0DC01AE
:10063000AF1BB10950910C01851B9109E0911E0778
:1006400041E0EC1708F440E020911A0730E0A29F47
:10065000B001A39F700DB29F700D1124FE9F600D1D
:10066000711D112470931607829FB001839F700D36
:10067000929F700D11245E9F600D711D1124709367
:100680001207E0911F07EC1708F440E020911B07C8
:1006900030E0A29FB001A39F700DB29F700D112496
:1006A000FE9F600D711D112470931707289FB001E4
:1006B000299F700D389F700D1124E59F600D711DED
:1006C00011247093130740930507CF91089508955F
:1006D00026982E98E8E6F0E0808181608083EBE642
:1006E000F0E0808180648083789408958F929F9257
:1006F000AF92BF92FF920F931F93CF93DF9300D0DF
:1007000000D0CDB7DEB79091410703E010E0981319
:1007100002C001E010E0E0911901F0E0EE0FFF1FD0
:10072000E957FA4F208131813093B1062093B0060A
:10073000E091B006F091B106E00FF11F9181E091D8
:10074000B006F091B1062081291710F09F3FD1F437
:10075000909141070BE010E0981302C00AE010E00E
:10076000E091B006F091B106E00FF11F9181E091A8
:10077000B006F091B1062081291708F458C29F3FB6
:1007800009F455C2F82EF894809184009091850068
:100790009093CE068093CD06789480914007813067
:1007A00009F0B0C1F8941092E2061092E106789434
:1007B0000E940B016093D3067093D4068093D506F4
:1007C0009093D6062091CC06222309F488C120916B
:1007D000CF063091D006621B730B80913E0790913B
:1007E0003F07880F991F8617970780F51092CB0651
:1007F0001092C7061092C8061092C9061092CA0637
:10080000F8941092DA061092D9061092DC06109233
:10081000DB061092D7061092D8061092C6061092E8
:10082000C5061092C4061092C3061092C20610921A
:10083000C1061092BE061092BD061092C00610921C
:10084000BF061092DF061092E006789480913E0772
:1008500090913F072091CB06222309F4F8C100971D
:1008600051F09C01225331096217730790F1C2962F
:100870008617970770F18091C7069091C806A091DE
:10088000C906B091CA064C015D01E6E0B694A79492
:1008900097948794EA95D1F788199909AA09BB0911
:1008A000860F971FA11DB11D8093C7069093C806A0
:1008B000A093C906B093CA06F894F6E0B695A7953A
:1008C00097958795FA95D1F79093C6068093C506BC
:1008D00078948F2D90E0FC01E952F94F60816623F6
:1008E00009F4FDC0F8944091C3065091C4062091CC
:1008F000D9063091DA063A8329832091DB063091BC
:10090000DC063C832B837894FA01EE0FFF1FEE0F79
:10091000FF1F2091CD063091CE062E1B3F0B880F76
:10092000991FFE01E80FF91F81819281281B390B65
:100930003595279588279927841B950BFA01F595FE
:10094000E7958E1B9F0B281739072CF4CA01880FD7
:10095000991F280F391FCA01885E9340281739074D
:1009600034F08053984F821793070CF053C088E1FE
:100970009CEF841B950B2817390744F088EE93E011
:10098000841B950B821793070CF044C0B4E0359597
:100990002795BA95E1F7F894AB81BC8189819A815A
:1009A000FA01EE0FFF1FAD01481B590B4E1B5F0BE9
:1009B00078945A01B594A7946DE0A61A6EEFB60A22
:1009C00067EEA61663E0B60668F4CA01A3E0959543
:1009D0008795AA95E1F7A901481B590B280F391FE4
:1009E00060E01CC08A1B9B0B8E1B9F0BAC015595B6
:1009F00047954D505E4F473E534008F026C1E3E017
:100A000095958795EA95E1F7A901480F591F281B8D
:100A1000390BE6CF50E040E030E020E0F8948091E0
:100A2000BD069091BE06280F391F3093BE06209355
:100A3000BD068091BF069091C006480F591F509384
:100A4000C0064093BF06662309F448C08091C506DE
:100A50009091C60620918A0030918B00880F991FD3
:100A6000820F931F90938B0080938A008091C5061C
:100A70009091C60620918C0030918D00880F991FAF
:100A8000820F931F90938D0080938C008091C506F8
:100A90009091C6062091D9063091DA06880F991FE9
:100AA000820F931F9093DA068093D9068091C50632
:100AB0009091C6062091DB063091DC06880F991FC5
:100AC000820F931F9093DC068093DB061092BE0684
:100AD0001092BD061092C0061092BF0678948091C5
:100AE000D3069091D406A091D506B091D6068093F6
:100AF000CF069093D006A093D106B093D20681E0A2
:100B00008093CC0680914007882339F0EF2DF0E0E8
:100B1000E152F94F808181118AC080914007813074
:100B200049F49091CB06992329F0EF2DF0E0E152A2
:100B3000F94F80838091170190911801880F991FB8
:100B40002091CD063091CE06820F931F4091B006C2
:100B50005091B1062091AE063091AF06421753076F
:100B6000E1F020916F002B7F20936F00B29A1092DA
:100B7000D8061092C0061092BF061092E00620918F
:100B80006F00277F20936F00B39A1092D7061092C0
:100B9000BE061092BD061092DF062091B00630917D
:100BA000B1063093AF062093AE06E091AE06F09109
:100BB000AF06E00FF11F21812F3FC9F0E091AE0693
:100BC000F091AF063081231790F4E091AE06F091DA
:100BD000AF0634E2239FE00DF11D112425853685F3
:100BE0002130310521F427853089821B930B980130
:100BF000277F2330310509F054C02091E906309158
:100C0000EA06232BA1F4F89490938B0080938A003A
:100C1000B29A80916F00846080936F001093EA060F
:100C20000093E9061093E8060093E70678940F9086
:100C30000F900F900F90DF91CF911F910F91FF9028
:100C4000BF90AF909F908F900895A901C9CE009753
:100C500069F09C01245631096217730708F43FCFED
:100C60008C599F4F8617970708F439CFCB01B0E016
:100C7000A0E036E0880F991FAA1FBB1F3A95D1F755
:100C80008093C7069093C806A093C906B093CA067E
:100C900081E08093CB06F8947093C6066093C506F6
:100CA00015CF0130110521F00A30110509F0BFCF31
:100CB0002091E5063091E606232B09F0B8CFF89491
:100CC00090938D0080938C00B39A80916F00886020
:100CD00080936F001093E6060093E5061093E406F8
:100CE0000093E306A3CF2091AE063091AF06309378
:100CF000A7062093A6062091A6063091A706820F8C
:100D0000931FFC0191819F3F09F45EC0E091A6060C
:100D1000F091A7068081981708F056C02091A6068A
:100D20003091A706F4E29F9FC0011124AC014D5EF3
:100D30005F4F420F531F5093AD064093AC0641E006
:100D40004093AB06820F931FFC0181898093A80614
:100D500040930F07F8941092BF001092BF001092BA
:100D6000BE0083E08093BF008FEF8093D100E091BD
:100D7000AC06F091AD06808191819093AA06809394
:100D8000A906009719F58091AB069091A8068917DE
:100D900080F591E0980F9093AB0690E0880F991F33
:100DA000E80FF91F908181819093A9068093AA068C
:100DB0008093BF008091A9068093D000809172003B
:100DC0008062809372000EC00C940F079093BF0056
:100DD0008091A9068093CF008091720080648093F7
:100DE0007200589A8FEF89BB85E08093C100789498
:100DF000089580911301909114019093AA06809315
:100E0000A9069093BF008091A9068093D20080919B
:100E1000720080688093720010920F07E3CF909168
:100E2000ED068091EC069817A1F0E091ED06F0E058
:100E3000EE0FFF1FE251F94F808191812091ED0665
:100E400030E02F5F3F4F237033272093ED060C9443
:100E500073061092EB0608952091EB06222301F110
:100E6000F8942091EC064091ED0630E02F5F3F4F63
:100E7000237033274217130689F0E091EC06F0E067
:100E8000EE0FFF1FE251F94F918380838091EC06B2
:100E900090E00196837099278093EC0678940895EA
:100EA0000E94730681E08093EB060895FC01019097
:100EB0000020E9F73197AF01481B590BBC0180E6D0
:100EC00097E00C940E0282EB95E00C9456078F92FB
:100ED0009F92AF92BF920F931F93CF93DF93CDB7A3
:100EE000DEB7A1970FB6F894DEBF0FBECDBF19A233
:100EF000423008F44AE08E010F5D1F4F842E912C82
:100F0000B12CA12CA50194010E94A619E62FB901CC
:100F1000CA01EA30F4F4E05DD801EE938D01232B91
:100F2000242B252B79F790E080E0109719F0CD0164
:100F30000E945607A1960FB6F894DEBF0FBECDBF34
:100F4000DF91CF911F910F91BF90AF909F908F90A5
:100F50000895E95CE1CFCF93DF930E945607EC013F
:100F60000E9463078C0F9D1FDF91CF9108950C9411
:100F70005607682F70E090E080E04AE00C94670725
:100F8000BC0190E080E04AE00C946707CF93DF93C8
:100F9000EC0188819981009711F00E946A1A1982E8
:100FA00018821D821C821B821A82DF91CF910895C4
:100FB000FC0180819181009711F00C946A1A0895C8
:100FC00010922F0710922E0710922B0710922A07CB
:100FD000109227071092260710921F0710921E07E3
:100FE0008FEF9FEF90931B0780931A07089510923D
:100FF0000E071092300710923107109232071092AC
:10100000330710923C07109247071092460790E86A
:1010100090930D0180E280930C0144E659E160E079
:1010200070E040930F015093100160931101709391
:101030001201109245071092440710924307109234
:1010400042078AE080930E0110920607109207076C
:1010500010920807109209071092FE061092FD06E2
:101060001092F8061092B40610920507109202072B
:1010700010920107109204071092030710920007C4
:101080001092FF061092FC061092FB061092FA06D0
:101090001092F90610922F0710922E0710922B072C
:1010A00010922A0710922707109226071092F7062F
:1010B0001092F6061092B3061092B2061092230711
:1010C0001092220710921F0710921E072FEF3FEF7A
:1010D00030931B0720931A073093170720931607A6
:1010E0001092130710921207E091B406F0E0E9564F
:1010F000FA4F80818770806680937C0090937B009C
:101100008CED80937A0008950F931F93CF93DF9314
:10111000EC0188819981009759F02A813B8126173B
:10112000370730F081E0DF91CF911F910F91089543
:101130008B016F5F7F4F0E94F31A009759F09983DC
:1011400088831B830A832C813D81232B59F7FC0163
:101150001082E8CF80E0E7CFEF92FF920F931F93CA
:10116000CF93DF938C017B01EB0109900020E9F71D
:101170002197C61BD70BBE010E948408811109C0AC
:10118000C801DF91CF911F910F91FF90EF900C94C8
:10119000C607F801D583C483B70180819181DF91AF
:1011A000CF911F910F91FF90EF900C94B91B1F925C
:1011B0000F920FB60F9211242F933F938F939F930B
:1011C000AF93BF9380914A0790914B07A0914C0732
:1011D000B0914D073091490723E0230F2D3758F583
:1011E0000196A11DB11D2093490780934A07909352
:1011F0004B07A0934C07B0934D0780914E079091F9
:101200004F07A0915007B09151070196A11DB11D44
:1012100080934E0790934F07A0935007B0935107C8
:10122000BF91AF919F918F913F912F910F900FBEE2
:101230000F901F90189526E8230F0296A11DB11D4F
:10124000D2CF1F920F920FB60F9211248F939F93BC
:101250008091E1009091E100937F9093E10083FF02
:101260000FC01092E90091E09093EB001092EC0017
:1012700092E39093ED0010925F0798E09093F00056
:1012800082FF22C093E09093E9009091F2009923AD
:1012900019F09AE39093E8009091BA06992341F0EF
:1012A0009091BA0691509093BA06911101C05D9A3F
:1012B00090915E07992341F090915E079150909331
:1012C0005E07911101C0289A84FF18C08091E20046
:1012D0008E7E81608093E2008091E1008F7E80931A
:1012E000E1008091BB068E7E80618093BB069F915A
:1012F0008F910F900FBE0F901F90189580FFF7CF22
:101300008091E2008E7E80618093E2008091E10016
:101310008E7E8093E1008091BB068E7E8160E5CF5A
:101320001F920F920FB60F921124CF92DF92EF927D
:10133000FF920F931F932F933F934F935F936F935E
:101340007F938F939F93AF93BF93EF93FF93CF932D
:10135000DF93CDB7DEB76C97DEBFCDBF1092E9004B
:101360008091E80083FF25C068E0CE0145960E9489
:10137000010282EF8093E8008D8987FF39C0909148
:10138000E80090FFFCCF982F907609F034C19E8939
:101390004F89588D2F89F88C911131C0803861F5B3
:1013A0008091BC068093F1001092F1008EEF809343
:1013B000E8006C960FB6F894DEBF0FBECDBFDF918C
:1013C000CF91FF91EF91BF91AF919F918F917F91BD
:1013D0006F915F914F913F912F911F910F91FF90CE
:1013E000EF90DF90CF900F900FBE0F901F90189549
:1013F0009EEF9093E800C7CF1092F100D5CF9130C7
:1014000059F48111D3CF4130510581F68091BC064A
:101410008D7F8093BC06CACF933049F48111C6CF2B
:101420004130510519F68091BC068260F2CF9530AB
:1014300041F48091E80080FFFCCF20682093E30016
:10144000B5CF963009F0A9C00B8D1C8D22E010920B
:10145000E9001092B8061092B706F2122EC0109250
:10146000B6061092B5060E94D0011F8299E09983BA
:10147000FA8291E09E8390EA98879AEF998720916B
:10148000B7063091B806275F3F4F3C832B838D838F
:101490001092E9001092B8061092B7061093B606A3
:1014A0000093B50649E050E0BE016F5F7F4F80E0DA
:1014B0000E94AA010E94D00179CF1093B606009332
:1014C000B5060E94F700DC0112960D911C910115E2
:1014D000110509F451C1D801ED91FC910480F58109
:1014E000E02DBE016B5E7F4FC8010995009709F0A2
:1014F0003EC1F80100851185EACFF3E0FF120EC06E
:101500008F89882309F440C0823061F440E862E1A9
:101510008DE091E00E947701811148CF81E28093B4
:10152000EB0047CF813029F440E868E084E091E0A7
:10153000F1CF833099F70E94F700DC011296ED900D
:10154000FC908E010F5F1F4F6801E114F10479F0E8
:10155000D701ED91FC910680F781E02DB801C7011C
:101560000995080F111DF701E084F184EECFD80131
:101570001C92F60101900020E9F73197BF016C1928
:101580007D0940E0C601C6CF6EEE70E0FB014491DC
:1015900050E080E80E94AA0109CF973009F4BECF3D
:1015A000983021F481E08093F10000CF993009F068
:1015B000FDCE837009F0B2CFEAE9F5E081E031E0D9
:1015C00096E32191222371F08093E9003093EB00A0
:1015D000DF0111972C912093EC009093ED008F5F29
:1015E000873079F78EE78093EA001092EA008F89BE
:1015F00080935F07DBCE8B8D9C8D1092E90010925B
:10160000B8061092B7069093B6068093B506898DFA
:10161000811192C08E899D89913A49F4813209F0F5
:101620007DCF47E050E064E071E080E0B3CF9132DD
:1016300009F074CF833269F48F89988DB0E0A0E00F
:101640008093000190930101A0930201B0930301E4
:10165000ADCE803269F48091E80082FFFCCF67E074
:1016600084E091E00E9401028BEF8093E8009ECE1F
:10167000823209F09BCE8F8980930B01EEEFFFE75A
:10168000859194918B3F9C4D51F1E0E0F8E0809181
:10169000040190910501A0910601B0910701803BE2
:1016A0009440A105B105F1F480910B0180FD1AC0B1
:1016B000EE3F8AE0F80789F587E797E79183808313
:1016C000809160008093B90688E19BE00FB6F894A2
:1016D000A895809360000FBE9093600067CEEEEFF8
:1016E000FAE0D5CF808191818737974709F05ECEA8
:1016F000A895809160008861809360008091B90610
:1017000080936000EE3F2AE0F20789F08091FE0AA4
:101710009091FF0A9183808349CE808191818737A0
:10172000980751F29093FF0A8093FE0AC5CF10925A
:10173000FF0A1092FE0A3ACE0E94F700DC011296D0
:101740000D911C910115110509F4E8CED801ED9118
:10175000FC910190F081E02DBE016B5E7F4FC801CE
:101760000995811123CEF80100851185EBCF18165C
:1017700019060CF41BCED2CEF1E0FF12BECE62EF02
:1017800070E004CF1F920F920FB60F9211242F9387
:101790008F939F93EF93FF939091790080914207ED
:1017A000E091B406F0E0813009F044C0EE54F94F06
:1017B0008081E091B406F0E0EE5DF84F208189175A
:1017C00010F4281720F0981740F4821730F4E091B5
:1017D000B406F0E0EE5DF84F8083E091B406F0E0EF
:1017E000EE54F94F90838091B4068F5F8093B406D6
:1017F0008091B406823010F01092B40690917C0073
:10180000E091B406F0E0E956FA4F80818770987F46
:10181000892B80937C0080917A00806480937A0089
:10182000FF91EF919F918F912F910F900FBE0F908D
:101830001F901895EE5DF84FD5CF1F920F920FB6FF
:101840000F9211242F933F934F935F936F937F9346
:101850008F939F93AF93BF93EF93FF931E9B14C0FF
:1018600081E00E947603FF91EF91BF91AF919F912C
:101870008F917F916F915F914F913F912F910F9039
:101880000FBE0F901F90189580E0EBCF1F920F9224
:101890000FB60F9211242F933F934F935F936F9343
:1018A0007F938F939F93AF93BF93EF93FF93809119
:1018B000E5069091E606E091AE06F091AF06E80FDE
:1018C000F91F21812F3F09F457C0E091AE06F09136
:1018D000AF063081231708F04FC0E091AE06F091BB
:1018E000AF0634E2239FE00DF11D112425853685D6
:1018F0002130310509F040C047855089813091057C
:1019000009F05BC080914007813021F48091DD06B1
:10191000811135C082E090E09093E6068093E50661
:1019200080918C0090918D002091170130911801C9
:10193000220F331F821B930B840F951F9093DA069F
:101940008093D90620918C0030918D0080911501F3
:1019500090911601841B950B880F991F820F931F7E
:1019600090938D0080938C0081E08093D70681E076
:1019700090E00E942C0710C050E040E0BFCF1092D2
:10198000E6061092E5061092DD061092DF068091C1
:101990006F00877F80936F00FF91EF91BF91AF91B0
:1019A0009F918F917F916F915F914F913F912F9177
:1019B0000F900FBE0F901F90189520914007213077
:1019C00059F42091DD06211107C02091E1063091E4
:1019D000E206203A310570F01092E6061092E50614
:1019E0001092DD061092DF0620916F00277F209372
:1019F0006F00BFCF2091C1063091C20620FD08C004
:101A00002091C5063091C6063093C4062093C306C4
:101A10002091E3063091E4063093E6062093E50634
:101A200060918C0070918D002091C3063091C406A6
:101A3000A0911501B0911601E091BD06F091BE068E
:101A4000220F331F2A1B3B0B2E0F3F1F241B350B6E
:101A5000220F331F260F371F1092BE061092BD06AD
:101A600030938D0020938C002091E1063091E206A6
:101A70002F5F3F4F3093E2062093E1062091C1068D
:101A80003091C2062F5F3F4F3093C2062093C106AC
:101A900070CF1F920F920FB60F9211242F933F9386
:101AA0004F935F936F937F938F939F93AF93BF9366
:101AB000EF93FF938091E9069091EA06E091AE06DC
:101AC000F091AF06E80FF91F21812F3F09F457C0AD
:101AD000E091AE06F091AF063081231708F04FC0B9
:101AE000E091AE06F091AF0634E2239FE00DF11DC8
:101AF0001124258536852130310509F040C0478500
:101B000050898330910509F05BC080914007813096
:101B100021F48091DE06811135C084E090E090933D
:101B2000EA068093E90680918A0090918B002091CB
:101B3000170130911801220F331F821B930B840F62
:101B4000951F9093DC068093DB0620918A003091EC
:101B50008B008091150190911601841B950B880FC5
:101B6000991F820F931F90938B0080938A0081E0CE
:101B70008093D80683E090E00E942C0710C050E0CC
:101B800040E0BFCF1092EA061092E9061092DE06FE
:101B90001092E00680916F008B7F80936F00FF9121
:101BA000EF91BF91AF919F918F917F916F915F91D5
:101BB0004F913F912F910F900FBE0F901F9018954E
:101BC00020914007213059F42091DE06211107C0F1
:101BD0002091E1063091E206203A310570F0109232
:101BE000EA061092E9061092DE061092E0062091B5
:101BF0006F002B7F20936F00BFCF2091C1063091E3
:101C0000C20620FD08C02091C5063091C60630935B
:101C1000C4062093C3062091E7063091E80630936E
:101C2000EA062093E90660918A0070918B0020916A
:101C3000C3063091C406A0911501B0911601E09140
:101C4000BF06F091C006220F331F2A1B3B0B2E0F3D
:101C50003F1F241B350B220F331F260F371F1092F7
:101C6000C0061092BF0630938B0020938A0020910B
:101C7000E1063091E2062F5F3F4F3093E20620935A
:101C8000E1062091C1063091C2062F5F3F4F30938D
:101C9000C2062093C10670CF1F920F920FB60F920B
:101CA00011242F933F934F935F936F937F938F9361
:101CB0009F93AF93BF93EF93FF931092C1000E9445
:101CC0000F07E2E7F0E080818F778083FF91EF914B
:101CD000BF91AF919F918F917F916F915F914F9144
:101CE0003F912F910F900FBE0F901F9018951F924C
:101CF0000F920FB60F9211242F933F934F935F9340
:101D00008F939F93EF93FF93589A2091AC06309155
:101D1000AD068091AB0691E0980F9093AB0690E0F2
:101D2000880F991F820F931FFC0180819181209160
:101D3000A9063091AA06820F931F9093AA0680935A
:101D4000A9064091BE005091BF009C012550310969
:101D500042175307F0F49093BF00CE9A8091A906E2
:101D60008093CF0080917200806480937200809194
:101D700072008F7D80937200FF91EF919F918F9100
:101D80005F914F913F912F910F900FBE0F901F9039
:101D90001895589880911301909114012091A906EB
:101DA0003091AA06820F931F9093AA068093A906EA
:101DB0009093BF00CF9A8091A9068093D200809122
:101DC000720080688093720010920F07D0CF1F922C
:101DD0000F920FB60F9211242F933F938F939F93DF
:101DE000EF93FF9358988091AB069091A8062091AD
:101DF000A9063091AA06891788F5E091AC06F09102
:101E0000AD0691E0980F9093AB0690E0880F991F74
:101E1000E80FF91F80819181820F931F9093AA068A
:101E20008093A9069093BF00CD9A8091A9068093D4
:101E3000D000809172008062809372008091720065
:101E40008F7B80937200FF91EF919F918F913F91D3
:101E50002F910F900FBE0F901F9018958091130136
:101E600090911401820F931F9093AA068093A90664
:101E70009093BF00CF9A8091A9068093D200809161
:101E8000720080688093720010920F07D7CFE0E64F
:101E9000F7E01382128288EE93E0A0E0B0E0848342
:101EA0009583A683B78384EA95E0918380838FEF3F
:101EB0009FEF95878487E0EBF7E011821082138211
:101EC00012821582148264EB75E0CF010C94AC0889
:101ED000CF93DF93CDB7DEB7A4970FB6F894DEBFEC
:101EE0000FBECDBF789484B5826084BD84B5816017
:101EF00084BD85B5826085BD85B5816085BD8091D5
:101F00006E00816080936E0010928100809181004C
:101F10008260809381008091810081608093810044
:101F20008091800081608093800080919100826028
:101F300080939100809191008160809391008091C5
:101F400090008160809390008091C10084608093B4
:101F5000C1008091C10082608093C1008091C10066
:101F600081608093C1008091C30081608093C30031
:101F70008091C00082608093C0008091C200816027
:101F80008093C20080917A00846080937A0080916F
:101F90007A00826080937A0080917A0081608093D9
:101FA0007A0080917A00806880937A0010925F07AF
:101FB0001092BC061092BB068091D700816080937E
:101FC000D70080EA8093D80089B5806189BD89B542
:101FD000826089BD09B400FEFDCF0E94300180916E
:101FE000D8008F7C80618093D8008091E000807F52
:101FF0008093E0008091E1008E7E8093E1008DE08F
:102000008093E200559A209A8FEF9FEF90936D078F
:1020100080936C0785EB95E00E94AB07509AF8948B
:1020200010923D0786E08093190188E59BE190932B
:1020300016018093150184EF91E09093180180932D
:1020400017018EE190E09093140180931301109298
:10205000410710920F0710923F0710923E0710920F
:10206000EF061092EE061092F1061092F006109212
:10207000F3061092F2061092F5061092F4061092F2
:10208000ED061092EC061092EB061092EA06109202
:10209000E9061092E8061092E7061092E606109202
:1020A000E5061092E4061092E3061092E206109202
:1020B000E1061092E0061092DF061092DE06109202
:1020C000DD0684E0E9EDF6E0DF01282F1D922A9578
:1020D000E9F71092D8061092D7061092D306109204
:1020E000D4061092D5061092D6061092CF06109202
:1020F000D0061092D1061092D2061092CE061092FF
:10210000CD061092CC061092CB061092C706109204
:10211000C8061092C9061092CA061092C6061092FE
:10212000C5061092C4061092C3061092C206109201
:10213000C106EDEBF6E0DF011D928A95E9F7789490
:1021400010928200109281001092800010926F0015
:102150008FEF86BBF894109285001092840092E075
:102160009093810078941092C0001092C100109258
:10217000C2001092C3001092720089BBFE0131961A
:102180006F0110E000E0FE2EED2CC8010E945919ED
:10219000D6018D936D010F5F1F4F02321105A9F714
:1021A00089819A81AB81BC818D339D43AD43BD4311
:1021B00009F044C08D815E81AF81B885E985FA85DB
:1021C0006B857C858D849E84AF84B88849893D89E0
:1021D000288D9A8D1CEF180F50931901B093180198
:1021E000A0931701F0931601E09315017093140169
:1021F0006093130180920F0190921001A09211013F
:10220000B092120140930E0130930D011A3008F084
:10221000DDC1209348072F8D2093470790934607F1
:102220008C3018F09D8D909343078D3019F48E8D6E
:10223000809342078EEB95E00E94AB0780913D07AB
:102240008111F5C10E94F70783ED95E00E94AB076D
:1022500034E1632E80E697E00E94F6021816190614
:102260000CF0ABC380E697E00E94B402D82E8983BD
:102270001A820091B4071091B5070F5F1F4FB80184
:1022800080EB97E00E948408882391F02091B007AA
:102290003091B1078091B4079091B5076F2D7E2DD5
:1022A000820F931F0E94B91B1093B5070093B407C8
:1022B000FAE0DF12CFCF712C512C10E0C52CD12CBD
:1022C0001A8219821C821B821E821D8261EE75E0B9
:1022D0008F2D9E2D0E94AC088091B4079091B50778
:1022E000C816D90608F0B0C1A090B007B090B107E9
:1022F00069817A81C5018C0D9D1D0E94C01B0097CC
:1023000009F4A2C18A199B09082F8F2D9E2D0E94C6
:10231000D8070F3F61F51A8219821C821B821E8228
:102320001D8263EB75E08F2D9E2D0E94AC0880917D
:10233000B4079091B507C816D90608F088C1A090D7
:10234000B007B090B10769817A81C5018C0D9D1DE0
:102350000E94C01B009709F47AC18A199B09082FB3
:102360008F2D9E2D0E94D8070F3F09F47AC050167A
:1023700008F077C0802E912C8C149D0420F0892DBC
:102380004601C02ED82E1A8219821C821B821E8200
:102390001D8264EB75E08F2D9E2D0E94AC08A090ED
:1023A000B407B090B5078A149B0480F5CA14DB0407
:1023B00008F45601E091B007F091B107EA0DFB1D5A
:1023C00050801082C090B007D090B107C80CD91CC3
:1023D000C114D10479F0F60101900020E9F731979A
:1023E0004F018C189D08B4018F2D9E2D0E948408EA
:1023F000811130C18F2D9E2D0E94C6078091B0079C
:102400009091B107A80EB91ED5015C9289819A817D
:10241000812C912C5401009721F00E941D194B0131
:102420005C018F2D9E2D0E94D80755245394500E89
:10243000111101C0782C7110B2C1B7FC49C2113022
:1024400009F010C1B8E08B169104A104B10414F492
:102450008092190180914307882309F493C2109256
:10246000FD061F5F153109F029CF711044C286EEB9
:1024700095E00E94B7074AE064E170E080E090E0F8
:102480000E94670781EE95E00E94B70780911901CD
:102490000E94B90781EE95E00E94B707809117016D
:1024A000909118010E94C00781EE95E00E94B70745
:1024B00080911501909116010E94C00781EE95E070
:1024C0000E94B70780911301909114010E94C007E8
:1024D00081EE95E00E94B70760910F0170911001A5
:1024E00080911101909112014AE00E94670781EEEC
:1024F00095E00E94B70780910E010E94B90781EE16
:1025000095E00E94B70780910D010E94B90781EE06
:1025100095E00E94B707809148070E94B90781EEB5
:1025200095E00E94B707809147070E94B90781EEA6
:1025300095E00E94B707809146070E94B90781EE97
:1025400095E00E94B70780914407909145070E944B
:10255000C00781EE95E00E94B707809143070E9473
:10256000B90781EE95E00E94B707809142070E946B
:10257000B90781EE95E00E94B707809141070E945C
:10258000B90781EE95E00E94B70780910C010E9487
:10259000B90781EE95E00E94B707809140070E943D
:1025A000B90781EE95E00E94B70780913E079091B0
:1025B0003F070E94C00781EE95E00E94B707809117
:1025C0003D070E94B9070E94630708C13E89309306
:1025D00048073F8930934707209346079093430766
:1025E0009B8D909342079C8D90934107803118F00A
:1025F0009D8D90930C01813108F41CCE9E8D90939B
:102600004007813109F416CE2F8D38A130933F0752
:1026100020933E0729A13AA1309345072093440710
:10262000843108F407CE898D80933D0703CE8091D5
:102630003D07813009F408CE80913D07823009F0D2
:1026400003CE0E94680300CE8FEF9FEF5DCE8FEF29
:102650009FEF85CE9E828D82B60189819A810E94EC
:10266000B91BCCCE123029F4909218018092170138
:10267000F1CE133029F49092160180921501EACE22
:10268000143029F49092140180921301E3CE153096
:1026900049F480920F0190921001A0921101B09222
:1026A0001201D8CE163019F480920E01D3CE173015
:1026B00019F480920D01CECE183019F4809248079B
:1026C000C9CE193019F480924707C4CE1A3019F4D4
:1026D00080924607BFCE1B3029F490924507809226
:1026E0004407B8CE1C3019F480924307B3CE1D3096
:1026F00019F480924207AECE1E3019F48092410741
:10270000A9CE1F3019F480920C01A4CE103119F417
:10271000809240079FCE113129F490923F0780921A
:102720003E0798CE123109F095CE80913D0790E09A
:10273000B0E0A0E088159905AA05BB0509F48ACE8A
:1027400080913D0781110FC080917A008777809337
:102750007A0081149104A104B104C1F40E94F70726
:1027600080923D0777CE80913D07813091F3809133
:102770003D07823071F7809168008E7F80936800FA
:1027800080916B008F7B80936B00E3CFE2E08E162D
:102790009104A104B10421F70E946803E1CFF7E09E
:1027A0007F1221C0113009F093C023E082169104FA
:1027B000A104B10408F08CC087E090E0811491047A
:1027C000A104B10449F088E090E08A9489288A281D
:1027D0008B2811F089E090E00E942C0783EE95E0B1
:1027E0000E94AB0788C048E0741272C08DE39DE37D
:1027F000DC0189839A83AB83BC836D82809119014C
:102800008E83809117019091180198878F83809112
:102810001501909116019A878987809113019091F3
:1028200014019C878B8780910F0190911001A091DA
:102830001101B09112018D879E87AF87B88B80916F
:102840000E0190E0B0E0A0E0898B9A8BAB8BBC8B43
:1028500080910D018D8B809148078E8B8091470769
:102860008F8B80914607888F80913D07898F80915B
:1028700043078A8F809142078B8F809141078C8F0D
:1028800080910C018D8F809140078E8F80913E0743
:1028900090913F0798A38F8F8091440790914507AF
:1028A0009AA389A3CF2CDE2C10E000E0D601BD90C6
:1028B0006D01C8010E945919B81621F06B2DC8018D
:1028C0000E9461190F5F1F4F0232110579F786CF01
:1028D00080913D078130F1F5B9E07B123BC01130AA
:1028E00009F0BFCD81149104A104B10409F042C0E4
:1028F00081E00E9476031A8219821C821B821E824A
:102900001D8264EB75E08F2D9E2D0E94AC08809196
:10291000B0079091B1070097C9F169817A8161157B
:10292000710591F14091B2075091B3072D813E811D
:102930004217530748F10E94B91B8D819E819093E5
:10294000B5078093B4071E821D828F2D9E2D0E9495
:10295000D80780CCEAE07E1284CD113009F081CD19
:1029600022E082169104A104B10408F07ACD80928D
:102970003C0734CF8A9489288A288B2809F0BBCF5A
:1029800080E0B7CF712C6DCD0E946A1A89819A813F
:102990009093B1078093B0078B819C819093B3078C
:1029A0008093B2078D819E819093B5078093B40781
:1029B0001A8219821C821B82C6CF80913D07811129
:1029C00052C180914807882341F080910F078111FF
:1029D0008DC380910E07811189C3809122078BA33B
:1029E000809123078CA310920A0710920B07109274
:1029F0000C0710920D078090060790900707A09093
:102A00000807B090090781149104A104B10409F0EA
:102A1000D3C091E0892E97E0992E03E017E02FEFC5
:102A2000A22E26E0B22ED12CC12C552453946C2C0E
:102A300080910507882339F1E3E2F0E0EC0FFD1FF8
:102A4000EC0DFD1D9081F601EA5EF84F808198172C
:102A500008F482C08C2D852590E0A3E2B0E0AC0F95
:102A6000BD1FA80FB91FFC01EE5EF84F3C912081FD
:102A7000D801231708F474C02C912F5F2C938D5F1D
:102A8000984FFC011082F80181918F01833040F44E
:102A900090913C07992309F451C0823009F04EC04F
:102AA000D4017C9071104AC05C9280910A07909189
:102AB0000B07A0910C07B0910D07892B8A2B8B2B4C
:102AC00051F40E940B0160930A0770930B078093E7
:102AD0000C0790930D07F50110828091FE06F60118
:102AE000E550F94F861104C08091FD0681113AC06E
:102AF00010821092FA061092F906F501808188235F
:102B000009F4C4C180910A0790910B07A0910C07AA
:102B1000B0910D0740910F0150911001609111018A
:102B200070911201840F951FA61FB71F809306078F
:102B300090930707A0930807B0930907FFEF8F1A38
:102B40009F0A2FEFA21AB20ACA94CD2809F4D4C161
:102B5000CC24C394D12C6BCFD8011C92F40192CF1A
:102B60001C9291CF508280912A0790912B07019659
:102B700090932B0780932A078091F9069091FA068B
:102B800001969093FA068093F906409043072091AE
:102B90004707222309F478C180FF08C0442011F0C0
:102BA000019739F482EF95E00E94AB07442009F4C5
:102BB000A4CFD5015C92A1CF0E940B0160930A07BC
:102BC00070930B0780930C0790930D076815790598
:102BD0008A059B0508F490C1681979098A099B093F
:102BE000611577488349934008F086C11092060723
:102BF0001092070710920807109209077DC180E81C
:102C0000A5C190E0BBC180910E07882309F476C26C
:102C100080910E07815070C286399105A105B105DA
:102C200009F465C040F58D379105A105B10509F49A
:102C3000C3C08091300790913107A0913207B091C5
:102C400033070196A11DB11D853FE1E09E07A10557
:102C5000B10508F0F5C08093300790933107A09339
:102C60003207B093330780E090E0892B09F4F0CA73
:102C70000E940000EDCA8F3A9105A105B10509F443
:102C8000A0C0883C9105A105B10599F68EE696E0B5
:102C90000E94B70780911C079AC0873741E09407CC
:102CA000A105B10509F4B7C048F58331E1E09E07FD
:102CB000A105B10509F495C068F48A3F9105A10505
:102CC000B10509F0B6CF8BE796E00E94B707809177
:102CD00014077DC0853421E09207A105B10509F4F0
:102CE00097C08E359140A105B10509F0A2CF87E5C7
:102CF00096E00E94B70790E080E039C0893A41E051
:102D00009407A105B10509F48DC068F4803991409C
:102D1000A105B10509F08DCF8EE696E00E94B707B8
:102D200080911D0754C0823CF1E09F07A105B105C9
:102D300009F47FC08B3D9140A105B10509F079CF21
:102D400083E896E00E94B707809111070E94B907B7
:102D50000E94630784EF91E0A0E0B0E024C085EF1B
:102D600095E00E94B70780912C0790912D070E9453
:102D7000C0075FCF85E196E00E94B70780912807E2
:102D800090912907F4CF88E296E00E94B7078091DE
:102D90002407909125070E94C0070E94630784E6DC
:102DA00090E0A0E0B0E08093300790933107A093CB
:102DB0003207B09333073DCF8BE396E00E94B7070D
:102DC00038CF84E696E00E94B707809120070E94E2
:102DD000B9072FCF85E796E00E94B70780911807C3
:102DE000F6CF83E896E00E94B707809110070E9413
:102DF000B9070E9463072CE231E040E050E02093E5
:102E0000300730933107409332075093330711CF87
:102E10008BE896E0D3CF84E696E00E94B7078091D6
:102E20002107D5CF85E796E00E94B7078091190763
:102E3000CECF8BE796E00E94B70780911507C7CFEA
:102E40001092300710923107109232071092330718
:102E5000F0E48F0EFBE49F1EFCE4AF1EB11C8092D9
:102E6000340790923507A0923607B0923707FBCE11
:102E70000E9410030E94E00720E4820E2BE4921EC1
:102E80002CE4A21EB11CEBCF411093CE80914307DE
:102E9000882351F08091FD0677247394882321F0D4
:102EA0008091FE068611712C6092FE0611E010934F
:102EB000FD06711021C080910A0790910B07A09127
:102EC0000C07B0910D0740910F01509110016091D6
:102ED000110170911201840F951FA61FB71F8093D7
:102EE000060790930707A0930807B0930907862D5C
:102EF0000E9476031093F80680913C07882309F41A
:102F0000CDC08FE0E0E2F1E0AF2DBE2D01900D923B
:102F10008A95E1F780910A0790910B07A0910C0721
:102F2000B0910D07892B8A2B8B2B51F40E940B013A
:102F300060930A0770930B0780930C0790930D071B
:102F40008091FC06882309F45ACE80EA909100070C
:102F500040E1911101C040E09091020738E09111E9
:102F600001C030E09091FB0624E0911101C020E007
:102F70009091FF06992309F444CE92E05091010705
:102F8000852B842B832B822B892B8C8380910507A7
:102F900038E8811101C030E88091FE0624E08130DC
:102FA00009F020E08091F80692E0811101C090E0E4
:102FB00081E04091060750910707609108077091E2
:102FC0000907452B462B472B09F480E0832B822BE6
:102FD000892B8D838091F90680688E832BA1822FA7
:102FE0008695869580688F838CA150E2259F9001FD
:102FF00011242076982F9695969596959068292B72
:10300000288740910A0750910B0760910C07709137
:103010000D078295807F282F2077DB01CA013CE1D4
:10302000B695A795979587953A95D1F7822B8068A5
:103030008987DB01CA01E5E1B695A7959795879544
:10304000EA95D1F780688A87DB01CA01FEE0B69570
:10305000A79597958795FA95D1F780688B87DB01BF
:10306000CA0117E0B695A795979587951A95D1F758
:1030700080688C8740684D874FE050E06F2D7E2D33
:1030800080E697E00E940E021092F8061092FC066D
:10309000109200071092FB061092FF0620912E0757
:1030A00030912F078BA18093F60690911E079817F9
:1030B00010F480931E0790911A07891710F48093DB
:1030C0001A078CA18093F70690911F07981710F4A8
:1030D00080931F0790911B07891710F480931B079B
:1030E0002E5F3F4F30932F0720932E0780910F07BD
:1030F000882309F488CD8AE080930E070E940B0193
:103100004B015C018092380790923907A0923A07F0
:10311000B0923B078091340790913507A091360714
:10312000B091370788169906AA06BB0608F49BCD0E
:10313000A5019401281B390B4A0B5B0BDA01C9016D
:1031400081159748A349B34008F08DCD809146077B
:10315000882309F48DCE8091300790913107A0919A
:103160003207B0913307813E9105A105B10509F4FD
:1031700031CE08F092CD8B349105A105B10509F44B
:1031800002CE08F049CD89319105A105B10509F4B8
:10319000E6CD82339105A105B10509F4EBCD892B6C
:1031A0008A2B8B2B09F045CD80912E0790912F070C
:1031B00090932D0780932C0780912A0790912B07DD
:1031C00090932907809328078091260790912707DD
:1031D00090932507809324078091220780932007EE
:1031E00080911E0780931C0780911A07809318070F
:1031F000809116078093140780911207809310071F
:10320000809123078093210780911F0780931D07DA
:1032100080911B07809319078091170780931507EA
:1032200080911307809311070E9410030E94E0070A
:1032300000CD80EB97E00C94D8071F93FC019927F1
:103240008827BC01E89411911032E9F3193010F08D
:103250001E30C8F31B3251F01D3249F4689406C089
:103260000E944419610F711D811D911D1191105310
:103270001A30B0F33EF490958095709561957F4F2C
:103280008F4F9F4F1F910895592F482F372F262F6B
:10329000660F771F881F991F660F771F881F991F5A
:1032A000620F731F841F951F660F771F881F991F5A
:1032B0000895F999FECF92BD81BDF89A992780B5FE
:1032C0000895262FF999FECF1FBA92BD81BD20BD6A
:1032D0000FB6F894FA9AF99A0FBE019608952F92B4
:1032E0003F924F925F926F927F928F929F92AF9296
:1032F000BF92CF92DF92EF92FF920F931F93CF93E3
:10330000DF93CDB7DEB7CA1BDB0B0FB6F894DEBF79
:103310000FBECDBF09942A88398848885F846E849F
:103320007D848C849B84AA84B984C884DF80EE80E9
:10333000FD800C811B81AA81B981CE0FD11D0FB6F2
:10334000F894DEBF0FBECDBFED010895A1E21A2EA5
:10335000AA1BBB1BFD010DC0AA1FBB1FEE1FFF1F39
:10336000A217B307E407F50720F0A21BB30BE40B89
:10337000F50B661F771F881F991F1A9469F76095D0
:103380007095809590959B01AC01BD01CF0108958A
:10339000EE0FFF1F0590F491E02D09940F931F93FA
:1033A000CF93DF938230910510F482E090E0E091BA
:1033B000B807F091B90730E020E0B0E0A0E0309726
:1033C00099F42115310509F44AC0281B390B243022
:1033D0003105D8F58A819B816115710589F1FB0161
:1033E00093838283FE0111C0408151810281138148
:1033F00048175907E0F04817590799F4109761F0FA
:1034000012960C93129713961C933296CF01DF916C
:10341000CF911F910F9108950093B8071093B907AA
:10342000F4CF2115310551F04217530738F0A901A7
:10343000DB019A01BD01DF01F801C1CFEF01F9CF36
:103440009093B9078093B807CDCFFE01E20FF31F29
:10345000819391932250310939832883D7CF2091CA
:10346000B6073091B707232B41F420911C0130910E
:103470001D013093B7072093B60720911A013091B0
:103480001B012115310541F42DB73EB740911E01B6
:1034900050911F01241B350BE091B607F091B7073F
:1034A000E217F307A0F42E1B3F0B2817390778F01B
:1034B000AC014E5F5F4F2417350748F04E0F5F1F7A
:1034C0005093B7074093B607819391939FCFF0E055
:1034D000E0E09CCFCF93DF930097E9F0FC013297B7
:1034E00013821282A091B807B091B907ED0130E0C4
:1034F00020E01097A1F420813181820F931F209149
:10350000B6073091B7072817390709F061C0F09363
:10351000B707E093B607DF91CF910895EA01CE1780
:10352000DF07E8F54A815B819E0141155105B1F73E
:10353000E901FB83EA8349915991C40FD51FEC1728
:10354000FD0761F4808191810296840F951FE90146
:1035500099838883828193819B838A83F0E0E0E072
:1035600012968D919C9113970097B9F52D913C91EE
:103570001197CD010296820F931F2091B6073091CB
:10358000B7072817390739F6309751F51092B90760
:103590001092B807B093B707A093B607BCCFD383F8
:1035A000C28340815181840F951FC817D90761F4E8
:1035B0004E5F5F4F88819981480F591F5183408327
:1035C0008A819B81938382832115310509F0B0CFD5
:1035D000F093B907E093B8079ECFFD01DC01C0CF9F
:1035E00013821282D7CFB0E0A0E0E9EFFAE10C94A9
:1035F00071198C01009751F4CB010E94CE198C01F6
:10360000C801CDB7DEB7E0E10C948D19FC01E60FDF
:10361000F71F9C0122503109E217F30708F49DC0FF
:10362000D901CD91DC911197C617D70798F0C53015
:10363000D10530F3CE0104978617970708F3C61B10
:10364000D70B2297C193D1936D937C93CF010E94A6
:103650006A1AD6CF5B01AC1ABD0A4C018C0E9D1EB6
:10366000A091B807B091B907512C412CF12CE12C55
:10367000109731F58091B6079091B7078815990595
:1036800009F05CC04616570608F058C080911A0130
:1036900090911B01009741F48DB79EB740911E0198
:1036A00050911F01841B950BE817F90708F055C0CE
:1036B000F093B707E093B607F90171836083A0CF59
:1036C0008D919C91119712966C90129713967C9005
:1036D0001397A815B90559F56C0142E0C40ED11C29
:1036E000CA14DB0420F1AC014A195B09DA01129615
:1036F000159780F06282738251834083D9016D9364
:103700007C93E114F10471F0D7011396FC93EE93CE
:10371000129776CF22968C0F9D1FF901918380839B
:10372000F301EFCFF093B907E093B80769CF4816DC
:10373000590608F42C017D01D3019ACFCB010E94D8
:10374000CE197C01009749F0AE01B8010E94B01B70
:10375000C8010E946A1A870153CF10E000E050CFE1
:10376000FB01DC0102C001900D9241505040D8F79E
:103770000895FB01DC0101900D920020E1F708950E
:10378000FB0151915523A9F0BF01DC014D91451773
:103790004111E1F759F4CD010190002049F04D911C
:1037A00040154111C9F3FB014111EFCF81E090E0D9
:1037B0000197089510E0C1E9D0E004C0FE010E9425
:0E37C000C8192196C239D107C9F7F894FFCF76
:1037CE00FFFFFFFF00E100000000000020800A6400
:1037DE001900001E00581BF401060000BA078000F5
:1037EE002B6F20000000000000000000000D0A02F8
:1037FE00FFFFFFFFFFFFFFFFFFFF000100001400B0
:10380E000100140000000000000000000000000095
:10381E00000000000000000000000000000000009A
:10382E000000CD00030000007D0014000000000029
:10383E00000000000000000000000000000000007A
:10384E000000000009FF000102030405060708FF3F
:10385E00FF0000DC0007001400140014003C0014EC
:10386E00003C0014000000000000000000000000FA
:10387E0000000000000000DC00070014003C0014F3
:10388E00003C0014001400140000000000000000B2
:10389E000000000000000000000000DC0007001423
:1038AE00003C001400140014003C00140000000042
:1038BE00000000000000000000000000000000DC1E
:1038CE000007001400140014006400140014001407
:1038DE0000000000000000000000000000000000DA
:1038EE00000000DC00070014006400140014001433
:1038FE000014001400000000000000000000000092
:10390E000000000000000004010700140064001411
:10391E00003C001400140014000000000000000021
:10392E0000000000000000000000009001070014DD
:10393E0000C800140064001400C800140000000049
:10394E000000000000000000000000000000006801
:10395E000107001400C80014003C001400C8001435
:10396E000000000000000000000000000000000049
:10397E00000000400107001400C8001400140014D9
:10398E0000C800140000000000000000000000004D
:10399E00000000000009FF00010203FFFFFFFFFF10
:1039AE00FFFF0000DC0007001400140014003C00B0
:1039BE0014003C0014000000000000000000000095
:1039CE000000000000000000DC00070014003C00B6
:1039DE0014003C001400140014000000000000004D
:1039EE00000000000000000000000000DC000700E6
:1039FE0014003C001400140014003C0014000000DD
:103A0E0000000000000000000000000000000000A8
:103A1E00DC000700140014001400640014001400ED
:103A2E001400000000000000000000000000000074
:103A3E00000004FF00010203FFFFFFFFFFFFFF0076
:103A4E00001C020900140014001400140014007C61
:103A5E00011400140014000000000000000000001B
:103A6E000000000000CC0109001400140014001422
:103A7E000014002C011400140014000000000000BB
:103A8E000000000000000000007C0109001400147A
:103A9E0000140014001400DC0014001400140000C4
:103AAE00000000000000000000000000002C0109D2
:103ABE0000140014001400140014008C00140014E0
:103ACE0000140000000000000000000000000002D2
:103ADE00FFFFFFFFFFFFFFFFFFFF000100001C02C3
:103AEE000F001400140014001400140050001400F1
:103AFE008C00140014001400500014001400140064
:103B0E000000B8010F00140014001400140014007B
:103B1E003C0014003C00140014001400500014006B
:103B2E001400140004FF00010203FFFFFFFFFFFF5C
:103B3E00FF01006400030017002E001F00000000AC
:103B4E000000000000000000000000000000000067
:103B5E00000000000001008D00030017004E002839
:103B6E000000000000000000000000000000000047
:103B7E0000000000000000000001002B0001002BDF
:103B8E000000000000000000000000000000000027
:103B9E0000000000000000000000000000010044D2
:103BAE0000030017001500180000000000000000C0
:103BBE0000000000000000000000000000000000F7
:103BCE000002FFFFFFFFFFFFFFFFFFFF00010000EE
:103BDE005E00050012001400120014001200000016
:103BEE0000000000000000000000000000000000C7
:103BFE00000000006000030012003C0012000000F4
:103C0E0000000000000000000000000000000000A6
:103C1E0000000000000001FFFFFFFFFFFFFFFFFF9E
:103C2E00FF00FF0000420005000E000C000E000C0D
:103C3E00000E000000000000000000000000000068
:103C4E00000000000000005605010564040F047218
:103C5E0003D50284012F01070600C18081000000F8
:103C6E00000000008F020E02B002A502F602B4029E
:103C7E00D2020D0A002B7374617274757000656543
:103C8E0070726F6D20726561645F73657474696EB6
:103C9E00677300696E697420636F6D706C6574650F
:103CAE00002C004F4B00706172616D65746572730C
:103CBE0020002B64002B73746174732067656E652E
:103CCE0072616C2072656164696E675F636F756E99
:103CDE007465723A00206475706C69636174655F17
:103CEE006672616D65733A00207072656D617475F0
:103CFE0072655F6672616D65733A002B73746174E1
:103D0E00732073656E736F72206368616E6E656C7F
:103D1E003A72696768740020646574656374696FCC
:103D2E006E733A002072656164696E673A002068AE
:103D3E006967683A00206C6F773A00207468725F8A
:103D4E00683A00207468725F6C3A002B7374617469
:103D5E00732073656E736F72206368616E6E656C2F
:063D6E003A6C656674006A
:00000001FF
