:100000000C9492000C94BA000C94BA000C94BA00B0
:100010000C94BA000C94BA000C94BA000C94BA0078
:100020000C94BA000C94BA000C945F070C94CE07A1
:100030000C94BA000C94BA000C94BA000C94BA0058
:100040000C94BA000C94BA000C94270B0C945B0A25
:100050000C94BA000C94BA000C94BA000C941507D6
:100060000C94BA000C94BA000C94BA000C94BA0028
:100070000C94BA000C94000A0C94BA000C94BA00C8
:100080000C94BA000C94BA000C94BA000C94BA0008
:100090000C94BA000C94BA000C948F0C0C941F0CA6
:1000A0000C94F40B0C94BA000C94BA00080B0002E8
:1000B0000202000009040000010202000005240001
:1000C0001001052401010104240206052406000193
:1000D0000705810310004009040100020A00000026
:1000E00007050202400000070583024000000403E8
:1000F000090412010002EF0201404F1B06920001A9
:1001000001020301537061726B46756E005370619A
:10011000726B46756E2050726F204D6963726F006E
:10012000EF0C7D1711241FBECFEFDAE0DEBFCDBF8D
:1001300027E0A8EAB6E001C01D92A13BB207E1F7B3
:1001400016E0A0E0B1E0E6E9F4E302C005900D920C
:10015000A83AB107D9F710E0C1E9D0E004C021976F
:10016000FE010E942C18C039D107C9F70E94100D5A
:100170000C943E1A0C9400002FB7F89483E08093FF
:10018000E9009091E800892F807295FF04C090915A
:10019000F20080E4891B2FBF0895FC01809156076F
:1001A000882311F13FB7F89482E08093E900209111
:1001B000F200822F90E01816190614F481E090E006
:1001C000882339F0289844E6409355074091F10080
:1001D0004083222339F02091F200211103C02BE645
:1001E0002093E8003FBF08958FEF9FEF089580911F
:1001F0004D0781110DC082E08093490784E0809310
:100200004A0710924C0710924B0781E080934D07EC
:1002100089E497E008953FB7F8948091450790915D
:100220004607A0914707B091480726B5A89B05C08F
:100230002F3F19F00196A11DB11D3FBFBA2FA92F65
:10024000982F8827BC01CD01620F711D811D911D62
:1002500042E0660F771F881F991F4A95D1F70895CE
:10026000CF92DF92EF92FF920E940B016B017C0113
:100270000E940B016C197D098E099F09683E73402D
:1002800081059105A8F3FF90EF90DF90CF9008953E
:1002900008954091BA065091BB062091B80630915E
:1002A000B90642175307B4F49091E8009570E1F352
:1002B0009091E80092FD19C08093F1008091BA06F8
:1002C0009091BB0601968F739927892B19F48EEFB5
:1002D0008093E8008091BA069091BB0601969093B6
:1002E000BB068093BA0681E0089580E00895EF92FE
:1002F000FF920F931F93CF93DF93F82E192FE62EC3
:10030000042F81E0860F880F0E94490183E00E943C
:100310004901CF2DD12FEC0EFD2EF11CCE15DF059E
:10032000B9F007FF13C0FE0184910E944901182F04
:1003300080E00E944901812321968111EFCFDF9156
:10034000CF911F910F91FF90EF9008958881EDCF8D
:1003500081E0F5CFDF92EF92FF920F931F93CF933F
:10036000DF93D82E8A01EB017B01E40EF51ECE153A
:10037000DF0559F0D7FE12C0FE0184910E944901A9
:1003800021968111F4CF0FEF1FEFC801DF91CF91BC
:100390001F910F91FF90EF90DF9008958881EECF2D
:1003A0000F931F93CF93DF931F92CDB7DEB782E0F9
:1003B000898342E450E06CEA70E080E80E94AA0180
:1003C0000E94F700DC0112960D911C910115110598
:1003D00089F0D801ED91FC910280F381E02DBE01FE
:1003E0006F5F7F4FC801099597FD04C0F801008534
:1003F0001185ECCF89810F90DF91CF911F910F91E3
:100400000895615030F02091F100FC0120830196A5
:10041000F8CF289884E68093550708958F929F928D
:10042000AF92BF92CF92DF92EF92FF920F931F9302
:10043000CF93DF936C017B018A0180910B018823AC
:1004400009F458C080915607882309F453C080915D
:10045000BE0680FF05C08091E00082608093E000CE
:10046000E801B12C8AEFA82E93E0892E2AE3922E80
:10047000209711F4BB20B9F10E94BC00811106C085
:10048000AA94AA20B9F10E943001F2CF8C171D0660
:1004900011F00CF08C2F9FB7F8948092E900209116
:1004A000E80025FD02C09FBFE3CF282F30E0C21B2C
:1004B000D30BF701815020F041914093F100FACF26
:1004C000E20EF31EBB2021F09092E800B12CEBCF9E
:1004D0008091E80085FDE7CF9092E800BB24B394BB
:1004E000209709F3F3CF5D9884E68093BD0610163C
:1004F00011063CF081E090E0F6019383828310E0E6
:1005000000E0C801DF91CF911F910F91FF90EF9014
:10051000DF90CF90BF90AF909F908F900895CF9332
:10052000DF931F92CDB7DEB76983DC01ED91FC91BB
:100530000280F381E02D41E050E0BE016F5F7F4F0C
:1005400009950F90DF91CF91089583E08093E900A2
:100550008091F200882319F08AE38093E8000895DF
:100560000E94BC0090E00895CF93DF931F92CDB717
:10057000DEB7FC018485958597FD08C02FEF3FEF1E
:10058000358724870F90DF91CF910895CE01019692
:100590000E94CD00019719F4898190E0F3CF8FEF8D
:1005A0009FEFF0CF0F931F93CF93DF931F92CDB7A1
:1005B000DEB78C01FC018485958597FF0BC0CE01C9
:1005C00001960E94CD00019771F4898190E0F801B5
:1005D00095878487F801848595850F90DF91CF9169
:1005E0001F910F9108958FEF9FEFF1CFFC0184854C
:1005F000958597FD0BC09FB7F89482E08093E90042
:100600008091F2009FBF90E0019608959FB7F89403
:1006100082E08093E9008091F2009FBF90E008950E
:10062000CF93C0910F01F0910E018FEF90E0DC01AC
:10063000AF1BB10950910D01851B9109E09116077F
:1006400041E0EC1708F440E02091120730E0A29F4F
:10065000B001A39F700DB29F700D1124FE9F600D1D
:10066000711D112470930E07829FB001839F700D3E
:10067000929F700D11245E9F600D711D1124709367
:100680000A07E0911707EC1708F440E020911307E0
:1006900030E0A29FB001A39F700DB29F700D112496
:1006A000FE9F600D711D112470930F07289FB001EC
:1006B000299F700D389F700D1124E59F600D711DED
:1006C000112470930B074093FD06CF910895CF92AC
:1006D000DF92EF92FF922091350730913607211576
:1006E000310501F1C0903B07D0903C07C114D10403
:1006F000C9F0F12CE12C50E040E02A5B3F4F4F4F16
:100700005F4F60E472E48FE090E00E940A18C70136
:10071000B6010E940A182093F006FF90EF90DF9038
:10072000CF9008951092F006F8CF9091380721E00D
:1007300030E0981711F023E030E0E0911A01F0E08A
:10074000EE0FFF1FE857FA4F408151815093B706D3
:100750004093B606E091B606F091B706E20FF31F9C
:100760009181E091B606F091B7064081491710F0EB
:100770009F3FD1F4909138072AE030E0981711F0AC
:100780002BE030E0E091B606F091B706E20FF31FE0
:100790008181E091B606F091B7069081981708F430
:1007A0006CC18F3F09F469C1F89440918400509165
:1007B000850080913707813009F0DDC01092C306B3
:1007C0001092C206660F771F7093C1066093C00631
:1007D000809181008860809381008091C006909113
:1007E000C10690938900809388008091C006909103
:1007F000C1066091D0067091D1068617970720F444
:100800001092D1061092D0066091CC067091CD0660
:100810008617970720F41092CD061092CC06841705
:10082000950730F4109285001092840050E040E06B
:1008300078948091180190911901880F991F840F65
:10084000951F6091B6067091B7064091B40650911D
:10085000B50664177507A1F01092D3061092D20660
:1008600040916F004B7F40936F00B29A1092CF0679
:100870001092CE0640916F00477F40936F00B39A6D
:100880004091B6065091B7065093B5064093B40612
:10089000E091B406F091B506E20FF31F41814F3F9E
:1008A000C9F0E091B406F091B5065081451790F477
:1008B000E091B406F091B50654E2459FE00DF11DBC
:1008C0001124458556854130510521F447855089CD
:1008D000841B950B4091C0065091C106609137076B
:1008E000613021F44817590708F44BC0409137078D
:1008F000413009F049C040916F004B7F40936F0039
:1009000040916F00477F40936F001092D306109282
:10091000D2061092CF061092CE062330310509F090
:1009200071C0F89490938B0080938A00B29A4091A2
:100930006F00446040936F003093D3062093D2063B
:100940003093B3062093B2069093D1068093D006DD
:1009500040913707413069F42B303105C1F121E076
:1009600030E03093B1062093B0069093CD0680938B
:10097000CC067894089580918100877F80938100D0
:1009800057CF841B950BAACF2330310521F02B3094
:10099000310509F03BC04091D2065091D306452B5A
:1009A00009F4BFCF40913707411167C04091CA0693
:1009B0005091CB06452B09F060C0F8943093CB06DC
:1009C0002093CA069093C9068093C806D2CF2AE026
:1009D00030E0C7CF2BE030E047C0409137074111EE
:1009E0004CC04091C6065091C706452B09F045C042
:1009F000F8943093C7062093C6069093C50680935B
:100A0000C406B7CF2B30310509F48BCF2130310527
:100A100019F02A30310589F54091CE065091CF0664
:100A2000452BD9F6F89490938D0080938C00B39A5F
:100A300040916F00486040936F003093CF06209341
:100A4000CE063093B1062093B0069093CD068093E6
:100A5000CC0640913707413009F08BCF2A30310561
:100A600009F4B8CF23E030E03093B3062093B20608
:100A70009093D1068093D0067CCF08952091B40640
:100A80003091B5063093A9062093A8062091A806B8
:100A90003091A906820F931FFC0191819F3F09F4B9
:100AA0005EC0E091A806F091A9068081981708F031
:100AB00056C02091A8063091A906F4E29F9FC0017C
:100AC0001124AC014D5E5F4F420F531F5093AF0690
:100AD0004093AE0641E04093AD06820F931FFC01A8
:100AE00081898093AA0640930707F8941092BF006B
:100AF0001092BF001092BE0083E08093BF008FEF82
:100B00008093D100E091AE06F091AF068081918193
:100B10009093AC068093AB06009719F58091AD06D3
:100B20009091AA06891780F591E0980F9093AD06F1
:100B300090E0880F991FE80FF91F908181819093B1
:100B4000AB068093AC068093BF008091AB06809388
:100B5000D000809172008062809372000EC00C946D
:100B6000DA059093BF008091AB068093CF0080910F
:100B70007200806480937200589A8FEF89BB85E081
:100B80008093C1007894089580911401909115018B
:100B90009093AC068093AB069093BF008091AB0618
:100BA0008093D200809172008068809372001092CE
:100BB0000707E3CF9091D6068091D5069817A1F04C
:100BC000E091D606F0E0EE0FFF1FE952F94F808169
:100BD00091812091D60630E02F5F3F4F237033275D
:100BE0002093D6060C943E051092D40608952091C9
:100BF000D406222301F1F8942091D5064091D6061F
:100C000030E02F5F3F4F237033274217130689F0E0
:100C1000E091D506F0E0EE0FFF1FE952F94F918306
:100C200080838091D50690E0019683709927809308
:100C3000D506789408950E943E0581E08093D406FD
:100C40000895FC0101900020E9F73197AF01481B9E
:100C5000590BBC0187E597E00C940E0283EB95E0FD
:100C60000C9421068F929F92AF92BF920F931F9385
:100C7000CF93DF93CDB7DEB7A1970FB6F894DEBF61
:100C80000FBECDBF19A2423008F44AE08E010F5DBD
:100C90001F4F842E912CB12CA12CA50194010E94F0
:100CA0000A18E62FB901CA01EA30F4F4E05DD80170
:100CB000EE938D01232B242B252B79F790E080E0F8
:100CC000109719F0CD010E942106A1960FB6F89455
:100CD000DEBF0FBECDBFDF91CF911F910F91BF90AF
:100CE000AF909F908F900895E95CE1CFCF93DF9311
:100CF0000E942106EC010E942E068C0F9D1FDF91A1
:100D0000CF9108950C942106682F70E090E080E068
:100D10004AE00C943206BC0190E080E04AE00C947A
:100D20003206CF93DF93EC0188819981009711F00F
:100D30000E94CE18198218821D821C821B821A8280
:100D4000DF91CF910895FC0180819181009711F08E
:100D50000C94CE180895109227071092260710922F
:100D600023071092220710921F0710921E0710925D
:100D70001707109216078FEF9FEF9093130780933A
:100D8000120708950F931F93CF93DF93EC0188818F
:100D90009981009759F02A813B812617370730F057
:100DA00081E0DF91CF911F910F9108958B016F5FCB
:100DB0007F4F0E945719009759F0998388831B83AE
:100DC0000A832C813D81232B59F7FC011082E8CF47
:100DD00080E0E7CFEF92FF920F931F93CF93DF93C3
:100DE0008C017B01EB0109900020E9F72197C61BDC
:100DF000D70BBE010E94C206811109C0C801DF9154
:100E0000CF911F910F91FF90EF900C949106F801F4
:100E1000D583C483B70180819181DF91CF911F91E8
:100E20000F91FF90EF900C941D1A1F920F920FB626
:100E30000F9211242F933F938F939F93AF93BF9360
:100E40008091410790914207A0914307B0914407D8
:100E50003091400723E0230F2D3758F50196A11D4F
:100E6000B11D209340078093410790934207A093C0
:100E70004307B09344078091450790914607A0919E
:100E80004707B09148070196A11DB11D8093450702
:100E900090934607A0934707B0934807BF91AF913F
:100EA0009F918F913F912F910F900FBE0F901F90A8
:100EB000189526E8230F0296A11DB11DD2CF1F92CF
:100EC0000F920FB60F9211248F939F938091E100A0
:100ED0009091E100937F9093E10083FF0FC0109207
:100EE000E90091E09093EB001092EC0092E3909374
:100EF000ED001092560798E09093F00082FF22C018
:100F000093E09093E9009091F200992319F09AE30D
:100F10009093E8009091BD06992341F09091BD0611
:100F200091509093BD06911101C05D9A9091550723
:100F3000992341F090915507915090935507911145
:100F400001C0289A84FF18C08091E2008E7E8160E3
:100F50008093E2008091E1008F7E8093E100809198
:100F6000BE068E7E80618093BE069F918F910F900A
:100F70000FBE0F901F90189580FFF7CF8091E20071
:100F80008E7E80618093E2008091E1008E7E80936E
:100F9000E1008091BE068E7E8160E5CF1F920F92A8
:100FA0000FB60F921124CF92DF92EF92FF920F9320
:100FB0001F932F933F934F935F936F937F938F93E1
:100FC0009F93AF93BF93EF93FF93CF93DF93CDB7EF
:100FD000DEB76C97DEBFCDBF1092E9008091E800CC
:100FE00083FF25C068E0CE0145960E94010282EF92
:100FF0008093E8008D8987FF39C09091E80090FFC9
:10100000FCCF982F907609F034C19E894F89588D76
:101010002F89F88C911131C0803861F58091BF061D
:101020008093F1001092F1008EEF8093E8006C96AF
:101030000FB6F894DEBF0FBECDBFDF91CF91FF9109
:10104000EF91BF91AF919F918F917F916F915F9140
:101050004F913F912F911F910F91FF90EF90DF9053
:10106000CF900F900FBE0F901F9018959EEF90930A
:10107000E800C7CF1092F100D5CF913059F481111B
:10108000D3CF4130510581F68091BF068D7F80938B
:10109000BF06CACF933049F48111C6CF4130510504
:1010A00019F68091BF068260F2CF953041F48091AD
:1010B000E80080FFFCCF20682093E300B5CF963096
:1010C00009F0A9C00B8D1C8D22E01092E90010924E
:1010D000BB061092BA06F2122EC01092B9061092F8
:1010E000B8060E94D0011F8299E09983FA8291E0AC
:1010F0009E8390EA98879AEF99872091BA0630915B
:10110000BB06275F3F4F3C832B838D831092E90002
:101110001092BB061092BA061093B9060093B80657
:1011200049E050E0BE016F5F7F4F80E00E94AA015E
:101130000E94D00179CF1093B9060093B8060E949F
:10114000F700DC0112960D911C910115110509F4AF
:1011500051C1D801ED91FC910480F581E02DBE01D3
:101160006B5E7F4FC8010995009709F03EC1F801F9
:1011700000851185EACFF3E0FF120EC08F89882326
:1011800009F440C0823061F440E862E18DE091E012
:101190000E947701811148CF81E28093EB0047CF15
:1011A000813029F440E868E084E091E0F1CF8330B9
:1011B00099F70E94F700DC011296ED90FC908E01E9
:1011C0000F5F1F4F6801E114F10479F0D701ED9131
:1011D000FC910680F781E02DB801C7010995080F41
:1011E000111DF701E084F184EECFD8011C92F601C5
:1011F00001900020E9F73197BF016C197D0940E0AB
:10120000C601C6CF6EEE70E0FB01449150E080E86D
:101210000E94AA0109CF973009F4BECF983021F47B
:1012200081E08093F10000CF993009F0FDCE83700A
:1012300009F0B2CFE9E9F5E081E031E096E32191F0
:10124000222371F08093E9003093EB00DF011197C6
:101250002C912093EC009093ED008F5F873079F70D
:101260008EE78093EA001092EA008F8980935607F8
:10127000DBCE8B8D9C8D1092E9001092BB061092F4
:10128000BA069093B9068093B806898D811192C0F1
:101290008E899D89913A49F4813209F07DCF47E0EA
:1012A00050E064E071E080E0B3CF913209F074CF98
:1012B000833269F48F89988DB0E0A0E080930001BB
:1012C00090930101A0930201B0930301ADCE80324F
:1012D00069F48091E80082FFFCCF67E084E091E050
:1012E0000E9401028BEF8093E8009ECE823209F0CB
:1012F0009BCE8F8980930B01EEEFFFE78591949150
:101300008B3F9C4D51F1E0E0F8E080910401909119
:101310000501A0910601B0910701803B9440A10511
:10132000B105F1F480910B0180FD1AC0EE3F8AE017
:10133000F80789F587E797E79183808380916000BC
:101340008093BC0688E19BE00FB6F894A895809343
:1013500060000FBE9093600067CEEEEFFAE0D5CF4D
:10136000808191818737974709F05ECEA89580915B
:1013700060008861809360008091BC06809360006B
:10138000EE3F2AE0F20789F08091FE0A9091FF0A71
:101390009183808349CE808191818737980751F26C
:1013A0009093FF0A8093FE0AC5CF1092FF0A109215
:1013B000FE0A3ACE0E94F700DC0112960D911C91B4
:1013C0000115110509F4E8CED801ED91FC910190C9
:1013D000F081E02DBE016B5E7F4FC8010995811140
:1013E00023CEF80100851185EBCF181619060CF4F1
:1013F0001BCED2CEF1E0FF12BECE62EF70E004CF82
:101400001F920F920FB60F9211242F938F939F93D9
:10141000EF93FF939091790080913907E091E10675
:10142000F0E0813009F044C0E152F94F8081E09151
:10143000E106F0E0E65EF84F2081891710F42817E6
:1014400020F0981740F4821730F4E091E106F0E0C4
:10145000E65EF84F8083E091E106F0E0E152F94F5B
:1014600090838091E1068F5F8093E1068091E10691
:10147000823010F01092E10690917C00E091E1063C
:10148000F0E0E156FA4F80818770987F892B809336
:101490007C0080917A00806480937A00FF91EF91C4
:1014A0009F918F912F910F900FBE0F901F901895C5
:1014B000E65EF84FD5CF1F920F920FB60F92112410
:1014C0002F933F934F935F936F937F938F939F934C
:1014D000AF93BF93EF93FF938091CE069091CF0689
:1014E0008130910509F05CC0E091B406F091B50639
:1014F00022812F3F09F44BC0E091B406F091B5066C
:101500003081231708F043C0E091B406F091B5068E
:1015100034E2239FE00DF11D11242585368521300D
:101520003105A9F56785708922E030E03093CF0658
:101530002093CE0620918C0030918D0040911601B1
:1015400050911701461B570B440F551F240F351F91
:101550004091C0065091C106609137076130D1F0CB
:1015600030938D0020938C000E94F705FF91EF913E
:10157000BF91AF919F918F917F916F915F914F91AB
:101580003F912F910F900FBE0F901F90189570E014
:1015900060E0CACF4217530718F7241B350BDCCF86
:1015A00020913707213029F49C01277F2230310513
:1015B00071F020913707222371F11092CF0610921B
:1015C000CE0620916F00277F20936F00CDCF209112
:1015D000C2063091C306203A310578F72F5F3F4F9E
:1015E0003093C3062093C2062091B2063091B30611
:1015F0003093D3062093D2062091D0063091D106A5
:1016000030938B0020938A00B29A20916F0024605F
:1016100020936F00D2CF2091C6063091C7062115C6
:10162000310559F23093CF062093CE062091C4069F
:101630003091C50630938D0020938C001092C70620
:101640001092C6061092C5061092C4068DCF1F9246
:101650000F920FB60F9211242F933F934F935F93E6
:101660006F937F938F939F93AF93BF93EF93FF936A
:101670008091D2069091D3068330910509F05CC029
:10168000E091B406F091B50624812F3F09F44BC0D8
:10169000E091B406F091B5063081231708F043C0FD
:1016A000E091B406F091B50634E2239FE00DF11D00
:1016B00011242585368521303105A9F56785708986
:1016C00024E030E03093D3062093D20620918A00A4
:1016D00030918B004091160150911701461B570B1A
:1016E000440F551F240F351F4091C0065091C1066D
:1016F000609137076130D1F030938B0020938A00DE
:101700000E94F705FF91EF91BF91AF919F918F914B
:101710007F916F915F914F913F912F910F900FBEED
:101720000F901F90189570E060E0CACF42175307E2
:1017300018F7241B350BDCCF20913707213031F40B
:101740008430910589F08B30910571F02091370735
:10175000222371F11092D3061092D20620916F00CD
:101760002B7F20936F00CCCF2091C2063091C3060F
:10177000203A310578F72F5F3F4F3093C30620930F
:10178000C2062091B0063091B1063093CF06209367
:10179000CE062091CC063091CD0630938D0020935B
:1017A0008C00B39A20916F00286020936F00D2CFF5
:1017B0002091CA063091CB062115310559F230939C
:1017C000D3062093D2062091C8063091C9063093E3
:1017D0008B0020938A001092CB061092CA061092BA
:1017E000C9061092C8068CCF1F920F920FB60F92A7
:1017F00011242F933F934F935F936F937F938F9316
:101800009F93AF93BF93EF93FF931092C1000E94F9
:10181000DA05E2E7F0E080818F778083FF91EF9136
:10182000BF91AF919F918F917F916F915F914F91F8
:101830003F912F910F900FBE0F901F9018951F9200
:101840000F920FB60F9211242F933F934F935F93F4
:101850008F939F93EF93FF93589A2091AE06309108
:10186000AF068091AD0691E0980F9093AD0690E0A1
:10187000880F991F820F931FFC0180819181209115
:10188000AB063091AC06820F931F9093AC06809309
:10189000AB064091BE005091BF009C01255031091C
:1018A00042175307F0F49093BF00CE9A8091AB0695
:1018B0008093CF0080917200806480937200809149
:1018C00072008F7D80937200FF91EF919F918F91B5
:1018D0005F914F913F912F910F900FBE0F901F90EE
:1018E0001895589880911401909115012091AB069C
:1018F0003091AC06820F931F9093AC068093AB0699
:101900009093BF00CF9A8091AB068093D2008091D4
:10191000720080688093720010920707D0CF1F92E8
:101920000F920FB60F9211242F933F938F939F9393
:10193000EF93FF9358988091AD069091AA0620915D
:10194000AB063091AC06891788F5E091AE06F091B0
:10195000AF0691E0980F9093AD0690E0880F991F25
:10196000E80FF91F80819181820F931F9093AC063D
:101970008093AB069093BF00CD9A8091AB06809385
:10198000D00080917200806280937200809172001A
:101990008F7B80937200FF91EF919F918F913F9188
:1019A0002F910F900FBE0F901F90189580911401EA
:1019B00090911501820F931F9093AC068093AB0614
:1019C0009093BF00CF9A8091AB068093D200809114
:1019D000720080688093720010920707D7CFE7E506
:1019E000F7E01382128288EE93E0A0E0B0E08483F7
:1019F0009583A683B78385EA95E0918380838FEFF3
:101A00009FEF95878487E7EAF7E0118210821382BF
:101A100012821582148265EB75E0CF010C94EA0600
:101A2000CF93DF93CDB7DEB7A5970FB6F894DEBF9F
:101A30000FBECDBF789484B5826084BD84B58160CB
:101A400084BD85B5826085BD85B5816085BD809189
:101A50006E00816080936E00109281008091810001
:101A600082608093810080918100816080938100F9
:101A700080918000816080938000809191008260DD
:101A8000809391008091910081608093910080917A
:101A900090008160809390008091C1008460809369
:101AA000C1008091C10082608093C1008091C1001B
:101AB00081608093C1008091C30081608093C300E6
:101AC0008091C00082608093C0008091C2008160DC
:101AD0008093C20080917A00846080937A00809124
:101AE0007A00826080937A0080917A00816080938E
:101AF0007A0080917A00806880937A00109256076D
:101B00001092BF061092BE068091D700816080932C
:101B1000D70080EA8093D80089B5806189BD89B5F6
:101B2000826089BD09B400FEFDCF0E943001809122
:101B3000D8008F7C80618093D8008091E000807F06
:101B40008093E0008091E1008E7E8093E1008DE043
:101B50008093E200559A209A0FEF1FEF10936407CD
:101B60000093630786EB95E00E947606509A86E024
:101B700080931A0188E59BE19093170180931601E9
:101B800084EF91E090931901809318018EE190E029
:101B90009093150180931401109238071092070753
:101BA0001092D8061092D7061092DA061092D90633
:101BB0001092DC061092DB061092DE061092DD0613
:101BC0001092D6061092D5061092D4061092D30623
:101BD0001092D2061092D1061092D0061092CF0623
:101BE0001092CE061092CD061092CC061092CB0623
:101BF0001092CA061092C9061092C8061092C70623
:101C00001092C6061092C5061092C4061092C30622
:101C10001092C2061092C1061092C0061092820065
:101C2000109281001092800010926F008FEF86BB9F
:101C3000F894109285001092840092E090938100B5
:101C400078941092C0001092C1001092C2001092BD
:101C5000C3001092720089BB1092060710922807E9
:101C60001092290710922A0710922B07109234071E
:101C700010923E0710923D0790E890930E0180E28B
:101C800080930D0144E659E160E070E0409310015B
:101C90005093110160931201709313011092360753
:101CA0001092350710923C0710923B071092F006F5
:101CB00010923A07109239078AE080930F01109230
:101CC000FE061092FF061092000710920107109274
:101CD000F6061092F5061092E4061092E1061092B4
:101CE000FD061092FA061092F9061092FC06109268
:101CF000FB061092F8061092F7061092F406109266
:101D0000F3061092F2061092F10610922707109235
:101D10002607109223071092220710921F07109295
:101D20001E071092E3061092E2061092E00610924F
:101D3000DF0610921B0710921A07109217071092D5
:101D40001607109313070093120710930F070093C1
:101D50000E0710920B0710920A071092EB061092D2
:101D6000EA061092E6061092E7061092E806109234
:101D7000E9061092EE061092ED061092EF06109210
:101D80000C011092EC061092E506E091E106F0E0FD
:101D9000E156FA4F80818770806680937C00909333
:101DA0007B008CED80937A009E012F5F3F4F69018D
:101DB000F12CE12C2DA30D2DC7010E94BD17D601DA
:101DC0008D936D01BFEFEB1AFB0AE2E2EE16F10410
:101DD00099F789819A81AB81BC818D339D43AD4355
:101DE000BD4309F044C08D815E81AF81B885E9852E
:101DF000FA856B857C85CD84DE84EF84F8884989FB
:101E00003D89288D9A8D1CEF180F50931A01B093BD
:101E10001901A0931801F0931701E0931601709334
:101E2000150160931401C0921001D0921101E0924B
:101E30001201F092130140930F0130930E011A30FA
:101E400008F0DDC120933F072F8D20933E0790932C
:101E50003D078C3018F09D8D90933A078D3019F422
:101E60008E8D809339078FEB95E00E94760684ED86
:101E700095E00E94760653E1652E87E597E00E9483
:101E8000F602181619060CF04EC387E597E00E947B
:101E9000B402182F89831A82E090AB07F090AC0748
:101EA0002FEFE21AF20AB70187EA97E00E94C20612
:101EB000882391F02091A7073091A8078091AB0764
:101EC0009091AC076DA1702F820F931F0E941D1A75
:101ED000F092AC07E092AB071A3079F6712CF12C36
:101EE00010E0CF2CD12C1A8219821C821B821E82F8
:101EF0001D8262EE75E08DA1902F0E94EA0680910E
:101F0000AB079091AC07C816D90608F0A5C1A09000
:101F1000A707B090A80769817A81C5018C0D9D1D26
:101F20000E94241A009709F497C18A199B09E82E88
:101F30008DA1902F0E94A3063FEFE3122DC01A82BD
:101F400019821C821B821E821D8264EB75E08DA1AA
:101F5000902F0E94EA068091AB079091AC07C816BB
:101F6000D90608F07CC1A090A707B090A8076981A6
:101F70007A81C5018C0D9D1D0E94241A009709F4D9
:101F80006EC18A199B09E82E8DA1902F0E94A3068D
:101F90004FEFE41609F486C0FE1408F083C08E2CBF
:101FA000912C8C149D0420F0892D4601CE2CD82E26
:101FB0001A8219821C821B821E821D8265EB75E0CB
:101FC0008DA1902F0E94EA06A090AB07B090AC07BD
:101FD0008A149B0480F5CA14DB0408F45601E091CE
:101FE000A707F091A807EA0DFB1D50801082C09052
:101FF000A707D090A807C80CD91CC114D10479F048
:10200000F60101900020E9F731974F018C189D08E7
:10201000B4018DA1902F0E94C206811123C18DA110
:10202000902F0E9491068091A7079091A807A80E73
:10203000B91ED5015C9289819A81812C912C540121
:10204000009721F00E9481174B015C018DA1902F18
:102050000E94A306FF24F394FE0C111101C0782CFA
:1020600071106BC1B7FC1EC0113009F003C1B8E09C
:102070008B169104A104B10414F480921A0180918A
:102080003A07882309F434C21092F5061092EB0641
:102090001092EA061092E6061092E7061092E80601
:1020A0001092E9061F5F143109F01BCF711068C14F
:1020B00087EE95E00E9482064AE063E170E080E0EE
:1020C00090E00E94320682EE95E00E9482068091A6
:1020D0001A010E94840682EE95E00E948206809199
:1020E0001801909119010E948B0682EE95E00E94E2
:1020F000820680911601909117010E948B0682EE54
:1021000095E00E94820680911401909115010E9431
:102110008B0682EE95E00E9482066091100170911C
:10212000110180911201909113014AE00E94320640
:1021300082EE95E00E94820680910F010E94840643
:1021400082EE95E00E94820680910E010E94840634
:1021500082EE95E00E94820680913F070E948406ED
:1021600082EE95E00E94820680913E070E948406DE
:1021700082EE95E00E94820680913D070E948406CF
:1021800082EE95E00E94820680913B0790913C0789
:102190000E948B0682EE95E00E94820680913A07AB
:1021A0000E94840682EE95E00E94820680913907A3
:1021B0000E94840682EE95E00E9482068091380794
:1021C0000E94840682EE95E00E94820680910D01B5
:1021D0000E94840682EE95E00E9482068091370775
:1021E0000E94840682EE95E00E9482068091350767
:1021F000909136070E948B060E942E06BDC03E8934
:1022000030933F073F8930933E0720933D079093DB
:102210003A079B8D909339079C8D909338078031B6
:1022200018F09D8D90930D01813108F41CCE9E8D88
:1022300090933707813109F416CE8F8D98A1909332
:1022400036078093350789A19AA190933C07809324
:102250003B070E94670307CE8FEF9FEF68CE8FEF9B
:102260009FEF91CE9E828D82B60189819A810E94D4
:102270001D1AD9CE123029F49092190180921801BA
:10228000FECE133029F49092170180921601F7CEFA
:10229000143029F49092150180921401F0CE15307B
:1022A00049F48092100190921101A0921201B09213
:1022B0001301E5CE163019F480920F01E0CE1730ED
:1022C00019F480920E01DBCE183019F480923F078A
:1022D000D6CE193019F480923E07D1CE1A3019F4B7
:1022E00080923D07CCCE1B3039F490923C0780920F
:1022F0003B070E946703C3CE1C3019F480923A0753
:10230000BECE1D3019F480923907B9CE1E3019F4B3
:1023100080923807B4CE1F3019F480920D01AFCEF1
:10232000103119F480923707AACE113109F0A7CEE7
:102330009092360780923507DCCFE7E07E1252C0DC
:10234000113009F0AFCEF3E08F169104A104B1046F
:1023500008F0A8CE87E090E081149104A104B104B4
:1023600049F088E090E08A9489288A288B2811F027
:1023700089E090E00E94F70584EE95E00E947606E1
:102380001A8219821C821B821E821D8265EB75E0F7
:102390008DA1902F0E94EA068091A7079091A8072F
:1023A000009709F4A9C069817A816115710509F462
:1023B000A1C04091A9075091AA072D813E814217E3
:1023C000530708F497C00E941D1A8D819E81909337
:1023D000AC078093AB071E821D828DA1902F0E94B7
:1023E000A3064BCD38E0731273C01A8E198E8DE39D
:1023F0009DE3DC0189839A83AB83BC836D828091EA
:102400001A018E83809118019091190198878F830A
:1024100080911601909117019A8789878091140104
:10242000909115019C878B878091100190911101EB
:10243000A0911201B09113018D879E87AF87B88B51
:1024400080910F0190E0B0E0A0E0898B9A8BAB8B7C
:10245000BC8B80910E018D8B80913F078E8B80917C
:102460003E078F8B80913D07888F80913A078A8F36
:10247000809139078B8F809138078C8F80910D0167
:102480008D8F809137078E8F809135079091360719
:1024900098A38F8F80913B0790913C079AA389A3C3
:1024A000CDA0D02EF12CE12CD601BD906D01C7013D
:1024B0000E94BD17B81621F06B2DC7010E94C517E9
:1024C000BFEFEB1AFB0AE2E2EE16F10469F754CF14
:1024D000FAE07F12E7CD113009F0E4CD22E0821658
:1024E0009104A104B10408F0DDCD8092340744CFFB
:1024F000712CD8CD0E94CE1889819A819093A8071B
:102500008093A7078B819C819093AA078093A9074A
:102510008D819E819093AC078093AB071A821982BC
:102520001C821B8258CF80913F07882341F0809105
:102530000707811133C28091060781112FC2809154
:102540001A078BA380911B078CA31092020710928D
:1025500003071092040710920507C090FE06D09062
:10256000FF06E0900007F0900107C114D104E104D8
:10257000F10409F05AC329EF822E26E0922E3BEF98
:10258000C32E36E0D32E47EFA42E46E0B42EF12C16
:10259000E12C442443945E2C8091FD06882339F17C
:1025A000E3E2F0E0EC0FFD1FEE0DFF1D9081F7015F
:1025B000E25FF84F8081981708F484C08E2D84253F
:1025C00090E0A3E2B0E0AC0FBD1FA80FB91FFC0163
:1025D000E65FF84F3C912081D601231708F476C0BE
:1025E0002C912F5F2C938550994FFC011082F6019E
:1025F00081916F01833040F490913407992309F45D
:1026000053C0823009F050C0D4018C9181114CC06C
:102610004C928091020790910307A0910407B0911A
:102620000507892B8A2B8B2B51F40E940B01609399
:102630000207709303078093040790930507F50141
:1026400010828091F60697012D50394F190185119E
:1026500004C08091F50681113BC0D1011C921092FB
:10266000F2061092F106F5018081882309F46EC00C
:102670008091020790910307A0910407B09105078C
:10268000409110015091110160911201709113015C
:10269000840F951FA61FB71F8093FE069093FF0619
:1026A000A0930007B0930107BFEF8B1A9B0AEFEFCF
:1026B000AE1ABE0AEA94EF2809F464C0EE24E3944B
:1026C000F12C69CFD6011C92F40190CF1C928FCFD0
:1026D000F9014082809122079091230701969093FF
:1026E0002307809322076090F1067090F206FFEFB7
:1026F0006F1A7F0A7092F2066092F10610913A0703
:1027000080913E07882361F060FE0AC0112321F00A
:1027100021E06216710439F483EF95E00E94760699
:10272000112309F4A0CFD5014C9280913707813055
:1027300009F09ECF8091F006882329F086151704B2
:1027400011F008F095CF40920C018DCF90913A078F
:10275000992351F08091F506882309F4C2C181E0E4
:102760009091F606951180E05092F60691E09093D4
:10277000F506882309F4B7C180913707813011F439
:1027800080930C0180913407882309F4DFC08FE027
:10279000E1E2F1E0ADA1B02F01900D928A95E1F751
:1027A0008091020790910307A0910407B09105075B
:1027B000892B8A2B8B2B51F40E940B01609302070B
:1027C0007093030780930407909305078091F406A4
:1027D000882309F44DC280EA9091F80640E19111F6
:1027E00001C040E09091FA0638E0911101C030E05C
:1027F0009091F30624E0911101C020E09091F7063A
:10280000992309F437C292E05091F906852B842B65
:10281000832B822B892B8C838091EC0650EA8111CB
:1028200001C050E88091E50640E1811101C040E01F
:102830008091FD0638E0811101C030E08091F606FC
:1028400024E0813009F020E08091E40692E08111DB
:1028500001C090E081E0C090FE06D090FF06E090BD
:102860000007F0900107CD28CE28CF2809F480E09A
:10287000852B842B832B822B892B8D838091F106D2
:1028800080688E832BA1822F8695869580688F83A2
:102890008CA140E2249F900111242076982F9695D8
:1028A000969596959068292B28874091020750911C
:1028B000030760910407709105078295807F282F98
:1028C0002077DB01CA013CE1B695A79597958795DE
:1028D0003A95D1F7822B80688987DB01CA01E5E14F
:1028E000B695A79597958795EA95D1F780688A87D9
:1028F000DB01CA01FEE0B695A79597958795FA95F5
:10290000D1F780688B87DB01CA0117E0B695A795E0
:10291000979587951A95D1F780688C8740684D8781
:102920004FE050E06DA1702F87E597E00E940E0206
:102930001092E4061092EC061092E5061092F4064E
:102940001092F8061092F3061092F70620912607CF
:10295000309127078BA18093E20690911607981774
:1029600010F48093160790911207891710F4809342
:1029700012078CA18093E30690911707981710F423
:102980008093170790911307891710F4809313070A
:102990002E5F3F4F3093270720932607809107072C
:1029A000882309F469C18AE0809306070E940B011D
:1029B0006B017C01C0923007D0923107E092320760
:1029C000F092330780912C0790912D07A0912E074C
:1029D000B0912F07C816D906EA06FB0608F47CC199
:1029E000A7019601281B390B4A0B5B0BDA01C901C1
:1029F00081159748A349B34008F06EC180913D0707
:102A0000882309F46EC28091280790912907A0912C
:102A10002A07B0912B07813E9105A105B10509F464
:102A200012C208F073C18B349105A105B10509F4F8
:102A3000E3C108F02AC189319105A105B10509F466
:102A4000C7C182339105A105B10509F4CCC1892B19
:102A50008A2B8B2B09F026C180912607909127079E
:102A60009093250780932407809122079091230754
:102A7000909321078093200780911E0790911F0754
:102A800090931D0780931C0780911A078093180765
:102A90008091160780931407809112078093100786
:102AA00080910E0780930C0780910A078093080796
:102AB00080911B0780931907809117078093150752
:102AC000809113078093110780910F0780930D0762
:102AD00080910B07809309070E9410030E94AB06A8
:102AE000E1C081E041CEC0900207D0900307E090A2
:102AF0000407F09005078091100190911101A091B9
:102B00001201B09113018C0D9D1DAE1DBF1D809350
:102B1000FE069093FF06A0930007B09301078091F3
:102B20003707813009F079C08091EF068823A1F042
:102B300080910C01811104C0D1018C91882361F036
:102B40006091ED067091EE06852D0E94950310921E
:102B50000C0181E08093EC068091EA069091EB06EF
:102B60008038910509F042C08091E6069091E70611
:102B7000A091E806B091E90646015701881A990A22
:102B8000AA0ABB0A97E0B694A794979487949A955B
:102B9000D1F78091350790913607009751F0AC013D
:102BA0004E5151094815590568F44E9688169906F4
:102BB00048F49092EE068092ED0681E08093EF0655
:102BC0008093E5068091EF06882361F06091ED0621
:102BD0007091EE06852D0E94950310920C0181E004
:102BE0008093EC061092EB061092EA068091EA06BA
:102BF0009091EB06009741F4C092E606D092E7066A
:102C0000E092E806F092E90601969093EB06809335
:102C1000EA0681E08093E406B5CD6091ED067091FF
:102C2000EE06852D0E949503F4CF0E940B01609360
:102C300002077093030780930407909305076C15B0
:102C40007D058E059F0508F49DCD6C197D098E09C3
:102C50009F09611577488349934008F093CD1092FE
:102C6000FE061092FF0610920007109201078ACD0F
:102C700080E8B2CD90E0C8CD80910607882309F4A2
:102C800095CE8091060781508FCE86399105A1059A
:102C9000B10509F465C040F58D379105A105B10571
:102CA00009F4C3C08091280790912907A0912A07B1
:102CB000B0912B070196A11DB11D853FE1E09E0754
:102CC000A105B10508F0F5C0809328079093290766
:102CD000A0932A07B0932B0740E050E0452B09F45E
:102CE000CAC80E940000C7C88F3A9105A105B10566
:102CF00009F4A0C0883C9105A105B10599F68FE6BD
:102D000096E00E948206809114079AC0873741E0BE
:102D10009407A105B10509F4B7C048F58331E1E096
:102D20009E07A105B10509F495C068F48A3F910595
:102D3000A105B10509F0B6CF8CE796E00E948206A6
:102D400080910C077DC0853421E09207A105B10573
:102D500009F497C08E359140A105B10509F0A2CFC5
:102D600088E596E00E94820690E080E039C0893ACA
:102D700041E09407A105B10509F48DC068F48039DC
:102D80009140A105B10509F08DCF8FE696E00E9434
:102D900082068091150754C0823CF1E09F07A1058F
:102DA000B10509F47FC08B3D9140A105B10509F043
:102DB00079CF84E896E00E948206809109070E94FC
:102DC00084060E942E0684EF91E0A0E0B0E024C0CB
:102DD00086EF95E00E948206809124079091250756
:102DE0000E948B065FCF86E196E00E94820680916A
:102DF000200790912107F4CF89E296E00E94820695
:102E000080911C0790911D070E948B060E942E0640
:102E100084E690E0A0E0B0E0809328079093290733
:102E2000A0932A07B0932B073DCF8CE396E00E9436
:102E3000820638CF85E696E00E94820680911807C8
:102E40000E9484062FCF86E796E00E94820680913A
:102E50001007F6CF84E896E00E948206809108076A
:102E60000E9484060E942E062CE231E040E050E0F1
:102E7000209328073093290740932A0750932B0764
:102E800011CF8CE896E0D3CF85E696E00E948206CB
:102E900080911907D5CF86E796E00E94820680913F
:102EA0001107CECF8CE796E00E94820680910D0735
:102EB000C7CF109228071092290710922A07109264
:102EC0002B07F0E4CF0EFBE4DF1EFCE4EF1EF11C49
:102ED000C0922C07D0922D07E0922E07F0922F0778
:102EE000FBCE0E9410030E94AB0620E4C20E2BE42E
:102EF000D21E2CE4E21EF11CEBCF87EA97E00C9483
:102F0000A3061F93FC0199278827BC01E89411911F
:102F10001032E9F3193010F01E30C8F31B3251F0B3
:102F20001D3249F4689406C00E94A817610F711DF4
:102F3000811D911D119110531A30B0F33EF49095FC
:102F40008095709561957F4F8F4F9F4F1F9108958A
:102F5000592F482F372F262F660F771F881F991F4D
:102F6000660F771F881F991F620F731F841F951F9D
:102F7000660F771F881F991F0895F999FECF92BD9C
:102F800081BDF89A992780B50895262FF999FECF2B
:102F90001FBA92BD81BD20BD0FB6F894FA9AF99A76
:102FA0000FBE019608952F923F924F925F926F92BB
:102FB0007F928F929F92AF92BF92CF92DF92EF92C9
:102FC000FF920F931F93CF93DF93CDB7DEB7CA1B4A
:102FD000DB0B0FB6F894DEBF0FBECDBF09942A8875
:102FE000398848885F846E847D848C849B84AA841D
:102FF000B984C884DF80EE80FD800C811B81AA81AA
:10300000B981CE0FD11D0FB6F894DEBF0FBECDBF74
:10301000ED010895A1E21A2EAA1BBB1BFD010DC0F4
:10302000AA1FBB1FEE1FFF1FA217B307E407F50778
:1030300020F0A21BB30BE40BF50B661F771F881F54
:10304000991F1A9469F760957095809590959B01EA
:10305000AC01BD01CF010895EE0FFF1F0590F49163
:10306000E02D09940F931F93CF93DF938230910546
:1030700010F482E090E0E091AF07F091B00730E00B
:1030800020E0B0E0A0E0309799F42115310509F473
:103090004AC0281B390B24303105D8F58A819B8121
:1030A0006115710589F1FB0193838283FE0111C0D3
:1030B000408151810281138148175907E0F0481778
:1030C000590799F4109761F012960C931297139682
:1030D0001C933296CF01DF91CF911F910F910895EC
:1030E0000093AF071093B007F4CF2115310551F0CD
:1030F0004217530738F0A901DB019A01BD01DF0136
:10310000F801C1CFEF01F9CF9093B0078093AF07DB
:10311000CDCFFE01E20FF31F81939193225031092D
:1031200039832883D7CF2091AD073091AE07232B69
:1031300041F420911D0130911E013093AE07209380
:10314000AD0720911B0130911C012115310541F47F
:103150002DB73EB740911F0150912001241B350B24
:10316000E091AD07F091AE07E217F307A0F42E1B34
:103170003F0B2817390778F0AC014E5F5F4F2417DB
:10318000350748F04E0F5F1F5093AE074093AD07D1
:10319000819391939FCFF0E0E0E09CCFCF93DF93BA
:1031A0000097E9F0FC01329713821282A091AF07D9
:1031B000B091B007ED0130E020E01097A1F420813C
:1031C0003181820F931F2091AD073091AE072817F0
:1031D000390709F061C0F093AE07E093AD07DF91C6
:1031E000CF910895EA01CE17DF07E8F54A815B81A8
:1031F0009E0141155105B1F7E901FB83EA8349912D
:103200005991C40FD51FEC17FD0761F4808191819E
:103210000296840F951FE9019983888382819381A7
:103220009B838A83F0E0E0E012968D919C91139746
:103230000097B9F52D913C911197CD010296820F1F
:10324000931F2091AD073091AE072817390739F643
:10325000309751F51092B0071092AF07B093AE07B8
:10326000A093AD07BCCFD383C28340815181840F2B
:10327000951FC817D90761F44E5F5F4F8881998108
:10328000480F591F518340838A819B819383828396
:103290002115310509F0B0CFF093B007E093AF07E7
:1032A0009ECFFD01DC01C0CF13821282D7CFB0E0E8
:1032B000A0E0EDE5F9E10C94D5178C01009751F4ED
:1032C000CB010E9432188C01C801CDB7DEB7E0E116
:1032D0000C94F117FC01E60FF71F9C0122503109F5
:1032E000E217F30708F49DC0D901CD91DC91119745
:1032F000C617D70798F0C530D10530F3CE01049733
:103300008617970708F3C61BD70B2297C193D19353
:103310006D937C93CF010E94CE18D6CF5B01AC1A7F
:10332000BD0A4C018C0E9D1EA091AF07B091B00755
:10333000512C412CF12CE12C109731F58091AD07E7
:103340009091AE078815990509F05CC0461657069E
:1033500008F058C080911B0190911C01009741F426
:103360008DB79EB740911F0150912001841B950B92
:10337000E817F90708F055C0F093AE07E093AD07E2
:10338000F90171836083A0CF8D919C911197129662
:103390006C90129713967C901397A815B90559F560
:1033A0006C0142E0C40ED11CCA14DB0420F1AC0154
:1033B0004A195B09DA011296159780F062827382CE
:1033C00051834083D9016D937C93E114F10471F032
:1033D000D7011396FC93EE93129776CF22968C0F1B
:1033E0009D1FF90191838083F301EFCFF093B00724
:1033F000E093AF0769CF4816590608F42C017D0108
:10340000D3019ACFCB010E9432187C01009749F07A
:10341000AE01B8010E94141AC8010E94CE1887019B
:1034200053CF10E000E050CFFB01DC0102C001905F
:103430000D9241505040D8F70895FB01DC010190F6
:103440000D920020E1F70895FB0151915523A9F059
:10345000BF01DC014D9145174111E1F759F4CD0150
:103460000190002049F04D9140154111C9F3FB0135
:103470004111EFCF81E090E00197089510E0C1E99C
:10348000D0E004C0FE010E942C182196C239D10759
:06349000C9F7F894FFCF1C
:10349600FFFFFFFF00E10000000000000120800A9E
:1034A600641900001E00581BF401060000B10780D5
:1034B600002B6F20000000000000000000000D0A35
:1034C60002FFFFFFFFFFFFFFFFFFFF0001000014E9
:1034D60000010014000000000000000000000000D1
:1034E60000000000000000000000000000000000D6
:1034F600000000CD00030000007D00140000000065
:1035060000000000000000000000000000000000B5
:10351600000000000009FF00010203040506070879
:10352600FFFF0000DC0007001400140014003C003C
:1035360014003C0014000000000000000000000021
:103546000000000000000000DC00070014003C0042
:1035560014003C00140014001400000000000000D9
:10356600000000000000000000000000DC00070072
:1035760014003C001400140014003C001400000069
:103586000000000000000000000000000000000035
:10359600DC0007001400140014006400140014007A
:1035A6001400000000000000000000000000000001
:1035B60000000000DC000700140064001400140082
:1035C60014001400140000000000000000000000B9
:1035D6000000000000000000040107001400640061
:1035E60014003C0014001400140000000000000049
:1035F600000000000000000000000000900107002D
:103606001400C800140064001400C8001400000070
:1036160000000000000000000000000000000000A4
:10362600680107001400C80014003C001400C8001C
:103636001400000000000000000000000000000070
:1036460000000000400107001400C8001400140028
:103656001400C80014000000000000000000000074
:1036660000000000000009FF00010203FFFFFFFF4A
:10367600FFFFFF0000DC0007001400140014003CEC
:103686000014003C001400000000000000000000D0
:10369600000000000000000000DC00070014003CF1
:1036A6000014003C00140014001400000000000088
:1036B60000000000000000000000000000DC000721
:1036C6000014003C001400140014003C0014000018
:1036D60000000000000000000000000000000000E4
:1036E60000DC000700140014001400640014001429
:1036F60000140000000000000000000000000000B0
:1037060000000004FF00010203FFFFFFFFFFFFFFB1
:1037160000001C0209001400140014001400140018
:103726007C011400140014000000000000000000DA
:10373600000000000000CC01090014001400140071
:10374600140014002C0114001400140000000000E2
:10375600000000000000000000007C0109001400C9
:103766001400140014001400DC00140014001400EB
:1037760000000000000000000000000000002C0116
:103786000900140014001400140014008C00140026
:1037960014001400000000000000000000000000FB
:1037A60002FFFFFFFFFFFFFFFFFFFF000100001CFE
:1037B600020F00140014001400140014005000142A
:1037C600008C00140014001400500014001400149F
:1037D600000000B8010F00140014001400140014B7
:1037E600003C0014003C00140014001400500014A7
:1037F600001400140004FF00010203FFFFFFFFFF97
:10380600FFFF01006400030017002E001F000000E8
:1038160000000000000000000000000000000000A2
:1038260000000000000001008D00030017004E009C
:10383600280000000000000000000000000000005A
:103846000000000000000000000001002B00010045
:103856002B00000000000000000000000000000037
:103866000000000000000000000000000000010051
:1038760044000300170015001800000000000000B7
:103886000000000000000000000000000000000032
:10389600000002FFFFFFFFFFFFFFFFFFFF00010029
:1038A600005E000500120014001200140012000051
:1038B6000000000000000000000000000000000002
:1038C60000000000006000030012003C001200002F
:1038D60000000000000000000000000000000000E2
:1038E6000000000000000001FFFFFFFFFFFFFFFFD9
:1038F600FFFF00FF0000420005000E000C000E0056
:103906000C000E0000000000000000000000000097
:1039160000000000000000005705020565041004C1
:103926007303D6028501300100C1808100000007C3
:1039360006000000008F020E02B002A502F602B4D5
:1039460002D2020D0A002B737461727475700065E1
:103956006570726F6D20726561645F7365747469FA
:103966006E677300696E697420636F6D706C657441
:1039760065002C004F4B00706172616D6574657255
:103986007320002B64002B73746174732067656E5B
:103996006572616C2072656164696E675F636F75DD
:1039A6006E7465723A00206475706C696361746543
:1039B6005F6672616D65733A00207072656D617441
:1039C6007572655F6672616D65733A002B7374611B
:1039D60074732073656E736F72206368616E6E65B3
:1039E6006C3A72696768740020646574656374690B
:1039F6006F6E733A002072656164696E673A0020E3
:103A0600686967683A00206C6F773A0020746872BC
:103A16005F683A00207468725F6C3A002B737461B9
:103A260074732073656E736F72206368616E6E6562
:083A36006C3A6C656674000037
:00000001FF
