:100000000C9492000C94BA000C94BA000C94BA00B0
:100010000C94BA000C94BA000C94BA000C94BA0078
:100020000C94BA000C94BA000C946B060C94DA068B
:100030000C94BA000C94BA000C94BA000C94BA0058
:100040000C94BA000C94130A0C9491090C945F0957
:100050000C94BA000C94BA000C94BA000C942106CB
:100060000C94BA000C94BA000C94BA000C94BA0028
:100070000C94BA000C940C090C94BA000C94BA00BD
:100080000C94BA000C94BA000C94BA000C94BA0008
:100090000C94BA000C94BA000C942E0B0C94C00A69
:1000A0000C94950A0C94BA000C94BA00080B000248
:1000B0000202000009040000010202000005240001
:1000C0001001052401010104240206052406000193
:1000D0000705810310004009040100020A00000026
:1000E00007050202400000070583024000000403E8
:1000F000090412010002EF0201404F1B06920001A9
:1001000001020301537061726B46756E005370619A
:10011000726B46756E2050726F204D6963726F006E
:100120008C0B291511241FBECFEFDAE0DEBFCDBF47
:1001300027E0A8E3B6E001C01D92A932B207E1F7BB
:1001400016E0A0E0B1E0EEEEFFE202C005900D92F5
:10015000A833B107D9F710E0C1E9D0E004C0219776
:10016000FE010E94D815C039D107C9F70E94AD0B16
:100170000C94EA170C9400002FB7F89483E0809356
:10018000E9009091E800892F807295FF04C090915A
:10019000F20080E4891B2FBF0895FC018091CE06F8
:1001A000882311F13FB7F89482E08093E900209111
:1001B000F200822F90E01816190614F481E090E006
:1001C000882339F0289844E64093CD064091F10009
:1001D0004083222339F02091F200211103C02BE645
:1001E0002093E8003FBF08958FEF9FEF089580911F
:1001F000C50681110DC082E08093C10684E0809322
:10020000C2061092C4061092C30681E08093C50610
:1002100081EC96E008953FB7F8948091BD069091E7
:10022000BE06A091BF06B091C00626B5A89B05C02A
:100230002F3F19F00196A11DB11D3FBFBA2FA92F65
:10024000982F8827BC01CD01620F711D811D911D62
:1002500042E0660F771F881F991F4A95D1F70895CE
:10026000CF92DF92EF92FF920E940B016B017C0113
:100270000E940B016C197D098E099F09683E73402D
:1002800081059105A8F3FF90EF90DF90CF9008953E
:1002900008954091460650914706209144063091BA
:1002A000450642175307B4F49091E8009570E1F3C6
:1002B0009091E80092FD19C08093F100809146066C
:1002C0009091470601968F739927892B19F48EEF29
:1002D0008093E8008091460690914706019690939E
:1002E00047068093460681E0089580E00895EF92E6
:1002F000FF920F931F93CF93DF93F82E192FE62EC3
:10030000042F81E0860F880F0E94490183E00E943C
:100310004901CF2DD12FEC0EFD2EF11CCE15DF059E
:10032000B9F007FF13C0FE0184910E944901182F04
:1003300080E00E944901812321968111EFCFDF9156
:10034000CF911F910F91FF90EF9008958881EDCF8D
:1003500081E0F5CFDF92EF92FF920F931F93CF933F
:10036000DF93D82E8A01EB017B01E40EF51ECE153A
:10037000DF0559F0D7FE12C0FE0184910E944901A9
:1003800021968111F4CF0FEF1FEFC801DF91CF91BC
:100390001F910F91FF90EF90DF9008958881EECF2D
:1003A0000F931F93CF93DF931F92CDB7DEB782E0F9
:1003B000898342E450E06CEA70E080E80E94AA0180
:1003C0000E94F700DC0112960D911C910115110598
:1003D00089F0D801ED91FC910280F381E02DBE01FE
:1003E0006F5F7F4FC801099597FD04C0F801008534
:1003F0001185ECCF89810F90DF91CF911F910F91E3
:100400000895615030F02091F100FC0120830196A5
:10041000F8CF289884E68093CD0608958F929F9216
:10042000AF92BF92CF92DF92EF92FF920F931F9302
:10043000CF93DF936C017B018A0180910B018823AC
:1004400009F458C08091CE06882309F453C08091E6
:100450004A0680FF05C08091E00082608093E00042
:10046000E801B12C8AEFA82E93E0892E2AE3922E80
:10047000209711F4BB20B9F10E94BC00811106C085
:10048000AA94AA20B9F10E943001F2CF8C171D0660
:1004900011F00CF08C2F9FB7F8948092E900209116
:1004A000E80025FD02C09FBFE3CF282F30E0C21B2C
:1004B000D30BF701815020F041914093F100FACF26
:1004C000E20EF31EBB2021F09092E800B12CEBCF9E
:1004D0008091E80085FDE7CF9092E800BB24B394BB
:1004E000209709F3F3CF5D9884E6809349061016B0
:1004F00011063CF081E090E0F6019383828310E0E6
:1005000000E0C801DF91CF911F910F91FF90EF9014
:10051000DF90CF90BF90AF909F908F900895CF9332
:10052000DF931F92CDB7DEB76983DC01ED91FC91BB
:100530000280F381E02D41E050E0BE016F5F7F4F0C
:1005400009950F90DF91CF91089583E08093E900A2
:100550008091F200882319F08AE38093E8000895DF
:100560000E94BC0090E00895CF93DF931F92CDB717
:10057000DEB7FC018485958597FD08C02FEF3FEF1E
:10058000358724870F90DF91CF910895CE01019692
:100590000E94CD00019719F4898190E0F3CF8FEF8D
:1005A0009FEFF0CF0F931F93CF93DF931F92CDB7A1
:1005B000DEB78C01FC018485958597FF0BC0CE01C9
:1005C00001960E94CD00019771F4898190E0F801B5
:1005D00095878487F801848595850F90DF91CF9169
:1005E0001F910F9108958FEF9FEFF1CFFC0184854C
:1005F000958597FD0BC09FB7F89482E08093E90042
:100600008091F2009FBF90E0019608959FB7F89403
:1006100082E08093E9008091F2009FBF90E008950E
:1006200060910F0130910E018FEF90E0831B9109D3
:1006300021E040918206461708F420E0709186067A
:10064000789FA001799F500D112470918A06379FE1
:10065000400D511D11245093820640918306461788
:1006600008F420E060918B0670918706789FA001C6
:10067000799F500D1124369F400D511D1124509328
:100680008306209372060895E0913E06F0913F069E
:10069000DF01A80FB91F11962C912F3F89F03081EF
:1006A000231770F434E2239FE00DF11D11242385FC
:1006B00034852130310521F425853685621B730B85
:1006C0009C01235031092230310538F5209158061C
:1006D00030915906232B81F4F89490935906809316
:1006E00058067093890060938800B19A80916F00DA
:1006F000826080936F000FC02091520630915306A4
:10070000232B51F4F89490935306809352067093E0
:1007100051066093500678940895209156063091C2
:100720005706232B71F4F89490935706809356063E
:1007300070938B0060938A00B29A80916F008460FE
:10074000D8CF20914E0630914F06232B29F7F894ED
:1007500090934F0680934E0670934D0660934C061F
:10076000DACFE0911A01F0E0EE0FFF1FEC5DFA4FD7
:100770000190F081E02DF0933F06E0933E06DF010B
:10078000A80FB91F11962C912F3F09F468C0308132
:10079000231708F064C08330910521F0863091055D
:1007A00009F04AC0769A0597029708F4299A61E001
:1007B00060937F0640913E0650913F0634E2239FAE
:1007C000C00111249C012F5E3F4F240F351F309331
:1007D0003D0620933C0660933B06840F951FFC0169
:1007E000878580933806F8941092BF001092BF005E
:1007F0001092BE0083E08093BF009FEF9093D100E2
:10080000E0913C06F0913D062081818120933906DC
:1008100080933A068093BF00809139068093CF0081
:100820008091720080648093720099BB85E0809310
:10083000C1007894589A08958430910519F47698F7
:100840002998B1CFAC014B7F4130510511F42C9A5E
:10085000AACF8230910509F0A6CF2C98F1CF0C9445
:10086000310490915C0680915B069817A1F0E091AD
:100870005C06F0E0EE0FFF1FE35AF94F8081918193
:1008800020915C0630E02F5F3F4F23703327209389
:100890005C060C94B10310925A06089520915A06F2
:1008A000222301F1F89420915B0640915C0630E030
:1008B0002F5F3F4F237033274217130689F0E091D3
:1008C0005B06F0E0EE0FFF1FE35AF94F9183808340
:1008D00080915B0690E001968370992780935B0678
:1008E000789408950E94B10381E080935A06089598
:1008F000EF92FF920F931F93CF93F894E0908400B0
:10090000F090850078942091160130911701409164
:100910001801509119013695279542175307B0F4E5
:100920006091180170911901660F771F6E0D7F1D80
:10093000811109C081E090E0CF911F910F91FF904C
:10094000EF900C94440383E090E0F6CFC82F662329
:1009500009F452C0E0911A01F0E0EE0FFF1FEC5DC8
:10096000FA4F0190F081E02D85E090E0CC2311F06A
:1009700086E090E0DF01A80FB91F11962C912F3F60
:1009800009F453C03081231708F04FC00E944E0471
:1009900084E090E0CC2311F082E090E00E944E04CD
:1009A0001092590610925806109257061092560649
:1009B00080916F008D7F80936F0080916F008B7F9F
:1009C00080936F008091420690914306C11104C04C
:1009D0008091400690914106609116017091170137
:1009E000660F771F680F791F82E090E0CC2311F02B
:1009F00084E090E00E9444030091180110911901D5
:100A0000000F111F0E0D1F1DB801CC23B1F081E0A6
:100A100090E00E9444031093430600934206CF9156
:100A20001F910F91FF90EF90089581E090E0CC230B
:100A300009F4ACCF83E090E0A9CF83E090E00E947E
:100A400044031093410600934006E9CFFC01019056
:100A50000020E9F73197AF01481B590BBC018FEC1F
:100A600096E00C940E028DE495E00C9426058F928E
:100A70009F92AF92BF920F931F93CF93DF93CDB707
:100A8000DEB7A1970FB6F894DEBF0FBECDBF19A297
:100A9000423008F44AE08E010F5D1F4F842E912CE6
:100AA000B12CA12CA50194010E94B615E62FB90125
:100AB000CA01EA30F4F4E05DD801EE938D01232BF6
:100AC000242B252B79F790E080E0109719F0CD01C9
:100AD0000E942605A1960FB6F894DEBF0FBECDBFCB
:100AE000DF91CF911F910F91BF90AF909F908F900A
:100AF0000895E95CE1CFCF93DF930E942605EC01D6
:100B00000E9433058C0F9D1FDF91CF9108950C94A7
:100B10002605682F70E090E080E04AE00C943705ED
:100B2000BC0190E080E04AE00C943705CF93DF935E
:100B3000EC0188819981009711F00E947A16198240
:100B400018821D821C821B821A82DF91CF91089528
:100B5000FC0180819181009711F00C947A16089520
:100B60001092A3061092A20610929F0610929E0663
:100B700010929B0610929A06E4E9F6E084E0DF0109
:100B80001D928A95E9F710928B0610928A068FEFD4
:100B90009FEF909387068093860608950F931F9387
:100BA000CF93DF93EC0188819981009759F02A81D6
:100BB0003B812617370730F081E0DF91CF911F91FD
:100BC0000F9108958B016F5F7F4F0E94031700976D
:100BD00059F0998388831B830A832C813D81232BC1
:100BE00059F7FC011082E8CF80E0E7CFEF92FF9247
:100BF0000F931F93CF93DF938C017B01EB0109903F
:100C00000020E9F72197C61BD70BBE010E94CE0535
:100C1000811109C0C801DF91CF911F910F91FF9001
:100C2000EF900C949605F801D583C483B7018081B9
:100C30009181DF91CF911F910F91FF90EF900C94D4
:100C4000C9171F920F920FB60F9211242F933F9343
:100C50008F939F93AF93BF938091B9069091BA06FB
:100C6000A091BB06B091BC063091B80623E0230FDB
:100C70002D3758F50196A11DB11D2093B80680931C
:100C8000B9069093BA06A093BB06B093BC068091B8
:100C9000BD069091BE06A091BF06B091C006019618
:100CA000A11DB11D8093BD069093BE06A093BF0603
:100CB000B093C006BF91AF919F918F913F912F91BB
:100CC0000F900FBE0F901F90189526E8230F0296E5
:100CD000A11DB11DD2CF1F920F920FB60F921124FA
:100CE0008F939F938091E1009091E100937F909387
:100CF000E10083FF0FC01092E90091E09093EB00B8
:100D00001092EC0092E39093ED001092CE0698E0E2
:100D10009093F00082FF22C093E09093E9009091BD
:100D2000F200992319F09AE39093E8009091490614
:100D3000992341F090914906915090934906911161
:100D400001C05D9A9091CD06992341F09091CD0616
:100D500091509093CD06911101C0289A84FF18C03C
:100D60008091E2008E7E81608093E2008091E100BC
:100D70008F7E8093E10080914A068E7E8061809311
:100D80004A069F918F910F900FBE0F901F9018955C
:100D900080FFF7CF8091E2008E7E80618093E20039
:100DA0008091E1008E7E8093E10080914A068E7EE4
:100DB0008160E5CF1F920F920FB60F921124CF9250
:100DC000DF92EF92FF920F931F932F933F934F93D6
:100DD0005F936F937F938F939F93AF93BF93EF93A3
:100DE000FF93CF93DF93CDB7DEB76C97DEBFCDBF58
:100DF0001092E9008091E80083FF25C068E0CE01F1
:100E000045960E94010282EF8093E8008D8987FF5A
:100E100039C09091E80090FFFCCF982F907609F0B0
:100E200034C19E894F89588D2F89F88C911131C01A
:100E3000803861F580914B068093F1001092F100AB
:100E40008EEF8093E8006C960FB6F894DEBF0FBE6D
:100E5000CDBFDF91CF91FF91EF91BF91AF919F9166
:100E60008F917F916F915F914F913F912F911F9142
:100E70000F91FF90EF90DF90CF900F900FBE0F90EB
:100E80001F9018959EEF9093E800C7CF1092F10045
:100E9000D5CF913059F48111D3CF4130510581F62E
:100EA00080914B068D7F80934B06CACF933049F4D7
:100EB0008111C6CF4130510519F680914B068260F1
:100EC000F2CF953041F48091E80080FFFCCF20689C
:100ED0002093E300B5CF963009F0A9C00B8D1C8D8F
:100EE00022E01092E9001092470610924606F21294
:100EF0002EC010924506109244060E94D0011F8217
:100F000099E09983FA8291E09E8390EA98879AEF1C
:100F100099872091460630914706275F3F4F3C83D3
:100F20002B838D831092E90010924706109246069B
:100F3000109345060093440649E050E0BE016F5F00
:100F40007F4F80E00E94AA010E94D00179CF1093C8
:100F50004506009344060E94F700DC0112960D91AD
:100F60001C910115110509F451C1D801ED91FC91B5
:100F70000480F581E02DBE016B5E7F4FC8010995AD
:100F8000009709F03EC1F80100851185EACFF3E032
:100F9000FF120EC08F89882309F440C0823061F4AB
:100FA00040E862E18DE091E00E947701811148CF35
:100FB00081E28093EB0047CF813029F440E868E07C
:100FC00084E091E0F1CF833099F70E94F700DC01D3
:100FD0001296ED90FC908E010F5F1F4F6801E11497
:100FE000F10479F0D701ED91FC910680F781E02DB5
:100FF000B801C7010995080F111DF701E084F184BC
:10100000EECFD8011C92F60101900020E9F731974C
:10101000BF016C197D0940E0C601C6CF6EEE70E0DD
:10102000FB01449150E080E80E94AA0109CF97306B
:1010300009F4BECF983021F481E08093F10000CF15
:10104000993009F0FDCE837009F0B2CFE3E3F5E00B
:1010500081E031E096E32191222371F08093E90051
:101060003093EB00DF0111972C912093EC009093CB
:10107000ED008F5F873079F78EE78093EA0010925A
:10108000EA008F898093CE06DBCE8B8D9C8D1092EB
:10109000E900109247061092460690934506809309
:1010A0004406898D811192C08E899D89913A49F4B7
:1010B000813209F07DCF47E050E064E071E080E0EC
:1010C000B3CF913209F074CF833269F48F89988D50
:1010D000B0E0A0E08093000190930101A093020191
:1010E000B0930301ADCE803269F48091E80082FFB5
:1010F000FCCF67E084E091E00E9401028BEF8093D7
:10110000E8009ECE823209F09BCE8F8980930B013E
:10111000EEEFFFE7859194918B3F9C4D51F1E0E01C
:10112000F8E08091040190910501A0910601B09131
:101130000701803B9440A105B105F1F480910B01BA
:1011400080FD1AC0EE3F8AE0F80789F587E797E748
:1011500091838083809160008093480688E19BE0C2
:101160000FB6F894A895809360000FBE909360002E
:1011700067CEEEEFFAE0D5CF808191818737974730
:1011800009F05ECEA8958091600088618093600030
:101190008091480680936000EE3F2AE0F20789F0D4
:1011A0008091FE0A9091FF0A9183808349CE8081CD
:1011B00091818737980751F29093FF0A8093FE0A36
:1011C000C5CF1092FF0A1092FE0A3ACE0E94F70095
:1011D000DC0112960D911C910115110509F4E8CE60
:1011E000D801ED91FC910190F081E02DBE016B5E84
:1011F0007F4FC8010995811123CEF8010085118523
:10120000EBCF181619060CF41BCED2CEF1E0FF126C
:10121000BECE62EF70E004CF1F920F920FB60F9216
:1012200011242F938F939F93EF93FF9390917900C5
:10123000E0916706F0E0EB59F94F8081E091670695
:10124000F0E0E257F94F2081891710F4281720F0B9
:10125000981740F4821730F4E0916706F0E0E25707
:10126000F94F8083E0916706F0E0EB59F94F9083E6
:10127000809167068F5F8093670680916706823052
:1012800010F01092670690917C00E0916706F0E004
:10129000E75CFA4F80818770987F892B80937C0070
:1012A00080917A00806480937A00FF91EF919F9102
:1012B0008F912F910F900FBE0F901F9018951F9236
:1012C0000F920FB60F9211242F933F934F935F937A
:1012D0006F937F938F939F93AF93BF93EF93FF93FE
:1012E00020915406309155061092550610925406DE
:1012F000EFE6F0E09081977F9083C9010E944E0451
:10130000FF91EF91BF91AF919F918F917F916F91DD
:101310005F914F913F912F910F900FBE0F901F90B3
:1013200018951F920F920FB60F9211242F933F938F
:101330004F935F936F937F938F939F93AF93BF93DD
:10134000EF93FF93609156067091570661307105D7
:1013500009F044C0E0913E06F0913F0692819F3F24
:10136000D1F180819817B8F584E2989FE00DF11DC6
:10137000112483859485019771F54585568582E012
:1013800090E0909357068093560620911601309175
:10139000170180918A0090918B00241B350B220F3E
:1013A000331F280F391F30938B0020938A00CB0105
:1013B0000E944E04FF91EF91BF91AF919F918F9149
:1013C0007F916F915F914F913F912F910F900FBE41
:1013D0000F901F90189550E040E0D1CF80914E06BD
:1013E00090914F060097A9F0909357068093560668
:1013F00080914C0690914D0690938B0080938A00CB
:1014000010924F0610924E0610924D0610924C0606
:10141000CECF109257061092560690916F009B7F88
:1014200090936F00C4CF1F920F920FB60F921124AA
:101430002F933F934F935F936F937F938F939F93DC
:10144000AF93BF93EF93FF93609158067091590645
:101450006330710509F044C0E0913E06F0913F060B
:1014600094819F3FD1F180819817B8F584E2989FCD
:10147000E00DF11D112483859485019771F5458553
:10148000568584E090E09093590680935806209109
:101490001601309117018091880090918900241BDA
:1014A000350B220F331F280F391F309389002093EB
:1014B0008800CB010E944E04FF91EF91BF91AF9144
:1014C0009F918F917F916F915F914F913F912F915C
:1014D0000F900FBE0F901F90189550E040E0D1CFB5
:1014E00080915206909153060097A9F09093590667
:1014F00080935806809150069091510690938900F0
:101500008093880010925306109252061092510652
:1015100010925006CECF1092590610925806909114
:101520006F009D7F90936F00C4CF1F920F920FB6F4
:101530000F9211242F933F934F935F936F937F9359
:101540008F939F93AF93BF93EF93FF931092C1003C
:101550000E943104E2E7F0E080818F778083FF9181
:10156000EF91BF91AF919F918F917F916F915F911B
:101570004F913F912F910F900FBE0F901F90189594
:101580001F920F920FB60F9211242F933F934F93F8
:101590005F938F939F93EF93FF93589A20913C060C
:1015A00030913D0680913B0691E0980F90933B0669
:1015B00090E0880F991F820F931FFC018081918119
:1015C0002091390630913A06820F931F90933A0684
:1015D000809339064091BE005091BF009C01255078
:1015E000310942175307E8F49093BF008091390600
:1015F0008093CF008091720080648093720080910C
:1016000072008F7D80937200FF91EF919F918F9177
:101610005F914F913F912F910F900FBE0F901F90B0
:1016200018955898809114019091150120913906D0
:1016300030913A06820F931F90933A0680933906B1
:101640009093BF00809139068093D2008091720000
:1016500080688093720010927F06D1CF1F920F9204
:101660000FB60F9211242F933F938F939F93EF9375
:10167000FF93589880913B06909138062091390647
:1016800030913A06891780F5E0913C06F0913D06CD
:1016900091E0980F90933B0690E0880F991FE80F18
:1016A000F91F80819181820F931F90933A06809356
:1016B00039069093BF00809139068093D0008091C5
:1016C0007200806280937200809172008F7B8093A1
:1016D0007200FF91EF919F918F913F912F910F9009
:1016E0000FBE0F901F9018958091140190911501D5
:1016F000820F931F90933A06809339069093BF0010
:10170000809139068093D200809172008068809326
:10171000720010927F06D8CFEFECF6E013821282AF
:1017200088EE93E0A0E0B0E084839583A683B7833E
:101730008FE395E0918380838FEF9FEF9587848778
:10174000EFE1F7E011821082138212821582148277
:101750006FE475E0CF010C94F605CF93DF93CDB71E
:10176000DEB76F970FB6F894DEBF0FBECDBF78948B
:1017700084B5826084BD84B5816084BD85B5826096
:1017800085BD85B5816085BD80916E008160809347
:101790006E001092810080918100826080938100B0
:1017A00080918100816080938100809180008160C0
:1017B000809380008091910082608093910080915D
:1017C000910081608093910080919000816080936E
:1017D00090008091C10084608093C1008091C1001D
:1017E00082608093C1008091C10081608093C100BC
:1017F0008091C30081608093C3008091C0008260AB
:101800008093C0008091C20081608093C20080916B
:101810007A00846080937A0080917A00826080935D
:101820007A0080917A00816080937A0080917A00BA
:10183000806880937A001092CE0610924B06109228
:101840004A068091D70081608093D70080EA809318
:10185000D80089B5806189BD89B5826089BD09B428
:1018600000FEFDCF0E9430018091D8008F7C806106
:101870008093D8008091E000807F8093E000809189
:10188000E1008E7E8093E1008DE08093E200559A26
:10189000209A0FEF1FEF1093DC060093DB0680E524
:1018A00095E00E947B05509A519A259A219A579A61
:1018B000269A549A3E9A6E9A249A229A239A86E0FD
:1018C00080931A0188E59BE190931701809316019C
:1018D00084EF91E090931901809318018EE190E0DC
:1018E000909315018093140110927F0610925E066A
:1018F00010925D061092600610925F0610926206CA
:1019000010926106109264061092630610925C06B3
:1019100010925B0610925A061092590610925806C1
:1019200010925706109256061092550610925406C1
:1019300010925306109252061092510610925006C1
:1019400010924F0610924E0610924D0610924C06C1
:1019500010928200109281001092800010926F000D
:101960008FEF86BBF894109285001092840092E06D
:101970009093810078941092C0001092C100109250
:10198000C2001092C3001092720089BB10927E06B2
:101990001092A4061092A5061092A6061092A70611
:1019A0001092B0061092B3061092B5061092B406CB
:1019B00090E890930E0180EE80930D0180E2809379
:1019C0000C0144E659E160E070E04093100150934F
:1019D000110160931201709313011092B2061092DC
:1019E000B1068AE080930F01109276061092770676
:1019F0001092780610927906109268061092690685
:101A000010926A0610926B06109271061092700680
:101A1000109267061092720610926F0610926E0670
:101A200010926D0610926C061092A3061092A206F8
:101A300010929F0610929E0610929B0610929A0694
:101A4000E4E9F6E084E0DF011D928A95E9F710925F
:101A50007506109274061092660610926506109232
:101A60008F0610928E0610928B0610928A061093A3
:101A70008706009386062CE33CE33093830620938D
:101A80008206E0916706F0E0E75CFA4F808187709C
:101A9000806680937C0090937B008CED80937A002D
:101AA000FE0131966F0110E000E0FE2EED2CC80122
:101AB0000E946915D6018D936D010F5F1F4F0D3187
:101AC0001105A9F789819A81AB81BC818D339D4332
:101AD000AD43BD4309F040C08D81823009F0E9C1BA
:101AE0008E8180931A018F8198859093190180933C
:101AF000180189859A8590931701809316018B852B
:101B00009C8590931501809314018D859E85AF85EA
:101B1000B8898093100190931101A0931201B093A2
:101B20001301898980930F018D8980930E018E891D
:101B300080930D018F8980930C011092B606888DD9
:101B40008093B506898D8093B4068A8D8093B30601
:101B500089E595E00E947B058EE695E00E947B0575
:101B6000F0E02F2EF0E03F2E8091B70691E089271C
:101B70008093B706882309F4E4C12D9AECE06E2E19
:101B80008FEC96E00E94F602181619060CF020C39E
:101B90008FEC96E00E94B402D82E89831A820091BD
:101BA0002307109124070F5F1F4FB8018FE197E0C3
:101BB0000E94CE05882391F020911F0730912007C5
:101BC00080912307909124076F2D7E2D820F931F04
:101BD0000E94C9171093240700932307FAE0DF122D
:101BE000CFCF712C512C10E0C52CD12C1A82198228
:101BF0001C821B821E821D826CE775E08F2D9E2D3C
:101C00000E94F6058091230790912407C816D906F3
:101C100008F099C1A0901F07B090200769817A81D0
:101C2000C5018C0D9D1D0E94D017009709F48BC132
:101C30008A199B09082F8F2D9E2D0E94A8050F3F02
:101C400061F51A8219821C821B821E821D826EE43B
:101C500075E08F2D9E2D0E94F605809123079091AF
:101C60002407C816D90608F071C1A0901F07B090CC
:101C7000200769817A81C5018C0D9D1D0E94D017B6
:101C8000009709F463C18A199B09082F8F2D9E2D97
:101C90000E94A8050F3F09F473C0501608F070C0E9
:101CA000802E912C8C149D0420F0892D4601C02E8D
:101CB000D82E1A8219821C821B821E821D826FE41A
:101CC00075E08F2D9E2D0E94F605A0902307B09001
:101CD00024078A149B0480F5CA14DB0408F4560117
:101CE000E0911F07F0912007EA0DFB1D5080108244
:101CF000C0901F07D0902007C80CD91CC114D10474
:101D000079F0F60101900020E9F731974F018C1826
:101D10009D08B4018F2D9E2D0E94CE05811119C101
:101D20008F2D9E2D0E94960580911F079091200770
:101D3000A80EB91ED5015C9289819A81812C912CC3
:101D40005401009721F00E942D154B015C018F2D4D
:101D50009E2D0E94A80555245394500E111101C0C8
:101D6000782C711051C1B7FC0BC0113009F0F9C0CB
:101D7000B7E08B169104A104B10414F480921A0107
:101D80001F5F113109F030CF711061C181E895E01A
:101D90000E9487054AE06CE070E080E090E00E94DD
:101DA00037058CE795E00E94870580911A010E9413
:101DB00089058CE795E00E94870580911801909134
:101DC00019010E9490058CE795E00E94870580919B
:101DD0001601909117010E9490058CE795E00E94F2
:101DE000870580911401909115010E9490058CE760
:101DF00095E00E948705609110017091110180911A
:101E00001201909113014AE00E9437058CE795E09A
:101E10000E94870580910F010E9489058CE795E05B
:101E20000E94870580910E010E9489058CE795E04C
:101E30000E94870580910D010E9489058CE795E03D
:101E40000E94870580910C010E9489058CE795E02E
:101E50000E9487058091B6060E9489058CE795E06F
:101E60000E9487058091B5060E9489058CE795E060
:101E70000E9487058091B4060E9489058CE795E051
:101E80000E9487058091B3060E9489058CE795E042
:101E90000E9487058091B2060E9489058CE795E033
:101EA0000E9487058091B1060E9489050E94330532
:101EB000CAC0843008F44CCE9E8190931A012F81C1
:101EC0003885309319012093180129853A8530937C
:101ED0001701209316012B853C8530931501209323
:101EE00014014D855E856F8578894093100150936C
:101EF00011016093120170931301998990930F015E
:101F00009D8990930E019E8990930D019F899093D6
:101F10000C01988D9093B606998D9093B5069A8D85
:101F20009093B4069B8D9093B3068A3018F09C8DE5
:101F30009093B2068C3008F40BCE8D8D8093B10651
:101F400007CE2D981BCE8FEF9FEF74CE8FEF9FEFB4
:101F50009CCE9E828D82B60189819A810E94C9178A
:101F6000E3CE123029F4909219018092180108CF23
:101F7000133029F4909217018092160101CF14308A
:101F800029F49092150180921401FACE153049F48B
:101F90008092100190921101A0921201B09213014F
:101FA000EFCE163019F480920F01EACE173019F4F3
:101FB00080920E01E5CE183019F480920D01E0CE2A
:101FC000193019F480920C01DBCE1A3019F480928A
:101FD000B606D6CE1B3019F48092B506D1CE1C3091
:101FE00019F48092B406CCCE1D3019F48092B30659
:101FF000C7CE1E3019F48092B206C2CE1F3009F04F
:10200000BFCE8092B106BCCEE7E07E1252C0113046
:1020100009F0B6CEF3E08F169104A104B10408F0E4
:10202000AFCE87E090E081149104A104B10449F09F
:1020300088E090E08A9489288A288B2811F089E02A
:1020400090E00E944E048EE795E00E947B051A8284
:1020500019821C821B821E821D826FE475E08F2D07
:102060009E2D0E94F60580911F07909120070097F2
:1020700009F497C069817A816115710509F48FC0EF
:1020800040912107509122072D813E81421753072D
:1020900008F485C00E94C9178D819E819093240702
:1020A000809323071E821D828F2D9E2D0E94A805DE
:1020B00067CD38E0731263C08DE39DE3DC01898353
:1020C0009A83AB83BC836D8280911A018E83809149
:1020D00018019091190198878F8380911601909132
:1020E00017019A87898780911401909115019C8727
:1020F0008B878091100190911101A0911201B091F4
:1021000013018D879E87AF87B88B80910F0190E078
:10211000B0E0A0E0898B9A8BAB8BBC8B80910E01D9
:102120008D8B80910D018E8B80910C018F8B809116
:10213000B606888F8091B506898F8091B4068A8F04
:102140008091B3068B8F8091B2068C8F8091B106FF
:102150008D8FCF2CDE2C10E000E0D601BD906D01FC
:10216000C8010E946915B81621F06B2DC8010E94A4
:1021700071150F5F1F4F0D31110579F764CFBAE06C
:102180007B12FECD113009F0FBCDE2E08E169104FA
:10219000A104B10408F0F4CD8092B00654CF0E949F
:1021A0007A1689819A819093200780931F078B81EB
:1021B0009C8190932207809321078D819E8190932B
:1021C0002407809323071A8219821C821B826ACFFC
:1021D0008091B606882341F080917F068111ECC181
:1021E00080917E068111E8C180918E068E8F80914C
:1021F0008F068F8F10927A0610927B0610927C06C3
:1022000010927D068090760690907706A0907806D2
:10221000B090790681149104A104B10409F0D3C2ED
:1022200074E7472E76E0572E4E01FEE18F0E911C8B
:1022300010E000E03401AA24A394B02ED2013D9115
:102240002D01F801E257F94F8081F40181934F018C
:102250001092730690917206992381F1381770F5E8
:10226000F801EE57F94F9081891740F1A09273065B
:1022700080917106801329C090917006992329F1ED
:102280008A2590E0F301E80FF91F20812317E8F079
:102290008E57994FDC018C9190E0AC0134E055955C
:1022A00047953A95E1F79595879595958795840F8C
:1022B000951F281719064CF010927306013011056E
:1022C00009F4ADC001E010E0B8CF80917A0690919A
:1022D0007B06A0917C06B0917D06892B8A2B8B2BE7
:1022E00051F40E940B0160937A0670937B068093F1
:1022F0007C0690937D0610926F06809171068B117B
:1023000004C080917006811107C010926E06109271
:102310006D0610926C062EC0A0926E0680919E06ED
:1023200090919F06019690939F0680939E06C09081
:102330006C06D0906D06BFEFCB1ADB0AD0926D060B
:10234000C0926C068091B506882369F0C0FE0BC070
:10235000A0926F068DE895E00E9487058B2D0E9464
:1023600089050E9433058091B106882309F41EC2B5
:10237000A0926F0680916F068111A0CF40917A06DE
:1023800050917B0660917C0670917D0680911001D2
:1023900090911101A0911201B09113012A013B010A
:1023A000480E591E6A1E7B1E409276065092770692
:1023B000609278067092790622E0B695A795979577
:1023C00087952A95D1F7840F951FA61FB71F809375
:1023D000680690936906A0936A06B0936B06BB20CB
:1023E00009F4EFC15C9A80916E0681112A9AB0922D
:1023F000710681E08093700680916E0661E0811124
:1024000001C060E08B2D0E947804000F111FF801BD
:10241000EC56F94F80819181019691838083809160
:10242000B006882309F4A0C08EE0E1E2F1E0AF2D10
:10243000BE2D01900D928A95E1F780917A069091D8
:102440007B06A0917C06B0917D06892B8A2B8B2B75
:1024500051F40E940B0160937A0670937B0680937F
:102460007C0690937D0680916E06882309F4CEC188
:1024700080E990916F0638E0911101C030E09091B1
:10248000710624E0913009F020E0409176065091E9
:102490007706609178067091790692E0452B462B7D
:1024A000472B09F490E040917306842B832B822BF9
:1024B000892B8C8380916C0680688D832E8D822F72
:1024C0008695869580688E838F8DF0E22F9F900190
:1024D00011242076982F9695969596959068292B9D
:1024E0002F8340917A0650917B0660917C06709113
:1024F0007D068295807F282F2077DB01CA013CE191
:10250000B695A795979587953A95D1F7822B8068D0
:102510008887DB01CA01E5E1B695A7959795879570
:10252000EA95D1F780688987DB01CA01FEE0B6959C
:10253000A79597958795FA95D1F780688A87DB01EB
:10254000CA0117E0B695A795979587951A95D1F783
:1025500080688B8740684C874EE050E06F2D7E2D61
:102560008FEC96E00E940E022091A2063091A30605
:102570008E8D8093740690918A06981710F480933C
:102580008A0690918606891710F4809386068F8DAF
:102590008093750690918B06981710F480938B06A4
:1025A00090918706891710F4809387062E5F3F4F1E
:1025B0003093A3062093A206809068069090690647
:1025C000A0906A06B0906B0681149104A104B10436
:1025D000C1F180917A0690917B06A0917C06B09122
:1025E0007D06892B8A2B8B2B51F40E940B01609363
:1025F0007A0670937B0680937C0690937D0680918B
:102600007A0690917B06A0917C06B0917D06881594
:102610009905AA05BB05A8F088199909AA09BB095B
:1026200081159748A349B34060F410926806109250
:10263000690610926A0610926B0646985C982B9871
:102640002A9880917F06882309F4E2C08AE080936B
:102650007E060E940B014B015C018092AC069092B9
:10266000AD06A092AE06B092AF068091A8069091FA
:10267000A906A091AA06B091AB0688169906AA06EB
:10268000BB0608F42DC1A5019401281B390B4A0B88
:102690005B0BDA01C90181159748A349B34008F0E3
:1026A0001FC18091B406882309F4C7C18091A40694
:1026B0009091A506A091A606B091A706883C910529
:1026C000A105B10509F462C108F0C1C08B349105C0
:1026D000A105B10509F42FC108F0A3C08931910506
:1026E000A105B10509F457C082339105A105B105D3
:1026F00009F418C1892B8A2B8B2B09F0D7C0809144
:10270000A2069091A3069093A1068093A0068091C3
:102710009E0690919F0690939D0680939C068091C3
:102720009A0690919B0690939906809398068091C3
:1027300094069091950690939106809390068091CF
:102740008E0680938C0680918A06809388068091FD
:10275000860680938406809182068093800680910D
:102760009606909197069093930680939206809197
:102770008F0680938D0680918B06809389068091C9
:1027800087068093850680918306809381060E9448
:1027900010030E94B00581E995E00E9487058091B1
:1027A000A0069091A1060E94900580C08091B2067B
:1027B000882309F4DFCD8C151D0411F008F0D8CD65
:1027C000A6CD469A10CE0E940B0160937A067093B4
:1027D0007B0680937C0690937D06681579058A05B3
:1027E0009B0508F41CCE681979098A099B096115B3
:1027F00077488349934008F012CE109276061092E3
:102800007706109278061092790609CE80E831CECC
:1028100080917E06882309F41CCF80917E0681502A
:1028200016CF86399105A105B10509F49DC08F3AEF
:102830009105A105B10509F4A0C08D379105A10549
:10284000B105A1F587ED95E00E9487052FC08E3573
:1028500041E09407A105B10509F4B9C0C8F48A3F65
:102860009105A105B10509F498C08534E1E09E0702
:10287000A105B10509F4A8C0813E9105A105B105E6
:10288000A9F481E196E00E948705809184067BC0CF
:102890008039F1E09F07A105B10509F4A8C038F51A
:1028A00087379140A105B10509F49AC08091A4062B
:1028B0009091A506A091A606B091A7060196A11D2C
:1028C000B11D853FE1E09E07A105B10508F09DC05F
:1028D0008093A4069093A506A093A606B093A7069E
:1028E0002114310409F440C90E94000039C9893A11
:1028F00041E09407A105B10509F480C0823C9140F4
:10290000A105B10599F687E196E00E9487058091BF
:1029100081060E9489050E94330584EF91E0A0E0C2
:10292000B0E019C081EB95E00E94870580919C067C
:1029300090919D0638CF84EC95E00E9487058091A8
:102940009806909199060E9490050E94330584E6AE
:1029500090E0A0E0B0E08093A4069093A506A09339
:10296000A606B093A706A2CF83EF95E00E94870545
:10297000809190069091910616CF80E096E00E949B
:10298000870580918C060E94890590CF8AE096E0A9
:102990000E94870580918806F6CF87E196E00E9425
:1029A0008705809180060E9489050E9433052CE2EC
:1029B00031E040E050E02093A4063093A506409318
:1029C000A6065093A70672CF8DE196E03DCF83EF28
:1029D00095E00E9487058091920690919306E3CE40
:1029E00080E096E00E94870580918D06CCCF8AE03A
:1029F00096E00E94870580918906C5CF81E196E027
:102A00000E94870580918506BECF1092A406109281
:102A1000A5061092A6061092A706F0E48F0EFBE41E
:102A20009F1EFCE4AF1EB11C8092A8069092A906DE
:102A3000A092AA06B092AB0653CF0E9410030E9448
:102A4000B00520E4820E2BE4921E2CE4A21EB11CE1
:102A5000EBCF8FE197E00C94A8051F93FC01992719
:102A60008827BC01E89411911032E9F3193010F075
:102A70001E30C8F31B3251F01D3249F4689406C071
:102A80000E945415610F711D811D911D11911053EC
:102A90001A30B0F33EF490958095709561957F4F14
:102AA0008F4F9F4F1F910895592F482F372F262F53
:102AB000660F771F881F991F660F771F881F991F42
:102AC000620F731F841F951F660F771F881F991F42
:102AD0000895F999FECF92BD81BDF89A992780B5E6
:102AE0000895262FF999FECF1FBA92BD81BD20BD52
:102AF0000FB6F894FA9AF99A0FBE019608952F929C
:102B00003F924F925F926F927F928F929F92AF927D
:102B1000BF92CF92DF92EF92FF920F931F93CF93CA
:102B2000DF93CDB7DEB7CA1BDB0B0FB6F894DEBF61
:102B30000FBECDBF09942A88398848885F846E8487
:102B40007D848C849B84AA84B984C884DF80EE80D1
:102B5000FD800C811B81AA81B981CE0FD11D0FB6DA
:102B6000F894DEBF0FBECDBFED010895A1E21A2E8D
:102B7000AA1BBB1BFD010DC0AA1FBB1FEE1FFF1F21
:102B8000A217B307E407F50720F0A21BB30BE40B71
:102B9000F50B661F771F881F991F1A9469F76095B8
:102BA0007095809590959B01AC01BD01CF01089572
:102BB000EE0FFF1F0590F491E02D09940F931F93E2
:102BC000CF93DF938230910510F482E090E0E091A2
:102BD0002707F091280730E020E0B0E0A0E0309730
:102BE00099F42115310509F44AC0281B390B24300A
:102BF0003105D8F58A819B816115710589F1FB0149
:102C000093838283FE0111C040815181028113812F
:102C100048175907E0F04817590799F4109761F0E1
:102C200012960C93129713961C933296CF01DF9154
:102C3000CF911F910F9108950093270710932807B4
:102C4000F4CF2115310551F04217530738F0A9018F
:102C5000DB019A01BD01DF01F801C1CFEF01F9CF1E
:102C60009093280780932707CDCFFE01E20FF31F33
:102C7000819391932250310939832883D7CF2091B2
:102C8000250730912607232B41F420911D01309117
:102C90001E01309326072093250720911B013091B8
:102CA0001C012115310541F42DB73EB740911F019C
:102CB00050912001241B350BE0912507F091260748
:102CC000E217F307A0F42E1B3F0B2817390778F003
:102CD000AC014E5F5F4F2417350748F04E0F5F1F62
:102CE0005093260740932507819391939FCFF0E05F
:102CF000E0E09CCFCF93DF930097E9F0FC0132979F
:102D000013821282A0912707B0912807ED0130E0CD
:102D100020E01097A1F420813181820F931F209130
:102D20002507309126072817390709F061C0F0936D
:102D30002607E0932507DF91CF910895EA01CE178A
:102D4000DF07E8F54A815B819E0141155105B1F726
:102D5000E901FB83EA8349915991C40FD51FEC1710
:102D6000FD0761F4808191810296840F951FE9012E
:102D700099838883828193819B838A83F0E0E0E05A
:102D800012968D919C9113970097B9F52D913C91D6
:102D90001197CD010296820F931F20912507309144
:102DA00026072817390739F6309751F5109228076A
:102DB00010922707B0932607A0932507BCCFD38393
:102DC000C28340815181840F951FC817D90761F4D0
:102DD0004E5F5F4F88819981480F591F518340830F
:102DE0008A819B81938382832115310509F0B0CFBD
:102DF000F0932807E09327079ECFFD01DC01C0CFA9
:102E000013821282D7CFB0E0A0E0E9E0F7E10C94A2
:102E100081158C01009751F4CB010E94DE158C01C5
:102E2000C801CDB7DEB7E0E10C949D15FC01E60FBB
:102E3000F71F9C0122503109E217F30708F49DC0E7
:102E4000D901CD91DC911197C617D70798F0C530FD
:102E5000D10530F3CE0104978617970708F3C61BF8
:102E6000D70B2297C193D1936D937C93CF010E948E
:102E70007A16D6CF5B01AC1ABD0A4C018C0E9D1E92
:102E8000A0912707B0912807512C412CF12CE12C5F
:102E9000109731F58091250790912607881599059F
:102EA00009F05CC04616570608F058C080911B0117
:102EB00090911C01009741F48DB79EB740911F017E
:102EC00050912001841B950BE817F90708F055C0B5
:102ED000F0932607E0932507F90171836083A0CF63
:102EE0008D919C91119712966C90129713967C90ED
:102EF0001397A815B90559F56C0142E0C40ED11C11
:102F0000CA14DB0420F1AC014A195B09DA011296FC
:102F1000159780F06282738251834083D9016D934B
:102F20007C93E114F10471F0D7011396FC93EE93B6
:102F3000129776CF22968C0F9D1FF9019183808383
:102F4000F301EFCFF0932807E093270769CF4816E6
:102F5000590608F42C017D01D3019ACFCB010E94C0
:102F6000DE157C01009749F0AE01B8010E94C01740
:102F7000C8010E947A16870153CF10E000E050CFBD
:102F8000FB01DC0102C001900D9241505040D8F786
:102F90000895FB01DC0101900D920020E1F70895F6
:102FA000FB0151915523A9F0BF01DC014D9145175B
:102FB0004111E1F759F4CD010190002049F04D9104
:102FC00040154111C9F3FB014111EFCF81E090E0C1
:102FD0000197089510E0C1E9D0E004C0FE010E940D
:0E2FE000D8152196C239D107C9F7F894FFCF52
:102FEE00FFFFFFFF00E100000000000020E0800A6C
:102FFE00641900001E00581BF4010600002907800A
:10300E00002B6F200000000000000000000D0A09D8
:10301E00FF0001020304050607080000DC0007009C
:10302E001400140014003C0014003C0014000000B6
:10303E000000000000000000000000000000000082
:10304E00DC00070014003C0014003C0014001400C7
:10305E00140000000000000000000000000000004E
:10306E0000000000DC00070014003C0014001400F7
:10307E0014003C00140000000000000000000000DE
:10308E000000000000000000DC0007001400140027
:10309E00140064001400140014000000000000006E
:1030AE00000000000000000000000000DC0007002F
:1030BE001400640014001400140014001400000026
:1030CE0000000000000000000000000000000000F2
:1030DE00040107001400640014003C0014001400E6
:1030EE0014000000000000000000000000000000BE
:1030FE0000000000900107001400C80014006400D6
:10310E001400C800140000000000000000000000C1
:10311E000000000000000000680107001400C80055
:10312E0014003C001400C800140000000000000051
:10313E000000000000000000000000004001070039
:10314E001400C800140014001400C800140000007D
:10315E00000000000000000000000000000009FF59
:10316E000001020300000000000000DC0007001454
:10317E0000140014003C0014003C00140000000079
:10318E00000000000000000000000000000000DC55
:10319E0000070014003C0014003C0014001400143E
:1031AE000000000000000000000000000000000011
:1031BE00000000DC00070014003C00140014001492
:1031CE00003C0014000000000000000000000000A1
:1031DE0000000000000000DC0007001400140014C2
:1031EE000064001400140014000000000000000031
:1031FE0000000000000000000004FF00010203FFB9
:10320E00FFFFFFFF00001C02090014001400140051
:10321E00140014007C0114001400140000000000BF
:10322E0000000000000000000000CC0109001400A6
:10323E0014001400140014002C01140014001400C7
:10324E0000000000000000000000000000007C01F3
:10325E00090014001400140014001400DC00140003
:10326E001400140000000000000000000000000028
:10327E0000002C01090014001400140014001400A6
:10328E008C00140014001400000000000000000068
:10329E000000000002FF00FF01FFFFFFFFFFFF0025
:1032AE00001C020F0014001400140014001400502F
:1032BE000014008C001400140014005000140014AC
:1032CE000014000000B8010F0014001400140014C4
:1032DE000014003C0014003C0014001400140050B4
:1032EE000014001400140004FF00010203FFFFFF8E
:1032FE00FFFF01006400030017002E001F000000F6
:10330E0000000000000000000000000000000000AF
:10331E0000000000000001008D00030017004E00A9
:10332E002800000000000000000000000000000067
:10333E000000000000000000000001002B00010052
:10334E002B00000000000000000000000000000044
:10335E00000000000000000000000000000001005E
:10336E0044000300170015001800000000000000C4
:10337E00000000000000000000000000000000003F
:10338E00000002FF00FF01FFFFFFFFFFFF00005ED6
:10339E0000050012001400120014001200000000BC
:1033AE00000000000000000000000000000000000F
:1033BE000000006000030012003C0012000000003C
:1033CE0000000000000000000000000000000000EF
:1033DE00000000000001FF00FFFFFFFFFFFFFFFFE7
:1033EE000000420005000E000C000E000C000E0046
:1033FE0000000000000000000000000000000000BF
:10340E0000000000F504A2040704B40319037E02B1
:10341E002F0100C180810000000706000000008F10
:10342E00020E02B002A502F602B402D2020D0A008A
:10343E002B7374617274757000656570726F6D2098
:10344E00726561645F73657474696E677300696E2B
:10345E00697420636F6D706C657465002C004F4B42
:10346E0000706172616D657465727320002B64204B
:10347E00002B73746174732067656E6572616C20C6
:10348E0072656164696E675F636F756E7465723ABB
:10349E0000206475706C69636174655F6672616D3E
:1034AE0065733A00207072656D61747572655F6642
:1034BE0072616D65733A002B73746174732073655A
:1034CE006E736F72206368616E6E656C3A726967B7
:1034DE0068740020646574656374696F6E733A0076
:1034EE002072656164696E673A0020686967683AA0
:1034FE0000206C6F773A00207468723A002B737458
:10350E006174732073656E736F72206368616E6E83
:08351E00656C3A6C65667400EF
:00000001FF
