:100000000C9492000C94BA000C94BA000C94BA00B0
:100010000C94BA000C94BA000C94BA000C94BA0078
:100020000C94BA000C94BA000C945F070C94CE07A1
:100030000C94BA000C94BA000C94BA000C94BA0058
:100040000C94BA000C94BA000C94270B0C945B0A25
:100050000C94BA000C94BA000C94BA000C941507D6
:100060000C94BA000C94BA000C94BA000C94BA0028
:100070000C94BA000C94000A0C94BA000C94BA00C8
:100080000C94BA000C94BA000C94BA000C94BA0008
:100090000C94BA000C94BA000C948F0C0C941F0CA6
:1000A0000C94F40B0C94BA000C94BA00080B0002E8
:1000B0000202000009040000010202000005240001
:1000C0001001052401010104240206052406000193
:1000D0000705810310004009040100020A00000026
:1000E00007050202400000070583024000000403E8
:1000F000090412010002EF0201404F1B06920001A9
:1001000001020301537061726B46756E005370619A
:10011000726B46756E2050726F204D6963726F006E
:10012000EF0C241711241FBECFEFDAE0DEBFCDBFE6
:1001300027E0A0E5B6E001C01D92A735B207E1F7C0
:1001400016E0A0E0B1E0E4EEF3E302C005900D920A
:10015000A035B107D9F710E0C1E9D0E004C021977C
:10016000FE010E94D317C039D107C9F70E94100DB4
:100170000C94E5190C9400002FB7F89483E0809359
:10018000E9009091E800892F807295FF04C090915A
:10019000F20080E4891B2FBF0895FC018091FC06CA
:1001A000882311F13FB7F89482E08093E900209111
:1001B000F200822F90E01816190614F481E090E006
:1001C000882339F0289844E64093FB064091F100DB
:1001D0004083222339F02091F200211103C02BE645
:1001E0002093E8003FBF08958FEF9FEF089580911F
:1001F000F30681110DC082E08093EF0684E08093C6
:10020000F0061092F2061092F10681E08093F30658
:100210008FEE96E008953FB7F8948091EB069091A9
:10022000EC06A091ED06B091EE0626B5A89B05C0A0
:100230002F3F19F00196A11DB11D3FBFBA2FA92F65
:10024000982F8827BC01CD01620F711D811D911D62
:1002500042E0660F771F881F991F4A95D1F70895CE
:10026000CF92DF92EF92FF920E940B016B017C0113
:100270000E940B016C197D098E099F09683E73402D
:1002800081059105A8F3FF90EF90DF90CF9008953E
:100290000895409162065091630620916006309166
:1002A000610642175307B4F49091E8009570E1F3AA
:1002B0009091E80092FD19C08093F1008091620650
:1002C0009091630601968F739927892B19F48EEF0D
:1002D0008093E80080916206909163060196909366
:1002E00063068093620681E0089580E00895EF92AE
:1002F000FF920F931F93CF93DF93F82E192FE62EC3
:10030000042F81E0860F880F0E94490183E00E943C
:100310004901CF2DD12FEC0EFD2EF11CCE15DF059E
:10032000B9F007FF13C0FE0184910E944901182F04
:1003300080E00E944901812321968111EFCFDF9156
:10034000CF911F910F91FF90EF9008958881EDCF8D
:1003500081E0F5CFDF92EF92FF920F931F93CF933F
:10036000DF93D82E8A01EB017B01E40EF51ECE153A
:10037000DF0559F0D7FE12C0FE0184910E944901A9
:1003800021968111F4CF0FEF1FEFC801DF91CF91BC
:100390001F910F91FF90EF90DF9008958881EECF2D
:1003A0000F931F93CF93DF931F92CDB7DEB782E0F9
:1003B000898342E450E06CEA70E080E80E94AA0180
:1003C0000E94F700DC0112960D911C910115110598
:1003D00089F0D801ED91FC910280F381E02DBE01FE
:1003E0006F5F7F4FC801099597FD04C0F801008534
:1003F0001185ECCF89810F90DF91CF911F910F91E3
:100400000895615030F02091F100FC0120830196A5
:10041000F8CF289884E68093FB0608958F929F92E8
:10042000AF92BF92CF92DF92EF92FF920F931F9302
:10043000CF93DF936C017B018A0180910B018823AC
:1004400009F458C08091FC06882309F453C08091B8
:10045000660680FF05C08091E00082608093E00026
:10046000E801B12C8AEFA82E93E0892E2AE3922E80
:10047000209711F4BB20B9F10E94BC00811106C085
:10048000AA94AA20B9F10E943001F2CF8C171D0660
:1004900011F00CF08C2F9FB7F8948092E900209116
:1004A000E80025FD02C09FBFE3CF282F30E0C21B2C
:1004B000D30BF701815020F041914093F100FACF26
:1004C000E20EF31EBB2021F09092E800B12CEBCF9E
:1004D0008091E80085FDE7CF9092E800BB24B394BB
:1004E000209709F3F3CF5D9884E680936506101694
:1004F00011063CF081E090E0F6019383828310E0E6
:1005000000E0C801DF91CF911F910F91FF90EF9014
:10051000DF90CF90BF90AF909F908F900895CF9332
:10052000DF931F92CDB7DEB76983DC01ED91FC91BB
:100530000280F381E02D41E050E0BE016F5F7F4F0C
:1005400009950F90DF91CF91089583E08093E900A2
:100550008091F200882319F08AE38093E8000895DF
:100560000E94BC0090E00895CF93DF931F92CDB717
:10057000DEB7FC018485958597FD08C02FEF3FEF1E
:10058000358724870F90DF91CF910895CE01019692
:100590000E94CD00019719F4898190E0F3CF8FEF8D
:1005A0009FEFF0CF0F931F93CF93DF931F92CDB7A1
:1005B000DEB78C01FC018485958597FF0BC0CE01C9
:1005C00001960E94CD00019771F4898190E0F801B5
:1005D00095878487F801848595850F90DF91CF9169
:1005E0001F910F9108958FEF9FEFF1CFFC0184854C
:1005F000958597FD0BC09FB7F89482E08093E90042
:100600008091F2009FBF90E0019608959FB7F89403
:1006100082E08093E9008091F2009FBF90E008950E
:10062000CF93C0910F01F0910E018FEF90E0DC01AC
:10063000AF1BB10950910D01851B9109E091BC06DA
:1006400041E0EC1708F440E02091B80630E0A29FAA
:10065000B001A39F700DB29F700D1124FE9F600D1D
:10066000711D11247093B406829FB001839F700D99
:10067000929F700D11245E9F600D711D1124709367
:10068000B006E091BD06EC1708F440E02091B906F1
:1006900030E0A29FB001A39F700DB29F700D112496
:1006A000FE9F600D711D11247093B506289FB00147
:1006B000299F700D389F700D1124E59F600D711DED
:1006C00011247093B1064093A306CF910895CF9261
:1006D000DF92EF92FF922091DB063091DC0621152C
:1006E000310501F1C090E106D090E206C114D104B9
:1006F000C9F0F12CE12C50E040E02A5B3F4F4F4F16
:100700005F4F60E472E48FE090E00E94B117C70190
:10071000B6010E94B11720939606FF90EF90DF90EC
:10072000CF90089510929606F8CF9091DE0621E0C2
:1007300030E0981711F023E030E0E0911A01F0E08A
:10074000EE0FFF1FED5CFA4F4081518150935F0621
:1007500040935E06E0915E06F0915F06E20FF31FA4
:100760009181E0915E06F0915F064081491710F09B
:100770009F3FD1F49091DE062AE030E0981711F007
:100780002BE030E0E0915E06F0915F06E20FF31F90
:100790008181E0915E06F0915F069081981708F4E0
:1007A0006CC18F3F09F469C1F89440918400509165
:1007B00085008091DD06813009F0DDC010926B0666
:1007C00010926A06660F771F709369066093680639
:1007D000809181008860809381008091680690916B
:1007E00069069093890080938800809168069091B3
:1007F000690660917806709179068617970720F44C
:1008000010927906109278066091740670917506C0
:100810008617970720F410927506109274068417B5
:10082000950730F4109285001092840050E040E06B
:1008300078948091180190911901880F991F840F65
:10084000951F60915E0670915F0640915C06509125
:100850005D0664177507A1F010927B0610927A0668
:1008600040916F004B7F40936F00B29A10927706D1
:100870001092760640916F00477F40936F00B39AC5
:1008800040915E0650915F0650935D0640935C0672
:10089000E0915C06F0915D06E20FF31F41814F3F4E
:1008A000C9F0E0915C06F0915D065081451790F427
:1008B000E0915C06F0915D0654E2459FE00DF11D6C
:1008C0001124458556854130510521F447855089CD
:1008D000841B950B40916806509169066091DD0676
:1008E000613021F44817590708F44BC04091DD06E8
:1008F000413009F049C040916F004B7F40936F0039
:1009000040916F00477F40936F0010927B061092DA
:100910007A0610927706109276062330310509F098
:1009200071C0F89490938B0080938A00B29A4091A2
:100930006F00446040936F0030937B0620937A06EB
:1009400030935B0620935A0690937906809378063D
:100950004091DD06413069F42B303105C1F121E0D1
:1009600030E0309359062093580690937506809393
:1009700074067894089580918100877F8093810028
:1009800057CF841B950BAACF2330310521F02B3094
:10099000310509F03BC040917A0650917B06452B0A
:1009A00009F4BFCF4091DD06411167C04091720646
:1009B00050917306452B09F060C0F894309373068C
:1009C000209372069093710680937006D2CF2AE02E
:1009D00030E0C7CF2BE030E047C04091DD06411149
:1009E0004CC040916E0650916F06452B09F045C0F2
:1009F000F89430936F0620936E0690936D06809363
:100A00006C06B7CF2B30310509F48BCF213031057F
:100A100019F02A30310589F5409176065091770614
:100A2000452BD9F6F89490938D0080938C00B39A5F
:100A300040916F00486040936F0030937706209399
:100A40007606309359062093580690937506809346
:100A500074064091DD06413009F08BCF2A30310514
:100A600009F4B8CF23E030E030935B0620935A06B8
:100A700090937906809378067CCF089520915C0648
:100A800030915D0630935106209350062091500618
:100A900030915106820F931FFC0191819F3F09F411
:100AA0005EC0E0915006F09151068081981708F0E1
:100AB00056C02091500630915106F4E29F9FC0012C
:100AC0001124AC014D5E5F4F420F531F50935706E8
:100AD0004093560641E040935506820F931FFC0158
:100AE0008189809352064093AD06F8941092BF001E
:100AF0001092BF001092BE0083E08093BF008FEF82
:100B00008093D100E0915606F09157068081918143
:100B10009093540680935306009719F580915506DB
:100B200090915206891780F591E0980F90935506A1
:100B300090E0880F991FE80FF91F908181819093B1
:100B40005306809354068093BF0080915306809390
:100B5000D000809172008062809372000EC00C946D
:100B6000DA059093BF00809153068093CF00809167
:100B70007200806480937200589A8FEF89BB85E081
:100B80008093C1007894089580911401909115018B
:100B900090935406809353069093BF008091530620
:100BA0008093D200809172008068809372001092CE
:100BB000AD06E3CF90917E0680917D069817A1F057
:100BC000E0917E06F0E0EE0FFF1FE158F94F8081C3
:100BD000918120917E0630E02F5F3F4F23703327B5
:100BE00020937E060C943E0510927C060895209179
:100BF0007C06222301F1F89420917D0640917E0627
:100C000030E02F5F3F4F237033274217130689F0E0
:100C1000E0917D06F0E0EE0FFF1FE158F94F918360
:100C2000808380917D0690E0019683709927809360
:100C30007D06789408950E943E0581E080937C06AD
:100C40000895FC0101900020E9F73197AF01481B9E
:100C5000590BBC018DEF96E00C940E028CE595E0EB
:100C60000C9421068F929F92AF92BF920F931F9385
:100C7000CF93DF93CDB7DEB7A1970FB6F894DEBF61
:100C80000FBECDBF19A2423008F44AE08E010F5DBD
:100C90001F4F842E912CB12CA12CA50194010E94F0
:100CA000B117E62FB901CA01EA30F4F4E05DD801CA
:100CB000EE938D01232B242B252B79F790E080E0F8
:100CC000109719F0CD010E942106A1960FB6F89455
:100CD000DEBF0FBECDBFDF91CF911F910F91BF90AF
:100CE000AF909F908F900895E95CE1CFCF93DF9311
:100CF0000E942106EC010E942E068C0F9D1FDF91A1
:100D0000CF9108950C942106682F70E090E080E068
:100D10004AE00C943206BC0190E080E04AE00C947A
:100D20003206CF93DF93EC0188819981009711F00F
:100D30000E947518198218821D821C821B821A82D9
:100D4000DF91CF910895FC0180819181009711F08E
:100D50000C94751808951092CD061092CC0610923E
:100D6000C9061092C8061092C5061092C4061092C9
:100D7000BD061092BC068FEF9FEF9093B90680934B
:100D8000B80608950F931F93CF93DF93EC018881EA
:100D90009981009759F02A813B812617370730F057
:100DA00081E0DF91CF911F910F9108958B016F5FCB
:100DB0007F4F0E94FE18009759F0998388831B8308
:100DC0000A832C813D81232B59F7FC011082E8CF47
:100DD00080E0E7CFEF92FF920F931F93CF93DF93C3
:100DE0008C017B01EB0109900020E9F72197C61BDC
:100DF000D70BBE010E94C206811109C0C801DF9154
:100E0000CF911F910F91FF90EF900C949106F801F4
:100E1000D583C483B70180819181DF91CF911F91E8
:100E20000F91FF90EF900C94C4191F920F920FB680
:100E30000F9211242F933F938F939F93AF93BF9360
:100E40008091E7069091E806A091E906B091EA0644
:100E50003091E60623E0230F2D3758F50196A11DAA
:100E6000B11D2093E6068093E7069093E806A093D1
:100E7000E906B093EA068091EB069091EC06A0910A
:100E8000ED06B091EE060196A11DB11D8093EB0613
:100E90009093EC06A093ED06B093EE06BF91AF9150
:100EA0009F918F913F912F910F900FBE0F901F90A8
:100EB000189526E8230F0296A11DB11DD2CF1F92CF
:100EC0000F920FB60F9211248F939F938091E100A0
:100ED0009091E100937F9093E10083FF0FC0109207
:100EE000E90091E09093EB001092EC0092E3909374
:100EF000ED001092FC0698E09093F00082FF22C073
:100F000093E09093E9009091F200992319F09AE30D
:100F10009093E80090916506992341F090916506C1
:100F2000915090936506911101C05D9A9091FB06D6
:100F3000992341F09091FB0691509093FB069111FB
:100F400001C0289A84FF18C08091E2008E7E8160E3
:100F50008093E2008091E1008F7E8093E100809198
:100F600066068E7E8061809366069F918F910F90BA
:100F70000FBE0F901F90189580FFF7CF8091E20071
:100F80008E7E80618093E2008091E1008E7E80936E
:100F9000E100809166068E7E8160E5CF1F920F9200
:100FA0000FB60F921124CF92DF92EF92FF920F9320
:100FB0001F932F933F934F935F936F937F938F93E1
:100FC0009F93AF93BF93EF93FF93CF93DF93CDB7EF
:100FD000DEB76C97DEBFCDBF1092E9008091E800CC
:100FE00083FF25C068E0CE0145960E94010282EF92
:100FF0008093E8008D8987FF39C09091E80090FFC9
:10100000FCCF982F907609F034C19E894F89588D76
:101010002F89F88C911131C0803861F58091670675
:101020008093F1001092F1008EEF8093E8006C96AF
:101030000FB6F894DEBF0FBECDBFDF91CF91FF9109
:10104000EF91BF91AF919F918F917F916F915F9140
:101050004F913F912F911F910F91FF90EF90DF9053
:10106000CF900F900FBE0F901F9018959EEF90930A
:10107000E800C7CF1092F100D5CF913059F481111B
:10108000D3CF4130510581F6809167068D7F8093E3
:101090006706CACF933049F48111C6CF413051055C
:1010A00019F6809167068260F2CF953041F4809105
:1010B000E80080FFFCCF20682093E300B5CF963096
:1010C00009F0A9C00B8D1C8D22E01092E90010924E
:1010D000630610926206F2122EC010926106109200
:1010E00060060E94D0011F8299E09983FA8291E004
:1010F0009E8390EA98879AEF9987209162063091B3
:101100006306275F3F4F3C832B838D831092E9005A
:1011100010926306109262061093610600936006B7
:1011200049E050E0BE016F5F7F4F80E00E94AA015E
:101130000E94D00179CF10936106009360060E944F
:10114000F700DC0112960D911C910115110509F4AF
:1011500051C1D801ED91FC910480F581E02DBE01D3
:101160006B5E7F4FC8010995009709F03EC1F801F9
:1011700000851185EACFF3E0FF120EC08F89882326
:1011800009F440C0823061F440E862E18DE091E012
:101190000E947701811148CF81E28093EB0047CF15
:1011A000813029F440E868E084E091E0F1CF8330B9
:1011B00099F70E94F700DC011296ED90FC908E01E9
:1011C0000F5F1F4F6801E114F10479F0D701ED9131
:1011D000FC910680F781E02DB801C7010995080F41
:1011E000111DF701E084F184EECFD8011C92F601C5
:1011F00001900020E9F73197BF016C197D0940E0AB
:10120000C601C6CF6EEE70E0FB01449150E080E86D
:101210000E94AA0109CF973009F4BECF983021F47B
:1012200081E08093F10000CF993009F0FDCE83700A
:1012300009F0B2CFE2E4F5E081E031E096E32191FC
:10124000222371F08093E9003093EB00DF011197C6
:101250002C912093EC009093ED008F5F873079F70D
:101260008EE78093EA001092EA008F898093FC0653
:10127000DBCE8B8D9C8D1092E9001092630610924C
:1012800062069093610680936006898D811192C0F9
:101290008E899D89913A49F4813209F07DCF47E0EA
:1012A00050E064E071E080E0B3CF913209F074CF98
:1012B000833269F48F89988DB0E0A0E080930001BB
:1012C00090930101A0930201B0930301ADCE80324F
:1012D00069F48091E80082FFFCCF67E084E091E050
:1012E0000E9401028BEF8093E8009ECE823209F0CB
:1012F0009BCE8F8980930B01EEEFFFE78591949150
:101300008B3F9C4D51F1E0E0F8E080910401909119
:101310000501A0910601B0910701803B9440A10511
:10132000B105F1F480910B0180FD1AC0EE3F8AE017
:10133000F80789F587E797E79183808380916000BC
:101340008093640688E19BE00FB6F894A89580939B
:1013500060000FBE9093600067CEEEEFFAE0D5CF4D
:10136000808191818737974709F05ECEA89580915B
:1013700060008861809360008091640680936000C3
:10138000EE3F2AE0F20789F08091FE0A9091FF0A71
:101390009183808349CE808191818737980751F26C
:1013A0009093FF0A8093FE0AC5CF1092FF0A109215
:1013B000FE0A3ACE0E94F700DC0112960D911C91B4
:1013C0000115110509F4E8CED801ED91FC910190C9
:1013D000F081E02DBE016B5E7F4FC8010995811140
:1013E00023CEF80100851185EBCF181619060CF4F1
:1013F0001BCED2CEF1E0FF12BECE62EF70E004CF82
:101400001F920F920FB60F9211242F938F939F93D9
:10141000EF93FF93909179008091DF06E091890628
:10142000F0E0813009F044C0E957F94F8081E09144
:101430008906F0E0E054F94F2081891710F428174D
:1014400020F0981740F4821730F4E0918906F0E01C
:10145000E054F94F8083E0918906F0E0E957F94FB5
:101460009083809189068F5F809389068091890699
:10147000823010F01092890690917C00E0918906EC
:10148000F0E0E85BFA4F80818770987F892B80932A
:101490007C0080917A00806480937A00FF91EF91C4
:1014A0009F918F912F910F900FBE0F901F901895C5
:1014B000E054F94FD5CF1F920F920FB60F9211241F
:1014C0002F933F934F935F936F937F938F939F934C
:1014D000AF93BF93EF93FF93809176069091770639
:1014E0008130910509F05CC0E0915C06F0915D06E9
:1014F00022812F3F09F44BC0E0915C06F0915D061C
:101500003081231708F043C0E0915C06F0915D063E
:1015100034E2239FE00DF11D11242585368521300D
:101520003105A9F56785708922E030E030937706B0
:101530002093760620918C0030918D004091160109
:1015400050911701461B570B440F551F240F351F91
:1015500040916806509169066091DD066130D1F0D6
:1015600030938D0020938C000E94F705FF91EF913E
:10157000BF91AF919F918F917F916F915F914F91AB
:101580003F912F910F900FBE0F901F90189570E014
:1015900060E0CACF4217530718F7241B350BDCCF86
:1015A0002091DD06213029F49C01277F223031056E
:1015B00071F02091DD06222371F1109277061092CE
:1015C000760620916F00277F20936F00CDCF20916A
:1015D0006A0630916B06203A310578F72F5F3F4F4E
:1015E00030936B0620936A0620915A0630915B0671
:1015F00030937B0620937A06209178063091790605
:1016000030938B0020938A00B29A20916F0024605F
:1016100020936F00D2CF20916E0630916F06211576
:10162000310559F2309377062093760620916C06A7
:1016300030916D0630938D0020938C0010926F06D0
:1016400010926E0610926D0610926C068DCF1F924E
:101650000F920FB60F9211242F933F934F935F93E6
:101660006F937F938F939F93AF93BF93EF93FF936A
:1016700080917A0690917B068330910509F05CC0D9
:10168000E0915C06F0915D0624812F3F09F44BC088
:10169000E0915C06F0915D063081231708F043C0AD
:1016A000E0915C06F0915D0634E2239FE00DF11DB0
:1016B00011242585368521303105A9F56785708986
:1016C00024E030E030937B0620937A0620918A0054
:1016D00030918B004091160150911701461B570B1A
:1016E000440F551F240F351F40916806509169061D
:1016F0006091DD066130D1F030938B0020938A0039
:101700000E94F705FF91EF91BF91AF919F918F914B
:101710007F916F915F914F913F912F910F900FBEED
:101720000F901F90189570E060E0CACF42175307E2
:1017300018F7241B350BDCCF2091DD06213031F466
:101740008430910589F08B30910571F02091DD0690
:10175000222371F110927B0610927A0620916F007D
:101760002B7F20936F00CCCF20916A0630916B06BF
:10177000203A310578F72F5F3F4F30936B06209367
:101780006A062091580630915906309377062093C7
:101790007606209174063091750630938D00209363
:1017A0008C00B39A20916F00286020936F00D2CFF5
:1017B00020917206309173062115310559F230934C
:1017C0007B0620937A062091700630917106309343
:1017D0008B0020938A00109273061092720610926A
:1017E0007106109270068CCF1F920F920FB60F9257
:1017F00011242F933F934F935F936F937F938F9316
:101800009F93AF93BF93EF93FF931092C1000E94F9
:10181000DA05E2E7F0E080818F778083FF91EF9136
:10182000BF91AF919F918F917F916F915F914F91F8
:101830003F912F910F900FBE0F901F9018951F9200
:101840000F920FB60F9211242F933F934F935F93F4
:101850008F939F93EF93FF93589A20915606309160
:1018600057068091550691E0980F9093550690E0A9
:10187000880F991F820F931FFC0180819181209115
:10188000530630915406820F931F90935406809311
:1018900053064091BE005091BF009C012550310974
:1018A00042175307F0F49093BF00CE9A80915306ED
:1018B0008093CF0080917200806480937200809149
:1018C00072008F7D80937200FF91EF919F918F91B5
:1018D0005F914F913F912F910F900FBE0F901F90EE
:1018E00018955898809114019091150120915306F4
:1018F00030915406820F931F9093540680935306A1
:101900009093BF00CF9A809153068093D20080912C
:1019100072008068809372001092AD06D0CF1F9243
:101920000F920FB60F9211242F933F938F939F9393
:10193000EF93FF935898809155069091520620910D
:10194000530630915406891788F5E0915606F091B8
:10195000570691E0980F9093550690E0880F991FD5
:10196000E80FF91F80819181820F931F9093540695
:10197000809353069093BF00CD9A80915306809335
:10198000D00080917200806280937200809172001A
:101990008F7B80937200FF91EF919F918F913F9188
:1019A0002F910F900FBE0F901F90189580911401EA
:1019B00090911501820F931F9093540680935306C4
:1019C0009093BF00CF9A809153068093D20080916C
:1019D00072008068809372001092AD06D7CFEDEF51
:1019E000F6E01382128288EE93E0A0E0B0E08483F8
:1019F0009583A683B7838EE495E0918380838FEFF0
:101A00009FEF95878487EDE4F7E0118210821382BF
:101A10001282158214826EE575E0CF010C94EA06FD
:101A2000CF93DF93CDB7DEB7A5970FB6F894DEBF9F
:101A30000FBECDBF789484B5826084BD84B58160CB
:101A400084BD85B5826085BD85B5816085BD809189
:101A50006E00816080936E00109281008091810001
:101A600082608093810080918100816080938100F9
:101A700080918000816080938000809191008260DD
:101A8000809391008091910081608093910080917A
:101A900090008160809390008091C1008460809369
:101AA000C1008091C10082608093C1008091C1001B
:101AB00081608093C1008091C30081608093C300E6
:101AC0008091C00082608093C0008091C2008160DC
:101AD0008093C20080917A00846080937A00809124
:101AE0007A00826080937A0080917A00816080938E
:101AF0007A0080917A00806880937A001092FC06C8
:101B000010926706109266068091D70081608093DC
:101B1000D70080EA8093D80089B5806189BD89B5F6
:101B2000826089BD09B400FEFDCF0E943001809122
:101B3000D8008F7C80618093D8008091E000807F06
:101B40008093E0008091E1008E7E8093E1008DE043
:101B50008093E200559A209A0FEF1FEF10930A0727
:101B6000009309078FE595E00E947606509A86E07B
:101B700080931A0188E59BE19093170180931601E9
:101B800084EF91E090931901809318018EE190E029
:101B900090931501809314011092DE061092AD0609
:101BA0001092800610927F06109282061092810693
:101BB0001092840610928306109286061092850673
:101BC00010927E0610927D0610927C0610927B0683
:101BD00010927A0610927906109278061092770683
:101BE0001092760610927506109274061092730683
:101BF00010927206109271061092700610926F0683
:101C000010926E0610926D0610926C0610926B0682
:101C100010926A061092690610926806109282006D
:101C2000109281001092800010926F008FEF86BB9F
:101C3000F894109285001092840092E090938100B5
:101C400078941092C0001092C1001092C2001092BD
:101C5000C3001092720089BB1092AC061092CE069F
:101C60001092CF061092D0061092D1061092DA068A
:101C70001092E4061092E30690E890930E0180E241
:101C800080930D0144E659E160E070E0409310015B
:101C90005093110160931201709313011092DC06AE
:101CA0001092DB061092E2061092E1061092960660
:101CB0001092E0061092DF068AE080930F011092E6
:101CC000A4061092A5061092A6061092A7061092DE
:101CD0009C0610929B0610928C0610928906109218
:101CE000A3061092A00610929F061092A2061092D0
:101CF000A10610929E0610929D0610929A061092CE
:101D0000990610929806109297061092CD0610929E
:101D1000CC061092C9061092C8061092C506109201
:101D2000C40610928B0610928A06109288061092B2
:101D300087061092C1061092C0061092BD0610923E
:101D4000BC061093B9060093B8061093B50600932D
:101D5000B4061092B1061092B0061092920610923C
:101D6000910610928D0610928E0610928F06109298
:101D70009006109294061092930610929506109277
:101D80000C01E0918906F0E0E85BFA4F80818770F2
:101D9000806680937C0090937B008CED80937A002A
:101DA0009E012F5F3F4F690110E000E0F22EED2C05
:101DB000C8010E946417D6018D936D010F5F1F4FFC
:101DC00002321105A9F789819A81AB81BC818D33DB
:101DD0009D43AD43BD4309F044C08D815E81AF8119
:101DE000B885E985FA856B857C858D849E84AF8472
:101DF000B88849893D89288D9A8D1CEF180F50931A
:101E00001A01B0931901A0931801F0931701E09300
:101E10001601709315016093140180921001909245
:101E20001101A0921201B092130140930F0130935F
:101E30000E011A3008F0C8C12093E5062F8D2093BB
:101E4000E4069093E3068C3018F09D8D9093E006A5
:101E50008D3019F48E8D8093DF0688E695E00E9420
:101E600076068DE795E00E94760632E1632E8DEFCF
:101E700096E00E94F602181619060CF035C38DEF95
:101E800096E00E94B402D82E89831A8200915107ED
:101E9000109152070F5F1F4FB8018DE497E00E9429
:101EA000C206882391F020914D0730914E07809112
:101EB0005107909152076F2D7E2D820F931F0E9424
:101EC000C4191093520700935107FAE0DF12CFCFE5
:101ED000712C512C10E0C52CD12C1A8219821C8235
:101EE0001B821E821D826BE875E08F2D9E2D0E9445
:101EF000EA068091510790915207C816D90608F05A
:101F000090C1A0904D07B0904E0769817A81C501BC
:101F10008C0D9D1D0E94CB19009709F482C18A196E
:101F20009B09082F8F2D9E2D0E94A3060F3F61F560
:101F30001A8219821C821B821E821D826DE575E049
:101F40008F2D9E2D0E94EA06809151079091520795
:101F5000C816D90608F068C1A0904D07B0904E078A
:101F600069817A81C5018C0D9D1D0E94CB19009756
:101F700009F45AC18A199B09082F8F2D9E2D0E94A2
:101F8000A3060F3F09F473C0501608F070C0802EEE
:101F9000912C8C149D0420F0892D4601C02ED82E42
:101FA0001A8219821C821B821E821D826EE575E0D8
:101FB0008F2D9E2D0E94EA06A0905107B0905207E7
:101FC0008A149B0480F5CA14DB0408F45601E091DE
:101FD0004D07F0914E07EA0DFB1D50801082C09016
:101FE0004D07D0904E07C80CD91CC114D10479F00C
:101FF000F60101900020E9F731974F018C189D08F8
:10200000B4018F2D9E2D0E94C206811110C18F2D0B
:102010009E2D0E94910680914D0790914E07A80E2B
:10202000B91ED5015C9289819A81812C912C540131
:10203000009721F00E9428174B015C018F2D9E2DE7
:102040000E94A30655245394500E111101C0782C00
:10205000711058C1B7FC0BC0113009F0F0C0B7E0E7
:102060008B169104A104B10414F480921A011F5F2D
:10207000143109F030CF711068C180E995E00E94F9
:1020800082064AE062E170E080E090E00E94320661
:102090008BE895E00E94820680911A010E948406D6
:1020A0008BE895E00E9482068091180190911901B9
:1020B0000E948B068BE895E00E94820680911601B3
:1020C000909117010E948B068BE895E00E94820692
:1020D00080911401909115010E948B068BE895E088
:1020E0000E9482066091100170911101809112018D
:1020F000909113014AE00E9432068BE895E00E941D
:10210000820680910F010E9484068BE895E00E9470
:10211000820680910E010E9484068BE895E00E9461
:1021200082068091E5060E9484068BE895E00E9475
:1021300082068091E4060E9484068BE895E00E9466
:1021400082068091E3060E9484068BE895E00E9457
:1021500082068091E1069091E2060E948B068BE850
:1021600095E00E9482068091E0060E9484068BE83A
:1021700095E00E9482068091DF060E9484068BE82B
:1021800095E00E9482068091DE060E9484068BE81C
:1021900095E00E94820680910D010E9484068BE8E2
:1021A00095E00E9482068091DD060E9484068BE8FD
:1021B00095E00E9482068091DB069091DC060E94E9
:1021C0008B060E942E06BDC03E893093E5063F89EE
:1021D0003093E4062093E3069093E0069B8D909362
:1021E000DF069C8D9093DE06803118F09D8D9093D4
:1021F0000D01813108F431CE9E8D9093DD06813141
:1022000009F42BCE8F8D98A19093DC068093DB068A
:1022100089A19AA19093E2068093E1060E94670348
:102220001CCE8FEF9FEF7DCE8FEF9FEFA5CE9E82CE
:102230008D82B60189819A810E94C419ECCE123038
:1022400029F4909219018092180111CF133029F4CA
:1022500090921701809216010ACF143029F49092BF
:1022600015018092140103CF153049F480921001BA
:1022700090921101A0921201B0921301F8CE163083
:1022800019F480920F01F3CE173019F480920E01E9
:10229000EECE183019F48092E506E9CE193019F423
:1022A0008092E406E4CE1A3019F48092E306DFCE81
:1022B0001B3039F49092E2068092E1060E94670397
:1022C000D6CE1C3019F48092E006D1CE1D3019F420
:1022D0008092DF06CCCE1E3019F48092DE06C7CE87
:1022E0001F3019F480920D01C2CE103119F4809282
:1022F000DD06BDCE113109F0BACE9092DC06809297
:10230000DB06DCCFE7E07E1252C0113009F0AFCE21
:10231000F3E08F169104A104B10408F0A8CE87E081
:1023200090E081149104A104B10449F088E090E0A8
:102330008A9489288A288B2811F089E090E00E94ED
:10234000F7058DE895E00E9476061A8219821C82B4
:102350001B821E821D826EE575E08F2D9E2D0E94D0
:10236000EA0680914D0790914E07009709F4A5C0A9
:1023700069817A816115710509F49DC040914F070B
:10238000509150072D813E814217530708F493C0A6
:102390000E94C4198D819E819093520780935107AA
:1023A0001E821D828F2D9E2D0E94A30660CD38E0D7
:1023B000731271C01A8E198E8DE39DE3DC0189833F
:1023C0009A83AB83BC836D8280911A018E83809146
:1023D00018019091190198878F838091160190912F
:1023E00017019A87898780911401909115019C8724
:1023F0008B878091100190911101A0911201B091F1
:1024000013018D879E87AF87B88B80910F0190E075
:10241000B0E0A0E0898B9A8BAB8BBC8B80910E01D6
:102420008D8B8091E5068E8B8091E4068F8B809159
:10243000E306888F8091E0068A8F8091DF068B8F7C
:102440008091DE068C8F80910D018D8F8091DD064D
:102450008E8F8091DB069091DC0698A38F8F809100
:10246000E1069091E2069AA389A3CF2CDE2C10E01E
:1024700000E0D601BD906D01C8010E946417B81636
:1024800021F06B2DC8010E946C170F5F1F4F0232A5
:10249000110579F756CFBAE07B12E9CD113009F07A
:1024A000E6CDE2E08E169104A104B10408F0DFCD80
:1024B0008092DA0646CF0E94751889819A8190939E
:1024C0004E0780934D078B819C819093500780939A
:1024D0004F078D819E8190935207809351071A82F6
:1024E00019821C821B825CCF8091E506882341F013
:1024F0008091AD06811192C28091AC0681118EC28D
:102500008091C0068BA38091C1068CA31092A8066F
:102510001092A9061092AA061092AB068090A4060B
:102520009090A506A090A606B090A70681149104ED
:10253000A104B10409F020C38FE9882E86E0982E0B
:1025400091EA292E96E0392E2DE9A22E26E0B22E10
:1025500010E000E077247394602E8091A306882316
:1025600039F1E3E2F0E0EC0FFD1FE00FF11F908185
:10257000F801EC54F94F8081981708F483C0802F3C
:10258000872590E0A3E2B0E0AC0FBD1FA80FB91FF4
:10259000FC01E055F94F3C912081231708F472C0EB
:1025A000D1012C912F5F2C938F55994FFC011082F4
:1025B000F10181911F01833040F49091DA06992353
:1025C00009F4D7C2823009F0D4C2D4018C918111B0
:1025D0004CC07C928091A8069091A906A091AA0671
:1025E000B091AB06892B8A2B8B2B51F40E940B01E7
:1025F0006093A8067093A9068093AA069093AB06F1
:10260000F501108280919C0698012756394F2901C7
:10261000861104C080919B06811137C0D2011C92A3
:1026200010929806109297068091A8069091A9069C
:10263000A091AA06B091AB064091100150911101F2
:102640006091120170911301840F951FA61FB71F8F
:10265000F50120818093A4069093A506A093A60679
:10266000B093A706222309F44FC0FFEF8F1A9F0AE9
:102670002FEFA21AB20A0130110509F4D1C001E00E
:1026800010E06ACFD1011C9293CFF9017082809142
:10269000C8069091C90601969093C9068093C80612
:1026A000C0909706D0909806FFEFCF1ADF0AD0921D
:1026B0009806C09297062091E0062DA38091E4062B
:1026C000882361F0C0FE0AC0222321F031E0C31646
:1026D000D10439F48CE995E00E9476064DA144239B
:1026E00011F0D5017C928091DD06813009F09CCFFC
:1026F00090919606992309F497CF9C151D0408F034
:1027000093CF80930C0190CF60929C0681E08093E0
:102710009B068091DD06813009F023C280919506E9
:10272000882399F080910C01811104C0D2018C9111
:10273000882359F02B9A60919306709194068091AA
:102740009C060E94950310920C0180919106909135
:1027500092068038910509F045C08090A8069090B7
:10276000A906A090AA06B090AB0680918D06909124
:102770008E06A0918F06B0919006881A990AAA0A2F
:10278000BB0A07E0B694A794979487940A95D1F76B
:102790008091DB069091DC06009751F0AC014E5120
:1027A00051094815590558F44E968816990638F47B
:1027B000909294068092930681E080939506809192
:1027C0009506882359F02B9A609193067091940690
:1027D00080919C060E94950310920C011092920623
:1027E000109291068091910690919206009781F443
:1027F0004091A8065091A9066091AA067091AB0677
:1028000040938D0650938E0660938F0670939006CA
:102810000196909392068093910681E080938C06B6
:102820008091DA06882309F4D1C08FE0E1E2F1E07B
:10283000AF2DBE2D01900D928A95E1F78091A806EB
:102840009091A906A091AA06B091AB06892B8A2B7C
:102850008B2B51F40E940B016093A8067093A9067C
:102860008093AA069093AB0680919A06882309F478
:10287000A6C180EA90919E0640E1911101C040E01E
:102880009091A00638E0911101C030E09091990636
:1028900024E0911101C020E090919D06992309F454
:1028A00090C192E050919F06852B842B832B822B25
:1028B000892B8C838091A30638E8811101C030E810
:1028C00080919C0624E0813009F020E080918C0604
:1028D00092E0811101C090E081E04091A406509106
:1028E000A5066091A6067091A706452B462B472B9F
:1028F00009F480E0832B822B892B8D8380919706AE
:1029000080688E832BA1822F8695869580688F8321
:102910008CA140E2249F900111242076982F969557
:10292000969596959068292B28874091A8065091F6
:10293000A9066091AA067091AB068295807F282F28
:102940002077DB01CA013CE1B695A795979587955D
:102950003A95D1F7822B80688987DB01CA01E5E1CE
:10296000B695A79597958795EA95D1F780688A8758
:10297000DB01CA01FEE0B695A79597958795FA9574
:10298000D1F780688B87DB01CA0117E0B695A79560
:10299000979587951A95D1F780688C8740684D8701
:1029A0004FE050E06F2D7E2D8DEF96E00E940E02DD
:1029B00010928C0610929A0610929E061092A00613
:1029C0001092990610929D0610929F062091CC06B7
:1029D0003091CD068BA180938A069091BC06981702
:1029E00010F48093BC069091B806891710F4809378
:1029F000B8068CA180938B069091BD06981710F4B1
:102A00008093BD069091B906891710F48093B9069A
:102A10002E5F3F4F3093CD062093CC068091AD06BC
:102A2000882309F4D0C08AE08093AC060E940B0191
:102A30004B015C018092D6069092D706A092D806F0
:102A4000B092D9068091D2069091D306A091D40677
:102A5000B091D50688169906AA06BB0608F4E3C00D
:102A6000A5019401281B390B4A0B5B0BDA01C90144
:102A700081159748A349B34008F0D5C08091E3067B
:102A8000882309F4D5C18091CE069091CF06A091FC
:102A9000D006B091D106813E9105A105B10509F49A
:102AA00079C108F0DAC08B349105A105B10509F4AC
:102AB0004AC108F091C089319105A105B10509F419
:102AC0002EC182339105A105B10509F433C1892BCB
:102AD0008A2B8B2B09F08DC08091CC069091CD066E
:102AE0009093CB068093CA068091C8069091C90640
:102AF0009093C7068093C6068091C4069091C50640
:102B00009093C3068093C2068091C0068093BE0650
:102B10008091BC068093BA068091B8068093B60671
:102B20008091B4068093B2068091B0068093AE0681
:102B30008091C1068093BF068091BD068093BB063D
:102B40008091B9068093B7068091B5068093B3064D
:102B50008091B1068093AF060E9410030E94AB06DD
:102B600048C06091930670919406862D0E9495034B
:102B700054CEF401108279CD0E940B016093A80617
:102B80007093A9068093AA069093AB066815790501
:102B90008A059B0508F444CE681979098A099B09BE
:102BA000611577488349934008F03ACE1092A40605
:102BB0001092A5061092A6061092A70631CE80E8C4
:102BC00059CE90E06FCE8091AC06882309F42ECFC9
:102BD0008091AC06815028CF86399105A105B105B9
:102BE00009F465C040F58D379105A105B10509F4DB
:102BF000C3C08091CE069091CF06A091D006B0912F
:102C0000D1060196A11DB11D853FE1E09E07A105FA
:102C1000B10508F0F5C08093CE069093CF06A0933F
:102C2000D006B093D10680E090E0892B09F41DC94D
:102C30000E9400001AC98F3A9105A105B10509F457
:102C4000A0C0883C9105A105B10599F688E196E000
:102C50000E9482068091BA069AC0873741E09407A5
:102C6000A105B10509F4B7C048F58331E1E09E073D
:102C7000A105B10509F495C068F48A3F9105A10545
:102C8000B10509F0B6CF85E296E00E9482068091F8
:102C9000B2067DC0853421E09207A105B10509F493
:102CA00097C08E359140A105B10509F0A2CF81E012
:102CB00096E00E94820690E080E039C0893A41E0C7
:102CC0009407A105B10509F48DC068F480399140DD
:102CD000A105B10509F08DCF88E196E00E9482063A
:102CE0008091BB0654C0823CF1E09F07A105B1056D
:102CF00009F47FC08B3D9140A105B10509F079CF62
:102D00008DE296E00E9482068091AF060E948406C2
:102D10000E942E0684EF91E0A0E0B0E024C08FE98D
:102D200095E00E9482068091CA069091CB060E948F
:102D30008B065FCF8FEB95E00E9482068091C606DE
:102D40009091C706F4CF82ED95E00E9482068091B3
:102D5000C2069091C3060E948B060E942E0684E64E
:102D600090E0A0E0B0E08093CE069093CF06A093D1
:102D7000D006B093D1063DCF85EE95E00E94820645
:102D800038CF8EE096E00E9482068091BE060E94B7
:102D900084062FCF8FE196E00E9482068091B606CE
:102DA000F6CF8DE296E00E9482068091AE060E94E8
:102DB00084060E942E062CE231E040E050E0209391
:102DC000CE063093CF064093D0065093D10611CF54
:102DD00085E396E0D3CF8EE096E00E948206809154
:102DE000BF06D5CF8FE196E00E9482068091B7069C
:102DF000CECF85E296E00E9482068091B306C7CFCF
:102E00001092CE061092CF061092D0061092D106E4
:102E1000F0E48F0EFBE49F1EFCE4AF1EB11C809219
:102E2000D2069092D306A092D406B092D506FBCEDD
:102E30000E9410030E94AB0620E4820E2BE4921E37
:102E40002CE4A21EB11CEBCF8DE497E00C94A306FA
:102E50001F93FC0199278827BC01E8941191103237
:102E6000E9F3193010F01E30C8F31B3251F01D3257
:102E700049F4689406C00E944F17610F711D811DAF
:102E8000911D119110531A30B0F33EF49095809536
:102E9000709561957F4F8F4F9F4F1F910895592FC8
:102EA000482F372F262F660F771F881F991F660F11
:102EB000771F881F991F620F731F841F951F660F4E
:102EC000771F881F991F0895F999FECF92BD81BD84
:102ED000F89A992780B50895262FF999FECF1FBA41
:102EE00092BD81BD20BD0FB6F894FA9AF99A0FBE33
:102EF000019608952F923F924F925F926F927F9228
:102F00008F929F92AF92BF92CF92DF92EF92FF92F9
:102F10000F931F93CF93DF93CDB7DEB7CA1BDB0BA5
:102F20000FB6F894DEBF0FBECDBF09942A8839884A
:102F300048885F846E847D848C849B84AA84B98451
:102F4000C884DF80EE80FD800C811B81AA81B9815D
:102F5000CE0FD11D0FB6F894DEBF0FBECDBFED0171
:102F60000895A1E21A2EAA1BBB1BFD010DC0AA1FCA
:102F7000BB1FEE1FFF1FA217B307E407F50720F0E2
:102F8000A21BB30BE40BF50B661F771F881F991F5D
:102F90001A9469F760957095809590959B01AC01A6
:102FA000BD01CF010895EE0FFF1F0590F491E02DB4
:102FB00009940F931F93CF93DF938230910510F400
:102FC00082E090E0E0915507F091560730E020E074
:102FD000B0E0A0E0309799F42115310509F44AC01A
:102FE000281B390B24303105D8F58A819B81611566
:102FF000710589F1FB0193838283FE0111C0408139
:1030000051810281138148175907E0F04817590789
:1030100099F4109761F012960C93129713961C93E3
:103020003296CF01DF91CF911F910F9108950093B8
:10303000550710935607F4CF2115310551F042176B
:10304000530738F0A901DB019A01BD01DF01F80146
:10305000C1CFEF01F9CF9093560780935507CDCF9D
:10306000FE01E20FF31F81939193225031093983BE
:103070002883D7CF2091530730915407232B41F455
:1030800020911D0130911E01309354072093530766
:1030900020911B0130911C012115310541F42DB700
:1030A0003EB740911F0150912001241B350BE09148
:1030B0005307F0915407E217F307A0F42E1B3F0BC0
:1030C0002817390778F0AC014E5F5F4F241735079A
:1030D00048F04E0F5F1F509354074093530781935E
:1030E00091939FCFF0E0E0E09CCFCF93DF930097E8
:1030F000E9F0FC01329713821282A0915507B0913A
:103100005607ED0130E020E01097A1F420813181D5
:10311000820F931F209153073091540728173907C6
:1031200009F061C0F0935407E0935307DF91CF910A
:103130000895EA01CE17DF07E8F54A815B819E0119
:1031400041155105B1F7E901FB83EA834991599192
:10315000C40FD51FEC17FD0761F4808191810296A1
:10316000840F951FE90199838883828193819B83D2
:103170008A83F0E0E0E012968D919C91139700977E
:10318000B9F52D913C911197CD010296820F931FB5
:1031900020915307309154072817390739F6309793
:1031A00051F51092560710925507B0935407A0930B
:1031B0005307BCCFD383C28340815181840F951FB5
:1031C000C817D90761F44E5F5F4F88819981480F16
:1031D000591F518340838A819B8193838283211568
:1031E000310509F0B0CFF0935607E09355079ECF15
:1031F000FD01DC01C0CF13821282D7CFB0E0A0E086
:10320000E4E0F9E10C947C178C01009751F4CB01B8
:103210000E94D9178C01C801CDB7DEB7E0E10C944C
:103220009817FC01E60FF71F9C0122503109E217A5
:10323000F30708F49DC0D901CD91DC911197C61711
:10324000D70798F0C530D10530F3CE010497861723
:10325000970708F3C61BD70B2297C193D1936D93A1
:103260007C93CF010E947518D6CF5B01AC1ABD0AC2
:103270004C018C0E9D1EA0915507B0915607512C04
:10328000412CF12CE12C109731F58091530790914E
:1032900054078815990509F05CC04616570608F0D2
:1032A00058C080911B0190911C01009741F48DB78B
:1032B0009EB740911F0150912001841B950BE81788
:1032C000F90708F055C0F0935407E0935307F9014C
:1032D00071836083A0CF8D919C91119712966C9011
:1032E000129713967C901397A815B90559F56C01A0
:1032F00042E0C40ED11CCA14DB0420F1AC014A190F
:103300005B09DA011296159780F06282738251830D
:103310004083D9016D937C93E114F10471F0D701DE
:103320001396FC93EE93129776CF22968C0F9D1FE7
:10333000F90191838083F301EFCFF0935607E09377
:10334000550769CF4816590608F42C017D01D301B1
:103350009ACFCB010E94D9177C01009749F0AE01AA
:10336000B8010E94BB19C8010E947518870153CF8C
:1033700010E000E050CFFB01DC0102C001900D9293
:1033800041505040D8F70895FB01DC0101900D92A7
:103390000020E1F70895FB0151915523A9F0BF01E9
:1033A000DC014D9145174111E1F759F4CD01019030
:1033B000002049F04D9140154111C9F3FB01411125
:1033C000EFCF81E090E00197089510E0C1E9D0E0EF
:1033D00004C0FE010E94D3172196C239D107C9F754
:0433E000F894FFCF8F
:1033E400FFFFFFFF00E10000000000000120800A51
:1033F400641900001E00581BF401060000570780E2
:10340400002B6F20000000000000000000000D0AE7
:1034140009FF000102030405060708FFFF0000DCA2
:103424000007001400140014003C0014003C0014B5
:103434000000000000000000000000000000000088
:10344400000000DC00070014003C0014003C0014E1
:103454000014001400000000000000000000000040
:1034640000000000000000DC00070014003C001411
:1034740000140014003C00140000000000000000D0
:103484000000000000000000000000DC0007001441
:103494000014001400640014001400140000000060
:1034A400000000000000000000000000000000DC3C
:1034B4000007001400640014001400140014001425
:1034C40000000000000000000000000000000000F8
:1034D400000000040107001400640014003C001400
:1034E40000140014000000000000000000000000B0
:1034F40000000000000000900107001400C8001440
:103504000064001400C80014000000000000000063
:103514000000000000000000000000680107001423
:1035240000C80014003C001400C80014000000008F
:103534000000000000000000000000000000004047
:103544000107001400C800140014001400C800147B
:103554000000000000000000000000000000000067
:103564000009FF00010203FFFFFFFFFFFFFF000050
:10357400DC0007001400140014003C0014003C009C
:103584001400000000000000000000000000000023
:1035940000000000DC00070014003C0014003C00A4
:1035A40014001400140000000000000000000000DB
:1035B4000000000000000000DC00070014003C00D4
:1035C4001400140014003C0014000000000000006B
:1035D400000000000000000000000000DC00070004
:1035E40014001400140064001400140014000000FB
:1035F400000000000000000000000000000004FFC4
:1036040000010203FFFFFFFFFFFFFF00001C020990
:1036140000140014001400140014007C011400149D
:103624000014000000000000000000000000000082
:1036340000CC010900140014001400140014002C20
:103644000114001400140000000000000000000039
:1036540000000000007C0109001400140014001490
:10366400001400DC0014001400140000000000002A
:103674000000000000000000002C010900140014E8
:10368400001400140014008C001400140014000032
:10369400000000000000000000000002FFFFFFFF28
:1036A400FFFFFFFFFFFF000100001C020F001400DA
:1036B4001400140014001400500014008C001400B2
:1036C4001400140050001400140014000000B80189
:1036D4000F00140014001400140014003C00140023
:1036E4003C001400140014005000140014001400D2
:1036F40004FF00010203FFFFFFFFFFFFFF0100645F
:1037040000030017002E001F00000000000000004E
:1037140000000000000000000000000000000000A5
:103724000001008D00030017004E00280000000077
:103734000000000000000000000000000000000085
:10374400000000000001002B0001002B000000001D
:103754000000000000000000000000000000000065
:1037640000000000000000000001004400030017F6
:103774000015001800000000000000000000000018
:103784000000000000000000000000000002FFFF35
:10379400FFFFFFFFFFFFFFFF000100005E000500C9
:1037A40012001400120014001200000000000000B7
:1037B4000000000000000000000000000000000005
:1037C4006000030012003C00120000000000000032
:1037D40000000000000000000000000000000000E5
:1037E400000001FFFFFFFFFFFFFFFFFFFF00FF00DF
:1037F40000420005000E000C000E000C000E00003C
:1038040000000000000000000000000000000000B4
:103814000000000205AD041004BB031E0381023046
:103824000100C180810000000706000000008F0233
:103834000E02B002A502F602B402D2020D0A002B57
:103844007374617274757000656570726F6D207247
:103854006561645F73657474696E677300696E692A
:103864007420636F6D706C657465002C004F4B00A1
:10387400706172616D657465727320002B64002B36
:1038840073746174732067656E6572616C20726510
:103894006164696E675F636F756E7465723A002068
:1038A4006475706C69636174655F6672616D65737C
:1038B4003A00207072656D61747572655F6672613D
:1038C4006D65733A002B73746174732073656E7342
:1038D4006F72206368616E6E656C3A7269676874B2
:1038E4000020646574656374696F6E733A002072B6
:1038F400656164696E673A0020686967683A002008
:103904006C6F773A00207468725F683A00207468BC
:10391400725F6C3A002B73746174732073656E73F9
:103924006F72206368616E6E656C3A6C65667400D4
:00000001FF
