:100000000C9492000C94BA000C94BA000C94BA00B0
:100010000C94BA000C94BA000C94BA000C94BA0078
:100020000C94BA000C94BA000C946B060C94DA068B
:100030000C94BA000C94BA000C94BA000C94BA0058
:100040000C94BA000C94F7090C9475090C944309AC
:100050000C94BA000C94BA000C94BA000C942106CB
:100060000C94BA000C94BA000C94BA000C94BA0028
:100070000C94BA000C940C090C94BA000C94BA00BD
:100080000C94BA000C94BA000C94BA000C94BA0008
:100090000C94BA000C94BA000C94E50A0C94A40ACF
:1000A0000C94790A0C94BA000C94BA00080B000264
:1000B0000202000009040000010202000005240001
:1000C0001001052401010104240206052406000193
:1000D0000705810310004009040100020A00000026
:1000E00007050202400000070583024000000403E8
:1000F000090412010002EF0201404F1B06920001A9
:1001000001020301537061726B46756E005370619A
:10011000726B46756E2050726F204D6963726F006E
:10012000430B951411241FBECFEFDAE0DEBFCDBF25
:1001300027E0A8E3B6E001C01D92A632B207E1F7BE
:1001400016E0A0E0B1E0E6ECFEE202C005900D9200
:10015000A833B107D9F710E0C1E9D0E004C0219776
:10016000FE010E944415C039D107C9F70E94640BF3
:100170000C9456170C9400002FB7F89483E08093EA
:10018000E9009091E800892F807295FF04C090915A
:10019000F20080E4891B2FBF0895FC018091CB06FB
:1001A000882311F13FB7F89482E08093E900209111
:1001B000F200822F90E01816190614F481E090E006
:1001C000882339F0289844E64093CA064091F1000C
:1001D0004083222339F02091F200211103C02BE645
:1001E0002093E8003FBF08958FEF9FEF089580911F
:1001F000C20681110DC082E08093BE0684E0809328
:10020000BF061092C1061092C00681E08093C2061C
:100210008EEB96E008953FB7F8948091BA069091DE
:10022000BB06A091BC06B091BD0626B5A89B05C033
:100230002F3F19F00196A11DB11D3FBFBA2FA92F65
:10024000982F8827BC01CD01620F711D811D911D62
:1002500042E0660F771F881F991F4A95D1F70895CE
:10026000CF92DF92EF92FF920E940B016B017C0113
:100270000E940B016C197D098E099F09683E73402D
:1002800081059105A8F3FF90EF90DF90CF9008953E
:1002900008954091460650914706209144063091BA
:1002A000450642175307B4F49091E8009570E1F3C6
:1002B0009091E80092FD19C08093F100809146066C
:1002C0009091470601968F739927892B19F48EEF29
:1002D0008093E8008091460690914706019690939E
:1002E00047068093460681E0089580E00895EF92E6
:1002F000FF920F931F93CF93DF93F82E192FE62EC3
:10030000042F81E0860F880F0E94490183E00E943C
:100310004901CF2DD12FEC0EFD2EF11CCE15DF059E
:10032000B9F007FF13C0FE0184910E944901182F04
:1003300080E00E944901812321968111EFCFDF9156
:10034000CF911F910F91FF90EF9008958881EDCF8D
:1003500081E0F5CFDF92EF92FF920F931F93CF933F
:10036000DF93D82E8A01EB017B01E40EF51ECE153A
:10037000DF0559F0D7FE12C0FE0184910E944901A9
:1003800021968111F4CF0FEF1FEFC801DF91CF91BC
:100390001F910F91FF90EF90DF9008958881EECF2D
:1003A0000F931F93CF93DF931F92CDB7DEB782E0F9
:1003B000898342E450E06CEA70E080E80E94AA0180
:1003C0000E94F700DC0112960D911C910115110598
:1003D00089F0D801ED91FC910280F381E02DBE01FE
:1003E0006F5F7F4FC801099597FD04C0F801008534
:1003F0001185ECCF89810F90DF91CF911F910F91E3
:100400000895615030F02091F100FC0120830196A5
:10041000F8CF289884E68093CA0608958F929F9219
:10042000AF92BF92CF92DF92EF92FF920F931F9302
:10043000CF93DF936C017B018A0180910B018823AC
:1004400009F458C08091CB06882309F453C08091E9
:100450004A0680FF05C08091E00082608093E00042
:10046000E801B12C8AEFA82E93E0892E2AE3922E80
:10047000209711F4BB20B9F10E94BC00811106C085
:10048000AA94AA20B9F10E943001F2CF8C171D0660
:1004900011F00CF08C2F9FB7F8948092E900209116
:1004A000E80025FD02C09FBFE3CF282F30E0C21B2C
:1004B000D30BF701815020F041914093F100FACF26
:1004C000E20EF31EBB2021F09092E800B12CEBCF9E
:1004D0008091E80085FDE7CF9092E800BB24B394BB
:1004E000209709F3F3CF5D9884E6809349061016B0
:1004F00011063CF081E090E0F6019383828310E0E6
:1005000000E0C801DF91CF911F910F91FF90EF9014
:10051000DF90CF90BF90AF909F908F900895CF9332
:10052000DF931F92CDB7DEB76983DC01ED91FC91BB
:100530000280F381E02D41E050E0BE016F5F7F4F0C
:1005400009950F90DF91CF91089583E08093E900A2
:100550008091F200882319F08AE38093E8000895DF
:100560000E94BC0090E00895CF93DF931F92CDB717
:10057000DEB7FC018485958597FD08C02FEF3FEF1E
:10058000358724870F90DF91CF910895CE01019692
:100590000E94CD00019719F4898190E0F3CF8FEF8D
:1005A0009FEFF0CF0F931F93CF93DF931F92CDB7A1
:1005B000DEB78C01FC018485958597FF0BC0CE01C9
:1005C00001960E94CD00019771F4898190E0F801B5
:1005D00095878487F801848595850F90DF91CF9169
:1005E0001F910F9108958FEF9FEFF1CFFC0184854C
:1005F000958597FD0BC09FB7F89482E08093E90042
:100600008091F2009FBF90E0019608959FB7F89403
:1006100082E08093E9008091F2009FBF90E008950E
:1006200060910F0130910E018FEF90E0831B9109D3
:1006300021E040918006461708F420E0709184067E
:10064000789FA001799F500D112470918806379FE3
:10065000400D511D1124509380064091810646178C
:1006600008F420E06091890670918506789FA001CA
:10067000799F500D1124369F400D511D1124509328
:100680008106209370060895E0913E06F0913F06A2
:10069000DF01A80FB91F11962C912F3F89F03081EF
:1006A000231770F434E2239FE00DF11D11242385FC
:1006B00034852130310521F425853685621B730B85
:1006C0009C01235031092230310538F5209158061C
:1006D00030915906232B81F4F89490935906809316
:1006E00058067093890060938800B19A80916F00DA
:1006F000826080936F000FC02091520630915306A4
:10070000232B51F4F89490935306809352067093E0
:1007100051066093500678940895209156063091C2
:100720005706232B71F4F89490935706809356063E
:1007300070938B0060938A00B29A80916F008460FE
:10074000D8CF20914E0630914F06232B29F7F894ED
:1007500090934F0680934E0670934D0660934C061F
:10076000DACFE0911A01F0E0EE0FFF1FEC5DFA4FD7
:100770000190F081E02DF0933F06E0933E06DF010B
:10078000A80FB91F11962C912F3F09F468C0308132
:10079000231708F064C08330910521F0863091055D
:1007A00009F04AC0769A0597029708F4299A61E001
:1007B00060937D0640913E0650913F0634E2239FB0
:1007C000C00111249C012F5E3F4F240F351F309331
:1007D0003D0620933C0660933B06840F951FFC0169
:1007E000878580933806F8941092BF001092BF005E
:1007F0001092BE0083E08093BF009FEF9093D100E2
:10080000E0913C06F0913D062081818120933906DC
:1008100080933A068093BF00809139068093CF0081
:100820008091720080648093720099BB85E0809310
:10083000C1007894589A08958430910519F47698F7
:100840002998B1CFAC014B7F4130510511F42C9A5E
:10085000AACF8230910509F0A6CF2C98F1CF0C9445
:10086000310490915C0680915B069817A1F0E091AD
:100870005C06F0E0EE0FFF1FE35AF94F8081918193
:1008800020915C0630E02F5F3F4F23703327209389
:100890005C060C94B10310925A06089520915A06F2
:1008A000222301F1F89420915B0640915C0630E030
:1008B0002F5F3F4F237033274217130689F0E091D3
:1008C0005B06F0E0EE0FFF1FE35AF94F9183808340
:1008D00080915B0690E001968370992780935B0678
:1008E000789408950E94B10381E080935A06089598
:1008F000EF92FF920F931F93CF93F894E0908400B0
:10090000F090850078942091160130911701409164
:100910001801509119013695279542175307B0F4E5
:100920006091180170911901660F771F6E0D7F1D80
:10093000811109C081E090E0CF911F910F91FF904C
:10094000EF900C94440383E090E0F6CFC82F662329
:1009500009F452C0E0911A01F0E0EE0FFF1FEC5DC8
:10096000FA4F0190F081E02D85E090E0CC2311F06A
:1009700086E090E0DF01A80FB91F11962C912F3F60
:1009800009F453C03081231708F04FC00E944E0471
:1009900084E090E0CC2311F082E090E00E944E04CD
:1009A0001092590610925806109257061092560649
:1009B00080916F008D7F80936F0080916F008B7F9F
:1009C00080936F008091420690914306C11104C04C
:1009D0008091400690914106609116017091170137
:1009E000660F771F680F791F82E090E0CC2311F02B
:1009F00084E090E00E9444030091180110911901D5
:100A0000000F111F0E0D1F1DB801CC23B1F081E0A6
:100A100090E00E9444031093430600934206CF9156
:100A20001F910F91FF90EF90089581E090E0CC230B
:100A300009F4ACCF83E090E0A9CF83E090E00E947E
:100A400044031093410600934006E9CFFC01019056
:100A50000020E9F73197AF01481B590BBC018CEC22
:100A600096E00C940E028DE495E00C9426058F928E
:100A70009F92AF92BF920F931F93CF93DF93CDB707
:100A8000DEB7A1970FB6F894DEBF0FBECDBF19A297
:100A9000423008F44AE08E010F5D1F4F842E912CE6
:100AA000B12CA12CA50194010E942215E62FB901B9
:100AB000CA01EA30F4F4E05DD801EE938D01232BF6
:100AC000242B252B79F790E080E0109719F0CD01C9
:100AD0000E942605A1960FB6F894DEBF0FBECDBFCB
:100AE000DF91CF911F910F91BF90AF909F908F900A
:100AF0000895E95CE1CFCF93DF930E942605EC01D6
:100B00000E9433058C0F9D1FDF91CF9108950C94A7
:100B10002605682F70E090E080E04AE00C943705ED
:100B2000BC0190E080E04AE00C943705CF93DF935E
:100B3000EC0188819981009711F00E94E6151982D5
:100B400018821D821C821B821A82DF91CF91089528
:100B5000FC0180819181009711F00C94E6150895B5
:100B60001092A1061092A00610929D0610929C066B
:100B70001092990610929806E2E9F6E084E0DF010F
:100B80001D928A95E9F710928906109288068FEFD8
:100B90009FEF909385068093840608950F931F938B
:100BA000CF93DF93EC0188819981009759F02A81D6
:100BB0003B812617370730F081E0DF91CF911F91FD
:100BC0000F9108958B016F5F7F4F0E946F16009702
:100BD00059F0998388831B830A832C813D81232BC1
:100BE00059F7FC011082E8CF80E0E7CFEF92FF9247
:100BF0000F931F93CF93DF938C017B01EB0109903F
:100C00000020E9F72197C61BD70BBE010E94CE0535
:100C1000811109C0C801DF91CF911F910F91FF9001
:100C2000EF900C949605F801D583C483B7018081B9
:100C30009181DF91CF911F910F91FF90EF900C94D4
:100C400035171F920F920FB60F9211242F933F93D7
:100C50008F939F93AF93BF938091B6069091B70601
:100C6000A091B806B091B9063091B50623E0230FE4
:100C70002D3758F50196A11DB11D2093B50680931F
:100C8000B6069093B706A093B806B093B9068091C4
:100C9000BA069091BB06A091BC06B091BD06019624
:100CA000A11DB11D8093BA069093BB06A093BC060C
:100CB000B093BD06BF91AF919F918F913F912F91BE
:100CC0000F900FBE0F901F90189526E8230F0296E5
:100CD000A11DB11DD2CF1F920F920FB60F921124FA
:100CE0008F939F938091E1009091E100937F909387
:100CF000E10083FF0FC01092E90091E09093EB00B8
:100D00001092EC0092E39093ED001092CB0698E0E5
:100D10009093F00082FF22C093E09093E9009091BD
:100D2000F200992319F09AE39093E8009091490614
:100D3000992341F090914906915090934906911161
:100D400001C05D9A9091CA06992341F09091CA061C
:100D500091509093CA06911101C0289A84FF18C03F
:100D60008091E2008E7E81608093E2008091E100BC
:100D70008F7E8093E10080914A068E7E8061809311
:100D80004A069F918F910F900FBE0F901F9018955C
:100D900080FFF7CF8091E2008E7E80618093E20039
:100DA0008091E1008E7E8093E10080914A068E7EE4
:100DB0008160E5CF1F920F920FB60F921124CF9250
:100DC000DF92EF92FF920F931F932F933F934F93D6
:100DD0005F936F937F938F939F93AF93BF93EF93A3
:100DE000FF93CF93DF93CDB7DEB76C97DEBFCDBF58
:100DF0001092E9008091E80083FF25C068E0CE01F1
:100E000045960E94010282EF8093E8008D8987FF5A
:100E100039C09091E80090FFFCCF982F907609F0B0
:100E200034C19E894F89588D2F89F88C911131C01A
:100E3000803861F580914B068093F1001092F100AB
:100E40008EEF8093E8006C960FB6F894DEBF0FBE6D
:100E5000CDBFDF91CF91FF91EF91BF91AF919F9166
:100E60008F917F916F915F914F913F912F911F9142
:100E70000F91FF90EF90DF90CF900F900FBE0F90EB
:100E80001F9018959EEF9093E800C7CF1092F10045
:100E9000D5CF913059F48111D3CF4130510581F62E
:100EA00080914B068D7F80934B06CACF933049F4D7
:100EB0008111C6CF4130510519F680914B068260F1
:100EC000F2CF953041F48091E80080FFFCCF20689C
:100ED0002093E300B5CF963009F0A9C00B8D1C8D8F
:100EE00022E01092E9001092470610924606F21294
:100EF0002EC010924506109244060E94D0011F8217
:100F000099E09983FA8291E09E8390EA98879AEF1C
:100F100099872091460630914706275F3F4F3C83D3
:100F20002B838D831092E90010924706109246069B
:100F3000109345060093440649E050E0BE016F5F00
:100F40007F4F80E00E94AA010E94D00179CF1093C8
:100F50004506009344060E94F700DC0112960D91AD
:100F60001C910115110509F451C1D801ED91FC91B5
:100F70000480F581E02DBE016B5E7F4FC8010995AD
:100F8000009709F03EC1F80100851185EACFF3E032
:100F9000FF120EC08F89882309F440C0823061F4AB
:100FA00040E862E18DE091E00E947701811148CF35
:100FB00081E28093EB0047CF813029F440E868E07C
:100FC00084E091E0F1CF833099F70E94F700DC01D3
:100FD0001296ED90FC908E010F5F1F4F6801E11497
:100FE000F10479F0D701ED91FC910680F781E02DB5
:100FF000B801C7010995080F111DF701E084F184BC
:10100000EECFD8011C92F60101900020E9F731974C
:10101000BF016C197D0940E0C601C6CF6EEE70E0DD
:10102000FB01449150E080E80E94AA0109CF97306B
:1010300009F4BECF983021F481E08093F10000CF15
:10104000993009F0FDCE837009F0B2CFE3E3F5E00B
:1010500081E031E096E32191222371F08093E90051
:101060003093EB00DF0111972C912093EC009093CB
:10107000ED008F5F873079F78EE78093EA0010925A
:10108000EA008F898093CB06DBCE8B8D9C8D1092EE
:10109000E900109247061092460690934506809309
:1010A0004406898D811192C08E899D89913A49F4B7
:1010B000813209F07DCF47E050E064E071E080E0EC
:1010C000B3CF913209F074CF833269F48F89988D50
:1010D000B0E0A0E08093000190930101A093020191
:1010E000B0930301ADCE803269F48091E80082FFB5
:1010F000FCCF67E084E091E00E9401028BEF8093D7
:10110000E8009ECE823209F09BCE8F8980930B013E
:10111000EEEFFFE7859194918B3F9C4D51F1E0E01C
:10112000F8E08091040190910501A0910601B09131
:101130000701803B9440A105B105F1F480910B01BA
:1011400080FD1AC0EE3F8AE0F80789F587E797E748
:1011500091838083809160008093480688E19BE0C2
:101160000FB6F894A895809360000FBE909360002E
:1011700067CEEEEFFAE0D5CF808191818737974730
:1011800009F05ECEA8958091600088618093600030
:101190008091480680936000EE3F2AE0F20789F0D4
:1011A0008091FE0A9091FF0A9183808349CE8081CD
:1011B00091818737980751F29093FF0A8093FE0A36
:1011C000C5CF1092FF0A1092FE0A3ACE0E94F70095
:1011D000DC0112960D911C910115110509F4E8CE60
:1011E000D801ED91FC910190F081E02DBE016B5E84
:1011F0007F4FC8010995811123CEF8010085118523
:10120000EBCF181619060CF41BCED2CEF1E0FF126C
:10121000BECE62EF70E004CF1F920F920FB60F9216
:1012200011248F939F93EF93FF9380917900E09126
:101230006506F0E0E457F94F8083809165068F5F83
:101240008093650680916506823010F010926506E5
:1012500090917C00E0916506F0E0E75CFA4F8081B8
:101260008770987F892B80937C0080917A008064BE
:1012700080937A00FF91EF919F918F910F900FBE15
:101280000F901F9018951F920F920FB60F92112476
:101290002F933F934F935F936F937F938F939F937E
:1012A000AF93BF93EF93FF9320915406309155066F
:1012B0001092550610925406EFE6F0E09081977F69
:1012C0009083C9010E944E04FF91EF91BF91AF91AD
:1012D0009F918F917F916F915F914F913F912F914E
:1012E0000F900FBE0F901F9018951F920F920FB680
:1012F0000F9211242F933F934F935F936F937F939C
:101300008F939F93AF93BF93EF93FF936091560694
:10131000709157066130710509F044C0E0913E06B6
:10132000F0913F0692819F3FD1F180819817B8F5E7
:1013300084E2989FE00DF11D112483859485019727
:1013400071F54585568582E090E09093570680932D
:101350005606209116013091170180918A009091D4
:101360008B00241B350B220F331F280F391F30939E
:101370008B0020938A00CB010E944E04FF91EF91D5
:10138000BF91AF919F918F917F916F915F914F919D
:101390003F912F910F900FBE0F901F90189550E026
:1013A00040E0D1CF80914E0690914F060097A9F072
:1013B000909357068093560680914C0690914D0667
:1013C00090938B0080938A0010924F0610924E06E5
:1013D00010924D0610924C06CECF109257061092E6
:1013E000560690916F009B7F90936F00C4CF1F9221
:1013F0000F920FB60F9211242F933F934F935F9349
:101400006F937F938F939F93AF93BF93EF93FF93CC
:1014100060915806709159066330710509F044C017
:10142000E0913E06F0913F0694819F3FD1F180818B
:101430009817B8F584E2989FE00DF11D112483857B
:101440009485019771F54585568584E090E09093E9
:10145000590680935806209116013091170180910A
:10146000880090918900241B350B220F331F280F11
:10147000391F3093890020938800CB010E944E04CD
:10148000FF91EF91BF91AF919F918F917F916F915C
:101490005F914F913F912F910F900FBE0F901F9032
:1014A000189550E040E0D1CF8091520690915306BC
:1014B0000097A9F0909359068093580680915006A2
:1014C0009091510690938900809388001092530662
:1014D000109252061092510610925006CECF1092E2
:1014E00059061092580690916F009D7F90936F005F
:1014F000C4CF1F920F920FB60F9211242F933F93D8
:101500004F935F936F937F938F939F93AF93BF930B
:10151000EF93FF931092C1000E943104E2E7F0E0E4
:1015200080818F778083FF91EF91BF91AF919F91E1
:101530008F917F916F915F914F913F912F910F907C
:101540000FBE0F901F9018951F920F920FB60F921B
:1015500011242F933F938F939F93EF93FF93589A68
:1015600020913C0630913D0680913B0691E0980F1A
:1015700090933B0690E0880F991F820F931FFC0108
:10158000808191812091390630913A06820F931F14
:1015900090933A06809339069093BF008091390664
:1015A0008093CF00E2E7F0E08081806480838081D7
:1015B0008F7D8083FF91EF919F918F913F912F912C
:1015C0000F900FBE0F901F9018951F920F920FB69D
:1015D0000F9211242F933F938F939F93EF93FF9339
:1015E000589880913B0690913806209139063091A9
:1015F0003A06891780F5E0913C06F0913D0691E0AE
:10160000980F90933B0690E0880F991FE80FF91F01
:1016100080819181820F931F90933A0680933906BF
:101620009093BF00809139068093D0008091720022
:10163000806280937200809172008F7B8093720031
:10164000FF91EF919F918F913F912F910F900FBE3E
:101650000F901F9018958091140190911501820FA1
:10166000931F90933A06809339069093BF00809120
:1016700039068093D2008091720080688093720056
:1016800010927D06D8CFECECF6E01382128288EE41
:1016900093E0A0E0B0E084839583A683B7838FE3D3
:1016A00095E0918380838FEF9FEF95878487ECE1AE
:1016B000F7E01182108213821282158214826FE485
:1016C00075E0CF010C94F605CF93DF93CDB7DEB76D
:1016D000A0970FB6F894DEBF0FBECDBF789484B547
:1016E000826084BD84B5816084BD85B5826085BD1E
:1016F00085B5816085BD80916E00816080936E00AC
:10170000109281008091810082608093810080919D
:10171000810081608093810080918000816080934E
:10172000800080919100826080939100809191006F
:1017300081608093910080919000816080939000FF
:101740008091C10084608093C1008091C10082605B
:101750008093C1008091C10081608093C10080911D
:10176000C30081608093C3008091C0008260809339
:10177000C0008091C20081608093C20080917A0095
:10178000846080937A0080917A00826080937A00EE
:1017900080917A00816080937A0080917A008068DD
:1017A00080937A001092CB0610924B0610924A0654
:1017B0008091D70081608093D70080EA8093D80021
:1017C00089B5806189BD89B5826089BD09B400FE93
:1017D000FDCF0E9430018091D8008F7C8061809382
:1017E000D8008091E000807F8093E0008091E1004C
:1017F0008E7E8093E1008DE08093E200559A209ADE
:101800000FEF1FEF1093D9060093D80680E595E0FF
:101810000E947B05509A519A259A219A579A269AA6
:10182000549A3E9A6E9A249A229A239A86E080933A
:101830001A0188E59BE1909317018093160184EFCC
:1018400091E090931901809318018EE190E09093BC
:1018500015018093140110927D0610925E0610927D
:101860005D061092600610925F061092620610925A
:101870006106109264061092630610925C06109244
:101880005B0610925A061092590610925806109252
:101890005706109256061092550610925406109252
:1018A0005306109252061092510610925006109252
:1018B0004F0610924E0610924D0610924C06109252
:1018C0008200109281001092800010926F008FEFC2
:1018D00086BBF894109285001092840092E0909359
:1018E000810078941092C0001092C1001092C20042
:1018F0001092C3001092720089BB10927C06109265
:10190000A2061092A3061092A4061092A5061092A9
:10191000AE061092B0061092B2061092B10690E890
:1019200090930E0180EE80930D0180E280930C0174
:1019300044E659E160E070E04093100150931101DA
:1019400060931201709313011092AF068AE08093A6
:101950000F0110927406109275061092760610927E
:10196000770610926C0610926D0610926E06109219
:101970006F0610926A061092690610926506109220
:10198000700610926B06109268061092670610920D
:1019900066061092A1061092A00610929D06109263
:1019A0009C061092990610929806E2E9F6E084E00F
:1019B000DF011D928A95E9F710928D0610928C0630
:1019C000109289061092880610938506009384066B
:1019D0002CE33CE33093810620938006E09165067A
:1019E000F0E0E75CFA4F80818770806680937C002E
:1019F00090937B008CED80937A00FE0131966F010D
:101A000010E000E0FE2EED2CC8010E94D514D60196
:101A10008D936D010F5F1F4F0C311105A9F789815F
:101A20009A81AB81BC818D339D43AD43BD4309F0A9
:101A300040C08D81823009F0DDC18E8180931A0112
:101A40008F819885909319018093180189859A85D3
:101A500090931701809316018B859C8590931501B7
:101A6000809314018D859E85AF85B8898093100180
:101A700090931101A0931201B0931301898980936F
:101A80000F018D8980930E018E8980930D018F89BE
:101A900080930C011092B306888D8093B206898DD5
:101AA0008093B1068A8D8093B00689E595E00E9407
:101AB0007B058EE695E00E947B058091B40691E05F
:101AC00089278093B406882309F4D7C12D9A4BE067
:101AD000642E8CEC96E00E94F602181619060CF0A3
:101AE0000BC38CEC96E00E94B402D82E89831A8234
:101AF00000912007109121070F5F1F4FB8018CE163
:101B000097E00E94CE05882391F020911C07309128
:101B10001D0780912007909121076F2D7E2D820F48
:101B2000931F0E9435171093210700932007FAE0B6
:101B3000DF12CFCF712C512C10E0C52CD12C1A8282
:101B400019821C821B821E821D826CE775E08F2D1C
:101B50009E2D0E94F6058091200790912107C816BE
:101B6000D90608F08CC1A0901C07B0901D076981B0
:101B70007A81C5018C0D9D1D0E943C17009709F4C8
:101B80007EC18A199B09082F8F2D9E2D0E94A805C2
:101B90000F3F61F51A8219821C821B821E821D82F0
:101BA0006EE475E08F2D9E2D0E94F6058091200732
:101BB00090912107C816D90608F064C1A0901C07AF
:101BC000B0901D0769817A81C5018C0D9D1D0E9411
:101BD0003C17009709F456C18A199B09082F8F2DCD
:101BE0009E2D0E94A8050F3F09F473C0501608F0FF
:101BF00070C0802E912C8C149D0420F0892D4601FC
:101C0000C02ED82E1A8219821C821B821E821D822F
:101C10006FE475E08F2D9E2D0E94F605A0902007A1
:101C2000B09021078A149B0480F5CA14DB0408F4E1
:101C30005601E0911C07F0911D07EA0DFB1D508035
:101C40001082C0901C07D0901D07C80CD91CC1146D
:101C5000D10479F0F60101900020E9F731974F01A6
:101C60008C189D08B4018F2D9E2D0E94CE058111E8
:101C70000CC18F2D9E2D0E94960580911C0790917E
:101C80001D07A80EB91ED5015C9289819A81812C0D
:101C9000912C5401009721F00E9499144B015C0192
:101CA0008F2D9E2D0E94A80555245394500E11117E
:101CB00001C0782C71103FC1B7FC0BC0113009F086
:101CC000ECC0B7E08B169104A104B10414F4809227
:101CD0001A011F5F103109F030CF71104FC181E838
:101CE00095E00E9487054AE06BE070E080E090E0BC
:101CF0000E9437058CE795E00E94870580911A01C4
:101D00000E9489058CE795E00E9487058091180163
:101D1000909119010E9490058CE795E00E9487053B
:101D200080911601909117010E9490058CE795E033
:101D30000E94870580911401909115010E949005E1
:101D40008CE795E00E948705609110017091110168
:101D500080911201909113014AE00E9437058CE7AF
:101D600095E00E94870580910F010E9489058CE70C
:101D700095E00E94870580910E010E9489058CE7FD
:101D800095E00E94870580910D010E9489058CE7EE
:101D900095E00E94870580910C010E9489058CE7DF
:101DA00095E00E9487058091B3060E9489058CE723
:101DB00095E00E9487058091B2060E9489058CE714
:101DC00095E00E9487058091B1060E9489058CE705
:101DD00095E00E9487058091B0060E9489058CE7F6
:101DE00095E00E9487058091AF060E9489050E94B8
:101DF0003305C0C0843008F458CE9E8190931A01F8
:101E00002F813885309319012093180129853A854F
:101E100030931701209316012B853C8530931501D3
:101E2000209314014D855E856F857889409310015C
:101E3000509311016093120170931301998990934B
:101E40000F019D8990930E019E8990930D019F89AA
:101E500090930C01988D9093B306998D9093B20650
:101E60009A8D9093B1069B8D9093B0068A3008F4BA
:101E70001CCE8C8D8093AF0618CE2D9828CE8FEF78
:101E80009FEF81CE8FEF9FEFA9CE9E828D82B6010C
:101E900089819A810E943517F0CE123029F49092F0
:101EA00019018092180115CF133029F4909217016F
:101EB000809216010ECF143029F490921501809271
:101EC000140107CF153049F480921001909211014E
:101ED000A0921201B0921301FCCE163019F4809238
:101EE0000F01F7CE173019F480920E01F2CE1830A0
:101EF00019F480920D01EDCE193019F480920C0185
:101F0000E8CE1A3019F48092B306E3CE1B3019F4F0
:101F10008092B206DECE1C3019F48092B106D9CE82
:101F20001D3019F48092B006D4CE1E3009F0D1CE07
:101F30008092AF06CECEE7E07E1252C0113009F09B
:101F4000C8CEF3E08F169104A104B10408F0C1CE0D
:101F500087E090E081149104A104B10449F088E085
:101F600090E08A9489288A288B2811F089E090E0F3
:101F70000E944E048EE795E00E947B051A8219822A
:101F80001C821B821E821D826FE475E08F2D9E2DA8
:101F90000E94F60580911C0790911D07009709F497
:101FA00094C069817A816115710509F48CC04091F2
:101FB0001E0750911F072D813E814217530708F4D9
:101FC00082C00E9435178D819E8190932107809356
:101FD00020071E821D828F2D9E2D0E94A80579CD7F
:101FE00038E0731260C08DE39DE3DC0189839A833E
:101FF000AB83BC836D8280911A018E83809118011E
:102000009091190198878F83809116019091170103
:102010009A87898780911401909115019C878B87FD
:102020008091100190911101A0911201B0911301C2
:102030008D879E87AF87B88B80910F0190E0B0E0CD
:10204000A0E0898B9A8BAB8BBC8B80910E018D8B22
:1020500080910D018E8B80910C018F8B8091B30646
:10206000888F8091B206898F8091B1068A8F809186
:10207000B0068B8F8091AF068C8FCF2CDE2C10E0BA
:1020800000E0D601BD906D01C8010E94D514B816BC
:1020900021F06B2DC8010E94DD140F5F1F4F0C3122
:1020A000110579F767CFBAE07B1213CE113009F032
:1020B00010CEE2E08E169104A104B10408F009CE1E
:1020C0008092AE0657CF0E94E61589819A8190933F
:1020D0001D0780931C078B819C8190931F07809321
:1020E0001E078D819E8190932107809320071A827D
:1020F00019821C821B826DCF8091B306882341F028
:1021000080917D068111F3C180917C068111EFC120
:1021100080918C068D8F80918D068E8F109278061F
:102120001092790610927A0610927B0680907406BF
:1021300090907506A0907606B09077068114910471
:10214000A104B10409F0E6C022E736E038A32F8FDE
:102150001E013DE1230E311C32E9A32E36E0B32EE1
:1021600010E000E088248394902EAF8DB8A12D91CB
:10217000B8A3AF8FF801E457F94F9081F101919323
:102180001F011092710680917006882351F0F801AA
:10219000E058F94F8081281720F4981710F08092AA
:1021A000710680917106882309F472C080917806C7
:1021B00090917906A0917A06B0917B06892B8A2BA3
:1021C0008B2B51F40E940B01609378067093790673
:1021D00080937A0690937B06409178065091790619
:1021E00060917A0670917B068091100190911101A7
:1021F000A0911201B09113012A013B01480E591E12
:102200006A1E7B1E40927406509275066092760696
:102210007092770622E0B695A795979587952A95AF
:10222000D1F7840F951FA61FB71F80936C0690935C
:102230006D06A0936E06B0936F069920B9F15C9A73
:1022400010926B0680916A06891104C0809169061C
:1022500081112EC0109268061092670610926606D1
:1022600090926A068092690680916B06811109C07E
:102270008091680661E0811101C060E0892D0E94B3
:102280007804D5018D919C91119701968D939C9323
:102290008091710681115EC0B2E0AB0EB11C0130BD
:1022A000110509F457C001E010E05ECF469AC8CF8F
:1022B000809268062A9A80919C0690919D060196CC
:1022C00090939D0680939C06C0906606D09067060A
:1022D000FFEFCF1ADF0AD0926706C09266068091A0
:1022E000B206882369F0C0FE0BC080926B068DE8B1
:1022F00095E00E948705892D0E9489050E9433057B
:102300008091AF068C151D0409F008F4A9CF8092C6
:102310006B06A2CF0E940B0160937806709379063A
:1023200080937A0690937B06681579058A059B054C
:1023300088F0681979098A099B09611577488349EA
:10234000934040F41092740610927506109276062F
:10235000109277068091AE06882309F4A0C08EE023
:10236000E1E2F1E0AF2DBE2D01900D928A95E1F7EB
:102370008091780690917906A0917A06B0917B06BB
:10238000892B8A2B8B2B51F40E940B0160937806CA
:102390007093790680937A0690937B068091680605
:1023A000882309F49EC180E990916B0638E0911171
:1023B00001C030E090916A0624E0913009F020E0FD
:1023C000409174065091750660917606709177067B
:1023D00092E0452B462B472B09F490E04091710683
:1023E000842B832B822B892B8C83809166068068BB
:1023F0008D832D8D822F8695869580688E838E8D18
:10240000F0E22F9F900111242076982F96959695B3
:1024100096959068292B2F834091780650917906E4
:1024200060917A0670917B068295807F282F2077B5
:10243000DB01CA013CE1B695A795979587953A953A
:10244000D1F7822B80688887DB01CA01E5E1B69568
:10245000A79597958795EA95D1F780688987DB01DD
:10246000CA01FEE0B695A79597958795FA95D1F79D
:1024700080688A87DB01CA0117E0B695A795979512
:1024800087951A95D1F780688B8740684C874EE016
:1024900050E06F2D7E2D8CEC96E00E940E02209174
:1024A000A0063091A1068D8D8093720690918806CA
:1024B000981710F48093880690918406891710F479
:1024C000809384068E8D8093730690918906981769
:1024D00010F48093890690918506891710F48093F3
:1024E00085062E5F3F4F3093A1062093A006809073
:1024F0006C0690906D06A0906E06B0906F068114E9
:102500009104A104B104C1F18091780690917906FB
:10251000A0917A06B0917B06892B8A2B8B2B51F4E4
:102520000E940B01609378067093790680937A0677
:1025300090937B068091780690917906A0917A0617
:10254000B0917B0688159905AA05BB05A8F08819E6
:102550009909AA09BB0981159748A349B34060F4BA
:1025600010926C0610926D0610926E0610926F0615
:1025700046985C982B982A9880917D06882309F4C8
:10258000B2C08AE080937C060E940B014B015C0183
:102590008092AA069092AB06A092AC06B092AD06CD
:1025A0008091A6069091A706A091A806B091A906D1
:1025B00088169906AA06BB0608F4FDC0A501940179
:1025C000281B390B4A0B5B0BDA01C90181159748AF
:1025D000A349B34008F0EFC08091B106882309F405
:1025E00098C18091A2069091A306A091A406B091F3
:1025F000A506883C9105A105B10509F433C108F091
:1026000091C08B349105A105B10509F400C108F012
:1026100073C089319105A105B10509F457C0823312
:102620009105A105B10509F4E9C0892B8A2B8B2BF3
:1026300009F0A7C08091A0069091A10690939F06F3
:1026400080939E0680919C0690919D0690939B0698
:1026500080939A0680919806909199069093970698
:1026600080939606809192069091930690938F06A0
:1026700080938E0680918C0680938A0680918806CE
:1026800080938606809184068093820680918006DE
:1026900080937E0680919406909195069093910682
:1026A0008093900680918D0680938B068091890699
:1026B00080938706809185068093830680918106AA
:1026C00080937F060E9410030E94B00581E995E087
:1026D0000E94870580919E0690919F060E9490051A
:1026E00050C080E861CE80917C06882309F44CCFED
:1026F00080917C06815046CF86399105A105B105B0
:1027000009F49EC08F3A9105A105B10509F4A1C055
:102710008D379105A105B105A1F587ED95E00E94E2
:1027200087052FC08E3541E09407A105B10509F456
:10273000BAC0C8F48A3F9105A105B10509F499C052
:102740008534E1E09E07A105B10509F4A9C0813EE9
:102750009105A105B105A9F481E196E00E948705E4
:10276000809182067CC08039F1E09F07A105B10508
:1027700009F4A9C040F587379140A105B10509F4D6
:102780009BC08091A2069091A306A091A406B0914F
:10279000A5060196A11DB11D853FE1E09E07A1059B
:1027A000B10508F09EC08093A2069093A306A09363
:1027B000A406B093A50640E050E0452B09F47DC97E
:1027C0000E9400007AC9893A41E09407A105B10549
:1027D00009F480C0823C9140A105B10591F687E1E2
:1027E00096E00E94870580917F060E9489050E94DD
:1027F000330584EF91E0A0E0B0E019C081EB95E0F3
:102800000E94870580919A0690919B0667CF84EC81
:1028100095E00E94870580919606909197060E9408
:1028200090050E94330584E690E0A0E0B0E080933C
:10283000A2069093A306A093A406B093A506A1CFE9
:1028400083EF95E00E94870580918E0690918F0618
:1028500045CF80E096E00E94870580918A060E941D
:1028600089058FCF8AE096E00E94870580918606D1
:10287000F6CF87E196E00E94870580917E060E9450
:1028800089050E9433052CE231E040E050E02093BE
:10289000A2063093A3064093A4065093A50671CFD9
:1028A0008DE196E03CCF83EF95E00E948705809113
:1028B00090069091910612CF80E096E00E948705E5
:1028C00080918B06CCCF8AE096E00E9487058091AC
:1028D0008706C5CF81E196E00E9487058091830637
:1028E000BECF1092A2061092A3061092A4061092D8
:1028F000A506F0E48F0EFBE49F1EFCE4AF1EB11CA6
:102900008092A6069092A706A092A806B092A90669
:1029100052CF0E9410030E94B00520E4820E2BE4E7
:10292000921E2CE4A21EB11CEBCF8CE197E00C941C
:10293000A8051F93FC0199278827BC01E8941191F1
:102940001032E9F3193010F01E30C8F31B3251F089
:102950001D3249F4689406C00E94C014610F711DB5
:10296000811D911D119110531A30B0F33EF49095D2
:102970008095709561957F4F8F4F9F4F1F91089560
:10298000592F482F372F262F660F771F881F991F23
:10299000660F771F881F991F620F731F841F951F73
:1029A000660F771F881F991F0895F999FECF92BD72
:1029B00081BDF89A992780B50895262FF999FECF01
:1029C0001FBA92BD81BD20BD0FB6F894FA9AF99A4C
:1029D0000FBE019608952F923F924F925F926F9291
:1029E0007F928F929F92AF92BF92CF92DF92EF929F
:1029F000FF920F931F93CF93DF93CDB7DEB7CA1B20
:102A0000DB0B0FB6F894DEBF0FBECDBF09942A884A
:102A1000398848885F846E847D848C849B84AA84F2
:102A2000B984C884DF80EE80FD800C811B81AA817F
:102A3000B981CE0FD11D0FB6F894DEBF0FBECDBF4A
:102A4000ED010895A1E21A2EAA1BBB1BFD010DC0CA
:102A5000AA1FBB1FEE1FFF1FA217B307E407F5074E
:102A600020F0A21BB30BE40BF50B661F771F881F2A
:102A7000991F1A9469F760957095809590959B01C0
:102A8000AC01BD01CF010895EE0FFF1F0590F49139
:102A9000E02D09940F931F93CF93DF93823091051C
:102AA00010F482E090E0E0912407F091250730E0F7
:102AB00020E0B0E0A0E0309799F42115310509F449
:102AC0004AC0281B390B24303105D8F58A819B81F7
:102AD0006115710589F1FB0193838283FE0111C0A9
:102AE000408151810281138148175907E0F048174E
:102AF000590799F4109761F012960C931297139658
:102B00001C933296CF01DF91CF911F910F910895C1
:102B10000093240710932507F4CF2115310551F0B8
:102B20004217530738F0A901DB019A01BD01DF010B
:102B3000F801C1CFEF01F9CF9093250780932407C7
:102B4000CDCFFE01E20FF31F819391932250310903
:102B500039832883D7CF2091220730912307232B55
:102B600041F420911D0130911E01309323072093E1
:102B7000220720911B0130911C012115310541F4E0
:102B80002DB73EB740911F0150912001241B350BFA
:102B9000E0912207F0912307E217F307A0F42E1B20
:102BA0003F0B2817390778F0AC014E5F5F4F2417B1
:102BB000350748F04E0F5F1F5093230740932207BD
:102BC000819391939FCFF0E0E0E09CCFCF93DF9390
:102BD0000097E9F0FC01329713821282A09124073A
:102BE000B0912507ED0130E020E01097A1F420819D
:102BF0003181820F931F20912207309123072817DC
:102C0000390709F061C0F0932307E0932207DF91B1
:102C1000CF910895EA01CE17DF07E8F54A815B817D
:102C20009E0141155105B1F7E901FB83EA83499102
:102C30005991C40FD51FEC17FD0761F48081918174
:102C40000296840F951FE90199838883828193817D
:102C50009B838A83F0E0E0E012968D919C9113971C
:102C60000097B9F52D913C911197CD010296820FF5
:102C7000931F20912207309123072817390739F62F
:102C8000309751F51092250710922407B09323072F
:102C9000A0932207BCCFD383C28340815181840F8C
:102CA000951FC817D90761F44E5F5F4F88819981DE
:102CB000480F591F518340838A819B81938382836C
:102CC0002115310509F0B0CFF0932507E0932407D3
:102CD0009ECFFD01DC01C0CF13821282D7CFB0E0BE
:102CE000A0E0E5E7F6E10C94ED148C01009751F4B7
:102CF000CB010E944A158C01C801CDB7DEB7E0E1D7
:102D00000C940915FC01E60FF71F9C0122503109B4
:102D1000E217F30708F49DC0D901CD91DC9111971A
:102D2000C617D70798F0C530D10530F3CE01049708
:102D30008617970708F3C61BD70B2297C193D19329
:102D40006D937C93CF010E94E615D6CF5B01AC1A40
:102D5000BD0A4C018C0E9D1EA0912407B091250741
:102D6000512C412CF12CE12C109731F58091220748
:102D7000909123078815990509F05CC046165706FF
:102D800008F058C080911B0190911C01009741F4FC
:102D90008DB79EB740911F0150912001841B950B68
:102DA000E817F90708F055C0F0932307E0932207CE
:102DB000F90171836083A0CF8D919C911197129638
:102DC0006C90129713967C901397A815B90559F536
:102DD0006C0142E0C40ED11CCA14DB0420F1AC012A
:102DE0004A195B09DA011296159780F062827382A4
:102DF00051834083D9016D937C93E114F10471F008
:102E0000D7011396FC93EE93129776CF22968C0FF0
:102E10009D1FF90191838083F301EFCFF093250784
:102E2000E093240769CF4816590608F42C017D0168
:102E3000D3019ACFCB010E944A157C01009749F03B
:102E4000AE01B8010E942C17C8010E94E615870147
:102E500053CF10E000E050CFFB01DC0102C0019035
:102E60000D9241505040D8F70895FB01DC010190CC
:102E70000D920020E1F70895FB0151915523A9F02F
:102E8000BF01DC014D9145174111E1F759F4CD0126
:102E90000190002049F04D9140154111C9F3FB010B
:102EA0004111EFCF81E090E00197089510E0C1E972
:102EB000D0E004C0FE010E9444152196C239D1071A
:062EC000C9F7F894FFCFF2
:102EC600FFFFFFFF00E100000000000020E0800A95
:102ED600641900001E00581BF40106000026078036
:102EE600002B6F200000000000000000000D0A0902
:102EF600FF0001020304050607080000DC000700C6
:102F06001400140014003C0014003C0014000000DF
:102F160000000000000000000000000000000000AB
:102F2600DC00070014003C0014003C0014001400F0
:102F36001400000000000000000000000000000077
:102F460000000000DC00070014003C001400140020
:102F560014003C0014000000000000000000000007
:102F66000000000000000000DC0007001400140050
:102F76001400640014001400140000000000000097
:102F8600000000000000000000000000DC00070058
:102F9600140064001400140014001400140000004F
:102FA600000000000000000000000000000000001B
:102FB600040107001400640014003C00140014000F
:102FC60014000000000000000000000000000000E7
:102FD60000000000900107001400C80014006400FF
:102FE6001400C800140000000000000000000000EB
:102FF6000000000000000000680107001400C8007F
:1030060014003C001400C80014000000000000007A
:103016000000000000000000000000004001070062
:103026001400C800140014001400C80014000000A6
:10303600000000000000000000000000000009FF82
:103046000001020300000000000000DC000700147D
:1030560000140014003C0014003C001400000000A2
:10306600000000000000000000000000000000DC7E
:1030760000070014003C0014003C00140014001467
:10308600000000000000000000000000000000003A
:10309600000000DC00070014003C001400140014BB
:1030A600003C0014000000000000000000000000CA
:1030B60000000000000000DC0007001400140014EB
:1030C600006400140014001400000000000000005A
:1030D60000000000000000000004FF00010203FFE2
:1030E600FFFFFFFF00001C0209001400140014007B
:1030F600140014007C0114001400140000000000E9
:1031060000000000000000000000CC0109001400CF
:1031160014001400140014002C01140014001400F0
:1031260000000000000000000000000000007C011C
:10313600090014001400140014001400DC0014002C
:103146001400140000000000000000000000000051
:1031560000002C01090014001400140014001400CF
:103166008C00140014001400000000000000000091
:103176000000000002FF00FF01FFFFFFFFFFFF004E
:10318600001C020F00140014001400140014005058
:103196000014008C001400140014005000140014D5
:1031A6000014000000B8010F0014001400140014ED
:1031B6000014003C0014003C0014001400140050DD
:1031C6000014001400140004FF00010203FFFFFFB7
:1031D600FFFF01006400030017002E001F0000001F
:1031E60000000000000000000000000000000000D9
:1031F60000000000000001008D00030017004E00D3
:103206002800000000000000000000000000000090
:103216000000000000000000000001002B0001007B
:103226002B0000000000000000000000000000006D
:103236000000000000000000000000000000010087
:1032460044000300170015001800000000000000ED
:103256000000000000000000000000000000000068
:10326600000002FF00FF01FFFFFFFFFFFF00005EFF
:1032760000050012001400120014001200000000E5
:103286000000000000000000000000000000000038
:103296000000006000030012003C00120000000065
:1032A6000000000000000000000000000000000018
:1032B600000000000001FF00FFFFFFFFFFFFFFFF10
:1032C6000000420005000E000C000E000C000E006F
:1032D60000000000000000000000000000000000E8
:1032E60000000000F504A2040704B40319037E02DB
:1032F6002F0100C180810000000706000000008F3A
:10330600020E02B002A502F602B402D2020D0A00B3
:103316002B7374617274757000656570726F6D20C1
:10332600726561645F73657474696E677300696E54
:10333600697420636F6D706C657465002C004F4B6B
:1033460000706172616D657465727320002B642074
:10335600002B73746174732067656E6572616C20EF
:1033660072656164696E675F636F756E7465723AE4
:1033760000206475706C69636174655F6672616D67
:1033860065733A00207072656D61747572655F666B
:1033960072616D65733A002B737461747320736583
:1033A6006E736F72206368616E6E656C3A726967E0
:1033B60068740020646574656374696F6E733A009F
:1033C6002072656164696E673A0020686967683AC9
:1033D60000206C6F773A00207468723A002B737481
:1033E6006174732073656E736F72206368616E6EAD
:0833F600656C3A6C6566740019
:00000001FF
