:100000000C9492000C94BA000C94BA000C94BA00B0
:100010000C94BA000C94BA000C94BA000C94BA0078
:100020000C94BA000C94D00B0C94D4080C94430993
:100030000C94BA000C94BA000C94BA000C94BA0058
:100040000C94BA000C94BA000C94E00C0C94F90BCC
:100050000C94BA000C94BA000C94BA000C948A0860
:100060000C94BA000C94BA000C94BA000C94BA0028
:100070000C94BA000C94750B0C94BA000C94BA0052
:100080000C94BA000C94BA000C94BA000C94BA0008
:100090000C94BA000C94BA000C94620E0C94F20DFD
:1000A0000C94C70D0C94BA000C94BA00080B000213
:1000B0000202000009040000010202000005240001
:1000C0001001052401010104240206052406000193
:1000D0000705810310004009040100020A00000026
:1000E00007050202400000070583024000000403E8
:1000F000090412010002EF0201404F1B06920001A9
:1001000001020301537061726B46756E005370619A
:10011000726B46756E2050726F204D6963726F006E
:10012000C20E8C1811241FBECFEFDAE0DEBFCDBFA8
:1001300027E0A6EAB6E001C01D92A63BB207E1F7B0
:1001400016E0A0E0B1E0E4EBF6E302C005900D920A
:10015000A63AB107D9F710E0C1E9D0E004C0219771
:10016000FE010E943B19C039D107C9F70E94E30E76
:100170000C944D1B0C9400002FB7F89483E08093EF
:10018000E9009091E800892F807295FF04C090915A
:10019000F20080E4891B2FBF0895FC0180915B076A
:1001A000882311F13FB7F89482E08093E900209111
:1001B000F200822F90E01816190614F481E090E006
:1001C000882339F0289844E640935A074091F1007B
:1001D0004083222339F02091F200211103C02BE645
:1001E0002093E8003FBF08958FEF9FEF089580911F
:1001F000520781110DC082E080934E0784E0809306
:100200004F07109251071092500781E080935207D8
:100210008EE497E008953FB7F89480914A07909153
:100220004B07A0914C07B0914D0726B5A89B05C080
:100230002F3F19F00196A11DB11D3FBFBA2FA92F65
:10024000982F8827BC01CD01620F711D811D911D62
:1002500042E0660F771F881F991F4A95D1F70895CE
:10026000CF92DF92EF92FF920E940B016B017C0113
:100270000E940B016C197D098E099F09683E73402D
:1002800081059105A8F3FF90EF90DF90CF9008953E
:1002900008954091B7065091B8062091B506309167
:1002A000B60642175307B4F49091E8009570E1F355
:1002B0009091E80092FD19C08093F1008091B706FB
:1002C0009091B80601968F739927892B19F48EEFB8
:1002D0008093E8008091B7069091B80601969093BC
:1002E000B8068093B70681E0089580E00895EF9204
:1002F000FF920F931F93CF93DF93F82E192FE62EC3
:10030000042F81E0860F880F0E94490183E00E943C
:100310004901CF2DD12FEC0EFD2EF11CCE15DF059E
:10032000B9F007FF13C0FE0184910E944901182F04
:1003300080E00E944901812321968111EFCFDF9156
:10034000CF911F910F91FF90EF9008958881EDCF8D
:1003500081E0F5CFDF92EF92FF920F931F93CF933F
:10036000DF93D82E8A01EB017B01E40EF51ECE153A
:10037000DF0559F0D7FE12C0FE0184910E944901A9
:1003800021968111F4CF0FEF1FEFC801DF91CF91BC
:100390001F910F91FF90EF90DF9008958881EECF2D
:1003A0000F931F93CF93DF931F92CDB7DEB782E0F9
:1003B000898342E450E06CEA70E080E80E94AA0180
:1003C0000E94F700DC0112960D911C910115110598
:1003D00089F0D801ED91FC910280F381E02DBE01FE
:1003E0006F5F7F4FC801099597FD04C0F801008534
:1003F0001185ECCF89810F90DF91CF911F910F91E3
:100400000895615030F02091F100FC0120830196A5
:10041000F8CF289884E680935A0708958F929F9288
:10042000AF92BF92CF92DF92EF92FF920F931F9302
:10043000CF93DF936C017B018A0180910B018823AC
:1004400009F458C080915B07882309F453C0809158
:10045000BB0680FF05C08091E00082608093E000D1
:10046000E801B12C8AEFA82E93E0892E2AE3922E80
:10047000209711F4BB20B9F10E94BC00811106C085
:10048000AA94AA20B9F10E943001F2CF8C171D0660
:1004900011F00CF08C2F9FB7F8948092E900209116
:1004A000E80025FD02C09FBFE3CF282F30E0C21B2C
:1004B000D30BF701815020F041914093F100FACF26
:1004C000E20EF31EBB2021F09092E800B12CEBCF9E
:1004D0008091E80085FDE7CF9092E800BB24B394BB
:1004E000209709F3F3CF5D9884E68093BA0610163F
:1004F00011063CF081E090E0F6019383828310E0E6
:1005000000E0C801DF91CF911F910F91FF90EF9014
:10051000DF90CF90BF90AF909F908F900895CF9332
:10052000DF931F92CDB7DEB76983DC01ED91FC91BB
:100530000280F381E02D41E050E0BE016F5F7F4F0C
:1005400009950F90DF91CF91089583E08093E900A2
:100550008091F200882319F08AE38093E8000895DF
:100560000E94BC0090E00895CF93DF931F92CDB717
:10057000DEB7FC018485958597FD08C02FEF3FEF1E
:10058000358724870F90DF91CF910895CE01019692
:100590000E94CD00019719F4898190E0F3CF8FEF8D
:1005A0009FEFF0CF0F931F93CF93DF931F92CDB7A1
:1005B000DEB78C01FC018485958597FF0BC0CE01C9
:1005C00001960E94CD00019771F4898190E0F801B5
:1005D00095878487F801848595850F90DF91CF9169
:1005E0001F910F9108958FEF9FEFF1CFFC0184854C
:1005F000958597FD0BC09FB7F89482E08093E90042
:100600008091F2009FBF90E0019608959FB7F89403
:1006100082E08093E9008091F2009FBF90E008950E
:10062000CF93C0910E01F0910D018FEF90E0DC01AE
:10063000AF1BB10950910C01851B9109E0911A077C
:1006400041E0EC1708F440E02091160730E0A29F4B
:10065000B001A39F700DB29F700D1124FE9F600D1D
:10066000711D112470931207829FB001839F700D3A
:10067000929F700D11245E9F600D711D1124709367
:100680000E07E0911B07EC1708F440E020911707D4
:1006900030E0A29FB001A39F700DB29F700D112496
:1006A000FE9F600D711D112470931307289FB001E8
:1006B000299F700D389F700D1124E59F600D711DED
:1006C000112470930F0740930107CF910895089567
:1006D00026982E98E8E6F0E0808181608083EBE642
:1006E000F0E0808180648083789408958F929F9257
:1006F000AF92BF92EF92FF921F93CF93DF939091AF
:100700003D07C3E0D0E0981302C0C1E0D0E0E09123
:100710001901F0E0EE0FFF1FE957FA4F20813181F8
:100720003093B1062093B006E091B006F091B10687
:10073000EC0FFD1F9181E091B006F091B106208190
:10074000291710F09F3FD1F490913D07CBE0D0E006
:10075000981302C0CAE0D0E0E091B006F091B10673
:10076000EC0FFD1F9181E091B006F091B106208160
:10077000291708F416C29F3F09F413C2182FF894E2
:1007800080918400909185009093CA068093C90659
:10079000789480913C07813009F06EC1F8941092F2
:1007A000DE061092DD0678940E940B016093CF065E
:1007B0007093D0068093D1069093D2062091C806FC
:1007C000222309F446C12091CB063091CC06621B4E
:1007D000730B80913A0790913B07880F991F8617FA
:1007E000970740F51092C7061092C3061092C406F0
:1007F0001092C5061092C606F8941092D606109272
:10080000D5061092D8061092D7061092D3061092F1
:10081000D4061092C2061092C1061092BE06109223
:10082000BD061092C0061092BF061092DB06109211
:10083000DC06789480913A0790913B072091C70697
:10084000222309F4B8C1009751F09C0122533109C9
:100850006217730790F1C2968617970770F180911F
:10086000C3069091C406A091C506B091C6064C017E
:100870005D01E6E0B694A79497948794EA95D1F742
:1008800088199909AA09BB09860F971FA11DB11DD7
:100890008093C3069093C406A093C506B093C60682
:1008A000F894F6E0B695A79597958795FA95D1F7C0
:1008B0009093C2068093C1067894812F90E0FC014A
:1008C000ED52F94F4081442309F4C3C0880F991FAA
:1008D000FC01EB52F94F608171818091C1069091CA
:1008E000C206880F991F880F991F2091C906309161
:1008F000CA06281B390B261B370B35952795809187
:10090000C1069091C2066091C1067091C206919590
:100910008195910975956795861B970B281739075F
:1009200044F48091C1069091C206880F991F280F48
:10093000391F8091C1069091C206885E93402817A6
:1009400039074CF08091C1069091C20688519C4FA6
:1009500082179307ECF46091C1067091C20688E19A
:100960009CEF861B970B281739075CF06091C10636
:100970007091C20688EE93E0861B970B821793074F
:100980003CF47901E5E0F594E794EA95E1F740E07D
:10099000F8948091BD069091BE068E0D9F1D909398
:1009A000BE068093BD068091BF069091C006E80EFA
:1009B000F91EF092C006E092BF06442309F448C035
:1009C0008091C1069091C20620918A0030918B00DF
:1009D000880F991F820F931F90938B0080938A003A
:1009E0008091C1069091C20620918C0030918D00BB
:1009F000880F991F820F931F90938D0080938C0016
:100A00008091C1069091C2062091D5063091D606FC
:100A1000880F991F820F931F9093D6068093D50657
:100A20008091C1069091C2062091D7063091D806D8
:100A3000880F991F820F931F9093D8068093D70633
:100A40001092BE061092BD061092C0061092BF060C
:100A500078948091CF069091D006A091D106B09164
:100A6000D2068093CB069093CC06A093CD06B0938C
:100A7000CE0681E08093C80680913C07882339F038
:100A8000E12FF0E0E552F94F808181118AC0809119
:100A90003C07813049F49091C706992329F0E12F52
:100AA000F0E0E552F94F8083809117019091180191
:100AB000880F991F2091C9063091CA06820F931F93
:100AC0004091B0065091B1062091AE063091AF062C
:100AD00042175307E1F020916F002B7F20936F00A6
:100AE000B29A1092D4061092C0061092BF061092CD
:100AF000DC0620916F00277F20936F00B39A10923D
:100B0000D3061092BE061092BD061092DB0620910D
:100B1000B0063091B1063093AF062093AE06E09157
:100B2000AE06F091AF06EC0FFD1F21812F3FC9F0FB
:100B3000E091AE06F091AF063081231790F4E0917A
:100B4000AE06F091AF0634E2239FE00DF11D1124B3
:100B5000258536852130310521F427853089821B92
:100B6000930B9E01277F2330310509F04EC0209161
:100B7000E5063091E606232BA1F4F89490938B00C0
:100B800080938A00B29A80916F00846080936F0096
:100B9000D093E606C093E506D093E406C093E3063F
:100BA0007894DF91CF911F91FF90EF90BF90AF901D
:100BB0009F908F900895009769F09C012456310909
:100BC0006217730708F445CF8C599F4F8617970714
:100BD00008F43FCFCB01B0E0A0E036E0880F991FCA
:100BE000AA1FBB1F3A95D1F78093C3069093C40602
:100BF000A093C506B093C60681E08093C706F8941B
:100C00007093C2066093C1061BCFC130D10519F0A5
:100C1000CA30D10531F62091E1063091E206232B4E
:100C200009F0BFCFF89490938D0080938C00B39A15
:100C300080916F00886080936F00D093E206C0932C
:100C4000E106D093E006C093DF06AACF2091AE065E
:100C50003091AF063093A7062093A6062091A606F2
:100C60003091A706820F931FFC0191819F3F09F4E9
:100C70005EC0E091A606F091A7068081981708F063
:100C800056C02091A6063091A706F4E29F9FC001AE
:100C90001124AC014D5E5F4F420F531F5093AD06C0
:100CA0004093AC0641E04093AB06820F931FFC01DA
:100CB00081898093A80640930B07F8941092BF0097
:100CC0001092BF001092BE0083E08093BF008FEFB0
:100CD0008093D100E091AC06F091AD0680819181C6
:100CE0009093AA068093A906009719F58091AB0608
:100CF0009091A806891780F591E0980F9093AB0624
:100D000090E0880F991FE80FF91F908181819093DF
:100D1000A9068093AA068093BF008091A9068093BC
:100D2000D000809172008062809372000EC00C949B
:100D3000C2069093BF008091A9068093CF00809156
:100D40007200806480937200589A8FEF89BB85E0AF
:100D50008093C100789408958091130190911401BB
:100D60009093AA068093A9069093BF008091A9064C
:100D70008093D200809172008068809372001092FC
:100D80000B07E3CF9091E9068091E8069817A1F050
:100D9000E091E906F0E0EE0FFF1FE651F94F808188
:100DA00091812091E90630E02F5F3F4F2370332778
:100DB0002093E9060C9426061092E70608952091E8
:100DC000E706222301F1F8942091E8064091E90614
:100DD00030E02F5F3F4F237033274217130689F00F
:100DE000E091E806F0E0EE0FFF1FE651F94F918326
:100DF00080838091E80690E0019683709927809324
:100E0000E806789408950E94260681E08093E7061C
:100E10000895FC0101900020E9F73197AF01481BCC
:100E2000590BBC018CE597E00C940E0282EB95E027
:100E30000C9409078F929F92AF92BF920F931F93CA
:100E4000CF93DF93CDB7DEB7A1970FB6F894DEBF8F
:100E50000FBECDBF19A2423008F44AE08E010F5DEB
:100E60001F4F842E912CB12CA12CA50194010E941E
:100E70001919E62FB901CA01EA30F4F4E05DD8018E
:100E8000EE938D01232B242B252B79F790E080E026
:100E9000109719F0CD010E940907A1960FB6F8949A
:100EA000DEBF0FBECDBFDF91CF911F910F91BF90DD
:100EB000AF909F908F900895E95CE1CFCF93DF933F
:100EC0000E940907EC010E9416078C0F9D1FDF91FD
:100ED000CF9108950C940907682F70E090E080E0AE
:100EE0004AE00C941A07BC0190E080E04AE00C94C0
:100EF0001A07CF93DF93EC0188819981009711F055
:100F00000E94DD19198218821D821C821B821A829E
:100F1000DF91CF910895FC0180819181009711F0BC
:100F20000C94DD19089510922B0710922A07109245
:100F3000270710922607109223071092220710927B
:100F40001B0710921A078FEF9FEF9093170780935C
:100F50001607089510920A0710922C0710922D0779
:100F600010922E0710922F07109238071092430705
:100F70001092420790E890930D0180E280930C015B
:100F800044E659E160E070E040930F015093100196
:100F90006093110170931201109241071092400763
:100FA00010923F0710923E078AE080930E01109244
:100FB000020710920307109204071092050710927F
:100FC000FA061092F9061092F4061092B4061092E6
:100FD00001071092FE061092FD0610920007109273
:100FE000FF061092FC061092FB061092F806109273
:100FF000F7061092F6061092F50610922B07109243
:101000002A071092270710922607109223071092A2
:1010100022071092F3061092F2061092B306109275
:10102000B20610921F0710921E0710921B07109213
:101030001A072FEF3FEF30931707209316073093CF
:1010400013072093120710920F0710920E07E091DA
:10105000B406F0E0E956FA4F80818770806680938D
:101060007C0090937B008CED80937A0008950F9321
:101070001F93CF93DF93EC0188819981009759F0FA
:101080002A813B812617370730F081E0DF91CF912D
:101090001F910F9108958B016F5F7F4F0E94661A19
:1010A000009759F0998388831B830A832C813D81A3
:1010B000232B59F7FC011082E8CF80E0E7CFEF92B5
:1010C000FF920F931F93CF93DF938C017B01EB0172
:1010D00009900020E9F72197C61BD70BBE010E949B
:1010E0003708811109C0C801DF91CF911F910F917D
:1010F000FF90EF900C947907F801D583C483B70172
:1011000080819181DF91CF911F910F91FF90EF909E
:101110000C942C1B1F920F920FB60F9211242F9339
:101120003F938F939F93AF93BF9380914607909186
:101130004707A0914807B09149073091450723E040
:10114000230F2D3758F50196A11DB11D209345079A
:101150008093460790934707A0934807B0934907A9
:1011600080914A0790914B07A0914C07B0914D0791
:101170000196A11DB11D80934A0790934B07A09340
:101180004C07B0934D07BF91AF919F918F913F91C5
:101190002F910F900FBE0F901F90189526E8230FE8
:1011A0000296A11DB11DD2CF1F920F920FB60F92C2
:1011B00011248F939F938091E1009091E100937FA0
:1011C0009093E10083FF0FC01092E90091E09093AB
:1011D000EB001092EC0092E39093ED0010925B070D
:1011E00098E09093F00082FF22C093E09093E90092
:1011F0009091F200992319F09AE39093E80090916E
:10120000BA06992341F09091BA0691509093BA068C
:10121000911101C05D9A90915A07992341F09091E4
:101220005A07915090935A07911101C0289A84FF50
:1012300018C08091E2008E7E81608093E2008091F0
:10124000E1008F7E8093E1008091BB068E7E8061FD
:101250008093BB069F918F910F900FBE0F901F90B0
:10126000189580FFF7CF8091E2008E7E8061809399
:10127000E2008091E1008E7E8093E1008091BB06C8
:101280008E7E8160E5CF1F920F920FB60F921124D0
:10129000CF92DF92EF92FF920F931F932F933F9382
:1012A0004F935F936F937F938F939F93AF93BF936E
:1012B000EF93FF93CF93DF93CDB7DEB76C97DEBF8D
:1012C000CDBF1092E9008091E80083FF25C068E05F
:1012D000CE0145960E94010282EF8093E8008D893D
:1012E00087FF39C09091E80090FFFCCF982F90764F
:1012F00009F034C19E894F89588D2F89F88C91113E
:1013000031C0803861F58091BC068093F100109265
:10131000F1008EEF8093E8006C960FB6F894DEBF74
:101320000FBECDBFDF91CF91FF91EF91BF91AF91F4
:101330009F918F917F916F915F914F913F912F91ED
:101340001F910F91FF90EF90DF90CF900F900FBE05
:101350000F901F9018959EEF9093E800C7CF1092C2
:10136000F100D5CF913059F48111D3CF41305105DF
:1013700081F68091BC068D7F8093BC06CACF9330E6
:1013800049F48111C6CF4130510519F68091BC0650
:101390008260F2CF953041F48091E80080FFFCCF6D
:1013A00020682093E300B5CF963009F0A9C00B8DDB
:1013B0001C8D22E01092E9001092B8061092B70638
:1013C000F2122EC01092B6061092B5060E94D001FD
:1013D0001F8299E09983FA8291E09E8390EA988730
:1013E0009AEF99872091B7063091B806275F3F4F53
:1013F0003C832B838D831092E9001092B8061092E3
:10140000B7061093B6060093B50649E050E0BE015A
:101410006F5F7F4F80E00E94AA010E94D00179CFC8
:101420001093B6060093B5060E94F700DC011296F1
:101430000D911C910115110509F451C1D801ED91CF
:10144000FC910480F581E02DBE016B5E7F4FC801E9
:101450000995009709F03EC1F80100851185EACF92
:10146000F3E0FF120EC08F89882309F440C0823058
:1014700061F440E862E18DE091E00E947701811122
:1014800048CF81E28093EB0047CF813029F440E8D8
:1014900068E084E091E0F1CF833099F70E94F70093
:1014A000DC011296ED90FC908E010F5F1F4F6801DA
:1014B000E114F10479F0D701ED91FC910680F781F8
:1014C000E02DB801C7010995080F111DF701E0844F
:1014D000F184EECFD8011C92F60101900020E9F7CB
:1014E0003197BF016C197D0940E0C601C6CF6EEE91
:1014F00070E0FB01449150E080E80E94AA0109CF0E
:10150000973009F4BECF983021F481E08093F10048
:1015100000CF993009F0FDCE837009F0B2CFEAE92F
:10152000F5E081E031E096E32191222371F0809390
:10153000E9003093EB00DF0111972C912093EC0030
:101540009093ED008F5F873079F78EE78093EA0004
:101550001092EA008F8980935B07DBCE8B8D9C8D88
:101560001092E9001092B8061092B7069093B60652
:101570008093B506898D811192C08E899D89913A9B
:1015800049F4813209F07DCF47E050E064E071E03A
:1015900080E0B3CF913209F074CF833269F48F8940
:1015A000988DB0E0A0E08093000190930101A0939A
:1015B0000201B0930301ADCE803269F48091E8005E
:1015C00082FFFCCF67E084E091E00E9401028BEF94
:1015D0008093E8009ECE823209F09BCE8F89809363
:1015E0000B01EEEFFFE7859194918B3F9C4D51F1FC
:1015F000E0E0F8E08091040190910501A0910601DE
:10160000B0910701803B9440A105B105F1F48091B0
:101610000B0180FD1AC0EE3F8AE0F80789F587E7E5
:1016200097E791838083809160008093B90688E179
:101630009BE00FB6F894A895809360000FBE90933E
:10164000600067CEEEEFFAE0D5CF808191818737D9
:10165000974709F05ECEA8958091600088618093DD
:1016600060008091B90680936000EE3F2AE0F207A7
:1016700089F08091FE0A9091FF0A9183808349CE80
:10168000808191818737980751F29093FF0A809368
:10169000FE0AC5CF1092FF0A1092FE0A3ACE0E94AF
:1016A000F700DC0112960D911C910115110509F44A
:1016B000E8CED801ED91FC910190F081E02DBE01C2
:1016C0006B5E7F4FC8010995811123CEF80100851B
:1016D0001185EBCF181619060CF41BCED2CEF1E013
:1016E000FF12BECE62EF70E004CF1F920F920FB6D2
:1016F0000F9211242F938F939F93EF93FF939091C9
:10170000790080913E07E091B406F0E0813009F065
:1017100044C0EE54F94F8081E091B406F0E0E25EFF
:10172000F84F2081891710F4281720F0981740F4FB
:10173000821730F4E091B406F0E0E25EF84F808367
:10174000E091B406F0E0EE54F94F90838091B40636
:101750008F5F8093B4068091B406823010F01092AF
:10176000B40690917C00E091B406F0E0E956FA4F9F
:1017700080818770987F892B80937C0080917A008C
:10178000806480937A00FF91EF919F918F912F91C8
:101790000F900FBE0F901F901895E25EF84FD5CFB7
:1017A0001F920F920FB60F9211242F933F934F93D6
:1017B0005F936F937F938F939F93AF93BF93EF93B9
:1017C000FF931E9B14C081E00E947603FF91EF916E
:1017D000BF91AF919F918F917F916F915F914F9149
:1017E0003F912F910F900FBE0F901F90189580E0A2
:1017F000EBCF1F920F920FB60F9211242F933F93AE
:101800004F935F936F937F938F939F93AF93BF9308
:10181000EF93FF938091E1069091E206E091AE068E
:10182000F091AF06E80FF91F21812F3F09F457C04F
:10183000E091AE06F091AF063081231708F04FC05B
:10184000E091AE06F091AF0634E2239FE00DF11D6A
:101850001124258536852130310509F040C04785A2
:1018600050898130910509F05BC080913C0781303F
:1018700021F48091D906811135C082E090E09093E7
:10188000E2068093E10680918C0090918D0020917A
:10189000170130911801220F331F821B930B840F05
:1018A000951F9093D6068093D50620918C00309199
:1018B0008D008091150190911601841B950B880F66
:1018C000991F820F931F90938D0080938C0081E06D
:1018D0008093D30681E090E00E94DF0610C050E0C4
:1018E00040E0BFCF1092E2061092E1061092D906B6
:1018F0001092DB0680916F00877F80936F00FF91CD
:10190000EF91BF91AF919F918F917F916F915F9177
:101910004F913F912F910F900FBE0F901F901895F0
:1019200020913C07213059F42091D906211107C09C
:101930002091DD063091DE06203A310570F01092DC
:10194000E2061092E1061092D9061092DB06209171
:101950006F00277F20936F00BFCF2F5F3F4F3093E3
:10196000DE062093DD062091DF063091E0063093FD
:10197000E2062093E10660918C0070918D00209129
:10198000C1063091C206A0911501B0911601E091F7
:10199000BD06F091BE06220F331F2A1B3B0B2E0FF4
:1019A0003F1F241B350B220F331F260F371F1092AA
:1019B000BE061092BD0630938D0020938C008CCF14
:1019C0001F920F920FB60F9211242F933F934F93B4
:1019D0005F936F937F938F939F93AF93BF93EF9397
:1019E000FF938091E5069091E606E091AE06F091B6
:1019F000AF06E80FF91F21812F3F09F457C0E0918E
:101A0000AE06F091AF063081231708F04FC0E09189
:101A1000AE06F091AF0634E2239FE00DF11D1124D4
:101A2000258536852130310509F040C0478550892C
:101A30008330910509F05BC080913C07813021F42F
:101A40008091DA06811135C084E090E09093E6063B
:101A50008093E50680918A0090918B002091170178
:101A600030911801220F331F821B930B840F951F97
:101A70009093D8068093D70620918A0030918B00EE
:101A80008091150190911601841B950B880F991F69
:101A9000820F931F90938B0080938A0081E0809344
:101AA000D40683E090E00E94DF0610C050E040E0E2
:101AB000BFCF1092E6061092E5061092DA06109259
:101AC000DC0680916F008B7F80936F00FF91EF9118
:101AD000BF91AF919F918F917F916F915F914F9146
:101AE0003F912F910F900FBE0F901F90189520914E
:101AF0003C07213059F42091DA06211107C02091CA
:101B0000DD063091DE06203A310570F01092E606CF
:101B10001092E5061092DA061092DC0620916F0012
:101B20002B7F20936F00BFCF2F5F3F4F3093DE0698
:101B30002093DD062091E3063091E4063093E6061B
:101B40002093E50660918A0070918B002091C10678
:101B50003091C206A0911501B0911601E091BF0627
:101B6000F091C006220F331F2A1B3B0B2E0F3F1F85
:101B7000241B350B220F331F260F371F1092C00670
:101B80001092BF0630938B0020938A008CCF1F9257
:101B90000F920FB60F9211242F933F934F935F93A1
:101BA0006F937F938F939F93AF93BF93EF93FF9325
:101BB0001092C1000E94C206E2E7F0E080818F77B8
:101BC0008083FF91EF91BF91AF919F918F917F9112
:101BD0006F915F914F913F912F910F900FBE0F909A
:101BE0001F9018951F920F920FB60F9211242F93EA
:101BF0003F934F935F938F939F93EF93FF93589AE5
:101C00002091AC063091AD068091AB0691E0980F23
:101C10009093AB0690E0880F991F820F931FFC01F1
:101C2000808191812091A9063091AA06820F931F8D
:101C30009093AA068093A9064091BE005091BF00E0
:101C40009C012550310942175307F0F49093BF00CF
:101C5000CE9A8091A9068093CF0080917200806413
:101C600080937200809172008F7D80937200FF914B
:101C7000EF919F918F915F914F913F912F910F9095
:101C80000FBE0F901F901895589880911301909156
:101C900014012091A9063091AA06820F931F9093F8
:101CA000AA068093A9069093BF00CF9A8091A906B7
:101CB0008093D200809172008068809372001092AD
:101CC0000B07D0CF1F920F920FB60F9211242F93B4
:101CD0003F938F939F93EF93FF9358988091AB0618
:101CE0009091A8062091A9063091AA06891788F537
:101CF000E091AC06F091AD0691E0980F9093AB06A1
:101D000090E0880F991FE80FF91F80819181820F61
:101D1000931F9093AA068093A9069093BF00CD9A33
:101D20008091A9068093D000809172008062809398
:101D30007200809172008F7B80937200FF91EF910F
:101D40009F918F913F912F910F900FBE0F901F90F9
:101D500018958091130190911401820F931F909315
:101D6000AA068093A9069093BF00CF9A8091A906F6
:101D70008093D200809172008068809372001092EC
:101D80000B07D7CFECE5F7E01382128288EE93E0E1
:101D9000A0E0B0E084839583A683B78384EA95E0CE
:101DA000918380838FEF9FEF95878487ECEAF7E03C
:101DB00011821082138212821582148264EB75E004
:101DC000CF010C945F08CF93DF93CDB7DEB7A49714
:101DD0000FB6F894DEBF0FBECDBF789484B5826095
:101DE00084BD84B5816084BD85B5826085BD85B5BF
:101DF000816085BD80916E00816080936E0010923D
:101E000081008091810082608093810080918100B7
:101E10008160809381008091800081608093800048
:101E20008091910082608093910080919100816007
:101E300080939100809190008160809390008091C8
:101E4000C10084608093C1008091C1008260809352
:101E5000C1008091C10081608093C1008091C30066
:101E600081608093C3008091C00082608093C00035
:101E70008091C20081608093C20080917A0084606A
:101E800080937A0080917A00826080937A008091BA
:101E90007A00816080937A0080917A0080688093D4
:101EA0007A0010925B071092BC061092BB068091DC
:101EB000D70081608093D70080EA8093D80089B5ED
:101EC000806189BD89B5826089BD09B400FEFDCFFE
:101ED0000E9430018091D8008F7C80618093D8006F
:101EE0008091E000807F8093E0008091E1008E7E11
:101EF0008093E1008DE08093E200559A209A8FEF65
:101F00009FEF909369078093680785EB95E00E94A7
:101F10005E07509AF8941092390786E08093190171
:101F200088E59BE1909316018093150184EF91E081
:101F300090931801809317018EE190E09093140123
:101F40008093130110923D0710920B0710923B07EC
:101F500010923A071092EB061092EA061092ED06E4
:101F60001092EC061092EF061092EE061092F10617
:101F70001092F0061092E9061092E8061092E70619
:101F80001092E6061092E5061092E4061092E3061F
:101F90001092E2061092E1061092E0061092DF061F
:101FA0001092DE061092DD061092DC061092DB061F
:101FB0001092DA061092D90684E0E5EDF6E0DF0132
:101FC000282F1D922A95E9F71092D4061092D30675
:101FD0001092CF061092D0061092D1061092D2061F
:101FE0001092CB061092CC061092CD061092CE061F
:101FF0001092CA061092C9061092C8061092C7061F
:102000001092C3061092C4061092C5061092C6061E
:102010001092C2061092C106EDEBF6E0DF011D92B0
:102020008A95E9F7789410928200109281001092BC
:10203000800010926F008FEF86BBF894109285009D
:102040001092840092E09093810078941092C000E6
:102050001092C1001092C2001092C3001092720040
:1020600089BBFE0131966F0110E000E0FE2EED2CE1
:10207000C8010E94CC18D6018D936D010F5F1F4FD0
:1020800002321105A9F789819A81AB81BC818D3318
:102090009D43AD43BD4309F044C08D815E81AF8156
:1020A000B885E985FA856B857C858D849E84AF84AF
:1020B000B88849893D89288D9A8D1CEF180F509357
:1020C0001901B0931801A0931701F0931601E09342
:1020D0001501709314016093130180920F01909287
:1020E0001001A0921101B092120140930E013093A1
:1020F0000D011A3008F0DDC1209344072F8D209385
:102100004307909342078C3018F09D8D90933F07C2
:102110008D3019F48E8D80933E078EEB95E00E94F2
:102120005E07809139078111F5C10E94AA0783EDEE
:1021300095E00E945E0734E1632E8CE597E00E94F3
:10214000F602181619060CF0ABC38CE597E00E9456
:10215000B402D82E89831A820091B0071091B1077A
:102160000F5F1F4FB8018CEA97E00E943708882361
:1021700091F02091AC073091AD078091B00790911C
:10218000B1076F2D7E2D820F931F0E942C1B109381
:10219000B1070093B007FAE0DF12CFCF712C512CBA
:1021A00010E0C52CD12C1A8219821C821B821E823F
:1021B0001D8261EE75E08F2D9E2D0E945F0880913B
:1021C000B0079091B107C816D90608F0B0C1A09029
:1021D000AC07B090AD0769817A81C5018C0D9D1D5A
:1021E0000E94331B009709F4A2C18A199B09082F8A
:1021F0008F2D9E2D0E948B070F3F61F51A82198249
:102200001C821B821E821D8263EB75E08F2D9E2D2A
:102210000E945F088091B0079091B107C816D90657
:1022200008F088C1A090AC07B090AD0769817A81B1
:10223000C5018C0D9D1D0E94331B009709F47AC1C6
:102240008A199B09082F8F2D9E2D0E948B070F3F07
:1022500009F47AC0501608F077C0802E912C8C14A7
:102260009D0420F0892D4601C02ED82E1A82198295
:102270001C821B821E821D8264EB75E08F2D9E2DB9
:102280000E945F08A090B007B090B1078A149B0429
:1022900080F5CA14DB0408F45601E091AC07F09114
:1022A000AD07EA0DFB1D50801082C090AC07D090A6
:1022B000AD07C80CD91CC114D10479F0F601019006
:1022C0000020E9F731974F018C189D08B4018F2D3C
:1022D0009E2D0E943708811130C18F2D9E2D0E94A6
:1022E00079078091AC079091AD07A80EB91ED50172
:1022F0005C9289819A81812C912C5401009721F064
:102300000E9490184B015C018F2D9E2D0E948B071F
:1023100055245394500E111101C0782C7110B2C184
:10232000B7FC49C2113009F010C1B8E08B16910416
:10233000A104B10414F48092190180913F0788230D
:1023400009F493C21092F9061F5F153109F029CFE5
:10235000711044C286EE95E00E946A074AE064E18B
:1023600070E080E090E00E941A0781EE95E00E9404
:102370006A07809119010E946C0781EE95E00E9426
:102380006A0780911701909118010E94730781EEEE
:1023900095E00E946A0780911501909116010E94B4
:1023A000730781EE95E00E946A0780911301909176
:1023B00014010E94730781EE95E00E946A07609104
:1023C0000F017091100180911101909112014AE06A
:1023D0000E941A0781EE95E00E946A0780910E0123
:1023E0000E946C0781EE95E00E946A0780910D01C2
:1023F0000E946C0781EE95E00E946A078091440775
:102400000E946C0781EE95E00E946A078091430765
:102410000E946C0781EE95E00E946A078091420756
:102420000E946C0781EE95E00E946A078091400748
:10243000909141070E94730781EE95E00E946A0720
:1024400080913F070E946C0781EE95E00E946A0729
:1024500080913E070E946C0781EE95E00E946A071A
:1024600080913D070E946C0781EE95E00E946A070B
:1024700080910C010E946C0781EE95E00E946A0732
:1024800080913C070E946C0781EE95E00E946A07EC
:1024900080913A0790913B070E94730781EE95E087
:1024A0000E946A07809139070E946C070E941607F4
:1024B00008C13E89309344073F89309343072093F6
:1024C000420790933F079B8D90933E079C8D90937E
:1024D0003D07803118F09D8D90930C01813108F4F7
:1024E0001CCE9E8D90933C07813109F416CE2F8D22
:1024F00038A130933B0720933A0729A13AA13093A2
:10250000410720934007843108F407CE898D8093DA
:10251000390703CE80913907813009F408CE8091C4
:102520003907823009F003CE0E94680300CE8FEF96
:102530009FEF5DCE8FEF9FEF85CE9E828D82B6019D
:1025400089819A810E942C1BCCCE123029F4909262
:10255000180180921701F1CE133029F490921601E0
:1025600080921501EACE143029F4909214018092E1
:102570001301E3CE153049F480920F0190921001BF
:10258000A0921101B0921201D8CE163019F48092A7
:102590000E01D3CE173019F480920D01CECE183033
:1025A00019F480924407C9CE193019F48092430778
:1025B000C4CE1A3019F480924207BFCE1B3029F4E2
:1025C0009092410780924007B8CE1C3019F4809257
:1025D0003F07B3CE1D3019F480923E07AECE1E30B9
:1025E00019F480923D07A9CE1F3019F480920C0196
:1025F000A4CE103119F480923C079FCE113129F4FA
:1026000090923B0780923A0798CE123109F095CE0E
:102610008091390790E0B0E0A0E088159905AA05FF
:10262000BB0509F48ACE8091390781110FC08091D2
:102630007A00877780937A0081149104A104B10411
:10264000C1F40E94AA078092390777CE809139079A
:10265000813091F380913907823071F78091680061
:102660008E7F8093680080916B008F7B80936B00DE
:10267000E3CFE2E08E169104A104B10421F70E9499
:102680006803E1CFF7E07F1221C0113009F093C059
:1026900023E082169104A104B10408F08CC087E005
:1026A00090E081149104A104B10449F088E090E025
:1026B0008A9489288A288B2811F089E090E00E946A
:1026C000DF0683EE95E00E945E0788C048E0741242
:1026D00072C08DE39DE3DC0189839A83AB83BC8365
:1026E0006D82809119018E8380911701909118015C
:1026F00098878F8380911501909116019A87898719
:1027000080911301909114019C878B8780910F0118
:1027100090911001A0911101B09112018D879E87B7
:10272000AF87B88B80910E0190E0B0E0A0E0898B7C
:102730009A8BAB8BBC8B80910D018D8B8091440764
:102740008E8B809143078F8B80914207888F809179
:102750003907898F80913F078A8F80913E078B8F41
:1027600080913D078C8F80910C018D8F80913C076B
:102770008E8F80913A0790913B0798A38F8F80911D
:102780004007909141079AA389A3CF2CDE2C10E03B
:1027900000E0D601BD906D01C8010E94CC18B816AA
:1027A00021F06B2DC8010E94D4180F5F1F4F023219
:1027B000110579F786CF809139078130F1F5B9E0BD
:1027C0007B123BC0113009F0BFCD81149104A104EC
:1027D000B10409F042C081E00E9476031A82198296
:1027E0001C821B821E821D8264EB75E08F2D9E2D44
:1027F0000E945F088091AC079091AD070097C9F1E6
:1028000069817A816115710591F14091AE0750910E
:10281000AF072D813E814217530748F10E942C1BC0
:102820008D819E819093B1078093B0071E821D8297
:102830008F2D9E2D0E948B0780CCEAE07E1284CDE6
:10284000113009F081CD22E082169104A104B10477
:1028500008F07ACD8092380734CF8A9489288A2864
:102860008B2809F0BBCF80E0B7CF712C6DCD0E94D3
:10287000DD1989819A819093AD078093AC078B8194
:102880009C819093AF078093AE078D819E8190933A
:10289000B1078093B0071A8219821C821B82C6CFAF
:1028A00080913907811152C180914407882341F0FA
:1028B00080910B0781118DC380910A07811189C313
:1028C00080911E078BA380911F078CA3109206078F
:1028D00010920707109208071092090780900207CC
:1028E00090900307A0900407B0900507811491040D
:1028F000A104B10409F0D3C09DEF892E96E0992E72
:102900000FEF16E02BEFA22E26E0B22ED12CC12C19
:10291000552453946C2C80910107882339F1E3E20C
:10292000F0E0EC0FFD1FEC0DFD1D9081F601EE5E59
:10293000F84F8081981708F482C08C2D852590E08F
:10294000A3E2B0E0AC0FBD1FA80FB91FFC01E25F0E
:10295000F84F3C912081D801231708F474C02C91C2
:102960002F5F2C938150994FFC011082F8018191C7
:102970008F01833040F490913807992309F451C0B6
:10298000823009F04EC0D4017C9071104AC05C9234
:102990008091060790910707A0910807B091090759
:1029A000892B8A2B8B2B51F40E940B016093060715
:1029B000709307078093080790930907F501108229
:1029C0008091FA06F601E950F94F861104C0809112
:1029D000F90681113AC010821092F6061092F5069F
:1029E000F5018081882309F4C4C180910607909184
:1029F0000707A0910807B091090740910F01509176
:102A000010016091110170911201840F951FA61F92
:102A1000B71F8093020790930307A0930407B09316
:102A20000507FFEF8F1A9F0A2FEFA21AB20ACA9466
:102A3000CD2809F4D4C1CC24C394D12C6BCFD801B8
:102A40001C92F40192CF1C9291CF50828091260764
:102A500090912707019690932707809326078091EE
:102A6000F5069091F60601969093F6068093F5068A
:102A700040903F0720914307222309F478C180FF4B
:102A800008C0442011F0019739F482EF95E00E94CC
:102A90005E07442009F4A4CFD5015C92A1CF0E9427
:102AA0000B016093060770930707809308079093C4
:102AB0000907681579058A059B0508F490C168190E
:102AC00079098A099B09611577488349934008F081
:102AD00086C1109202071092030710920407109209
:102AE00005077DC180E8A5C190E0BBC180910A07C0
:102AF000882309F476C280910A07815070C2863912
:102B00009105A105B10509F465C040F58D37910522
:102B1000A105B10509F4C3C080912C0790912D0740
:102B2000A0912E07B0912F070196A11DB11D853FE1
:102B3000E1E09E07A105B10508F0F5C080932C07E0
:102B400090932D07A0932E07B0932F0780E090E07D
:102B5000892B09F4F0CA0E940000EDCA8F3A910552
:102B6000A105B10509F4A0C0883C9105A105B105F6
:102B700099F68EE696E00E946A07809118079AC03F
:102B8000873741E09407A105B10509F4B7C048F5BE
:102B90008331E1E09E07A105B10509F495C068F411
:102BA0008A3F9105A105B10509F0B6CF8BE796E004
:102BB0000E946A07809110077DC0853421E092074A
:102BC000A105B10509F497C08E359140A105B10565
:102BD00009F0A2CF87E596E00E946A0790E080E0C6
:102BE00039C0893A41E09407A105B10509F48DC0C7
:102BF00068F480399140A105B10509F08DCF8EE6CA
:102C000096E00E946A078091190754C0823CF1E067
:102C10009F07A105B10509F47FC08B3D9140A10537
:102C2000B10509F079CF83E896E00E946A078091A8
:102C30000D070E946C070E94160784EF91E0A0E048
:102C4000B0E024C085EF95E00E946A0780912807D4
:102C5000909129070E9473075FCF85E196E00E945B
:102C60006A078091240790912507F4CF88E296E0C7
:102C70000E946A0780912007909121070E947307A4
:102C80000E94160784E690E0A0E0B0E080932C0755
:102C900090932D07A0932E07B0932F073DCF8BE382
:102CA00096E00E946A0738CF84E696E00E946A07A1
:102CB00080911C070E946C072FCF85E796E00E9449
:102CC0006A0780911407F6CF83E896E00E946A07AE
:102CD00080910C070E946C070E9416072CE231E0DD
:102CE00040E050E020932C0730932D0740932E07AF
:102CF00050932F0711CF8BE896E0D3CF84E696E070
:102D00000E946A0780911D07D5CF85E796E00E9453
:102D10006A0780911507CECF8BE796E00E946A077D
:102D200080911107C7CF10922C0710922D07109297
:102D30002E0710922F07F0E48F0EFBE49F1EFCE499
:102D4000AF1EB11C8092300790923107A0923207DB
:102D5000B0923307FBCE0E9410030E94930720E439
:102D6000820E2BE4921E2CE4A21EB11CEBCF41106C
:102D700093CE80913F07882351F08091F906772404
:102D80007394882321F08091FA068611712C609249
:102D9000FA0611E01093F906711021C08091060720
:102DA00090910707A0910807B091090740910F0182
:102DB000509110016091110170911201840F951FC3
:102DC000A61FB71F8093020790930307A0930407E1
:102DD000B0930507862D0E9476031093F406809128
:102DE0003807882309F4CDC08FE0E0E2F1E0AF2D91
:102DF000BE2D01900D928A95E1F780910607909182
:102E00000707A0910807B0910907892B8A2B8B2B04
:102E100051F40E940B01609306077093070780939B
:102E20000807909309078091F806882309F45ACE81
:102E300080EA9091FC0640E1911101C040E0909140
:102E4000FE0638E0911101C030E09091F70624E0D1
:102E5000911101C020E09091FB06992309F444CE22
:102E600092E05091FD06852B842B832B822B892B9E
:102E70008C838091010738E8811101C030E880918E
:102E8000FA0624E0813009F020E08091F40692E017
:102E9000811101C090E081E0409102075091030749
:102EA0006091040770910507452B462B472B09F4C9
:102EB00080E0832B822B892B8D838091F50680689F
:102EC0008E832BA1822F8695869580688F838CA117
:102ED00050E2259F900111242076982F9695969583
:102EE00096959068292B28874091060750910707EF
:102EF00060910807709109078295807F282F2077BD
:102F0000DB01CA013CE1B695A795979587953A955F
:102F1000D1F7822B80688987DB01CA01E5E1B6958C
:102F2000A79597958795EA95D1F780688A87DB0101
:102F3000CA01FEE0B695A79597958795FA95D1F7C2
:102F400080688B87DB01CA0117E0B695A795979536
:102F500087951A95D1F780688C8740684D874FE038
:102F600050E06F2D7E2D8CE597E00E940E021092AE
:102F7000F4061092F8061092FC061092F7061092D2
:102F8000FB0620912A0730912B078BA18093F20634
:102F900090911A07981710F480931A0790911607CA
:102FA000891710F4809316078CA18093F3069091F3
:102FB0001B07981710F480931B0790911707891728
:102FC00010F4809317072E5F3F4F30932B07209309
:102FD0002A0780910B07882309F488CD8AE0809323
:102FE0000A070E940B014B015C018092340790920A
:102FF0003507A0923607B09237078091300790913D
:103000003107A0913207B091330788169906AA06B6
:10301000BB0608F49BCDA5019401281B390B4A0B74
:103020005B0BDA01C90181159748A349B34008F049
:103030008DCD80914207882309F48DCE80912C0795
:1030400090912D07A0912E07B0912F07813E9105F9
:10305000A105B10509F431CE08F092CD8B3491056C
:10306000A105B10509F402CE08F049CD89319105D9
:10307000A105B10509F4E6CD82339105A105B1059D
:1030800009F4EBCD892B8A2B8B2B09F045CD809150
:103090002A0790912B079093290780932807809106
:1030A0002607909127079093250780932407809106
:1030B0002207909123079093210780932007809106
:1030C0001E0780931C0780911A0780931807809130
:1030D0001607809314078091120780931007809140
:1030E0000E0780930C0780911F0780931D07809126
:1030F0001B0780931907809117078093150780910C
:1031000013078093110780910F0780930D070E948A
:1031100010030E94930700CD8CEA97E00C948B0774
:103120001F93FC0199278827BC01E8941191103264
:10313000E9F3193010F01E30C8F31B3251F01D3284
:1031400049F4689406C00E94B718610F711D811D73
:10315000911D119110531A30B0F33EF49095809563
:10316000709561957F4F8F4F9F4F1F910895592FF5
:10317000482F372F262F660F771F881F991F660F3E
:10318000771F881F991F620F731F841F951F660F7B
:10319000771F881F991F0895F999FECF92BD81BDB1
:1031A000F89A992780B50895262FF999FECF1FBA6E
:1031B00092BD81BD20BD0FB6F894FA9AF99A0FBE60
:1031C000019608952F923F924F925F926F927F9255
:1031D0008F929F92AF92BF92CF92DF92EF92FF9227
:1031E0000F931F93CF93DF93CDB7DEB7CA1BDB0BD3
:1031F0000FB6F894DEBF0FBECDBF09942A88398878
:1032000048885F846E847D848C849B84AA84B9847E
:10321000C884DF80EE80FD800C811B81AA81B9818A
:10322000CE0FD11D0FB6F894DEBF0FBECDBFED019E
:103230000895A1E21A2EAA1BBB1BFD010DC0AA1FF7
:10324000BB1FEE1FFF1FA217B307E407F50720F00F
:10325000A21BB30BE40BF50B661F771F881F991F8A
:103260001A9469F760957095809590959B01AC01D3
:10327000BD01CF010895EE0FFF1F0590F491E02DE1
:1032800009940F931F93CF93DF938230910510F42D
:1032900082E090E0E091B407F091B50730E020E0E3
:1032A000B0E0A0E0309799F42115310509F44AC047
:1032B000281B390B24303105D8F58A819B81611593
:1032C000710589F1FB0193838283FE0111C0408166
:1032D00051810281138148175907E0F048175907B7
:1032E00099F4109761F012960C93129713961C9311
:1032F0003296CF01DF91CF911F910F9108950093E6
:10330000B4071093B507F4CF2115310551F04217DA
:10331000530738F0A901DB019A01BD01DF01F80173
:10332000C1CFEF01F9CF9093B5078093B407CDCF0C
:10333000FE01E20FF31F81939193225031093983EB
:103340002883D7CF2091B2073091B307232B41F4C4
:1033500020911C0130911D013093B3072093B207D7
:1033600020911A0130911B012115310541F42DB72F
:103370003EB740911E0150911F01241B350BE09177
:10338000B207F091B307E217F307A0F42E1B3F0B2F
:103390002817390778F0AC014E5F5F4F24173507C7
:1033A00048F04E0F5F1F5093B3074093B2078193CD
:1033B00091939FCFF0E0E0E09CCFCF93DF93009715
:1033C000E9F0FC01329713821282A091B407B09108
:1033D000B507ED0130E020E01097A1F420813181A4
:1033E000820F931F2091B2073091B3072817390736
:1033F00009F061C0F093B307E093B207DF91CF917A
:103400000895EA01CE17DF07E8F54A815B819E0146
:1034100041155105B1F7E901FB83EA8349915991BF
:10342000C40FD51FEC17FD0761F4808191810296CE
:10343000840F951FE90199838883828193819B83FF
:103440008A83F0E0E0E012968D919C9113970097AB
:10345000B9F52D913C911197CD010296820F931FE2
:103460002091B2073091B3072817390739F6309702
:1034700051F51092B5071092B407B093B307A0931B
:10348000B207BCCFD383C28340815181840F951F83
:10349000C817D90761F44E5F5F4F88819981480F43
:1034A000591F518340838A819B8193838283211595
:1034B000310509F0B0CFF093B507E093B4079ECF84
:1034C000FD01DC01C0CF13821282D7CFB0E0A0E0B3
:1034D000ECE6FAE10C94E4188C01009751F4CB016E
:1034E0000E9441198C01C801CDB7DEB7E0E10C9410
:1034F0000019FC01E60FF71F9C0122503109E21769
:10350000F30708F49DC0D901CD91DC911197C6173E
:10351000D70798F0C530D10530F3CE010497861750
:10352000970708F3C61BD70B2297C193D1936D93CE
:103530007C93CF010E94DD19D6CF5B01AC1ABD0A86
:103540004C018C0E9D1EA091B407B091B507512C73
:10355000412CF12CE12C109731F58091B20790911C
:10356000B3078815990509F05CC04616570608F0A0
:1035700058C080911A0190911B01009741F48DB7BA
:103580009EB740911E0150911F01841B950BE817B7
:10359000F90708F055C0F093B307E093B207F901BB
:1035A00071836083A0CF8D919C91119712966C903E
:1035B000129713967C901397A815B90559F56C01CD
:1035C00042E0C40ED11CCA14DB0420F1AC014A193C
:1035D0005B09DA011296159780F06282738251833B
:1035E0004083D9016D937C93E114F10471F0D7010C
:1035F0001396FC93EE93129776CF22968C0F9D1F15
:10360000F90191838083F301EFCFF093B507E09345
:10361000B40769CF4816590608F42C017D01D3017F
:103620009ACFCB010E9441197C01009749F0AE016D
:10363000B8010E94231BC8010E94DD19870153CFE6
:1036400010E000E050CFFB01DC0102C001900D92C0
:1036500041505040D8F70895FB01DC0101900D92D4
:103660000020E1F70895FB0151915523A9F0BF0116
:10367000DC014D9145174111E1F759F4CD0101905D
:10368000002049F04D9140154111C9F3FB01411152
:10369000EFCF81E090E00197089510E0C1E9D0E01C
:1036A00004C0FE010E943B192196C239D107C9F717
:0436B000F894FFCFBC
:1036B400FFFFFFFF00E100000000000020800A641B
:1036C4001900001E00581BF401060000B607800014
:1036D4002B6F20000000000000000000000D0A0213
:1036E400FFFFFFFFFFFFFFFFFFFF000100001400CB
:1036F40001001400000000000000000000000000B1
:1037040000000000000000000000000000000000B5
:103714000000CD00030000007D0014000000000044
:103724000000000000000000000000000000000095
:103734000000000009FF000102030405060708FF5A
:10374400FF0000DC0007001400140014003C001407
:10375400003C001400000000000000000000000015
:1037640000000000000000DC00070014003C00140E
:10377400003C0014001400140000000000000000CD
:103784000000000000000000000000DC000700143E
:10379400003C001400140014003C0014000000005D
:1037A400000000000000000000000000000000DC39
:1037B4000007001400140014006400140014001422
:1037C40000000000000000000000000000000000F5
:1037D400000000DC0007001400640014001400144E
:1037E40000140014000000000000000000000000AD
:1037F400000000000000000401070014006400142D
:10380400003C00140014001400000000000000003C
:1038140000000000000000000000009001070014F8
:1038240000C800140064001400C800140000000064
:10383400000000000000000000000000000000681C
:103844000107001400C80014003C001400C8001450
:103854000000000000000000000000000000000064
:10386400000000400107001400C8001400140014F4
:1038740000C8001400000000000000000000000068
:10388400000000000009FF00010203FFFFFFFFFF2B
:10389400FFFF0000DC0007001400140014003C00CB
:1038A40014003C00140000000000000000000000B0
:1038B4000000000000000000DC00070014003C00D1
:1038C40014003C0014001400140000000000000068
:1038D400000000000000000000000000DC00070001
:1038E40014003C001400140014003C0014000000F8
:1038F40000000000000000000000000000000000C4
:10390400DC00070014001400140064001400140008
:10391400140000000000000000000000000000008F
:10392400000004FF00010203FFFFFFFFFFFFFF0091
:10393400001C020900140014001400140014007C7C
:103944000114001400140000000000000000000036
:103954000000000000CC010900140014001400143D
:103964000014002C011400140014000000000000D6
:103974000000000000000000007C01090014001495
:1039840000140014001400DC0014001400140000DF
:10399400000000000000000000000000002C0109ED
:1039A40000140014001400140014008C00140014FB
:1039B40000140000000000000000000000000002ED
:1039C400FFFFFFFFFFFFFFFFFFFF000100001C02DE
:1039D4000F0014001400140014001400500014000C
:1039E4008C0014001400140050001400140014007F
:1039F4000000B8010F001400140014001400140097
:103A04003C0014003C001400140014005000140086
:103A14001400140004FF00010203FFFFFFFFFFFF77
:103A2400FF01006400030017002E001F00000000C7
:103A34000000000000000000000000000000000082
:103A4400000000000001008D00030017004E002854
:103A54000000000000000000000000000000000062
:103A640000000000000000000001002B0001002BFA
:103A74000000000000000000000000000000000042
:103A840000000000000000000000000000010044ED
:103A940000030017001500180000000000000000DB
:103AA4000000000000000000000000000000000012
:103AB4000002FFFFFFFFFFFFFFFFFFFF0001000009
:103AC4005E00050012001400120014001200000031
:103AD40000000000000000000000000000000000E2
:103AE400000000006000030012003C00120000000F
:103AF40000000000000000000000000000000000C2
:103B040000000000000001FFFFFFFFFFFFFFFFFFB9
:103B1400FF00FF0000420005000E000C000E000C28
:103B2400000E000000000000000000000000000083
:103B3400000000000000005605010564040F047233
:103B440003D50284012F01070600C1808100000013
:103B5400000000008F020E02B002A502F602B402B9
:103B6400D2020D0A002B737461727475700065655E
:103B740070726F6D20726561645F73657474696ED1
:103B8400677300696E697420636F6D706C6574652A
:103B9400002C004F4B00706172616D657465727327
:103BA40020002B64002B73746174732067656E6549
:103BB40072616C2072656164696E675F636F756EB4
:103BC4007465723A00206475706C69636174655F32
:103BD4006672616D65733A00207072656D6174750B
:103BE40072655F6672616D65733A002B73746174FC
:103BF400732073656E736F72206368616E6E656C9B
:103C04003A72696768740020646574656374696FE7
:103C14006E733A002072656164696E673A002068C9
:103C24006967683A00206C6F773A00207468725FA5
:103C3400683A00207468725F6C3A002B7374617484
:103C4400732073656E736F72206368616E6E656C4A
:063C54003A6C6566740085
:00000001FF
