:100000000C9492000C94BA000C94BA000C94BA00B0
:100010000C94BA000C94BA000C94BA000C94BA0078
:100020000C94BA000C94BA000C9422060C9491061D
:100030000C94BA000C94BA000C94BA000C94BA0058
:100040000C94BA000C94D2090C9450090C941E091B
:100050000C94BA000C94BA000C94BA000C94D80515
:100060000C94BA000C94BA000C94BA000C94BA0028
:100070000C94BA000C94C3080C94BA000C94BA0007
:100080000C94BA000C94BA000C94BA000C94BA0008
:100090000C94BA000C94BA000C94EF0A0C947F0AEA
:1000A0000C94540A0C94BA000C94BA00080B000289
:1000B0000202000009040000010202000005240001
:1000C0001001052401010104240206052406000193
:1000D0000705810310004009040100020A00000026
:1000E00007050202400000070583024000000403E8
:1000F000090412010002EF0201404F1B06920001A9
:1001000001020301537061726B46756E005370619A
:10011000726B46756E2050726F204D6963726F006E
:100120004F0B5B1411241FBECFEFDAE0DEBFCDBF53
:1001300027E0A4E4B6E001C01D92AB32B207E1F7BC
:1001400016E0A0E0B1E0E2E5FEE202C005900D920B
:10015000A434B107D9F710E0C1E9D0E004C0219779
:10016000FE010E940A15C039D107C9F70E94700B21
:100170000C941C170C9400009091D00621E030E004
:10018000981711F023E030E0E0911801F0E0EE0F55
:10019000FF1FE65CFA4F0190F081E02DF093CF064F
:1001A000E093CE06DF01A20FB31F11964C91908110
:1001B000941710F04F3F79F42091D006821358C065
:1001C0002AE030E0E20FF31F8181981708F463C042
:1001D0008F3F09F460C0F8944091840050918500ED
:1001E00078948091160190911701880F991F840FC0
:1001F000951FE091CE06F091CF06F093CD06E093E7
:10020000CC06DF01A20FB31F11964C914F3F89F02E
:100210005081451770F454E2459FE00DF11D112403
:10022000458556854130510521F447855089841B09
:10023000950BA901435051094230510518F02B305C
:10024000310551F54091CA065091CB06452B99F4E2
:10025000F8943093CB062093CA069093890080933C
:100260008800B19A80916F00826080936F0012C005
:100270002BE030E0A7CF4091C8065091C906452B2E
:1002800051F4F8943093C9062093C8069093C7069A
:100290008093C60678940895A901415051094230CF
:1002A000510518F02A30310521F54091C4065091CE
:1002B000C506452B71F4F8943093C5062093C40607
:1002C00090938B0080938A00B29A80916F00846033
:1002D000CCCF4091C2065091C306452BE1F6F8946D
:1002E0003093C3062093C2069093C1068093C00644
:1002F000D1CF4091BE065091BF06452B61F6F894D0
:100300003093BF062093BE0690938D0080938C009F
:10031000B39A80916F008860A8CF2FB7F89483E0DC
:100320008093E9009091E800892F807295FF04C0C6
:100330009091F20080E4891B2FBF0895FC01809109
:10034000BD06882311F13FB7F89482E08093E9005D
:100350002091F200822F90E01816190614F481E023
:1003600090E0882339F0289844E64093BC064091F9
:10037000F1004083222339F02091F200211103C0C3
:100380002BE62093E8003FBF08958FEF9FEF08957D
:100390008091B40681110DC082E08093B00684E0A4
:1003A0008093B1061092B3061092B20681E080935A
:1003B000B40680EB96E008953FB7F8948091AC06C0
:1003C0009091AD06A091AE06B091AF0626B5A89B60
:1003D00005C02F3F19F00196A11DB11D3FBFBA2FD7
:1003E000A92F982F8827BC01CD01620F711D811D97
:1003F000911D42E0660F771F881F991F4A95D1F71C
:100400000895CF92DF92EF92FF920E94DC016B0180
:100410007C010E94DC016C197D098E099F09683EF0
:10042000734081059105A8F3FF90EF90DF90CF9086
:100430000895089540914C0650914D0620914A062A
:1004400030914B0642175307B4F49091E800957031
:10045000E1F39091E80092FD19C08093F100809142
:100460004C0690914D0601968F739927892B19F4AC
:100470008EEF8093E80080914C0690914D06019696
:1004800090934D0680934C0681E0089580E0089596
:10049000EF92FF920F931F93CF93DF93F82E192FB4
:1004A000E62E042F81E0860F880F0E941A0283E057
:1004B0000E941A02CF2DD12FEC0EFD2EF11CCE156D
:1004C000DF05B9F007FF13C0FE0184910E941A02F4
:1004D000182F80E00E941A02812321968111EFCF0C
:1004E000DF91CF911F910F91FF90EF900895888138
:1004F000EDCF81E0F5CFDF92EF92FF920F931F9344
:10050000CF93DF93D82E8A01EB017B01E40EF51E19
:10051000CE15DF0559F0D7FE12C0FE0184910E946E
:100520001A0221968111F4CF0FEF1FEFC801DF915E
:10053000CF911F910F91FF90EF90DF9008958881E8
:10054000EECF0F931F93CF93DF931F92CDB7DEB7FC
:1005500082E0898342E450E06CEA70E080E80E9427
:100560007B020E94C801DC0112960D911C910115BD
:10057000110589F0D801ED91FC910280F381E02D05
:10058000BE016F5F7F4FC801099597FD04C0F80158
:1005900000851185ECCF89810F90DF91CF911F915C
:1005A0000F910895615030F02091F100FC012083FB
:1005B0000196F8CF289884E68093BC0608958F9220
:1005C0009F92AF92BF92CF92DF92EF92FF920F93E2
:1005D0001F93CF93DF936C017B018A0180910B0104
:1005E000882309F458C08091BD06882309F453C0BC
:1005F0008091500680FF05C08091E000826080936A
:10060000E000E801B12C8AEFA82E93E0892E2AE3BE
:10061000922E209711F4BB20B9F10E948D01811117
:1006200006C0AA94AA20B9F10E940102F2CF8C1749
:100630001D0611F00CF08C2F9FB7F8948092E90002
:100640002091E80025FD02C09FBFE3CF282F30E0B6
:10065000C21BD30BF701815020F041914093F10070
:10066000FACFE20EF31EBB2021F09092E800B12CED
:10067000EBCF8091E80085FDE7CF9092E800BB24A6
:10068000B394209709F3F3CF5D9884E680934F06E7
:10069000101611063CF081E090E0F601938382830E
:1006A00010E000E0C801DF91CF911F910F91FF9002
:1006B000EF90DF90CF90BF90AF909F908F90089574
:1006C000CF93DF931F92CDB7DEB76983DC01ED9145
:1006D000FC910280F381E02D41E050E0BE016F5FAC
:1006E0007F4F09950F90DF91CF91089583E080931C
:1006F000E9008091F200882319F08AE38093E800F2
:1007000008950E948D0190E00895CF93DF931F928A
:10071000CDB7DEB7FC018485958597FD08C02FEF26
:100720003FEF358724870F90DF91CF910895CE0159
:1007300001960E949E01019719F4898190E0F3CF00
:100740008FEF9FEFF0CF0F931F93CF93DF931F9205
:10075000CDB7DEB78C01FC018485958597FF0BC072
:10076000CE0101960E949E01019771F4898190E06B
:10077000F80195878487F801848595850F90DF912E
:10078000CF911F910F9108958FEF9FEFF1CFFC0153
:100790008485958597FD0BC09FB7F89482E0809380
:1007A000E9008091F2009FBF90E0019608959FB705
:1007B000F89482E08093E9008091F2009FBF90E07E
:1007C000089570910D0130910C018FEF90E0831B23
:1007D00091096091820621E0671708F420E0E0911A
:1007E0007E06E89FA001E99F500D1124369F400D21
:1007F000511D112450937A0660918306671708F4FF
:1008000020E070917F06789FA001799F500D112400
:10081000369F400D511D112450937B06209369068D
:100820000895E091CC06F091CD068E0F9F1FDC015C
:1008300011968C918F3F09F47EC09081891708F042
:100840007AC0B4E28B9FC00111249C012D5E3F4F02
:100850002E0F3F1F309349062093480621E0209336
:100860004706E80FF91F8189809344062093770695
:10087000F8941092BF001092BF001092BE0083E067
:100880008093BF008FEF8093D100E0914806F091F4
:100890004906808191819093460680934506009792
:1008A00099F09093BF00809145068093CF0080918E
:1008B0007200806480937200589A8FEF89BB85E044
:1008C0008093C100789408958091470690914406E2
:1008D0008917D8F491E0980F9093470690E0880F1D
:1008E000991FE80FF91F90818181909345068093AD
:1008F00046068093BF00809145068093D00080918A
:100900007200806280937200D8CF80911201909122
:10091000130190934606809345069093BF00809103
:1009200045068093D20080917200806880937200A7
:1009300010927706C2CF0C949D049091540680913A
:1009400053069817A1F0E0915406F0E0EE0FFF1F58
:10095000EB5AF94F808191812091540630E02F5F4E
:100960003F4F23703327209354060C9411041092A8
:100970005206089520915206222301F1F894209105
:1009800053064091540630E02F5F3F4F23703327CA
:100990004217130689F0E0915306F0E0EE0FFF1FB7
:1009A000EB5AF94F918380838091530690E0019632
:1009B0008370992780935306789408950E941104B8
:1009C00081E0809352060895FC0101900020E9F730
:1009D0003197AF01481B590BBC0181ED96E00C9497
:1009E000DF028AE595E00C94E4048F929F92AF9227
:1009F000BF920F931F93CF93DF93CDB7DEB7A1972D
:100A00000FB6F894DEBF0FBECDBF19A2423008F476
:100A10004AE08E010F5D1F4F842E912CB12CA12C2A
:100A2000A50194010E94E814E62FB901CA01EA3039
:100A3000F4F4E05DD801EE938D01232B242B252BBC
:100A400079F790E080E0109719F0CD010E94E4045E
:100A5000A1960FB6F894DEBF0FBECDBFDF91CF9148
:100A60001F910F91BF90AF909F908F900895E95C78
:100A7000E1CFCF93DF930E94E404EC010E94F104E4
:100A80008C0F9D1FDF91CF9108950C94E404682F83
:100A900070E090E080E04AE00C94F504BC0190E046
:100AA00080E04AE00C94F504CF93DF93EC01888159
:100AB0009981009711F00E94AC15198218821D824D
:100AC0001C821B821A82DF91CF910895FC018081E4
:100AD0009181009711F00C94AC1508951092930633
:100AE0001092920610928F0610928E0610928B062C
:100AF00010928A0610928306109282068FEF9FEF63
:100B000090937F0680937E0608950F931F93CF9353
:100B1000DF93EC0188819981009759F02A813B810C
:100B20002617370730F081E0DF91CF911F910F91A9
:100B300008958B016F5F7F4F0E943516009759F023
:100B4000998388831B830A832C813D81232B59F74A
:100B5000FC011082E8CF80E0E7CFEF92FF920F9385
:100B60001F93CF93DF938C017B01EB010990002051
:100B7000E9F72197C61BD70BBE010E94850581119D
:100B800009C0C801DF91CF911F910F91FF90EF90A5
:100B90000C945405F801D583C483B70180819181F9
:100BA000DF91CF911F910F91FF90EF900C94FB1666
:100BB0001F920F920FB60F9211242F933F938F9392
:100BC0009F93AF93BF938091A8069091A906A0919F
:100BD000AA06B091AB063091A70623E0230F2D376C
:100BE00058F50196A11DB11D2093A7068093A80674
:100BF0009093A906A093AA06B093AB068091AC0689
:100C00009091AD06A091AE06B091AF060196A11DE0
:100C1000B11D8093AC069093AD06A093AE06B09341
:100C2000AF06BF91AF919F918F913F912F910F9000
:100C30000FBE0F901F90189526E8230F0296A11D56
:100C4000B11DD2CF1F920F920FB60F9211248F9326
:100C50009F938091E1009091E100937F9093E10058
:100C600083FF0FC01092E90091E09093EB00109287
:100C7000EC0092E39093ED001092BD0698E0909303
:100C8000F00082FF22C093E09093E9009091F2007F
:100C9000992319F09AE39093E80090914F069923D5
:100CA00041F090914F06915090934F06911101C0E1
:100CB0005D9A9091BC06992341F09091BC069150A9
:100CC0009093BC06911101C0289A84FF18C08091AE
:100CD000E2008E7E81608093E2008091E1008F7E51
:100CE0008093E100809150068E7E80618093500653
:100CF0009F918F910F900FBE0F901F90189580FFBE
:100D0000F7CF8091E2008E7E80618093E200809137
:100D1000E1008E7E8093E100809150068E7E81609E
:100D2000E5CF1F920F920FB60F921124CF92DF9250
:100D3000EF92FF920F931F932F933F934F935F93E5
:100D40006F937F938F939F93AF93BF93EF93FF9393
:100D5000CF93DF93CDB7DEB76C97DEBFCDBF1092D8
:100D6000E9008091E80083FF25C068E0CE01459648
:100D70000E94D20282EF8093E8008D8987FF39C0FC
:100D80009091E80090FFFCCF982F907609F034C145
:100D90009E894F89588D2F89F88C911131C08038E8
:100DA00061F5809151068093F1001092F1008EEF71
:100DB0008093E8006C960FB6F894DEBF0FBECDBFEF
:100DC000DF91CF91FF91EF91BF91AF919F918F9163
:100DD0007F916F915F914F913F912F911F910F9153
:100DE000FF90EF90DF90CF900F900FBE0F901F906D
:100DF00018959EEF9093E800C7CF1092F100D5CFE1
:100E0000913059F48111D3CF4130510581F6809151
:100E100051068D7F80935106CACF933049F48111DA
:100E2000C6CF4130510519F6809151068260F2CF4C
:100E3000953041F48091E80080FFFCCF206820933A
:100E4000E300B5CF963009F0A9C00B8D1C8D22E0D0
:100E50001092E90010924D0610924C06F2122EC02C
:100E600010924B0610924A060E94A1021F8299E03E
:100E70009983FA8291E09E8390EA98879AEF998706
:100E800020914C0630914D06275F3F4F3C832B83CA
:100E90008D831092E90010924D0610924C0610932B
:100EA0004B0600934A0649E050E0BE016F5F7F4F5A
:100EB00080E00E947B020E94A10279CF10934B0632
:100EC00000934A060E94C801DC0112960D911C9104
:100ED0000115110509F451C1D801ED91FC9104806F
:100EE000F581E02DBE016B5E7F4FC801099500972B
:100EF00009F03EC1F80100851185EACFF3E0FF1249
:100F00000EC08F89882309F440C0823061F440E824
:100F100062E18DE091E00E944802811148CF81E2B8
:100F20008093EB0047CF813029F440E868E084E00B
:100F300091E0F1CF833099F70E94C801DC0112964D
:100F4000ED90FC908E010F5F1F4F6801E114F104DA
:100F500079F0D701ED91FC910680F781E02DB80181
:100F6000C7010995080F111DF701E084F184EECF48
:100F7000D8011C92F60101900020E9F73197BF01DA
:100F80006C197D0940E0C601C6CF6EEE70E0FB0132
:100F9000449150E080E80E947B0209CF973009F429
:100FA000BECF983021F481E08093F10000CF9930DA
:100FB00009F0FDCE837009F0B2CFE2E3F5E081E005
:100FC00031E096E32191222371F08093E900309380
:100FD000EB00DF0111972C912093EC009093ED0032
:100FE0008F5F873079F78EE78093EA001092EA00EE
:100FF0008F898093BD06DBCE8B8D9C8D1092E9008E
:1010000010924D0610924C0690934B0680934A0620
:10101000898D811192C08E899D89913A49F48132DE
:1010200009F07DCF47E050E064E071E080E0B3CFAD
:10103000913209F074CF833269F48F89988DB0E0D2
:10104000A0E08093000190930101A0930201B0936E
:101050000301ADCE803269F48091E80082FFFCCFBD
:1010600067E084E091E00E94D2028BEF8093E80079
:101070009ECE823209F09BCE8F8980930B01EEEFDA
:10108000FFE7859194918B3F9C4D51F1E0E0F8E0B2
:101090008091040190910501A0910601B091070192
:1010A000803B9440A105B105F1F480910B0180FDD6
:1010B0001AC0EE3F8AE0F80789F587E797E7918342
:1010C00080838091600080934E0688E19BE00FB69C
:1010D000F894A895809360000FBE9093600067CE4F
:1010E000EEEFFAE0D5CF808191818737974709F0FD
:1010F0005ECEA895809160008861809360008091A9
:101100004E0680936000EE3F2AE0F20789F080915E
:10111000FE0A9091FF0A9183808349CE808191815C
:101120008737980751F29093FF0A8093FE0AC5CF44
:101130001092FF0A1092FE0A3ACE0E94C801DC010A
:1011400012960D911C910115110509F4E8CED801F4
:10115000ED91FC910190F081E02DBE016B5E7F4F1F
:10116000C8010995811123CEF80100851185EBCFC7
:10117000181619060CF41BCED2CEF1E0FF12BECE2B
:1011800062EF70E004CF1F920F920FB60F921124FE
:101190002F938F939F93EF93FF939091790080917A
:1011A000A106E0915F06F0E0813009F044C0E35A07
:1011B000F94F8081E0915F06F0E0EA57F94F208116
:1011C000891710F4281720F0981740F4821730F48C
:1011D000E0915F06F0E0EA57F94F8083E0915F0607
:1011E000F0E0E35AF94F908380915F068F5F809320
:1011F0005F0680915F06823010F010925F0690913A
:101200007C00E0915F06F0E0E85CFA4F8081877037
:10121000987F892B80937C0080917A0080648093F2
:101220007A00FF91EF919F918F912F910F900FBEB8
:101230000F901F901895EA57F94FD5CF1F920F9234
:101240000FB60F9211242F933F934F935F936F9399
:101250007F938F939F93AF93BF93EF93FF932091CF
:10126000BE063091BF061092BF061092BE06EFE692
:10127000F0E09081977F9083C9010E94BA04FF91AA
:10128000EF91BF91AF919F918F917F916F915F91FE
:101290004F913F912F910F900FBE0F901F90189577
:1012A0001F920F920FB60F9211242F933F934F93DB
:1012B0005F936F937F938F939F93AF93BF93EF93BE
:1012C000FF936091C4067091C5066130710509F005
:1012D00044C0E091CC06F091CD0692819F3FD1F1C0
:1012E00080819817B8F584E2989FE00DF11D1124D4
:1012F00085859685019771F54785508982E090E054
:101300009093C5068093C406209114013091150175
:1013100080918A0090918B00241B350B220F331F84
:10132000280F391F30938B0020938A00CB010E9435
:10133000BA04FF91EF91BF91AF919F918F917F91EF
:101340006F915F914F913F912F910F900FBE0F9032
:101350001F90189550E040E0D1CF8091C206909147
:10136000C3060097A9F09093C5068093C4068091A8
:10137000C0069091C10690938B0080938A001092D2
:10138000C3061092C2061092C1061092C006CECFBC
:101390001092C5061092C40690916F009B7F9093A7
:1013A0006F00C4CF1F920F920FB60F9211242F938C
:1013B0003F934F935F936F937F938F939F93AF93DD
:1013C000BF93EF93FF936091CA067091CB06633091
:1013D000710509F044C0E091CC06F091CD069481EE
:1013E0009F3FD1F180819817B8F584E2989FE00D76
:1013F000F11D112485859685019771F547855089E2
:1014000084E090E09093CB068093CA06209114016B
:10141000309115018091880090918900241B350B33
:10142000220F331F280F391F309389002093880023
:10143000CB010E94BA04FF91EF91BF91AF919F91B0
:101440008F917F916F915F914F913F912F910F906D
:101450000FBE0F901F90189550E040E0D1CF8091C3
:10146000C8069091C9060097A9F09093CB06809387
:10147000CA068091C6069091C70690938900809312
:1014800088001092C9061092C8061092C7061092E2
:10149000C606CECF1092CB061092CA0690916F006E
:1014A0009D7F90936F00C4CF1F920F920FB60F9243
:1014B00011242F933F934F935F936F937F938F9359
:1014C0009F93AF93BF93EF93FF931092C1000E943D
:1014D0009D04E2E7F0E080818F778083FF91EF91B8
:1014E000BF91AF919F918F917F916F915F914F913C
:1014F0003F912F910F900FBE0F901F9018951F9244
:101500000F920FB60F9211242F933F934F935F9337
:101510008F939F93EF93FF93589A209148063091B1
:1015200049068091470691E0980F9093470690E016
:10153000880F991F820F931FFC0180819181209158
:10154000450630914606820F931F9093460680937E
:1015500045064091BE005091BF009C0125503109C5
:1015600042175307F0F49093BF00CE9A809145063E
:101570008093CF008091720080648093720080918C
:1015800072008F7D80937200FF91EF919F918F91F8
:101590005F914F913F912F910F900FBE0F901F9031
:1015A0001895589880911201909113012091450649
:1015B00030914606820F931F90934606809345060E
:1015C0009093BF00CF9A809145068093D20080917E
:1015D000720080688093720010927706D0CF1F92BD
:1015E0000F920FB60F9211242F933F938F939F93D7
:1015F000EF93FF935898809147069091440620916D
:10160000450630914606891788F5E0914806F09125
:10161000490691E0980F9093470690E0880F991F34
:10162000E80FF91F80819181820F931F90934606E6
:10163000809345069093BF00CD9A80914506809394
:10164000D00080917200806280937200809172005D
:101650008F7B80937200FF91EF919F918F913F91CB
:101660002F910F900FBE0F901F901895809112012F
:1016700090911301820F931F909346068093450625
:101680009093BF00CF9A809145068093D2008091BD
:10169000720080688093720010927706D7CFE1EDD8
:1016A000F6E01382128288EE93E0A0E0B0E084833B
:1016B0009583A683B7838CE495E0918380838FEF35
:1016C0009FEF95878487E1E2F7E011821082138211
:1016D0001282158214826CE575E0CF010C94AD0581
:1016E000CF93DF93CDB7DEB7A3970FB6F894DEBFE5
:1016F0000FBECDBF789484B5826084BD84B581600F
:1017000084BD85B5826085BD85B5816085BD8091CC
:101710006E00816080936E00109281008091810044
:10172000826080938100809181008160809381003C
:101730008091800081608093800080919100826020
:1017400080939100809191008160809391008091BD
:1017500090008160809390008091C10084608093AC
:10176000C1008091C10082608093C1008091C1005E
:1017700081608093C1008091C30081608093C30029
:101780008091C00082608093C0008091C20081601F
:101790008093C20080917A00846080937A00809167
:1017A0007A00826080937A0080917A0081608093D1
:1017B0007A0080917A00806880937A001092BD064A
:1017C00010925106109250068091D700816080934C
:1017D000D70080EA8093D80089B5806189BD89B53A
:1017E000826089BD09B400FEFDCF0E940102809194
:1017F000D8008F7C80618093D8008091E000807F4A
:101800008093E0008091E1008E7E8093E1008DE086
:101810008093E200559A209A0FEF1FEF1093DE0697
:101820000093DD068DE595E00E943905509A86E02B
:101830008093180188E59BE1909315018093140132
:1018400084EF91E090931701809316018EE190E070
:1018500090931301809312011092D0061092770694
:10186000109256061092550610925806109257067E
:1018700010925A061092590610925C0610925B065E
:101880001092540610925306109252061092CB06F4
:101890001092CA061092C5061092C4061092BF0696
:1018A0001092BE061092C9061092C8061092C70682
:1018B0001092C6061092C3061092C2061092C1067C
:1018C0001092C00610928200109281001092800047
:1018D00010926F008FEF86BBF894109285001092E3
:1018E000840092E09093810078941092C00010924E
:1018F000C1001092C2001092C3001092720089BB06
:101900001092760610929406109295061092960602
:10191000109297061092A0061092A5061092A406A7
:1019200090E890930C0144E659E160E070E0409348
:101930000E0150930F0160931001709311011092EA
:10194000A3061092A2061092A1068AE080930D01D0
:1019500010926E0610926F06109270061092710629
:1019600010926806109267061092600610925F0649
:101970001092690610926B0610926A061092660623
:101980001092650610926406109263061092620629
:1019900010926106109293061092920610928F0692
:1019A00010928E0610928B0610928A0610926D0687
:1019B00010926C0610925E0610925D0610928706D9
:1019C00010928606109283061092820610937F066C
:1019D00000937E062CE33CE330937B0620937A064B
:1019E000E0915F06F0E0E85CFA4F808187708066E6
:1019F00080937C0090937B008CED80937A009E0115
:101A00002F5F3F4F690110E000E0F22EED2CC8017E
:101A10000E949B14D6018D936D010F5F1F4F0E31F5
:101A20001105A9F789819A81AB81BC818D339D43D2
:101A3000AD43BD4309F049C08D811E81AF81B8859A
:101A4000E985FA856B857C858D849E84AF84B88812
:101A500059894D89388D298D9A8D0CEF080F109377
:101A60001801B0931701A0931601F0931501E093AC
:101A70001401709313016093120180920E019092F1
:101A80000F01A0921001B092110150930D014093EB
:101A90000C010A3008F0B0C13093A6062093A506C9
:101AA0009093A4068A3018F09C8D9093A3068C30F6
:101AB00040F09D8D9093A2068D3019F48E8D809309
:101AC000A10686E695E00E9439058BE795E00E9425
:101AD0003905AFE06A2E81ED96E00E94C703181623
:101AE00019060CF0DBC281ED96E00E948503D82E2A
:101AF00089831A8200912507109126070F5F1F4FD7
:101B0000B80181E297E00E948505882391F0209139
:101B100021073091220780912507909126076F2D8C
:101B20007E2D820F931F0E94FB16109326070093B1
:101B30002507FAE0DF12CFCF712C512C10E0C52C15
:101B4000D12C1A8219821C821B821E821D8269E896
:101B500075E08F2D9E2D0E94AD05809125079091F7
:101B60002607C816D90608F05AC1A0902107B090E0
:101B7000220769817A81C5018C0D9D1D0E94021783
:101B8000009709F44CC18A199B09082F8F2D9E2DAF
:101B90000E9466050F3F61F51A8219821C821B8222
:101BA0001E821D826BE575E08F2D9E2D0E94AD0576
:101BB0008091250790912607C816D90608F032C1F2
:101BC000A0902107B090220769817A81C5018C0D10
:101BD0009D1D0E940217009709F424C18A199B09D0
:101BE000082F8F2D9E2D0E9466050F3F09F473C0AC
:101BF000501608F070C0802E912C8C149D0420F09B
:101C0000892D4601C02ED82E1A8219821C821B8271
:101C10001E821D826CE575E08F2D9E2D0E94AD0504
:101C2000A0902507B09026078A149B0480F5CA145B
:101C3000DB0408F45601E0912107F0912207EA0D38
:101C4000FB1D50801082C0902107D0902207C80C45
:101C5000D91CC114D10479F0F60101900020E9F7F4
:101C600031974F018C189D08B4018F2D9E2D0E9435
:101C700085058111DAC08F2D9E2D0E94540580911B
:101C8000210790912207A80EB91ED5015C92898187
:101C90009A81812C912C5401009721F00E945F14AD
:101CA0004B015C018F2D9E2D0E9466055524539497
:101CB000500E111101C0782C71100DC1B7FC0BC072
:101CC000113009F0BAC0B7E08B169104A104B10439
:101CD00014F4809218011F5F123109F030CF711097
:101CE0001DC18EE895E00E9445054AE06FE070E076
:101CF00080E090E00E94F50489E895E00E944505A7
:101D0000809118010E94470589E895E00E944505E9
:101D100080911601909117010E944E0589E895E087
:101D20000E94450580911401909115010E944E0575
:101D300089E895E00E944505809112019091130178
:101D40000E944E0589E895E00E94450560910E01CC
:101D500070910F0180911001909111014AE00E9451
:101D6000F50489E895E00E94450580910D010E94E7
:101D7000470589E895E00E94450580910C010E9485
:101D8000470589E895E00E9445058091A6060E94D6
:101D9000470589E895E00E9445058091A5060E94C7
:101DA000470589E895E00E9445058091A4060E94B8
:101DB000470589E895E00E9445058091A3060E94A9
:101DC000470589E895E00E9445058091A2060E949A
:101DD000470589E895E00E9445058091A1060E948B
:101DE000470589E895E00E9445058091D0060E944C
:101DF00047050E94F1048EC08E898093A6068F89C4
:101E00008093A5063093A4062093A3069093A20680
:101E10008B8D8093A1068C8D8093D00652CE8FEF50
:101E20009FEFB3CE8FEF9FEFDBCE9E828D82B60108
:101E300089819A810E94FB1622CF123029F4909258
:101E400017018092160147CF133029F490921501A3
:101E50008092140140CF143029F4909213018092A3
:101E6000120139CF153049F480920E0190920F0182
:101E7000A0921001B09211012ECF163019F4809269
:101E80000D0129CF173019F480920C0124CF18309E
:101E900019F48092A6061FCF193019F48092A50676
:101EA0001ACF1A3019F48092A40615CF1B3019F4FA
:101EB0008092A30610CF1C3019F48092A2060BCF9B
:101EC0001D3019F48092A10606CF1E3009F003CF11
:101ED0008092D00600CFE7E07E1252C0113009F0A8
:101EE000FACEF3E08F169104A104B10408F0F3CE0A
:101EF00087E090E081149104A104B10449F088E0E6
:101F000090E08A9489288A288B2811F089E090E053
:101F10000E94BA048BE895E00E9439051A82198262
:101F20001C821B821E821D826CE575E08F2D9E2D0A
:101F30000E94AD058091210790912207009709F436
:101F400096C069817A816115710509F48EC040914E
:101F50002307509124072D813E814217530708F42F
:101F600084C00E94FB168D819E81909326078093EA
:101F700025071E821D828F2D9E2D0E946605ABCDEA
:101F800038E0731262C01E8E1D8E8DE39DE3DC016E
:101F900089839A83AB83BC836D82809118018E8381
:101FA000809116019091170198878F838091140179
:101FB000909115019A878987809112019091130160
:101FC0009C878B8780910E0190910F01A091100149
:101FD000B09111018D879E87AF87B88B80910D01DD
:101FE00090E0B0E0A0E0898B9A8BAB8BBC8B8091AA
:101FF0000C018D8B8091A6068E8B8091A5068F8B10
:102000008091A406888F8091A306898F8091A20673
:102010008A8F8091A1068B8F8091D0068C8FCF2CD8
:10202000DE2C10E000E0D601BD906D01C8010E94D9
:102030009B14B81621F06B2DC8010E94A3140F5FEA
:102040001F4F0E31110579F765CFBAE07B1243CEF1
:10205000113009F040CEE2E08E169104A104B104E3
:1020600008F039CE8092A00655CF0E94AC15898128
:102070009A8190932207809321078B819C81909372
:102080002407809323078D819E8190932607809358
:1020900025071A8219821C821B826BCF8091A606AB
:1020A000882341F080917706811114C280917606D1
:1020B000811110C2809186068F8F8091870688A338
:1020C00010927206109273061092740610927506A2
:1020D00080906E0690906F06A0907006B09071068A
:1020E00081149104A104B10409F09CC22CE636E0ED
:1020F0003BA32AA31E013FE1230E311C75E6C72E28
:1021000076E0D72EE3E68E2EE6E09E2EFAE6AF2EA0
:10211000F6E0BF2E10E000E044244394502EAAA124
:10212000BBA13D91BBA3AAA3F801EA57F94F808157
:10213000F10181931F01D5011C92909169069923A9
:10214000D1F13817C0F5F801E658F94F9081891799
:1021500090F14C928091680680133DC08091670693
:102160008823C9F181E090E02A2DEAE6F6E02E1BF3
:10217000213011F490E080E0EFE1F0E0EC0FFD1F82
:10218000E80FF91F2081231730F18658994FDC01A1
:102190008C9190E0AC0134E0559547953A95E1F784
:1021A0009595879595958795840F951F28171906FE
:1021B00094F0F5011082BFEFAB1ABB0AEFEFCE1A15
:1021C000DE0AFFEF8F1A9F0A0130110509F484C05F
:1021D00001E010E0A3CF8091720690917306A09168
:1021E0007406B0917506892B8A2B8B2B51F40E94B3
:1021F000DC0160937206709373068093740690936B
:102200007506D6011C9280916806851104C08091E4
:102210006706811107C0F4011082109262061092C5
:1022200061062FC0D4014C9280918E0690918F064A
:10223000019690938F0680938E0660906106709051
:102240006206BFEF6B1A7B0A7092620660926106AB
:10225000E091A206E9A38091A506882361F060FEC3
:102260000AC0EE2321F0F1E06F16710441F48AE90F
:1022700095E00E94390529A1222309F4C6C1D6019F
:102280004C92D6018C91811196CF809172069091DB
:102290007306A0917406B091750640910E0150919D
:1022A0000F016091100170911101840F951FA61FFD
:1022B000B71F80936E0690936F06A0937006B0933D
:1022C00071065092680681E080936706852D0E9412
:1022D000BC0081E0809360068091A006882309F409
:1022E000D1C08FE0EFE1F1E0AF2DBE2D01900D9256
:1022F0008A95E1F78091720690917306A091740619
:10230000B0917506892B8A2B8B2B51F40E94DC012E
:1023100060937206709373068093740690937506AB
:1023200080916406882309F4A0C180EA9091660632
:1023300040E1911101C040E090916B0638E09111AD
:1023400001C030E09091630624E0911101C020E0CB
:1023500090916506992309F48AC192E050916A062A
:10236000852B842B832B822B892B8C838091690670
:1023700038E8811101C030E88091680624E081309E
:1023800009F020E08091600692E0811101C090E0A8
:1023900081E040916E0650916F06609170067091D9
:1023A0007106452B462B472B09F480E0832B822BAB
:1023B000892B8D838091610680688E832F8D822F7B
:1023C0008695869580688F8388A140E2249F90013E
:1023D00011242076982F9695969596959068292B9E
:1023E000288740917206509173066091740670912F
:1023F00075068295807F282F2077DB01CA013CE19A
:10240000B695A795979587953A95D1F7822B8068D1
:102410008987DB01CA01E5E1B695A7959795879570
:10242000EA95D1F780688A87DB01CA01FEE0B6959C
:10243000A79597958795FA95D1F780688B87DB01EB
:10244000CA0117E0B695A795979587951A95D1F784
:1024500080688C8740684D874FE050E06F2D7E2D5F
:1024600081ED96E00E94DF021092600610926406F1
:102470001092660610926B06109263061092650623
:1024800010926A0620919206309193068F8D809368
:102490006C0690918206981710F4809382069091B2
:1024A0007E06891710F480937E0688A180936D06BE
:1024B00090918306981710F48093830690917F067D
:1024C000891710F480937F062E5F3F4F3093930659
:1024D0002093920680917706882309F4CAC08AE087
:1024E000809376060E94DC014B015C0180929C0681
:1024F00090929D06A0929E06B0929F0680919806AB
:1025000090919906A0919A06B0919B06881699061B
:10251000AA06BB0608F415C1A5019401281B390BB6
:102520004A0B5B0BDA01C90181159748A349B340F7
:1025300008F007C18091A406882309F4B0C18091F6
:10254000940690919506A0919606B0919706883CC6
:102550009105A105B10509F454C108F0A9C08B3457
:102560009105A105B10509F423C108F08BC089319B
:102570009105A105B10509F407C182339105A105B3
:10258000B10509F40CC1892B8A2B8B2B09F0BFC034
:102590008091920690919306909391068093900675
:1025A00080918E0690918F0690938D0680938C0675
:1025B00080918A0690918B06909389068093880675
:1025C000809186068093840680918206809380069F
:1025D00080917E0680937C0680917A0680937806AF
:1025E000809187068093850680918306809381067B
:1025F00080917F0680937D0680917B06809379068B
:102600000E94E1030E946E0582C08091A306882388
:1026100009F437CE8615170409F008F4FECDF6014B
:1026200040822FCE0E94DC01609372067093730685
:102630008093740690937506681579058A059B0545
:1026400008F44ACE681979098A099B096115774807
:102650008349934008F040CE10926E0610926F06A8
:10266000109270061092710637CE80E85FCE90E02F
:1026700075CE80917606882309F434CF8091760652
:1026800081502ECF86399105A105B10509F4A9C065
:102690008F3A9105A105B10509F4AAC08D379105BE
:1026A000A105B105A1F583EE95E00E9445052FC077
:1026B0008E3541E09407A105B10509F492C0C8F434
:1026C0008A3F9105A105B10509F4A2C08534E1E076
:1026D0009E07A105B10509F4B2C0813E9105A1058F
:1026E000B105A9F48DE196E00E94450580917C0634
:1026F00085C08039F1E09F07A105B10509F4A9C0A3
:1027000040F587379140A105B10509F49BC0809140
:10271000940690919506A0919606B0919706019621
:10272000A11DB11D853FE1E09E07A105B10508F09F
:102730009EC08093940690939506A0939606B093BE
:10274000970680E090E0892B09F4C3C90E9400003D
:10275000C0C9893A41E09407A105B10509F480C0D8
:10276000823C9140A105B10591F683E296E00E947A
:102770004505809179060E9447050E94F10484EF87
:1027800091E0A0E0B0E024C08DE995E00E9445050D
:1027900080919006909191060E944E05B8CF8DEBE6
:1027A00095E00E94450580918C0690918D06F4CFAE
:1027B00080ED95E00E9445058091880690918906FC
:1027C0000E944E050E94F10484E690E0A0E0B0E093
:1027D0008093940690939506A0939606B0939706DF
:1027E00096CF8FEF95E00E94450590E080E0D4CF32
:1027F0008CE096E00E944505809184060E94470582
:1028000086CF86E196E00E94450580918006F6CF4E
:1028100083E296E00E944505809178060E94470574
:102820000E94F1042CE231E040E050E02093940655
:1028300030939506409396065093970668CF89E2A9
:1028400096E033CF8CE096E00E94450580918506A6
:10285000D5CF86E196E00E94450580918106CECFD6
:102860008DE196E00E94450580917D06C7CF1092CC
:102870009406109295061092960610929706F0E430
:102880008F0EFBE49F1EFCE4AF1EB11C80929806E5
:1028900090929906A0929A06B0929B0652CF0E94FF
:1028A000E1030E946E0520E4820E2BE4921E2CE4CC
:1028B000A21EB11CEBCF81E297E00C9466051F933A
:1028C000FC0199278827BC01E89411911032E9F3A3
:1028D000193010F01E30C8F31B3251F01D3249F48C
:1028E000689406C00E948614610F711D811D911DA0
:1028F000119110531A30B0F33EF490958095709575
:1029000061957F4F8F4F9F4F1F910895592F482FEB
:10291000372F262F660F771F881F991F660F771F87
:10292000881F991F620F731F841F951F660F771FE3
:10293000881F991F0895F999FECF92BD81BDF89A1D
:10294000992780B50895262FF999FECF1FBA92BD19
:1029500081BD20BD0FB6F894FA9AF99A0FBE019680
:1029600008952F923F924F925F926F927F928F9233
:102970009F92AF92BF92CF92DF92EF92FF920F930E
:102980001F93CF93DF93CDB7DEB7CA1BDB0B0FB618
:10299000F894DEBF0FBECDBF09942A8839884888D5
:1029A0005F846E847D848C849B84AA84B984C8846B
:1029B000DF80EE80FD800C811B81AA81B981CE0F62
:1029C000D11D0FB6F894DEBF0FBECDBFED01089547
:1029D000A1E21A2EAA1BBB1BFD010DC0AA1FBB1F23
:1029E000EE1FFF1FA217B307E407F50720F0A21B95
:1029F000B30BE40BF50B661F771F881F991F1A9402
:102A000069F760957095809590959B01AC01BD012B
:102A1000CF010895EE0FFF1F0590F491E02D09946A
:102A20000F931F93CF93DF938230910510F482E0D0
:102A300090E0E0912907F0912A0730E020E0B0E033
:102A4000A0E0309799F42115310509F44AC0281BFC
:102A5000390B24303105D8F58A819B8161157105C8
:102A600089F1FB0193838283FE0111C04081518172
:102A70000281138148175907E0F04817590799F464
:102A8000109761F012960C93129713961C9332963E
:102A9000CF01DF91CF911F910F91089500932907E6
:102AA00010932A07F4CF2115310551F0421753072F
:102AB00038F0A901DB019A01BD01DF01F801C1CFA6
:102AC000EF01F9CF90932A0780932907CDCFFE011C
:102AD000E20FF31F819391932250310939832883A8
:102AE000D7CF2091270730912807232B41F420913D
:102AF0001B0130911C013093280720932707209158
:102B0000190130911A012115310541F42DB73EB755
:102B100040911D0150911E01241B350BE0912707A8
:102B2000F0912807E217F307A0F42E1B3F0B28179C
:102B3000390778F0AC014E5F5F4F2417350748F036
:102B40004E0F5F1F5093280740932707819391935F
:102B50009FCFF0E0E0E09CCFCF93DF930097E9F0C8
:102B6000FC01329713821282A0912907B0912A07A3
:102B7000ED0130E020E01097A1F420813181820F37
:102B8000931F20912707309128072817390709F04C
:102B900061C0F0932807E0932707DF91CF91089554
:102BA000EA01CE17DF07E8F54A815B819E014115F6
:102BB0005105B1F7E901FB83EA8349915991C40FAB
:102BC000D51FEC17FD0761F4808191810296840F77
:102BD000951FE90199838883828193819B838A83EE
:102BE000F0E0E0E012968D919C9113970097B9F573
:102BF0002D913C911197CD010296820F931F209148
:102C00002707309128072817390739F6309751F5EB
:102C100010922A0710922907B0932807A09327073C
:102C2000BCCFD383C28340815181840F951FC817C5
:102C3000D90761F44E5F5F4F88819981480F591F12
:102C4000518340838A819B8193838283211531053F
:102C500009F0B0CFF0932A07E09329079ECFFD013A
:102C6000DC01C0CF13821282D7CFB0E0A0E0EBE34B
:102C7000F6E10C94B3148C01009751F4CB010E943F
:102C800010158C01C801CDB7DEB7E0E10C94CF146C
:102C9000FC01E60FF71F9C0122503109E217F307F0
:102CA00008F49DC0D901CD91DC911197C617D707C3
:102CB00098F0C530D10530F3CE01049786179707F9
:102CC00008F3C61BD70B2297C193D1936D937C93C6
:102CD000CF010E94AC15D6CF5B01AC1ABD0A4C01E6
:102CE0008C0E9D1EA0912907B0912A07512C412CD2
:102CF000F12CE12C109731F580912707909128074E
:102D00008815990509F05CC04616570608F058C0AA
:102D10008091190190911A01009741F48DB79EB7E7
:102D200040911D0150911E01841B950BE817F90776
:102D300008F055C0F0932807E0932707F901718345
:102D40006083A0CF8D919C91119712966C901297F1
:102D500013967C901397A815B90559F56C0142E0BC
:102D6000C40ED11CCA14DB0420F1AC014A195B0962
:102D7000DA011296159780F0628273825183408344
:102D8000D9016D937C93E114F10471F0D70113968E
:102D9000FC93EE93129776CF22968C0F9D1FF9012C
:102DA00091838083F301EFCFF0932A07E093290703
:102DB00069CF4816590608F42C017D01D3019ACF3A
:102DC000CB010E9410157C01009749F0AE01B801BB
:102DD0000E94F216C8010E94AC15870153CF10E083
:102DE00000E050CFFB01DC0102C001900D92415088
:102DF0005040D8F70895FB01DC0101900D920020AE
:102E0000E1F70895FB0151915523A9F0BF01DC01C1
:102E10004D9145174111E1F759F4CD010190002082
:102E200049F04D9140154111C9F3FB014111EFCF1C
:102E300081E090E00197089510E0C1E9D0E004C07E
:102E4000FE010E940A152196C239D107C9F7F894EC
:022E5000FFCFB2
:102E5200FFFFFFFF00E1000000000000800A64198C
:102E620000001E00581BF4010600002B0780002BF7
:102E72006F20000000000000000000000D0A09FFA2
:102E8200000102030405060708FFFF0000DC00073B
:102E9200001400140014003C0014003C0014000054
:102EA2000000000000000000000000000000000020
:102EB20000DC00070014003C0014003C0014001465
:102EC20000140000000000000000000000000000EC
:102ED2000000000000DC00070014003C0014001495
:102EE2000014003C0014000000000000000000007C
:102EF200000000000000000000DC000700140014C5
:102F0200001400640014001400140000000000000B
:102F120000000000000000000000000000DC0007CC
:102F220000140064001400140014001400140000C3
:102F3200000000000000000000000000000000008F
:102F420000040107001400640014003C0014001483
:102F5200001400000000000000000000000000005B
:102F62000000000000900107001400C80014006473
:102F7200001400C80014000000000000000000005F
:102F8200000000000000000000680107001400C8F3
:102F92000014003C001400C80014000000000000EF
:102FA20000000000000000000000000000400107D7
:102FB200001400C800140014001400C8001400001B
:102FC20000000000000000000000000000000009F6
:102FD200FF00010203FFFFFFFFFFFFFF0000DC0015
:102FE20007001400140014003C0014003C001400FC
:102FF20000000000000000000000000000000000CF
:103002000000DC00070014003C0014003C00140027
:103012001400140000000000000000000000000086
:10302200000000000000DC00070014003C00140057
:10303200140014003C001400000000000000000016
:1030420000000000000000000000DC000700140087
:1030520014001400640014001400140000000000A6
:1030620000000000000000000000000004FF00015A
:103072000203FFFFFFFFFFFFFF00001C0209001415
:103082000014001400140014007C01140014001435
:10309200000000000000000000000000000000CC62
:1030A200010900140014001400140014002C01146F
:1030B20000140014000000000000000000000000E6
:1030C2000000007C01090014001400140014001414
:1030D20000DC0014001400140000000000000000D6
:1030E200000000000000002C01090014001400146C
:1030F20000140014008C00140014001400000000DE
:1031020000000000000000000002FFFFFFFFFFFFC1
:10311200FFFFFFFF000100001C020F00140014005B
:10312200140014001400500014008C001400140049
:10313200140050001400140014000000B8010F0025
:10314200140014001400140014003C0014003C008D
:10315200140014001400500014001400140004FFA2
:1031620000010203FFFFFFFFFFFFFF0100640003F6
:103172000017002E001F00000000000000000000E9
:10318200000000000000000000000000000000013C
:10319200008D00030017004E002800000000000010
:1031A200000000000000000000000000000000001D
:1031B20000000001002B0001002B000000000000B5
:1031C20000000000000000000000000000000000FD
:1031D2000000000000000001004400030017001579
:1031E20000180000000000000000000000000000C5
:1031F200000000000000000000000002FFFFFFFFCF
:10320200FFFFFFFFFFFF000100005E00050012004C
:103212001400120014001200000000000000000060
:10322200000000000000000000000000000060003C
:10323200030012003C001200000000000000000029
:10324200000000000000000000000000000000007C
:1032520001FFFFFFFFFFFFFFFFFFFF00FF00004234
:103262000005000E000C000E000C000E0000000015
:10327200000000000000000000000000000000004C
:103282000000C1808100000007060005AB040E04A7
:10329200B9031C037F022E01000000006003DF025D
:1032A20081037603C7038503A3030D0A002B7374FE
:1032B200617274757000656570726F6D2072656100
:1032C200645F73657474696E677300696E697420F4
:1032D200636F6D706C657465002C004F4B007061FC
:1032E20072616D657465727320002B64002B7374B8
:1032F2006174732067656E6572616C2072656164CA
:10330200696E675F636F756E7465723A00206475EB
:10331200706C69636174655F6672616D65733A00B2
:10332200207072656D61747572655F6672616D653C
:10333200733A002B73746174732073656E736F72CA
:10334200206368616E6E656C3A726967687400200A
:10335200646574656374696F6E733A0020726561A7
:1033620064696E673A0020686967683A00206C6F8A
:10337200773A00207468723A002B73746174732078
:1033820073656E736F72206368616E6E656C3A6C02
:0433920065667400F8
:00000001FF
