:100000000C9492000C94BA000C94BA000C94BA00B0
:100010000C94BA000C94BA000C94BA000C94BA0078
:100020000C94BA000C94940F0C94360C0C94A50C00
:100030000C94BA000C94BA000C94BA000C94BA0058
:100040000C94BA000C94BA000C9456110C944D10F8
:100050000C94BA000C94BA000C94BA000C94EC0BFB
:100060000C94BA000C94BA000C94BA000C94BA0028
:100070000C94BA000C94D70E0C94BA000C94BA00ED
:100080000C94BA000C94BA000C94BA000C94BA0008
:100090000C94BA000C94BA000C9442130C94B6124F
:1000A0000C948B120C945F120C94BA00080B000293
:1000B0000202000009040000010202000005240001
:1000C0001001052401010104240206052406000193
:1000D0000705810310004009040100020A00000026
:1000E00007050202400000070583024000000403E8
:1000F000090412010002EF0201404F1B06920001A9
:1001000001020301537061726B46756E005370619A
:10011000726B46756E2050726F204D6963726F006E
:10012000E7131B2211241FBECFEFDAE0DEBFCDBFE5
:1001300028E0ACE1B7E001C01D92AE37B207E1F7AD
:1001400017E0A0E0B1E0EAEFF9E402C005900D92FB
:10015000AC31B107D9F710E0C1E9D0E004C0219774
:10016000FE010E94DE22C039D107C9F70E9408149F
:100170000C94F0240C9400002FB7F89483E0809343
:10018000E9009091E800892F807295FF04C090915A
:10019000F20080E4891B2FBF0895FC0180912308A1
:1001A000882311F13FB7F89482E08093E900209111
:1001B000F200822F90E01816190614F481E090E006
:1001C000882339F0289844E6409322084091F100B2
:1001D0004083222339F02091F200211103C02BE645
:1001E0002093E8003FBF08958FEF9FEF089580911F
:1001F0001A0881110DC082E08093160884E0809374
:100200001708109219081092180881E080931A08B4
:1002100086E198E008953FB7F89480911208909194
:100220001308A0911408B091150826B5A89B05C025
:100230002F3F19F00196A11DB11D3FBFBA2FA92F65
:10024000982F8827BC01CD01620F711D811D911D62
:1002500042E0660F771F881F991F4A95D1F70895CE
:100260008F929F92AF92BF92CF92DF92EF92FF92C6
:100270004B015C010E940B016B017C010E940B0190
:100280006C197D098E099F09683E734081059105AF
:10029000A8F321E0821A9108A108B10888EEC80EDF
:1002A00083E0D81EE11CF11C81149104A104B10467
:1002B00029F7FF90EF90DF90CF90BF90AF909F9085
:1002C0008F9008952FB7F89460910E0870910F08E1
:1002D00080911008909111082FBF089508954091C2
:1002E0003507509136072091330730913407421774
:1002F0005307B4F49091E8009570E1F39091E80011
:1003000092FD19C08093F1008091350790913607D6
:1003100001968F739927892B19F48EEF8093E8004B
:100320008091350790913607019690933607809318
:10033000350781E0089580E00895EF92FF920F93D2
:100340001F93CF93DF93F82E192FE62E042F81E011
:10035000860F880F0E946F0183E00E946F01CF2DEE
:10036000D12FEC0EFD2EF11CCE15DF05B9F007FFE5
:1003700013C0FE0184910E946F01182F80E00E943B
:100380006F01812321968111EFCFDF91CF911F91D2
:100390000F91FF90EF9008958881EDCF81E0F5CF28
:1003A000DF92EF92FF920F931F93CF93DF93D82E9C
:1003B0008A01EB017B01E40EF51ECE15DF0559F035
:1003C000D7FE12C0FE0184910E946F012196811117
:1003D000F4CF0FEF1FEFC801DF91CF911F910F9165
:1003E000FF90EF90DF9008958881EECF0F931F93D9
:1003F000CF93DF931F92CDB7DEB782E0898342E4CB
:1004000050E06CEA70E080E80E94D0010E94F700A2
:10041000DC0112960D911C910115110589F0D8018E
:10042000ED91FC910280F381E02DBE016F5F7F4F63
:10043000C801099597FD04C0F80100851185ECCF2E
:1004400089810F90DF91CF911F910F910895615095
:1004500030F02091F100FC0120830196F8CF28981C
:1004600084E68093220808958F929F92AF92BF9264
:10047000CF92DF92EF92FF920F931F93CF93DF9370
:100480006C017B018A0180910B01882309F45CC017
:1004900080912308882309F457C08091390780FF91
:1004A00005C08091E00082608093E000E801B12CFB
:1004B0008AEFA82E93E0892E2AE3922E209711F43A
:1004C000BB20D9F10E94BC0081110AC0AA94AA20C5
:1004D000D9F161E070E080E090E00E943001EECF61
:1004E0008C171D0611F00CF08C2F9FB7F89480929A
:1004F000E9002091E80025FD02C09FBFDFCF282F33
:1005000030E0C21BD30BF701815020F041914093A2
:10051000F100FACFE20EF31EBB2021F09092E8002A
:10052000B12CEBCF8091E80085FDE7CF9092E800F9
:10053000BB24B394209709F3F3CF5D9884E68093AE
:100540003807101611063CF081E090E0F601938325
:10055000828310E000E0C801DF91CF911F910F91DD
:10056000FF90EF90DF90CF90BF90AF909F908F90D3
:100570000895CF93DF931F92CDB7DEB76983DC0177
:10058000ED91FC910280F381E02D41E050E0BE014D
:100590006F5F7F4F09950F90DF91CF91089583E0B2
:1005A0008093E9008091F200882319F08AE3809318
:1005B000E80008950E94BC0090E00895CF93DF9377
:1005C0001F92CDB7DEB7FC018485958597FD08C0E5
:1005D0002FEF3FEF358724870F90DF91CF9108955C
:1005E000CE0101960E94CD00019719F4898190E017
:1005F000F3CF8FEF9FEFF0CF0F931F93CF93DF9346
:100600001F92CDB7DEB78C01FC018485958597FFDD
:100610000BC0CE0101960E94CD00019771F4898133
:1006200090E0F80195878487F801848595850F907F
:10063000DF91CF911F910F9108958FEF9FEFF1CF31
:10064000FC018485958597FD0BC09FB7F89482E0E7
:100650008093E9008091F2009FBF90E00196089599
:100660009FB7F89482E08093E9008091F2009FBFE9
:1006700090E008950E9462016093C2077093C307DF
:100680008093C4079093C5076093BE077093BF071C
:100690008093C0079093C1076093BA077093BB071C
:1006A0008093BC079093BD07849A8C9A26982298D1
:1006B000239821982E9A2A9A2B9A299A2E982A982A
:1006C0002B982998F894E8E6F0E080818160808397
:1006D000EBE6F0E0808180648083808184608083A9
:1006E000808188608083808182608083789408958F
:1006F000CF93C0911501F09114018FEF90E0DC01D0
:10070000AF1BB10950911201851B9109E091A4071B
:1007100041E0EC1708F440E02091A00730E0A29FF0
:10072000B001A39F700DB29F700D1124FE9F600D4C
:10073000711D112470939C07829FB001839F700DDF
:10074000929F700D11245E9F600D711D1124709396
:100750009807E091A507EC1708F440E02091A10765
:1007600030E0A29FB001A39F700DB29F700D1124C5
:10077000FE9F600D711D112470939D07289FB0018D
:10078000299F700D389F700D1124E59F600D711D1C
:1007900011247093990740938C07CF910895269860
:1007A0002E98F894E8E6F0E0808181608083EBE6A3
:1007B000F0E08081806480837894089520912407FC
:1007C0003091250730931D0720931C0720911C07AB
:1007D00030911D07820F931FFC0191819F3F09F407
:1007E00067C0E0911C07F0911D078081981708F001
:1007F0005FC040911C0750911D07F4E29F9FC0010C
:1008000011249C012D5E3F4F240F351F3093230789
:100810002093220721E020932107840F951FFC01DC
:10082000818980931E072093D5072093DA072093B0
:100830007C07F8941092BF001092BF001092BE0087
:1008400083E08093BF008FEF8093D100809172008E
:10085000846080937200E0912207F09123078081E9
:1008600091819093200780931F07009719F580913D
:10087000210790911E07891780F591E0980F9093BA
:10088000210790E0880F991FE80FF91F908181815F
:1008900090931F07809320078093BF0080911F07CC
:1008A0008093D000809172008062809372000EC0AD
:1008B0000C9483049093BF0080911F078093CF0016
:1008C00080917200806480937200589A8FEF89BB88
:1008D00085E08093C1007894089580911E019091E5
:1008E0001F019093200780931F079093BF00809172
:1008F0001F078093D20080917200806880937200FD
:100900001092D507E3CF90917307809172079817E3
:10091000A1F0E0917307F0E0EE0FFF1FEC58F84FE5
:10092000808191812091730730E02F5F3F4F2370CA
:100930003327209373070C94DE03109271070895F8
:1009400020917107222301F1F894209172074091C0
:10095000730730E02F5F3F4F237033274217130692
:1009600089F0E0917207F0E0EE0FFF1FEC58F84FAE
:10097000918380838091720790E00196837099271C
:1009800080937207789408950E94DE0381E080933B
:100990007107089580910008813031F42091FE079D
:1009A0003091FF07232B09F480E008958C980E9472
:1009B00030018C9A089510922C0710922B07F8940E
:1009C0000E9462016093F0077093F1078093F20731
:1009D0009093F3078091F0079091F107A091F207AF
:1009E000B091F3078093EC079093ED07A093EE0787
:1009F000B093EF0778948091F0079091F107A09160
:100A0000F207B091F3078093E7079093E807A0936C
:100A1000E907B093EA071092EB07849A8C9A68EE84
:100A200073E080E090E00E94300168EC70E080E0CC
:100A300090E00E94D60423982198F894E8E6F0E02C
:100A4000808181608083EBE6F0E080818860808334
:100A5000808182608083789408951092C8071092F4
:100A6000C9071092CA071092CB071092DF071092A5
:100A7000DE071092C7071092C6071092CC0710929B
:100A8000CD071092CE071092CF071092D607109282
:100A9000D7071092D8071092D9071092E107109249
:100AA000E2071092E3071092E40781E080930C01C3
:100AB00080930E011092DD071092DC071092E6077A
:100AC0008FEF809310011092D00780930D01109248
:100AD000D4071092D3071092D2071092D107109228
:100AE000DB0710922D0710922E071092E00710924C
:100AF0002F07EAE7F0E080818F77808386E6809396
:100B00007C0080E880937B00AEE7B0E08C9180644D
:100B10008C938CEF80838081806480830895FC01B6
:100B200001900020E9F73197AF01481B590BBC0138
:100B300084E298E00C9434028F929F92AF92BF921D
:100B40000F931F93CF93DF93CDB7DEB7A1970FB667
:100B5000F894DEBF0FBECDBF19A2423008F44AE0C0
:100B60008E010F5D1F4F842E912CB12CA12CA5015D
:100B700094010E94BC22E62FB901CA01EA30F4F4C4
:100B8000E05DD801EE938D01232B242B252B79F7E3
:100B900090E080E0109719F0CD010E948F05A1969A
:100BA0000FB6F894DEBF0FBECDBFDF91CF911F917E
:100BB0000F91BF90AF909F908F900895E95CE1CF27
:100BC0000C948F058DEB95E00C948F05CF93DF93FC
:100BD0000E948F05EC010E94E2058C0F9D1FDF91A2
:100BE000CF910895682F70E090E080E04AE00C9487
:100BF0009C05BC0190E080E04AE00C949C05CF92FB
:100C0000DF92EF92FF92CF93DF936C01990FEE0882
:100C1000FF08F7FE19C06DE284E298E00E94B90275
:100C2000EC0166277727CB016C197D098E099F0996
:100C30004AE00E949C058C0F9D1FDF91CF91FF9091
:100C4000EF90DF90CF9008954AE0C701B601DF91A1
:100C5000CF91FF90EF90DF90CF900C949C05CF93B5
:100C6000DF93EC0188819981009711F00E94802325
:100C7000198218821D821C821B821A82DF91CF91F9
:100C80000895FC0180819181009711F00C948023DC
:100C900008951092B5071092B4071092B107109200
:100CA000B0071092AD071092AC071092A5071092F2
:100CB000A4078FEF9FEF9093A1078093A00708955B
:100CC000109295071092B6071092B7071092B807C6
:100CD0001092B90710928D0710928E0710928F070D
:100CE00010929007109285071092840710927F0748
:100CF0001092320710928C07109289071092880781
:100D000010928B0710928A0710928707109286071D
:100D10001092830710928207109281071092800729
:100D20001092B5071092B4071092B1071092B00755
:100D30001092AD071092AC0710927E0710927D07BB
:100D400010923107109230071092A9071092A8074D
:100D50001092A5071092A4078FEF9FEF9093A10721
:100D60008093A00790939D0780939C07109299070A
:100D700010929807E0913207F0E0EE55FA4F80812B
:100D80008770806680937C0080E880937B008CED88
:100D900080937A000895F89410926807109267077C
:100DA000109266071092650710926407109263070D
:100DB00084E0EFE5F7E0DF01982F1D929A95E9F7BF
:100DC00010925E0710925D071092590710925A0711
:100DD00010925B0710925C0710925507109256070D
:100DE0001092570710925807109254071092530709
:100DF000109252071092510710924D0710924E0711
:100E000010924F071092500710924C0710924B0708
:100E100010924A071092490710924807109247070C
:100E2000E3E4F7E0DF011D928A95E9F710922607C7
:100E30001092280710922707109226071092280771
:100E400010922707EBE3F7E01082118212821382DF
:100E50001482158216821782789408952F923F92F9
:100E60004F925F926F927F928F929F92AF92BF92BA
:100E7000CF92DF92EF92FF920F931F93CF93DF9366
:100E800000D000D0CDB7DEB790910708292E2826D4
:100E900003E010E0981302C001E010E0E0912401AB
:100EA000F0E0EE0FFF1FEE56FA4F80819181909394
:100EB0002A0780932907E0912907F0912A07E00F7C
:100EC000F11F8181E0912907F0912A0790819817FD
:100ED00010F08F3FD1F4809107080BE010E08211F1
:100EE00002C00AE010E0E0912907F0912A07E00F24
:100EF000F11F8181E0912907F0912A0790819817CD
:100F000008F40FC18F3F09F40CC1F894809184005C
:100F100090918500909354078093530778940E9492
:100F2000CA04882309F480C0F894109268071092CC
:100F3000670778940E940B012B013C0140925907EE
:100F400050925A0760925B0770925C07809152073B
:100F5000312C882309F44BC0809155079091560796
:100F6000A0915707B091580773016201C81AD90AB6
:100F7000EA0AFB0A2091FE073091FF07211531058F
:100F800009F47CC3C90164E670E00E94A822FB0159
:100F90006D32714008F080C351E4C5165DE0D5069E
:100FA00053E0E506F10488F4ECE2F1E0C901B0E0B9
:100FB000A0E0A901BD01440F551F661F771F4C1506
:100FC0005D056E057F0508F0C3C0A0905307B09083
:100FD00054070E94CB064092590750925A076092DC
:100FE0005B0770925C07B0925407A0925307809100
:100FF000590790915A07A0915B07B0915C078093C5
:10100000550790935607A0935707B093580781E070
:1010100080935207F101EB59F84F9081911181C0F3
:101020009091510791118083809122019091230129
:10103000880F991F2091530730915407820F931FF7
:101040004091290750912A072091240730912507C4
:1010500042175307E1F020916F002B7F20936F0020
:10106000B29A10925E0710924607109245071092AE
:10107000660720916F00277F20936F00B39A10922C
:101080005D07109244071092430710926507209164
:10109000290730912A073093250720932407E091F0
:1010A0002407F0912507E00FF11F21812F3FC9F0A0
:1010B000E0912407F09125073081231790F4E09107
:1010C0002407F091250734E2239FE00DF11D112440
:1010D000258536852130310521F427853089821B0D
:1010E000930B9801277F2330310509F0A5C2209189
:1010F0006F0730917007232BA1F4F89490938B0025
:1011000080938A00B29A80916F00846080936F0010
:101110001093700700936F0710936E0700936D078D
:1011200078940F900F900F900F90DF91CF911F91B7
:101130000F91FF90EF90DF90CF90BF90AF909F9076
:101140008F907F906F905F904F903F902F90089579
:10115000B695A795979587954F01B12CA12C00972F
:10116000A105B10519F18C159D05AE05BF05C8F4A3
:1011700026013701481A590A6A0A7B0AD301C201BB
:1011800088169906AA06BB0688F0809128078F3F2B
:1011900029F0809128078F5F8093280710922707F6
:1011A0001AC08C199D09AE09BF09EACF4C195D0917
:1011B0006E097F0984169506A606B70608F45FC077
:1011C000809127078F3F29F0809127078F5F8093B9
:1011D00027071092280780912807833028F48091F0
:1011E0002707833008F462C24090590750905A078D
:1011F00060905B0770905C07A0905307B090540715
:101200000E94CB064092590750925A0760925B07A2
:1012100070925C07B0925407A0925307D701C601A1
:1012200056E0880F991FAA1FBB1F5A95D1F78093CC
:101230004D0790934E07A0934F07B093500781E05E
:1012400080935107F894D0924C07C0924B071092AC
:101250004A071092490710924807109247071092C8
:10126000440710924307109246071092450778945E
:10127000809326071092280710922707B8CE109265
:1012800028078CCF80914D0790914E07A0914F0772
:10129000B09150074C015D0146E0B694A794979435
:1012A00087944A95D1F788199909AA09BB098C0D29
:1012B0009D1DAE1DBF1D40912607483008F4BF019B
:1012C00021153105A9F04901B12CA12C8C149D04E4
:1012D000AE04BF0408F026C1C818D908EA08FB0804
:1012E0004B01B12CA12C8C149D04AE04BF0410F151
:1012F00080934D0790934E07A0934F07B0935007EC
:10130000F894E6E0B695A79597958795EA95D1F775
:1013100090934C0780934B077894809126078F3FDA
:1013200029F0809126078F5F809326071092280767
:1013300010922707F101E35AF84F6081662309F400
:1013400056CEF8942091490730914A0780915F0763
:10135000909160079A8389838091610790916207D9
:101360009C838B837894A901440F551F440F551F0C
:101370008091530790915407841B950BF101EE0F58
:10138000FF1FEC0FFD1F41815281841B950B95952A
:10139000879544275527421B530BF901F595E7958F
:1013A0004E1B5F0B841795072CF4A901440F551FA2
:1013B000840F951FA901485E53408417950734F0A8
:1013C0004053584F481759070CF0C9C048E15CEF2B
:1013D000421B530B8417950744F048EE53E0421B21
:1013E000530B481759070CF0BAC0092E000CAA0B72
:1013F000BB0B4C015D01E4E0880C991CAA1CBB1CD2
:10140000EA95D1F7A101440F551F440F551FFA016A
:10141000E55CF84F880F991FAA1FBB1F40805180C1
:1014200062807380840D951DA61DB71D813060EA12
:1014300096076FE0A607B1050CF07CC0808391830E
:10144000A283B383FA01E55CF84F80819181A28188
:10145000B38181159046A04FBF4F44F480E090E6E1
:10146000A0EFBFEF80839183A283B383455C584F85
:10147000FA0180819181A281B381880D991DAA1DF5
:10148000BB1D7AE0B595A795979587957A95D1F785
:101490008831FCEF9F07FFEFAF07BF0724F488E117
:1014A0009CEFAFEFBFEF893E43E09407A105B10584
:1014B00024F088EE93E0A0E0B0E0F894AB81BC812A
:1014C00049815A81FD01E41BF50BB901660F771FB5
:1014D000E61BF70B4A1B5B0B461B570B7894DF018F
:1014E000B595A795B7FF03C0B195A195B109BA010C
:1014F0007595679577FF03C0719561957109A6177A
:10150000B707ECF4A217B30708F08FC0A3E0F59576
:10151000E795AA95E1F7AC014E1B5F0B8E0F9F1F5D
:1015200060E021C0A5012C193D094E095F09690140
:101530007A01D6CE80E090EAAFE0B0E07FCF6217CC
:10154000730708F072C09A01E3E035952795EA9594
:10155000E1F7AC01420F531F821B930BE1CF50E028
:1015600040E090E080E0F8942091430730914407F8
:10157000820F931F90934407809343078091450700
:1015800090914607480F591F5093460740934507CF
:10159000662309F448C080914B0790914C07209135
:1015A0008A0030918B00880F991F820F931F9093B0
:1015B0008B0080938A0080914B0790914C0720917B
:1015C0008C0030918D00880F991F820F931F90938C
:1015D0008D0080938C0080914B0790914C07209157
:1015E0005F0730916007880F991F820F931F9093B8
:1015F000600780935F0780914B0790914C07209183
:10160000610730916207880F991F820F931F909393
:10161000620780936107109244071092430710926B
:101620004607109245077894E2CCAC0179CF8C192B
:101630009D09AE09BF095AC00130110521F00A30D9
:10164000110509F06ECD20916B0730916C07232BAB
:1016500009F067CDF89490938D0080938C00B39A35
:1016600080916F00886080936F0010936C070093E7
:101670006B0710936A070093690752CDECE2F1E023
:1016800041E4C4164DE0D40643E0E406F10408F05A
:101690009CCC64E670E012C051E4C5165DE0D5064E
:1016A00053E0E506F10408F481CC8FCCC90168EC65
:1016B00070E00E94A8226436710558F380915107AA
:1016C0008111E0CD21153105D1F0C901B0E0A0E0D4
:1016D0008C159D05AE05BF0508F0A9CF2601370181
:1016E000481A590A6A0A7B0AD301C201AF0170E0A5
:1016F00060E0481759076A077B0708F478CCD701E0
:10170000C60136E0880F991FAA1FBB1F3A95D1F773
:1017100080934D0790934E07A0934F07B0935007C7
:1017200081E080935107F894D0924C07C0924B0708
:1017300096CD0F931F93CF93DF93EC01888199810E
:10174000009759F02A813B812617370730F081E056
:10175000DF91CF911F910F9108958B016F5F7F4FA4
:101760000E940924009759F0998388831B830A8378
:101770002C813D81232B59F7FC011082E8CF80E0BA
:10178000E7CFEF92FF920F931F93CF93DF938C01DC
:101790007B01EB0109900020E9F72197C61BD70BCD
:1017A000BE010E94990B811109C0C801DF91CF9140
:1017B0001F910F91FF90EF900C942F06F801D583A5
:1017C000C483B70180819181DF91CF911F910F91E7
:1017D000FF90EF900C94CF241F920F920FB60F92B0
:1017E00011242F933F938F939F93AF93BF93809137
:1017F0000E0890910F08A0911008B0911108309137
:101800000D0823E0230F2D3758F50196A11DB11DBA
:1018100020930D0880930E0890930F08A093100852
:10182000B09311088091120890911308A0911408A8
:10183000B09115080196A11DB11D809312089093D7
:101840001308A0931408B0931508BF91AF919F910E
:101850008F913F912F910F900FBE0F901F90189571
:1018600026E8230F0296A11DB11DD2CF1F920F9221
:101870000FB60F9211248F939F938091E100909166
:10188000E100937F9093E10083FF0FC01092E90085
:1018900091E09093EB001092EC0092E39093ED00B6
:1018A0001092230898E09093F00082FF22C093E00A
:1018B0009093E9009091F200992319F09AE39093A4
:1018C000E80090913807992341F0909138079150A2
:1018D00090933807911101C05D9A90912208992345
:1018E00041F090912208915090932208911101C0EB
:1018F000289A84FF18C08091E2008E7E81608093D8
:10190000E2008091E1008F7E8093E10080913907B1
:101910008E7E8061809339079F918F910F900FBECB
:101920000F901F90189580FFF7CF8091E2008E7E78
:1019300080618093E2008091E1008E7E8093E100DF
:10194000809139078E7E8160E5CF1F920F920FB68E
:101950000F921124CF92DF92EF92FF920F931F9379
:101960002F933F934F935F936F937F938F939F93A7
:10197000AF93BF93EF93FF93CF93DF93CDB7DEB7D2
:101980006C97DEBFCDBF1092E9008091E80083FF25
:1019900025C068E0CE0145960E94270282EF809321
:1019A000E8008D8987FF39C09091E80090FFFCCF57
:1019B000982F907609F034C19E894F89588D2F89D0
:1019C000F88C911131C0803861F580913A0780938D
:1019D000F1001092F1008EEF8093E8006C960FB644
:1019E000F894DEBF0FBECDBFDF91CF91FF91EF9195
:1019F000BF91AF919F918F917F916F915F914F9127
:101A00003F912F911F910F91FF90EF90DF90CF901A
:101A10000F900FBE0F901F9018959EEF9093E800C7
:101A2000C7CF1092F100D5CF913059F48111D3CFA7
:101A30004130510581F680913A078D7F80933A07B6
:101A4000CACF933049F48111C6CF4130510519F600
:101A500080913A078260F2CF953041F48091E8009E
:101A600080FFFCCF20682093E300B5CF963009F0CB
:101A7000A9C00B8D1C8D22E01092E9001092360750
:101A800010923507F2122EC01092340710923307CD
:101A90000E94F6011F8299E09983FA8291E09E8369
:101AA00090EA98879AEF9987209135073091360709
:101AB000275F3F4F3C832B838D831092E900109268
:101AC000360710923507109334070093330749E027
:101AD00050E0BE016F5F7F4F80E00E94D0010E9406
:101AE000F60179CF10933407009333070E94F70073
:101AF000DC0112960D911C910115110509F451C1DB
:101B0000D801ED91FC910480F581E02DBE016B5E62
:101B10007F4FC8010995009709F03EC1F801008583
:101B20001185EACFF3E0FF120EC08F89882309F4F4
:101B300040C0823061F440E862E18DE091E00E94B3
:101B40009D01811148CF81E28093EB0047CF813026
:101B500029F440E868E084E091E0F1CF833099F720
:101B60000E94F700DC011296ED90FC908E010F5F51
:101B70001F4F6801E114F10479F0D701ED91FC9158
:101B80000680F781E02DB801C7010995080F111DE6
:101B9000F701E084F184EECFD8011C92F6010190A8
:101BA0000020E9F73197BF016C197D0940E0C601BB
:101BB000C6CF6EEE70E0FB01449150E080E80E94D9
:101BC000D00109CF973009F4BECF983021F481E0DD
:101BD0008093F10000CF993009F0FDCE837009F0B9
:101BE000B2CFE5EAF5E081E031E096E321912223EE
:101BF00071F08093E9003093EB00DF0111972C9195
:101C00002093EC009093ED008F5F873079F78EE79B
:101C10008093EA001092EA008F8980932308DBCE3C
:101C20008B8D9C8D1092E90010923607109235072B
:101C30009093340780933307898D811192C08E89E8
:101C40009D89913A49F4813209F07DCF47E050E017
:101C500064E071E080E0B3CF913209F074CF833259
:101C600069F48F89988DB0E0A0E080930001909393
:101C70000101A0930201B0930301ADCE803269F45B
:101C80008091E80082FFFCCF67E084E091E00E9451
:101C900027028BEF8093E8009ECE823209F09BCE24
:101CA0008F8980930B01EEEFFFE7859194918B3F35
:101CB0009C4D51F1E0E0F8E0809104019091050124
:101CC000A0910601B0910701803B9440A105B105A8
:101CD000F1F480910B0180FD1AC0EE3F8AE0F80715
:101CE00089F587E797E791838083809160008093EF
:101CF000370788E19BE00FB6F894A89580936000C1
:101D00000FBE9093600067CEEEEFFAE0D5CF8081F2
:101D100091818737974709F05ECEA8958091600042
:101D20008861809360008091370780936000EE3F68
:101D30002AE0F20789F08091FE0A9091FF0A9183D0
:101D4000808349CE808191818737980751F29093A3
:101D5000FF0A8093FE0AC5CF1092FF0A1092FE0A76
:101D60003ACE0E94F700DC0112960D911C910115EC
:101D7000110509F4E8CED801ED91FC910190F081B4
:101D8000E02DBE016B5E7F4FC8010995811123CE06
:101D9000F80100851185EBCF181619060CF41BCE3F
:101DA000D2CEF1E0FF12BECE62EF70E004CF1F9200
:101DB0000F920FB60F9211242F933F938F939F93FF
:101DC000EF93FF938091FD07843009F062C080910A
:101DD00079008093DB0780912F07882381F0809121
:101DE0002F07815080932F07FF91EF919F918F9143
:101DF0003F912F910F900FBE0F901F9018959091CB
:101E0000DB0780910F018917A8F480912E078F3F7F
:101E100059F380912E078F5F80932E0780917C0766
:101E2000882311F310927C0780912D078F5F809398
:101E30002D07DACF9091DB078091E507891728F409
:101E400080912E078111E1CFCFCF80912E0788237B
:101E500059F280912E07853080F080912E072091D5
:101E60002D0790E030E0220F331F821B930B0B975E
:101E700024F480912E078093E00710922E07809122
:101E80002D07811103C089E180932F0710922D0740
:101E9000ABCF8091FD078111A7CF90917900809100
:101EA0000108E0913207F0E08130D9F5E05DF84FAC
:101EB0008081E0913207F0E0E855F84F20818917E2
:101EC00010F4281720F0981740F4821730F4E091AE
:101ED0003207F0E0E855F84F8083E0913207F0E0F8
:101EE000E05DF84F9083809132078F5F80933207D7
:101EF00080913207823010F01092320790917C006E
:101F0000E0913207F0E0EE55FA4F80818770987FBC
:101F1000892B80937C0080917A00806480937A0082
:101F200063CFE855F84FDECF1F920F920FB60F9296
:101F300011240F931F932F933F934F935F936F93AE
:101F40007F938F939F93AF93BF93CF93DF93EF9341
:101F5000FF938091FD078230E1F41E9B18C081E061
:101F60000E942E07FF91EF91DF91CF91BF91AF912A
:101F70009F918F917F916F915F914F913F912F91A1
:101F80001F910F910F900FBE0F901F90189580E03A
:101F9000E7CF8091FD078330B9F523B183B1C3B199
:101FA000D0E093E0D595C7959A95E1F703B110E09D
:101FB0001595079590E0959587959595879530E0CF
:101FC00056E0359527955A95E1F7822B80FD03C0A1
:101FD00081E00E942E07C02BC0FD03C080E00E945C
:101FE0002E070E9462016093C2077093C30780931B
:101FF000C4079093C5076093BE077093BF07809393
:10200000C0079093C107AECF8091FD07853009F0DE
:10201000A9CFD3B1C3B18091F0079091F107A091FE
:10202000F207B091F3074091EC075091ED076091F2
:10203000EE077091EF07841B950BA60BB70B029769
:10204000A105B10508F48ECFD3FBDD27D0F980912F
:10205000F0079091F107A091F207B091F3078093F8
:10206000EC079093ED07A093EE07B093EF078091F4
:102070002C07D81729F081E00E942E07D0932C0757
:10208000C695C17080912B07C81709F46BCF80E00B
:102090000E942E07C0932B0765CF1F920F920FB699
:1020A0000F9211240F931F932F933F934F935F939E
:1020B0006F937F938F939F93AF93BF93CF93DF9350
:1020C000EF93FF93C0916B07D0916C07E0912407C9
:1020D000F0912507EC0FFD1F81818F3F09F456C059
:1020E000E0912407F09125079081891708F04EC0F0
:1020F000E0912407F091250794E2899FE00DF11DFE
:10210000112485859685019709F040C007851089BF
:10211000C130D10509F05FC00E94CA04882321F0B4
:1021200080916307811135C082E090E090936C0745
:1021300080936B0780918C0090918D0020912201FB
:1021400030912301220F331F821B930B800F911FAD
:102150009093600780935F0720918C0030918D00F1
:102160008091200190912101801B910B880F991F74
:10217000820F931F90938D0080938C0081E0809359
:102180005D0781E090E00E94A00410C010E000E034
:10219000BFCF10926C0710926B07109263071092DA
:1021A000650780916F00877F80936F00FF91EF91AB
:1021B000DF91CF91BF91AF919F918F917F916F915F
:1021C0005F914F913F912F911F910F910F900FBEF3
:1021D0000F901F9018950E94CA04882359F080918F
:1021E0006307811107C08091670790916807803A63
:1021F000910578F010926C0710926B0710926307AC
:102200001092650780916F00877F80936F00CE01E9
:10221000BACF809147079091480780FD08C0809110
:102220004B0790914C0790934A0780934907809100
:10223000690790916A0790936C0780936B072091D0
:102240008C0030918D008091490790914A076091F0
:102250002001709121014091430750914407880F5C
:10226000991F861B970B840F951F801B910B880F5E
:10227000991F820F931F1092440710924307909367
:102280008D0080938C00809167079091680701967C
:10229000909368078093670780914707909148075C
:1022A00001969093480780934707B1CF1F920F92F2
:1022B0000FB60F9211240F931F932F933F934F93B9
:1022C0005F936F937F938F939F93AF93BF93CF93BE
:1022D000DF93EF93FF93C0916F07D0917007E09168
:1022E0002407F0912507EC0FFD1F81818F3F09F432
:1022F00056C0E0912407F09125079081891708F0D6
:102300004EC0E0912407F091250794E2899FE00DEB
:10231000F11D112485859685019709F040C0078538
:102320001089C330D10509F05FC00E94CA04882318
:1023300021F080916407811135C084E090E0909392
:10234000700780936F0780918A0090918B00209195
:10235000220130912301220F331F821B930B800F28
:10236000911F909362078093610720918A003091BA
:102370008B008091200190912101801B910B880F8F
:10238000991F820F931F90938B0080938A0081E0A6
:1023900080935E0783E090E00E94A00410C010E0EC
:1023A00000E0BFCF1092700710926F071092640781
:1023B0001092660780916F008B7F80936F00FF9172
:1023C000EF91DF91CF91BF91AF919F918F917F91CD
:1023D0006F915F914F913F912F911F910F910F90AE
:1023E0000FBE0F901F9018950E94CA04882359F0C1
:1023F00080916407811107C08091670790916807F9
:10240000803A910578F01092700710926F07109241
:1024100064071092660780916F008B7F80936F0036
:10242000CE01BACF809147079091480780FD08C040
:1024300080914B0790914C0790934A0780934907EE
:1024400080916D0790916E079093700780936F074E
:1024500020918A0030918B008091490790914A0722
:1024600060912001709121014091450750914607EC
:10247000880F991F861B970B840F951F801B910B4C
:10248000880F991F820F931F1092460710924507DD
:1024900090938B0080938A008091670790916807E2
:1024A0000196909368078093670780914707909102
:1024B000480701969093480780934707B1CF1F9232
:1024C0000F920FB60F9211242F933F934F935F9368
:1024D0006F937F938F939F93AF93BF93EF93FF93EC
:1024E00058981092C1000E948304E2E7F0E08081D6
:1024F0008B7F8083FF91EF91BF91AF919F918F91DF
:102500007F916F915F914F913F912F910F900FBEEF
:102510000F901F9018951F920F920FB60F921124D3
:102520002F933F934F935F936F937F938F939F93DB
:10253000AF93BF93EF93FF931092C1000E94830467
:10254000E2E7F0E080818F778083FF91EF91BF9188
:10255000AF919F918F917F916F915F914F913F913B
:102560002F910F900FBE0F901F9018951F920F92F2
:102570000FB60F9211242F933F934F935F936F9356
:102580007F938F939F93AF93BF93EF93FF93589A4B
:1025900081E08093D50780937C07209122073091BA
:1025A00023078091210791E0980F9093210790E0F5
:1025B000880F991F820F931FFC01808191812091C8
:1025C0001F0730912007820F931F9093200780935D
:1025D0001F074091BE005091BF009C01255031095A
:1025E0004217530710F59093BF00CE9A80911F07B2
:1025F0008093CF00809172008064809372008091FC
:1026000072008F7D80937200FF91EF91BF91AF9127
:102610009F918F917F916F915F914F913F912F91FA
:102620000F900FBE0F901F901895589880911E0123
:1026300090911F0120911F0730912007820F931F57
:102640009093200780931F074091BE005091BF00D8
:102650009C01255031094217530778F49093BF002D
:10266000CF9A80911F078093D2008091720080687A
:10267000809372001092D507C2CF1092C1000E94C1
:102680008304F8CF1F920F920FB60F9211242F934D
:102690003F934F935F936F937F938F939F93AF93EA
:1026A000BF93EF93FF9358981092D507909121070D
:1026B00080911E0760911F0770912007981708F0FE
:1026C0006BC0409122075091230781E0890F8093CE
:1026D0002107292F30E0220F331F240F351FF90166
:1026E00080819181860F971F9093200780931F0709
:1026F0004091BE005091BF009C0125503109421706
:10270000530710F59093BF00CD9A80911F078093D7
:10271000D00080917200806280937200809172007C
:102720008F7B80937200FF91EF91BF91AF919F914A
:102730008F917F916F915F914F913F912F910F906A
:102740000FBE0F901F90189520911E0130911F0110
:10275000820F931F9093200780931F074091BE0024
:102760005091BF009C01255031094217530768F46E
:102770009093BF00CF9A80911F078093D2008091E1
:10278000720080688093720004C01092C1000E94A1
:1027900083041092D507C2CF80911E0190911F0132
:1027A000860F971F9093200780931F074091BE00CC
:1027B0005091BF009C012550310942175307C0F2C8
:1027C0001092D5071092C1000E948304A7CFE4E2C3
:1027D000F8E01382128288EE93E0A0E0B0E08483F8
:1027E0009583A683B7838FEA95E0918380838FEFEB
:1027F0009FEF95878487E4E7F8E0118210821382C7
:102800001282158214826FEB75E0CF010C94C10B1C
:10281000CF93DF93CDB7DEB7A2970FB6F894DEBFA4
:102820000FBECDBF789484B5826084BD84B58160CD
:1028300084BD85B5826085BD85B5816085BD80918B
:102840006E00816080936E00109281008091810003
:1028500082608093810080918100816080938100FB
:1028600080918000816080938000809191008260DF
:10287000809391008091910081608093910080917C
:1028800090008160809390008091C100846080936B
:10289000C1008091C10082608093C1008091C1001D
:1028A00081608093C1008091C30081608093C300E8
:1028B0008091C00082608093C0008091C2008160DE
:1028C0008093C20080917A00846080937A00809126
:1028D0007A00826080937A0080917A008160809390
:1028E0007A0080917A00806880937A0010922308A1
:1028F00010923A07109239078091D7008160809337
:10290000D70080EA8093D80089B5806189BD89B5F8
:10291000826089BD09B400FEFDCF61E070E080E017
:1029200090E00E9430018091D8008F7C806180937C
:10293000D8008091E000807F8093E0008091E100EA
:102940008E7E8093E1008DE08093E200559A209A7C
:1029500010920A081092090810920C0810920B08A5
:10296000109208088FEF9FEF909331088093300802
:1029700080EC95E00E94E605509A579A3E98469A58
:10298000F8941092FD0786E08093240188E59BE18E
:10299000909321018093200184EF91E09093230193
:1029A000809322018EE190E090931F0180931E019D
:1029B000109207081092D5071092DA0710927C0740
:1029C0001092FF071092FE0710927507109274077D
:1029D0001092770710927607109279071092780775
:1029E00010927B0710927A07109273071092720769
:1029F000109271071092700710926F0710926E0775
:102A000010926D0710926C0710926B0710926A0774
:102A10001092690710926807109267071092660774
:102A200010926507109264071092630784E0EFE547
:102A3000F7E0DF01282F1D922A95E9F710925E0733
:102A400010925D071092590710925A0710925B0777
:102A500010925C0710925507109256071092570774
:102A60001092580710925407109253071092520771
:102A70001092510710924D0710924E0710924F0777
:102A80001092500710924C0710924B0710924A0771
:102A9000109249071092480710924707E3E4F7E0C5
:102AA000DF011D928A95E9F710923B0710923C07CF
:102AB00010923D0710923E0710923F071092400778
:102AC000109241071092420778941092820010925F
:102AD00081001092800010926F008FEF86BBF894F7
:102AE000109285001092840092E090938100789477
:102AF0001092C0001092C1001092C2001092C30048
:102B00001092720089BBFE0131966F01F12CE12C0D
:102B10000E2F3D2CC7010E945B22D6018D936D01C3
:102B2000BFEFEB1AFB0AE0E2EE16F10499F7898198
:102B30009A81AB81BC818D339D43AD43BD4309F088
:102B400044C08D81CE80EF80F884A985BA85EB855D
:102B5000FC854D855E856F857889D9889D89388DFE
:102B60002A8D1CEF180FC0922401F0922301E092ED
:102B70002201B0932101A0932001F0931F01E09363
:102B80001E0140931A0150931B0160931C01709326
:102B90001D011A3008F0EAC1D0921501909314017A
:102BA000309306089F8D90930408209303088C307F
:102BB00018F09D8D909302088D3019F48E8D8093BE
:102BC000010889EC95E00E94E6058091FD078111DE
:102BD0000AC20E9460068EED95E00E94E6053699D5
:102BE00033C210920C0810920B0880910908909142
:102BF0000A08843F21E0920708F017C201969093DB
:102C00000A088093090876E1672E84E298E00E9422
:102C10002003181619060CF076C484E298E00E948E
:102C2000DE02182F89831A82E0907808F0907908E4
:102C30004FEFE41AF40AB70184E798E00E94990B79
:102C4000882391F02091740830917508809178085C
:102C500090917908602F732D820F931F0E94CF24CB
:102C6000F0927908E09278081A3079F6712CF12CFC
:102C700010E0CF2CD12C1A8219821C821B821E825A
:102C80001D826CEE75E0802F932D0E94C10B809108
:102C9000780890917908C816D90608F0EFC1A0907D
:102CA0007408B090750869817A81C5018C0D9D1DED
:102CB0000E94D624009709F4E1C18A199B09E82EE5
:102CC000802F932D0E9441065FEFE5122DC01A82DE
:102CD00019821C821B821E821D826EEB75E0802F82
:102CE000932D0E94C10B8091780890917908C816A5
:102CF000D90608F0C6C1A0907408B0907508698123
:102D00007A81C5018C0D9D1D0E94D624009709F47F
:102D1000B8C18A199B09E82E802F932D0E94410685
:102D20008FEFE81609F47AC0FE1408F077C08E2CF5
:102D3000912C8C149D0420F0892D4601CE2CD82E88
:102D40001A8219821C821B821E821D826FEB75E023
:102D5000802F932D0E94C10BA0907808B090790825
:102D60008A149B0480F5CA14DB0408F45601E09130
:102D70007408F0917508EA0DFB1D50801082C09018
:102D80007408D0907508C80CD91CC114D10479F00E
:102D9000F60101900020E9F731974F018C189D084A
:102DA000B401802F932D0E94990B81116DC1802F4A
:102DB000932D0E942F068091740890917508A80E9B
:102DC000B91ED5015C9289819A81812C912C540184
:102DD000009721F00E941F224B015C01802F932D50
:102DE0000E944106FF24F394FE0C111101C0782CBF
:102DF00071107EC2B7FC12C3113009F04DC1B8E0AA
:102E00008B169104A104B10414F4809224018091E2
:102E10000208882309F45CC3109284071F5F1531F0
:102E200009F027CF71100DC381EF95E00E94E005F6
:102E300086E190E00E94FF058CEE95E00E94E0059F
:102E4000809124010E94F2058CEE95E00E94E0053D
:102E500080912201909123010E94F9058CEE95E06A
:102E60000E94E00580912001909121010E94F905C6
:102E70008CEE95E00E94E00580911E0190911F016B
:102E80000E94F9058CEE95E00E94E00560911A0120
:102E900070911B0180911C0190911D014AE00E94DC
:102EA0009C058CEE95E00E94E005809115010E9442
:102EB000F2058CEE95E00E94E005809114010E94DD
:102EC000F2058CEE95E00E94E005809106080E94D4
:102ED000F2058CEE95E00E94E005809104080E94C6
:102EE000F2058CEE95E00E94E005809103080E94B7
:102EF000F2058CEE95E00E94E005809102080E94A8
:102F0000F2058CEE95E00E94E005809101080E9498
:102F1000F2058CEE95E00E94E005809107080E9482
:102F2000F2058CEE95E00E94E005809112010E946E
:102F3000F2058CEE95E00E94E005809100080E9469
:102F4000F2058CEE95E00E94E0058091FE079091DD
:102F5000FF070E94F9058CEE95E00E94E005809144
:102F6000FD070E94F2050E94E205DFC140931601B1
:102F7000509317016093180170931901D0921501B5
:102F800090931401909313019E8990930608909357
:102F900005089F8990930408309303082093020842
:102FA0009B8D909301089C8D90930708803128F0A9
:102FB0009D8D9093120190931101813108F401CEFF
:102FC0009E8D90930008813109F4FBCD2F8D38A19F
:102FD0003093FF072093FE07843108F4F2CD898DEA
:102FE0008093FD07EECD8091FD07813009F4F3CD8C
:102FF0008091FD07823019F40E94CF03ECCD8091BF
:10300000FD07833019F40E943A03E5CD8091FD0756
:10301000843019F40E942D05DECD8091FD078530A6
:1030200009F0D9CD0E94DB04D6CD8091080881112A
:10303000EACD81E08093080890910708913009F467
:1030400080E080930708DFCD10920A0810920908EB
:1030500080910B0890910C08883833E1930730F485
:10306000019690930C0880930B08CDCD80910808B1
:10307000882309F4C8CD10920808C5CD8FEF9FEFC3
:103080001ECE8FEF9FEF47CE9E828D82B601898143
:103090009A810E94CF248FCE123029F4909223017E
:1030A00080922201B4CE133029F4909221018092B3
:1030B0002001ADCE143029F490921F0180921E01A0
:1030C000A6CE153089F480921A0190921B01A0922D
:1030D0001C01B0921D018092160190921701A092DE
:1030E0001801B092190193CE163019F4809215018F
:1030F0008ECE173029F4809214018092130187CE6E
:10310000183029F4809206088092050880CE193084
:1031100019F4809204087BCE1A3019F480920308C7
:1031200076CE1B3019F48092020871CE1C3019F44F
:10313000809201086CCE1D3019F48092070867CE8A
:103140001E3029F4809212018092110160CE1F304E
:1031500081F48091000890E0B0E0A0E08815990526
:10316000AA05BB0509F453CE809200080E94CB0645
:103170004ECE103189F48091FE079091FF07B0E0A8
:10318000A0E088159905AA05BB0509F440CE9092E8
:10319000FF078092FE07EACF113109F038CE809107
:1031A000FD0790E0B0E0A0E088159905AA05BB05F1
:1031B00009F42DCE8091FD07811106C080917A001F
:1031C000877780937A0014C08091FD07813081F069
:1031D0008091FD078230B9F4F894809168008E7F69
:1031E0008093680080916B008F7B80936B00789454
:1031F00081149104A104B10409F04CC00E9460063E
:103200008092FD0704CE8091FD07833011F5F8947C
:10321000809168008E7F8093680080916B008F7B27
:1032200080936B0080916B008B7F80936B0080910B
:103230006B00877F80936B0080916B008D7F809304
:103240006B0078942E982A982B9829988C988498BB
:10325000CFCF8091FD07843009F4B0CF8091FD0776
:10326000853031F6F894809168008E7F80936800F5
:1032700080916B00877F80936B0080916B008D7FC6
:1032800080936B00789460EA7FE080E090E00E9499
:10329000D604DACFE1E08E169104A104B10419F44A
:1032A0000E94CB06ADCFF2E08F169104A104B104C9
:1032B00019F40E94CF03A4CF23E082169104A10445
:1032C000B10419F40E943A039BCF34E083169104B1
:1032D000A104B10419F40E942D0592CF45E0841693
:1032E0009104A104B10409F08BCF0E94DB0488CFC4
:1032F00057E0751222C0113009F090C083E08816A3
:103300009104A104B10408F089C087E090E0811421
:103310009104A104B10439F08A9489288A288B2861
:1033200049F488E090E00E94A0048EEE95E00E94AF
:10333000E60587C089E090E0F6CFA8E07A126EC07B
:103340002DE33DE3A90129833A834B835C836D829E
:10335000809124018E83809122019091230198878E
:103360008F8380912001909121019A878987809194
:103370001E0190911F019C878B8780911A0190916B
:103380001B01A0911C01B0911D018D879E87AF8705
:10339000B88B8091150190E0B0E0A0E0898B9A8B0A
:1033A000AB8BBC8B809114018D8B809106088E8B2A
:1033B000809104088F8B80910308888F8091FD078E
:1033C000898F809102088A8F809101088B8F80916C
:1033D00007088C8F809112018D8F809100088E8F4D
:1033E0008091FE079091FF0798A38F8FC02ED32C5A
:1033F000F12CE12CD601BD906D01C7010E945B222A
:10340000B81621F06B2DC7010E946322BFEFEB1AA3
:10341000FB0AE0E2EE16F10469F787CF8091FD0721
:103420008130F1F5F9E07F123BC0113009F0F6CCA4
:1034300081149104A104B10409F042C081E00E940A
:103440002E071A8219821C821B821E821D826FEB3C
:1034500075E0802F932D0E94C10B8091740890918C
:1034600075080097C9F169817A816115710591F13B
:1034700040917608509177082D813E81421753077D
:1034800048F10E94CF248D819E819093790880938A
:1034900078081E821D82802F932D0E944106B5CB95
:1034A0002AE07212BBCC113009F0B8CC42E084168D
:1034B0009104A104B10408F0B1CC8092FC0735CF8F
:1034C0008A9489288A288B2809F0BBCF80E0B7CF5F
:1034D000712CA4CC0E94802389819A8190937508D5
:1034E000809374088B819C819093770880937608F1
:1034F0008D819E8190937908809378081A82198231
:103500001C821B82C6CF8091FD0781115EC2809113
:103510000608882341F08091DA078111D5C6809191
:1035200095078111D1C68091A80789A38091A90729
:103530008AA310929107109292071092930710920B
:103540009407C0908D07D0908E07E0908F07F09081
:103550009007C114D104E104F10409F0D7C048E890
:10356000842E47E0942E5AE8E52E57E0F52E66E8C3
:10357000A62E67E0B62ED12CC12C552453946C2C6A
:1035800080918C07882339F1E1E2F0E0EC0FFD1F18
:10359000EC0DFD1D9081F601E456F84F80819817DF
:1035A00008F484C08C2D852590E0A1E2B0E0AC0F3A
:1035B000BD1FA80FB91FFC01E856F84F3C912081B0
:1035C000D701231708F476C02C912F5F2C938657D0
:1035D000984FFC011082F7018081833040F4909174
:1035E000FC07992309F451C0823009F04EC0D40180
:1035F0007C9071104AC05C928091910790919207E3
:10360000A0919307B0919407892B8A2B8B2B51F4AF
:103610000E940B0160939107709392078093930728
:1036200090939407F501108280918507F601EE577B
:10363000F84F861104C08091840781113DC010822B
:103640001092810710928007F5018081882309F488
:103650000AC58091910790919207A0919307B0912C
:10366000940740911A0150911B0160911C017091C7
:103670001D01840F951FA61FB71F80938D07909380
:103680008E07A0938F07B0939007FFEF8F1A9F0AC2
:103690002FEFE21AF20A3FEFA31AB30ACA94CD2819
:1036A00009F418C5CC24C394D12C69CFD7011C923E
:1036B000F40190CF1C928FCF50828091B0079091EF
:1036C000B10701969093B1078093B007809180076E
:1036D0009091810701969093810780938007409095
:1036E000020820910408222309F4BBC480FF08C00B
:1036F000442011F0019739F48DEF95E00E94E60522
:10370000442009F4A1CFD5015C929ECF0E940B0109
:103710006093910770939207809393079093940717
:103720006C157D058E059F0508F4D4C46C197D09C0
:103730008E099F09611577488349934008F0CAC4F0
:1037400010928D0710928E0710928F07109290079B
:10375000C1C480E8E9C490E0FFC486399105A105A1
:10376000B10509F465C040F58D379105A105B10596
:1037700009F4C3C08091B6079091B707A091B8072C
:10378000B091B9070196A11DB11D853FE1E09E07EB
:10379000A105B10508F0F5C08093B6079093B7076F
:1037A000A093B807B093B90780E090E0892B09F4A3
:1037B00016CA0E94000013CA8F3A9105A105B105EF
:1037C00009F4A0C0883C9105A105B10599F689E7E7
:1037D00096E00E94E0058091A2079AC0873741E0F9
:1037E0009407A105B10509F4B7C048F58331E1E0BC
:1037F0009E07A105B10509F495C068F48A3F9105BB
:10380000A105B10509F0B6CF86E896E00E94E00573
:1038100080919A077DC0853421E09207A105B1050A
:1038200009F497C08E359140A105B10509F0A2CFEA
:1038300082E696E00E94E00590E080E039C0893A97
:1038400041E09407A105B10509F48DC068F4803901
:103850009140A105B10509F08DCF89E796E00E945E
:10386000E0058091A30754C0823CF1E09F07A105C9
:10387000B10509F47FC08B3D9140A105B10509F068
:1038800079CF8EE896E00E94E005809197070E942C
:10389000F2050E94E20584EF91E0A0E0B0E024C0D0
:1038A00080E096E00E94E0058091B2079091B30716
:1038B0000E94F9055FCF80E296E00E94E0058091CA
:1038C000AE079091AF07F4CF83E396E00E94E00546
:1038D0008091AA079091AB070E94F9050E94E2052A
:1038E00084E690E0A0E0B0E08093B6079093B7073D
:1038F000A093B807B093B9073DCF86E496E00E9445
:10390000E00538CF8FE696E00E94E0058091A6079B
:103910000E94F2052FCF80E896E00E94E00580919A
:103920009E07F6CF8EE896E00E94E005809196070C
:103930000E94F2050E94E2052CE231E040E050E0F6
:103940002093B6073093B7074093B8075093B90751
:1039500011CF86E996E0D3CF8FE696E00E94E0058E
:103960008091A707D5CF80E896E00E94E00580917E
:103970009F07CECF86E896E00E94E00580919B07E6
:10398000C7CF1092B6071092B7071092B8071092DF
:10399000B907F0E4CF0EFBE4DF1EFCE4EF1EF11CE0
:1039A000C092F407D092F507E092F607F092F7077D
:1039B000FBCE0E9478030E94490620E4C20E2BE44D
:1039C000D21E2CE4E21EF11CEBCF8091FD07833068
:1039D00009F05BC00E946201AB01BC014093C207C9
:1039E0005093C3076093C4077093C5078091BE07C7
:1039F0009091BF07A091C007B091C1078054984D26
:103A0000A64FBF4F84179507A607B70710F58091FB
:103A1000BA079091BB07A091BC07B091BD07805435
:103A2000984DA64FBF4F84179507A607B70788F490
:103A30008C988091C2079091C307A091C407B09160
:103A4000C5078093BA079093BB07A093BC07B093B8
:103A5000BD078091BA079091BB07A091BC07B091B8
:103A6000BD0788579C4EAF4FBF4F4091C207509142
:103A7000C3076091C4077091C50784179507A6070F
:103A8000B70708F091CE8C9A8FCE8091FD078430D5
:103A900009F07DC2F8942091DB07B090E007109206
:103AA000E007789480910508882309F4C1C0F89450
:103AB0008091DA07882391F08AE090E0A0E0B0E0FE
:103AC0008093D6079093D707A093D807B093D907D0
:103AD0008091D507811102C01092DA077894809105
:103AE000D6079091D707A091D807B091D907009732
:103AF000A105B10509F49CC00197A109B109809302
:103B0000D6079093D707A093D807B093D907809191
:103B10000308882309F448CE0E940B016093F8073C
:103B20007093F9078093FA079093FB07C090F4070E
:103B3000D090F507E090F607F090F7076C157D053B
:103B40008E059F0508F430CE81EB96E00E94E005DB
:103B500089E796E00E94E0058091E6070E94F20561
:103B600080E896E00E94E005809110010E94F20535
:103B700080EC96E00E94E00580910F010E94F20522
:103B80008EEC96E00E94E0058091E5070E94F20528
:103B90008BED96E00E94E0056091E1077091E207ED
:103BA0008091E3079091E4074AE00E949C0584EE2F
:103BB00096E00E94E0058091E0070E94F20588EF00
:103BC00096E00E94E0058091DE079091DF070E9459
:103BD000F90587E097E00E94E0058091DC0790916D
:103BE000DD070E94FF0580E197E00E94E0058091DB
:103BF0000E016CE4813009F062E584E298E00E94F5
:103C0000B9020E94E2058091F8079091F907A0910E
:103C1000FA07B091FB07805C944BA34BBF4F809396
:103C2000F4079093F507A093F607B093F707BCCD80
:103C30008091D3079091D40701969093D4078093F5
:103C4000D3073091E607321708F4322F3093E60796
:103C500030911001231708F4322F30931001209176
:103C6000D1073091D2072817390708F047C0F894D8
:103C7000F0911301E091E6078091100190E02FEFA1
:103C800030E0B9016F1B7109689FA001699F500D59
:103C9000789F500D1124FE9F400D511D112450930B
:103CA0000F0160911101261B3109289FA001299F56
:103CB000500D389F500D1124E69F400D511D1124C9
:103CC0005093E50778948091D1079091D20780585E
:103CD000974C9093D2078093D1071092D4071092FB
:103CE000D3078091E6078093D007809110018093DD
:103CF0000D011092E6078FEF809310010E940B01D7
:103D00006B017C018091D0078A3008F400CF90913C
:103D10000D01891B990B4E970CF4F9CE8091CC07BD
:103D20009091CD07A091CE07B091CF070097A10544
:103D3000B10571F0C816D906EA06FB0608F4E7CE0D
:103D40001092CC071092CD071092CE071092CF0799
:103D5000BB2009F4DCCE8090E1079090E207A090B0
:103D6000E307B090E4079FEF891A990AA90AB90AF4
:103D70008092E1079092E207A092E307B092E407F5
:103D80008091C8079091C907A091CA07B091CB074D
:103D9000A7019601281B390B4A0B5B0BDA01C901FD
:103DA0002091DE073091DF07AC01BD01421B530BB0
:103DB00061097109413D37E05307610571050CF454
:103DC0005BC0E0910E01F1E08F169104A104B104F3
:103DD00009F062C01092DD071092DC0780E040918C
:103DE00016015091170160911801709119014C0D45
:103DF0005D1D6E1D7F1D4093CC075093CD076093D2
:103E0000CE077093CF07C092C807D092C907E0923F
:103E1000CA07F092CB07882309F479CE80910E016E
:103E2000813029F58091DE079091DF07853A48E3DC
:103E3000940708F09DC08D3B54E3950708F09BC0A4
:103E4000893FAAE29A0708F099C08131B7E29B073F
:103E500008F097C081349F4108F496C082E490E056
:103E6000880F991F880F991F05970197F1F7809187
:103E70000C010E942E074BCEE0E04F315105610549
:103E800071050CF0A0CF423EEFEF5E076E077E0794
:103E90000CF097CFE1E097CF22E082169104A104C5
:103EA000B10409F03FC0853A38E39307A105B10595
:103EB000A0F02BE131E43093DF072093DE079093ED
:103EC000C7078093C6075093DD074093DC07E09354
:103ED0000E01E0930C0181E082CF24ED30E38D3BB5
:103EE000F4E39F07A105B10530F7893F2AE2920765
:103EF000A105B10518F021EB38E2DDCF813137E2C1
:103F00009307A105B10518F020E137E2D4CF2DE8E1
:103F100030E28134FFE19F07A105B10560F620E2A0
:103F20003BE1C9CF20910E01E2130FC04A015B01B2
:103F300026E9820E911CA11CB11C3DE2831631E0E2
:103F40009306A104B10408F4BECF2091C6073091B6
:103F5000C7074C015D01820E931EA11CB11CB694D3
:103F6000A794979487949092DF078092DE07A7CF5B
:103F700084E890E075CF83E690E072CF82E590E030
:103F80006FCF8FE490E06CCF87E390E069CF8091B2
:103F9000FD07853009F008CC0E9462016B017C01AD
:103FA000F894C092F007D092F107E092F207F092F5
:103FB000F3078091EC079091ED07A091EE07B09187
:103FC000EF0778942091EB0721112BC0805D9A4870
:103FD000AF4FBF4F8C159D05AE05BF0510F5809105
:103FE000E7079091E807A091E907B091EA07805DA3
:103FF0009A48AF4FBF4F8C159D05AE05BF0588F49D
:1040000060EA7FE080E090E00E94D604C092E7077B
:10401000D092E807E092E907F092EA0781E0809306
:10402000EB078091EB07813009F0BECB8091E70769
:104030009091E807A091E907B091EA078856954C5E
:10404000AF4FBF4F8C159D05AE05BF0508F0ACCB3B
:1040500068EC70E080E090E00E94D6041092EB07DC
:10406000A3CB411050CB80910208882351F080915E
:10407000840777247394882321F080918507861123
:10408000712C60928507FF24F394F09284077110DD
:1040900021C08091910790919207A0919307B091D0
:1040A000940740911A0150911B0160911C0170917D
:1040B0001D01840F951FA61FB71F80938D07909336
:1040C0008E07A0938F07B0939007862D0E942E072E
:1040D000F0927F078091FC07882309F4CDC08FE020
:1040E000EBE2F1E0A02FB32D01900D928A95E1F75C
:1040F0008091910790919207A0919307B0919407B6
:10410000892B8A2B8B2B51F40E940B016093910712
:1041100070939207809393079093940780918307FD
:10412000882309F416CB80EA9091870740E191112A
:1041300001C040E09091890738E0911101C030E062
:104140009091820724E0911101C020E090918607B0
:10415000992309F400CB92E050918807852B842B9A
:10416000832B822B892B8C8380918C0738E88111DB
:1041700001C030E88091850724E0813009F020E01B
:1041800080917F0792E0811101C090E081E0409131
:104190008D0750918E0760918F0770919007452B86
:1041A000462B472B09F480E0832B822B892B8D83B0
:1041B0008091800780688E8329A1822F86958695BD
:1041C00080688F838AA190E2299F90011124207634
:1041D000982F9695969596959068292B28874091CB
:1041E000910750919207609193077091940782957F
:1041F000807F282F2077DB01CA01ECE1B695A795D7
:1042000097958795EA95D1F7822B80688987DB019E
:10421000CA01F5E1B695A79597958795FA95D1F7D7
:1042200080688A87DB01CA011EE0B695A79597953D
:1042300087951A95D1F780688B87DB01CA0127E043
:10424000B695A795979587952A95D1F780688C871D
:1042500040684D874FE050E0602F732D84E298E076
:104260000E94340210927F071092830710928707F2
:1042700010928207109286072091B4073091B507FB
:1042800089A180937D079091A407981710F48093DB
:10429000A4079091A007891710F48093A0078AA122
:1042A00080937E079091A507981710F48093A50737
:1042B0009091A107891710F48093A1072E5F3F4FBB
:1042C0003093B5072093B407809106088130C1F47C
:1042D000F8948091DA07882349F08AE08093950763
:1042E0008091D507811102C01092DA0778948091ED
:1042F0009507882329F08091950781508093950731
:104300000E940B016B017C01C092F807D092F90763
:10431000E092FA07F092FB078091F4079091F5077D
:10432000A091F607B091F707C816D906EA06FB0672
:1043300008F43ACAA7019601281B390B4A0B5B0BFC
:10434000DA01C90181159748A349B34008F02CCA86
:1043500080910308882309F42CCB8091B6079091B3
:10436000B707A091B807B091B907813E9105A105A3
:10437000B10509F4D0CA08F031CA8B349105A10502
:10438000B10509F4A1CA08F0E8C989319105A10570
:10439000B10509F485CA82339105A105B10509F477
:1043A0008ACA892B8A2B8B2B09F0E4C98091B40728
:1043B0009091B5079093B3078093B2078091B007AF
:1043C0009091B1079093AF078093AE078091AC07AF
:1043D0009091AD079093AB078093AA078091A807AF
:1043E0008093A6078091A4078093A2078091A007DD
:1043F00080939E0780919C0780939A0780919807ED
:10440000809396078091A9078093A7078091A507BD
:104410008093A3078091A10780939F0780919D07B8
:1044200080939B0780919907809397070E94780358
:104430000E9449069FC984E798E00C9441061F93A7
:10444000FC0199278827BC01E89411911032E9F307
:10445000193010F01E30C8F31B3251F01D3249F4F0
:10446000689406C00E944622610F711D811D911D36
:10447000119110531A30B0F33EF4909580957095D9
:1044800061957F4F8F4F9F4F1F910895592F482F50
:10449000372F262F660F771F881F991F660F771FEC
:1044A000881F991F620F731F841F951F660F771F48
:1044B000881F991F0895F999FECF92BD81BDF89A82
:1044C000992780B50895262FF999FECF1FBA92BD7E
:1044D00081BD20BD0FB6F894FA9AF99A0FBE0196E5
:1044E00008952F923F924F925F926F927F928F9298
:1044F0009F92AF92BF92CF92DF92EF92FF920F9373
:104500001F93CF93DF93CDB7DEB7CA1BDB0B0FB67C
:10451000F894DEBF0FBECDBF09942A883988488839
:104520005F846E847D848C849B84AA84B984C884CF
:10453000DF80EE80FD800C811B81AA81B981CE0FC6
:10454000D11D0FB6F894DEBF0FBECDBFED010895AB
:10455000AA1BBB1B51E107C0AA1FBB1FA617B707A9
:1045600010F0A61BB70B881F991F5A95A9F78095C5
:104570009095BC01CD010895A1E21A2EAA1BBB1B88
:10458000FD010DC0AA1FBB1FEE1FFF1FA217B3071F
:10459000E407F50720F0A21BB30BE40BF50B661F35
:1045A000771F881F991F1A9469F7609570958095F9
:1045B00090959B01AC01BD01CF010895EE0FFF1F47
:1045C0000590F491E02D09940F931F93CF93DF93FF
:1045D0008230910510F482E090E0E0917C08F09147
:1045E0007D0830E020E0B0E0A0E0309799F421159C
:1045F000310509F44AC0281B390B24303105D8F5A0
:104600008A819B816115710589F1FB019383828306
:10461000FE0111C040815181028113814817590761
:10462000E0F04817590799F4109761F012960C932F
:10463000129713961C933296CF01DF91CF911F9161
:104640000F91089500937C0810937D08F4CF2115F5
:10465000310551F04217530738F0A901DB019A01E7
:10466000BD01DF01F801C1CFEF01F9CF90937D08C3
:1046700080937C08CDCFFE01E20FF31F81939193CD
:104680002250310939832883D7CF20917A0830917D
:104690007B08232B41F4209127013091280130938E
:1046A0007B0820937A08209125013091260121155D
:1046B000310541F42DB73EB74091290150912A01AF
:1046C000241B350BE0917A08F0917B08E217F30781
:1046D000A0F42E1B3F0B2817390778F0AC014E5F72
:1046E0005F4F2417350748F04E0F5F1F50937B082C
:1046F00040937A08819391939FCFF0E0E0E09CCFC4
:10470000CF93DF930097E9F0FC0132971382128276
:10471000A0917C08B0917D08ED0130E020E0109779
:10472000A1F420813181820F931F20917A0830916A
:104730007B082817390709F061C0F0937B08E093E4
:104740007A08DF91CF910895EA01CE17DF07E8F5E7
:104750004A815B819E0141155105B1F7E901FB8357
:10476000EA8349915991C40FD51FEC17FD0761F4F5
:10477000808191810296840F951FE9019983888336
:10478000828193819B838A83F0E0E0E012968D9191
:104790009C9113970097B9F52D913C911197CD01FC
:1047A0000296820F931F20917A0830917B08281778
:1047B000390739F6309751F510927D0810927C0830
:1047C000B0937B08A0937A08BCCFD383C283408187
:1047D0005181840F951FC817D90761F44E5F5F4F51
:1047E00088819981480F591F518340838A819B8119
:1047F000938382832115310509F0B0CFF0937D08B2
:10480000E0937C089ECFFD01DC01C0CF13821282B1
:10481000D7CFB0E0A0E0EFE0F4E20C9473228C017B
:10482000009751F4CB010E94E4228C01C801CDB75E
:10483000DEB7E0E10C948F22FC01E60FF71F9C012C
:1048400022503109E217F30708F49DC0D901CD9138
:10485000DC911197C617D70798F0C530D10530F312
:10486000CE0104978617970708F3C61BD70B22972C
:10487000C193D1936D937C93CF010E948023D6CFB7
:104880005B01AC1ABD0A4C018C0E9D1EA0917C08E8
:10489000B0917D08512C412CF12CE12C109731F571
:1048A00080917A0890917B088815990509F05CC081
:1048B0004616570608F058C08091250190912601B0
:1048C000009741F48DB79EB74091290150912A017C
:1048D000841B950BE817F90708F055C0F0937B0887
:1048E000E0937A08F90171836083A0CF8D919C9148
:1048F000119712966C90129713967C901397A815A7
:10490000B90559F56C0142E0C40ED11CCA14DB0490
:1049100020F1AC014A195B09DA011296159780F073
:104920006282738251834083D9016D937C93E11439
:10493000F10471F0D7011396FC93EE93129776CFA2
:1049400022968C0F9D1FF90191838083F301EFCF95
:10495000F0937D08E0937C0869CF4816590608F467
:104960002C017D01D3019ACFCB010E94E4227C016E
:10497000009749F0AE01B8010E94C624C8010E9408
:104980008023870153CF10E000E050CFFB01DC0112
:1049900002C001900D9241505040D8F70895FB019C
:1049A000DC0101900D920020E1F70895FB01519187
:1049B0005523A9F0BF01DC014D9145174111E1F7E5
:1049C00059F4CD010190002049F04D91401541115D
:1049D000C9F3FB014111EFCF81E090E00197089509
:1049E00010E0C1E9D0E004C0FE010E94DE22219661
:0A49F000C239D107C9F7F894FFCFD0
:1049FA00FFFFFFFF00E100000000000001FF01FFD0
:104A0A00FF402080800A64190000641900001E001B
:104A1A00581BF4010600007E0880002B6F2000005E
:104A2A0000000000000000000D0A02FFFFFFFFFF68
:104A3A00FFFFFFFFFF000100001400010014000047
:104A4A00000000000000000000000000000000005C
:104A5A0000000000000000000000000000CD00037C
:104A6A000000007D001400000000000000000000AB
:104A7A000000000000000000000000000000000923
:104A8A00FF000102030405060708FFFF0000DC001F
:104A9A0007001400140014003C0014003C00140029
:104AAA0000000000000000000000000000000000FC
:104ABA000000DC00070014003C0014003C00140055
:104ACA0014001400000000000000000000000000B4
:104ADA00000000000000DC00070014003C00140085
:104AEA00140014003C001400000000000000000044
:104AFA0000000000000000000000DC0007001400B5
:104B0A0014001400640014001400140000000000D3
:104B1A000000000000000000000000000000DC00AF
:104B2A000700140064001400140014001400140098
:104B3A00000000000000000000000000000000006B
:104B4A000000040107001400640014003C00140073
:104B5A001400140000000000000000000000000023
:104B6A00000000000000900107001400C8001400B3
:104B7A0064001400C80014000000000000000000D7
:104B8A000000000000000000000068010700140097
:104B9A00C80014003C001400C80014000000000003
:104BAA0000000000000000000000000000004001BA
:104BBA0007001400C800140014001400C8001400F0
:104BCA0000000000000000000000000000000000DB
:104BDA0009FF00010203FFFFFFFFFFFFFF0000DCE8
:104BEA000007001400140014003C0014003C0014D8
:104BFA0000000000000000000000000000000000AB
:104C0A00000000DC00070014003C0014003C001403
:104C1A000014001400000000000000000000000062
:104C2A0000000000000000DC00070014003C001433
:104C3A0000140014003C00140000000000000000F2
:104C4A000000000000000000000000DC0007001463
:104C5A000014001400640014001400140000000082
:104C6A000000000000000000000000000004FF0037
:104C7A00010203FFFFFFFFFFFFFF00001C02090004
:104C8A00140014001400140014007C011400140011
:104C9A0014000000000000000000000000000000F6
:104CAA00CC010900140014001400140014002C0193
:104CBA0014001400140000000000000000000000AE
:104CCA00000000007C010900140014001400140004
:104CDA001400DC001400140014000000000000009E
:104CEA0000000000000000002C010900140014005C
:104CFA001400140014008C001400140014000000A6
:104D0A000000000000000000000002FFFFFFFFFF9C
:104D1A00FFFFFFFFFF000100001C020F0014001438
:104D2A0000140014001400500014008C0014001425
:104D3A0000140050001400140014000000B8010F01
:104D4A0000140014001400140014003C0014003C69
:104D5A00001400140014005000140014001400047D
:104D6A00FF00010203FFFFFFFFFFFFFF01006400D6
:104D7A00030017002E001F000000000000000000C2
:104D8A000000000000000000000000000000000019
:104D9A0001008D00030017004E00280000000000EB
:104DAA0000000000000000000000000000000000F9
:104DBA000000000001002B0001002B000000000091
:104DCA0000000000000000000000000000000000D9
:104DDA00000000000000000001004400030017006A
:104DEA00150018000000000000000000000000008C
:104DFA0000000000000000000000000002FFFFFFAA
:104E0A00FFFFFFFFFFFFFF000100005E0005001229
:104E1A00001400120014001200000000000000003C
:104E2A000000000000000000000000000000006018
:104E3A0000030012003C0012000000000000000005
:104E4A000000000000000000000000000000000058
:104E5A000001FFFFFFFFFFFFFFFFFFFF00FF000052
:104E6A00420005000E000C000E000C000E000000AF
:104E7A000000000000000000000000000000000028
:104E8A00000061050C056F041A047D03E0028F011E
:104E9A003A01070600C1808100000000000000B945
:104EAA00023402DA02CF022003DE02FC020D0A00FB
:104EBA002B7374617274757000656570726F6D2002
:104ECA00726561645F73657474696E677300696E95
:104EDA00697420636F6D706C657465002C004F4BAC
:104EEA0000706172616D657465727320002B6400D5
:104EFA002B73746174732067656E6572616C2072BE
:104F0A00656164696E675F636F756E7465723A0096
:104F1A00206475706C69636174655F6672616D6542
:104F2A00733A00207072656D61747572655F66729E
:104F3A00616D65733A002B73746174732073656EC7
:104F4A00736F72206368616E6E656C3A7269676826
:104F5A00740020646574656374696F6E733A002027
:104F6A0072656164696E673A0020686967683A0029
:104F7A00206C6F773A00207468725F683A00207478
:104F8A0068725F6C3A002B73746174732073656E78
:104F9A00736F72206368616E6E656C3A6C656674D5
:104FAA00002B737461747320646C706C696E6B008F
:104FBA00207468726573685F686967683A0020746C
:104FCA0068726573685F6C6F773A002070756C73EE
:104FDA0065733A002070756C73655F7769647468ED
:104FEA005F636F756E743A0020626173656C696EF7
:104FFA00655F6573743A00206A69747465723A0071
:0C500A00206C6173745F6579653A0000EA
:00000001FF
